{
  "contracts/mocks/MockV3Aggregator.sol": {
    "MockV3Aggregator": {
      "abi": [
        {
          "inputs": [
            {
              "internalType": "uint8",
              "name": "_decimals",
              "type": "uint8"
            },
            {
              "internalType": "int256",
              "name": "_initialAnswer",
              "type": "int256"
            }
          ],
          "stateMutability": "nonpayable",
          "type": "constructor"
        },
        {
          "inputs": [],
          "name": "decimals",
          "outputs": [
            {
              "internalType": "uint8",
              "name": "",
              "type": "uint8"
            }
          ],
          "stateMutability": "view",
          "type": "function"
        },
        {
          "inputs": [],
          "name": "description",
          "outputs": [
            {
              "internalType": "string",
              "name": "",
              "type": "string"
            }
          ],
          "stateMutability": "pure",
          "type": "function"
        },
        {
          "inputs": [
            {
              "internalType": "uint80",
              "name": "_roundId",
              "type": "uint80"
            }
          ],
          "name": "getRoundData",
          "outputs": [
            {
              "internalType": "uint80",
              "name": "roundId",
              "type": "uint80"
            },
            {
              "internalType": "int256",
              "name": "answer",
              "type": "int256"
            },
            {
              "internalType": "uint256",
              "name": "startedAt",
              "type": "uint256"
            },
            {
              "internalType": "uint256",
              "name": "updatedAt",
              "type": "uint256"
            },
            {
              "internalType": "uint80",
              "name": "answeredInRound",
              "type": "uint80"
            }
          ],
          "stateMutability": "view",
          "type": "function"
        },
        {
          "inputs": [],
          "name": "latestRoundData",
          "outputs": [
            {
              "internalType": "uint80",
              "name": "roundId",
              "type": "uint80"
            },
            {
              "internalType": "int256",
              "name": "answer",
              "type": "int256"
            },
            {
              "internalType": "uint256",
              "name": "startedAt",
              "type": "uint256"
            },
            {
              "internalType": "uint256",
              "name": "updatedAt",
              "type": "uint256"
            },
            {
              "internalType": "uint80",
              "name": "answeredInRound",
              "type": "uint80"
            }
          ],
          "stateMutability": "view",
          "type": "function"
        },
        {
          "inputs": [],
          "name": "version",
          "outputs": [
            {
              "internalType": "uint256",
              "name": "",
              "type": "uint256"
            }
          ],
          "stateMutability": "pure",
          "type": "function"
        }
      ],
      "evm": {
        "bytecode": {
          "linkReferences": {},
          "object": "608060405234801561001057600080fd5b50604051610520380380610520833981810160405281019061003291906100dd565b816000806101000a81548160ff021916908360ff16021790555080600181905550426002819055506001600381905550505061011d565b600080fd5b600060ff82169050919050565b6100848161006e565b811461008f57600080fd5b50565b6000815190506100a18161007b565b92915050565b6000819050919050565b6100ba816100a7565b81146100c557600080fd5b50565b6000815190506100d7816100b1565b92915050565b600080604083850312156100f4576100f3610069565b5b600061010285828601610092565b9250506020610113858286016100c8565b9150509250929050565b6103f48061012c6000396000f3fe608060405234801561001057600080fd5b50600436106100575760003560e01c8063313ce5671461005c57806354fd4d501461007a5780637284e416146100985780639a6fc8f5146100b6578063feaf968c146100ea575b600080fd5b61006461010c565b60405161007191906101ce565b60405180910390f35b610082610122565b60405161008f9190610202565b60405180910390f35b6100a0610127565b6040516100ad91906102ad565b60405180910390f35b6100d060048036038101906100cb9190610316565b610164565b6040516100e195949392919061036b565b60405180910390f35b6100f261018a565b60405161010395949392919061036b565b60405180910390f35b60008060009054906101000a900460ff16905090565b600090565b60606040518060400160405280601281526020017f4d6f636b2056332041676772656761746f720000000000000000000000000000815250905090565b600080600080600085600154600254600254899450945094509450945091939590929450565b6000806000806000600354600154600254600254600354945094509450945094509091929394565b600060ff82169050919050565b6101c8816101b2565b82525050565b60006020820190506101e360008301846101bf565b92915050565b6000819050919050565b6101fc816101e9565b82525050565b600060208201905061021760008301846101f3565b92915050565b600081519050919050565b600082825260208201905092915050565b60005b8381101561025757808201518184015260208101905061023c565b60008484015250505050565b6000601f19601f8301169050919050565b600061027f8261021d565b6102898185610228565b9350610299818560208601610239565b6102a281610263565b840191505092915050565b600060208201905081810360008301526102c78184610274565b905092915050565b600080fd5b600069ffffffffffffffffffff82169050919050565b6102f3816102d4565b81146102fe57600080fd5b50565b600081359050610310816102ea565b92915050565b60006020828403121561032c5761032b6102cf565b5b600061033a84828501610301565b91505092915050565b61034c816102d4565b82525050565b6000819050919050565b61036581610352565b82525050565b600060a0820190506103806000830188610343565b61038d602083018761035c565b61039a60408301866101f3565b6103a760608301856101f3565b6103b46080830184610343565b969550505050505056fea2646970667358221220bafe53b09869e993e41e735089508286ead7517c7a1a9c4b0fac5639a2e5187264736f6c634300081c0033",
          "opcodes": "PUSH1 0x80 PUSH1 0x40 MSTORE CALLVALUE DUP1 ISZERO PUSH2 0x10 JUMPI PUSH1 0x0 DUP1 REVERT JUMPDEST POP PUSH1 0x40 MLOAD PUSH2 0x520 CODESIZE SUB DUP1 PUSH2 0x520 DUP4 CODECOPY DUP2 DUP2 ADD PUSH1 0x40 MSTORE DUP2 ADD SWAP1 PUSH2 0x32 SWAP2 SWAP1 PUSH2 0xDD JUMP JUMPDEST DUP2 PUSH1 0x0 DUP1 PUSH2 0x100 EXP DUP2 SLOAD DUP2 PUSH1 0xFF MUL NOT AND SWAP1 DUP4 PUSH1 0xFF AND MUL OR SWAP1 SSTORE POP DUP1 PUSH1 0x1 DUP2 SWAP1 SSTORE POP TIMESTAMP PUSH1 0x2 DUP2 SWAP1 SSTORE POP PUSH1 0x1 PUSH1 0x3 DUP2 SWAP1 SSTORE POP POP POP PUSH2 0x11D JUMP JUMPDEST PUSH1 0x0 DUP1 REVERT JUMPDEST PUSH1 0x0 PUSH1 0xFF DUP3 AND SWAP1 POP SWAP2 SWAP1 POP JUMP JUMPDEST PUSH2 0x84 DUP2 PUSH2 0x6E JUMP JUMPDEST DUP2 EQ PUSH2 0x8F JUMPI PUSH1 0x0 DUP1 REVERT JUMPDEST POP JUMP JUMPDEST PUSH1 0x0 DUP2 MLOAD SWAP1 POP PUSH2 0xA1 DUP2 PUSH2 0x7B JUMP JUMPDEST SWAP3 SWAP2 POP POP JUMP JUMPDEST PUSH1 0x0 DUP2 SWAP1 POP SWAP2 SWAP1 POP JUMP JUMPDEST PUSH2 0xBA DUP2 PUSH2 0xA7 JUMP JUMPDEST DUP2 EQ PUSH2 0xC5 JUMPI PUSH1 0x0 DUP1 REVERT JUMPDEST POP JUMP JUMPDEST PUSH1 0x0 DUP2 MLOAD SWAP1 POP PUSH2 0xD7 DUP2 PUSH2 0xB1 JUMP JUMPDEST SWAP3 SWAP2 POP POP JUMP JUMPDEST PUSH1 0x0 DUP1 PUSH1 0x40 DUP4 DUP6 SUB SLT ISZERO PUSH2 0xF4 JUMPI PUSH2 0xF3 PUSH2 0x69 JUMP JUMPDEST JUMPDEST PUSH1 0x0 PUSH2 0x102 DUP6 DUP3 DUP7 ADD PUSH2 0x92 JUMP JUMPDEST SWAP3 POP POP PUSH1 0x20 PUSH2 0x113 DUP6 DUP3 DUP7 ADD PUSH2 0xC8 JUMP JUMPDEST SWAP2 POP POP SWAP3 POP SWAP3 SWAP1 POP JUMP JUMPDEST PUSH2 0x3F4 DUP1 PUSH2 0x12C PUSH1 0x0 CODECOPY PUSH1 0x0 RETURN INVALID PUSH1 0x80 PUSH1 0x40 MSTORE CALLVALUE DUP1 ISZERO PUSH2 0x10 JUMPI PUSH1 0x0 DUP1 REVERT JUMPDEST POP PUSH1 0x4 CALLDATASIZE LT PUSH2 0x57 JUMPI PUSH1 0x0 CALLDATALOAD PUSH1 0xE0 SHR DUP1 PUSH4 0x313CE567 EQ PUSH2 0x5C JUMPI DUP1 PUSH4 0x54FD4D50 EQ PUSH2 0x7A JUMPI DUP1 PUSH4 0x7284E416 EQ PUSH2 0x98 JUMPI DUP1 PUSH4 0x9A6FC8F5 EQ PUSH2 0xB6 JUMPI DUP1 PUSH4 0xFEAF968C EQ PUSH2 0xEA JUMPI JUMPDEST PUSH1 0x0 DUP1 REVERT JUMPDEST PUSH2 0x64 PUSH2 0x10C JUMP JUMPDEST PUSH1 0x40 MLOAD PUSH2 0x71 SWAP2 SWAP1 PUSH2 0x1CE JUMP JUMPDEST PUSH1 0x40 MLOAD DUP1 SWAP2 SUB SWAP1 RETURN JUMPDEST PUSH2 0x82 PUSH2 0x122 JUMP JUMPDEST PUSH1 0x40 MLOAD PUSH2 0x8F SWAP2 SWAP1 PUSH2 0x202 JUMP JUMPDEST PUSH1 0x40 MLOAD DUP1 SWAP2 SUB SWAP1 RETURN JUMPDEST PUSH2 0xA0 PUSH2 0x127 JUMP JUMPDEST PUSH1 0x40 MLOAD PUSH2 0xAD SWAP2 SWAP1 PUSH2 0x2AD JUMP JUMPDEST PUSH1 0x40 MLOAD DUP1 SWAP2 SUB SWAP1 RETURN JUMPDEST PUSH2 0xD0 PUSH1 0x4 DUP1 CALLDATASIZE SUB DUP2 ADD SWAP1 PUSH2 0xCB SWAP2 SWAP1 PUSH2 0x316 JUMP JUMPDEST PUSH2 0x164 JUMP JUMPDEST PUSH1 0x40 MLOAD PUSH2 0xE1 SWAP6 SWAP5 SWAP4 SWAP3 SWAP2 SWAP1 PUSH2 0x36B JUMP JUMPDEST PUSH1 0x40 MLOAD DUP1 SWAP2 SUB SWAP1 RETURN JUMPDEST PUSH2 0xF2 PUSH2 0x18A JUMP JUMPDEST PUSH1 0x40 MLOAD PUSH2 0x103 SWAP6 SWAP5 SWAP4 SWAP3 SWAP2 SWAP1 PUSH2 0x36B JUMP JUMPDEST PUSH1 0x40 MLOAD DUP1 SWAP2 SUB SWAP1 RETURN JUMPDEST PUSH1 0x0 DUP1 PUSH1 0x0 SWAP1 SLOAD SWAP1 PUSH2 0x100 EXP SWAP1 DIV PUSH1 0xFF AND SWAP1 POP SWAP1 JUMP JUMPDEST PUSH1 0x0 SWAP1 JUMP JUMPDEST PUSH1 0x60 PUSH1 0x40 MLOAD DUP1 PUSH1 0x40 ADD PUSH1 0x40 MSTORE DUP1 PUSH1 0x12 DUP2 MSTORE PUSH1 0x20 ADD PUSH32 0x4D6F636B2056332041676772656761746F720000000000000000000000000000 DUP2 MSTORE POP SWAP1 POP SWAP1 JUMP JUMPDEST PUSH1 0x0 DUP1 PUSH1 0x0 DUP1 PUSH1 0x0 DUP6 PUSH1 0x1 SLOAD PUSH1 0x2 SLOAD PUSH1 0x2 SLOAD DUP10 SWAP5 POP SWAP5 POP SWAP5 POP SWAP5 POP SWAP5 POP SWAP2 SWAP4 SWAP6 SWAP1 SWAP3 SWAP5 POP JUMP JUMPDEST PUSH1 0x0 DUP1 PUSH1 0x0 DUP1 PUSH1 0x0 PUSH1 0x3 SLOAD PUSH1 0x1 SLOAD PUSH1 0x2 SLOAD PUSH1 0x2 SLOAD PUSH1 0x3 SLOAD SWAP5 POP SWAP5 POP SWAP5 POP SWAP5 POP SWAP5 POP SWAP1 SWAP2 SWAP3 SWAP4 SWAP5 JUMP JUMPDEST PUSH1 0x0 PUSH1 0xFF DUP3 AND SWAP1 POP SWAP2 SWAP1 POP JUMP JUMPDEST PUSH2 0x1C8 DUP2 PUSH2 0x1B2 JUMP JUMPDEST DUP3 MSTORE POP POP JUMP JUMPDEST PUSH1 0x0 PUSH1 0x20 DUP3 ADD SWAP1 POP PUSH2 0x1E3 PUSH1 0x0 DUP4 ADD DUP5 PUSH2 0x1BF JUMP JUMPDEST SWAP3 SWAP2 POP POP JUMP JUMPDEST PUSH1 0x0 DUP2 SWAP1 POP SWAP2 SWAP1 POP JUMP JUMPDEST PUSH2 0x1FC DUP2 PUSH2 0x1E9 JUMP JUMPDEST DUP3 MSTORE POP POP JUMP JUMPDEST PUSH1 0x0 PUSH1 0x20 DUP3 ADD SWAP1 POP PUSH2 0x217 PUSH1 0x0 DUP4 ADD DUP5 PUSH2 0x1F3 JUMP JUMPDEST SWAP3 SWAP2 POP POP JUMP JUMPDEST PUSH1 0x0 DUP2 MLOAD SWAP1 POP SWAP2 SWAP1 POP JUMP JUMPDEST PUSH1 0x0 DUP3 DUP3 MSTORE PUSH1 0x20 DUP3 ADD SWAP1 POP SWAP3 SWAP2 POP POP JUMP JUMPDEST PUSH1 0x0 JUMPDEST DUP4 DUP2 LT ISZERO PUSH2 0x257 JUMPI DUP1 DUP3 ADD MLOAD DUP2 DUP5 ADD MSTORE PUSH1 0x20 DUP2 ADD SWAP1 POP PUSH2 0x23C JUMP JUMPDEST PUSH1 0x0 DUP5 DUP5 ADD MSTORE POP POP POP POP JUMP JUMPDEST PUSH1 0x0 PUSH1 0x1F NOT PUSH1 0x1F DUP4 ADD AND SWAP1 POP SWAP2 SWAP1 POP JUMP JUMPDEST PUSH1 0x0 PUSH2 0x27F DUP3 PUSH2 0x21D JUMP JUMPDEST PUSH2 0x289 DUP2 DUP6 PUSH2 0x228 JUMP JUMPDEST SWAP4 POP PUSH2 0x299 DUP2 DUP6 PUSH1 0x20 DUP7 ADD PUSH2 0x239 JUMP JUMPDEST PUSH2 0x2A2 DUP2 PUSH2 0x263 JUMP JUMPDEST DUP5 ADD SWAP2 POP POP SWAP3 SWAP2 POP POP JUMP JUMPDEST PUSH1 0x0 PUSH1 0x20 DUP3 ADD SWAP1 POP DUP2 DUP2 SUB PUSH1 0x0 DUP4 ADD MSTORE PUSH2 0x2C7 DUP2 DUP5 PUSH2 0x274 JUMP JUMPDEST SWAP1 POP SWAP3 SWAP2 POP POP JUMP JUMPDEST PUSH1 0x0 DUP1 REVERT JUMPDEST PUSH1 0x0 PUSH10 0xFFFFFFFFFFFFFFFFFFFF DUP3 AND SWAP1 POP SWAP2 SWAP1 POP JUMP JUMPDEST PUSH2 0x2F3 DUP2 PUSH2 0x2D4 JUMP JUMPDEST DUP2 EQ PUSH2 0x2FE JUMPI PUSH1 0x0 DUP1 REVERT JUMPDEST POP JUMP JUMPDEST PUSH1 0x0 DUP2 CALLDATALOAD SWAP1 POP PUSH2 0x310 DUP2 PUSH2 0x2EA JUMP JUMPDEST SWAP3 SWAP2 POP POP JUMP JUMPDEST PUSH1 0x0 PUSH1 0x20 DUP3 DUP5 SUB SLT ISZERO PUSH2 0x32C JUMPI PUSH2 0x32B PUSH2 0x2CF JUMP JUMPDEST JUMPDEST PUSH1 0x0 PUSH2 0x33A DUP5 DUP3 DUP6 ADD PUSH2 0x301 JUMP JUMPDEST SWAP2 POP POP SWAP3 SWAP2 POP POP JUMP JUMPDEST PUSH2 0x34C DUP2 PUSH2 0x2D4 JUMP JUMPDEST DUP3 MSTORE POP POP JUMP JUMPDEST PUSH1 0x0 DUP2 SWAP1 POP SWAP2 SWAP1 POP JUMP JUMPDEST PUSH2 0x365 DUP2 PUSH2 0x352 JUMP JUMPDEST DUP3 MSTORE POP POP JUMP JUMPDEST PUSH1 0x0 PUSH1 0xA0 DUP3 ADD SWAP1 POP PUSH2 0x380 PUSH1 0x0 DUP4 ADD DUP9 PUSH2 0x343 JUMP JUMPDEST PUSH2 0x38D PUSH1 0x20 DUP4 ADD DUP8 PUSH2 0x35C JUMP JUMPDEST PUSH2 0x39A PUSH1 0x40 DUP4 ADD DUP7 PUSH2 0x1F3 JUMP JUMPDEST PUSH2 0x3A7 PUSH1 0x60 DUP4 ADD DUP6 PUSH2 0x1F3 JUMP JUMPDEST PUSH2 0x3B4 PUSH1 0x80 DUP4 ADD DUP5 PUSH2 0x343 JUMP JUMPDEST SWAP7 SWAP6 POP POP POP POP POP POP JUMP INVALID LOG2 PUSH5 0x6970667358 0x22 SLT KECCAK256 0xBA INVALID MSTORE8 0xB0 SWAP9 PUSH10 0xE993E41E735089508286 0xEA 0xD7 MLOAD PUSH29 0x7A1A9C4B0FAC5639A2E5187264736F6C634300081C0033000000000000 "
        },
        "methodIdentifiers": {
          "decimals()": "313ce567",
          "description()": "7284e416",
          "getRoundData(uint80)": "9a6fc8f5",
          "latestRoundData()": "feaf968c",
          "version()": "54fd4d50"
        }
      }
    }
  }
}