{
  "@chainlink/contracts/src/v0.8/functions/dev/v1_0_0/libraries/FunctionsRequest.sol": {
    "FunctionsRequest": {
      "abi": [
        {
          "inputs": [],
          "name": "EmptyArgs",
          "type": "error"
        },
        {
          "inputs": [],
          "name": "EmptySecrets",
          "type": "error"
        },
        {
          "inputs": [],
          "name": "EmptySource",
          "type": "error"
        },
        {
          "inputs": [],
          "name": "NoInlineSecrets",
          "type": "error"
        },
        {
          "inputs": [],
          "name": "REQUEST_DATA_VERSION",
          "outputs": [
            {
              "internalType": "uint16",
              "name": "",
              "type": "uint16"
            }
          ],
          "stateMutability": "view",
          "type": "function"
        }
      ],
      "evm": {
        "bytecode": {
          "linkReferences": {},
          "object": "60c1610051600b82828239805160001a6073146044577f4e487b7100000000000000000000000000000000000000000000000000000000600052600060045260246000fd5b30600052607381538281f3fe730000000000000000000000000000000000000000301460806040526004361060335760003560e01c80635d641dfc146038575b600080fd5b603e6052565b604051604991906072565b60405180910390f35b600181565b600061ffff82169050919050565b606c816057565b82525050565b6000602082019050608560008301846065565b9291505056fea264697066735822122068179b2f36fea48f48002e377ca8a164e6d451b2ab58920929ff683bce1f963964736f6c634300081c0033",
          "opcodes": "PUSH1 0xC1 PUSH2 0x51 PUSH1 0xB DUP3 DUP3 DUP3 CODECOPY DUP1 MLOAD PUSH1 0x0 BYTE PUSH1 0x73 EQ PUSH1 0x44 JUMPI PUSH32 0x4E487B7100000000000000000000000000000000000000000000000000000000 PUSH1 0x0 MSTORE PUSH1 0x0 PUSH1 0x4 MSTORE PUSH1 0x24 PUSH1 0x0 REVERT JUMPDEST ADDRESS PUSH1 0x0 MSTORE PUSH1 0x73 DUP2 MSTORE8 DUP3 DUP2 RETURN INVALID PUSH20 0x0 ADDRESS EQ PUSH1 0x80 PUSH1 0x40 MSTORE PUSH1 0x4 CALLDATASIZE LT PUSH1 0x33 JUMPI PUSH1 0x0 CALLDATALOAD PUSH1 0xE0 SHR DUP1 PUSH4 0x5D641DFC EQ PUSH1 0x38 JUMPI JUMPDEST PUSH1 0x0 DUP1 REVERT JUMPDEST PUSH1 0x3E PUSH1 0x52 JUMP JUMPDEST PUSH1 0x40 MLOAD PUSH1 0x49 SWAP2 SWAP1 PUSH1 0x72 JUMP JUMPDEST PUSH1 0x40 MLOAD DUP1 SWAP2 SUB SWAP1 RETURN JUMPDEST PUSH1 0x1 DUP2 JUMP JUMPDEST PUSH1 0x0 PUSH2 0xFFFF DUP3 AND SWAP1 POP SWAP2 SWAP1 POP JUMP JUMPDEST PUSH1 0x6C DUP2 PUSH1 0x57 JUMP JUMPDEST DUP3 MSTORE POP POP JUMP JUMPDEST PUSH1 0x0 PUSH1 0x20 DUP3 ADD SWAP1 POP PUSH1 0x85 PUSH1 0x0 DUP4 ADD DUP5 PUSH1 0x65 JUMP JUMPDEST SWAP3 SWAP2 POP POP JUMP INVALID LOG2 PUSH5 0x6970667358 0x22 SLT KECCAK256 PUSH9 0x179B2F36FEA48F4800 0x2E CALLDATACOPY PUSH29 0xA8A164E6D451B2AB58920929FF683BCE1F963964736F6C634300081C00 CALLER "
        },
        "methodIdentifiers": {
          "REQUEST_DATA_VERSION()": "5d641dfc"
        }
      }
    }
  }
}