{
  "contracts/TomasSubscription.sol": {
    "TomasSubscription": {
      "abi": [
        {
          "inputs": [
            {
              "internalType": "address",
              "name": "_priceFeed",
              "type": "address"
            },
            {
              "internalType": "address",
              "name": "_wethToken",
              "type": "address"
            }
          ],
          "stateMutability": "nonpayable",
          "type": "constructor"
        },
        {
          "inputs": [
            {
              "internalType": "address",
              "name": "owner",
              "type": "address"
            }
          ],
          "name": "OwnableInvalidOwner",
          "type": "error"
        },
        {
          "inputs": [
            {
              "internalType": "address",
              "name": "account",
              "type": "address"
            }
          ],
          "name": "OwnableUnauthorizedAccount",
          "type": "error"
        },
        {
          "inputs": [],
          "name": "ReentrancyGuardReentrantCall",
          "type": "error"
        },
        {
          "anonymous": false,
          "inputs": [
            {
              "indexed": true,
              "internalType": "address",
              "name": "user",
              "type": "address"
            },
            {
              "indexed": false,
              "internalType": "string",
              "name": "reason",
              "type": "string"
            }
          ],
          "name": "AutomaticPaymentFailed",
          "type": "event"
        },
        {
          "anonymous": false,
          "inputs": [
            {
              "indexed": false,
              "internalType": "uint256",
              "name": "timestamp",
              "type": "uint256"
            },
            {
              "indexed": false,
              "internalType": "uint256",
              "name": "usersProcessed",
              "type": "uint256"
            }
          ],
          "name": "AutomationTriggered",
          "type": "event"
        },
        {
          "anonymous": false,
          "inputs": [
            {
              "indexed": true,
              "internalType": "address",
              "name": "previousOwner",
              "type": "address"
            },
            {
              "indexed": true,
              "internalType": "address",
              "name": "newOwner",
              "type": "address"
            }
          ],
          "name": "OwnershipTransferred",
          "type": "event"
        },
        {
          "anonymous": false,
          "inputs": [
            {
              "indexed": true,
              "internalType": "address",
              "name": "user",
              "type": "address"
            },
            {
              "indexed": false,
              "internalType": "uint256",
              "name": "timestamp",
              "type": "uint256"
            }
          ],
          "name": "SubscriptionCanceled",
          "type": "event"
        },
        {
          "anonymous": false,
          "inputs": [
            {
              "indexed": true,
              "internalType": "address",
              "name": "user",
              "type": "address"
            },
            {
              "indexed": false,
              "internalType": "uint256",
              "name": "timestamp",
              "type": "uint256"
            }
          ],
          "name": "SubscriptionExpired",
          "type": "event"
        },
        {
          "anonymous": false,
          "inputs": [
            {
              "indexed": true,
              "internalType": "address",
              "name": "user",
              "type": "address"
            },
            {
              "indexed": false,
              "internalType": "uint256",
              "name": "amountWETH",
              "type": "uint256"
            },
            {
              "indexed": false,
              "internalType": "uint256",
              "name": "nextBilling",
              "type": "uint256"
            }
          ],
          "name": "SubscriptionPaid",
          "type": "event"
        },
        {
          "anonymous": false,
          "inputs": [
            {
              "indexed": true,
              "internalType": "address",
              "name": "user",
              "type": "address"
            }
          ],
          "name": "UserAddedToTracking",
          "type": "event"
        },
        {
          "anonymous": false,
          "inputs": [
            {
              "indexed": true,
              "internalType": "address",
              "name": "user",
              "type": "address"
            }
          ],
          "name": "UserRemovedFromTracking",
          "type": "event"
        },
        {
          "anonymous": false,
          "inputs": [
            {
              "indexed": true,
              "internalType": "address",
              "name": "user",
              "type": "address"
            },
            {
              "indexed": false,
              "internalType": "bool",
              "name": "isWhitelisted",
              "type": "bool"
            }
          ],
          "name": "UserWhitelisted",
          "type": "event"
        },
        {
          "anonymous": false,
          "inputs": [
            {
              "indexed": true,
              "internalType": "address",
              "name": "user",
              "type": "address"
            },
            {
              "indexed": false,
              "internalType": "bool",
              "name": "approved",
              "type": "bool"
            }
          ],
          "name": "WETHApprovalUpdated",
          "type": "event"
        },
        {
          "inputs": [],
          "name": "AUTOMATION_INTERVAL",
          "outputs": [
            {
              "internalType": "uint256",
              "name": "",
              "type": "uint256"
            }
          ],
          "stateMutability": "view",
          "type": "function"
        },
        {
          "inputs": [],
          "name": "BILLING_CYCLE",
          "outputs": [
            {
              "internalType": "uint256",
              "name": "",
              "type": "uint256"
            }
          ],
          "stateMutability": "view",
          "type": "function"
        },
        {
          "inputs": [],
          "name": "GRACE_PERIOD",
          "outputs": [
            {
              "internalType": "uint256",
              "name": "",
              "type": "uint256"
            }
          ],
          "stateMutability": "view",
          "type": "function"
        },
        {
          "inputs": [],
          "name": "MAX_PRICE_USD",
          "outputs": [
            {
              "internalType": "uint256",
              "name": "",
              "type": "uint256"
            }
          ],
          "stateMutability": "view",
          "type": "function"
        },
        {
          "inputs": [],
          "name": "MAX_USERS_PER_UPKEEP",
          "outputs": [
            {
              "internalType": "uint256",
              "name": "",
              "type": "uint256"
            }
          ],
          "stateMutability": "view",
          "type": "function"
        },
        {
          "inputs": [],
          "name": "PRICE_STALENESS_THRESHOLD",
          "outputs": [
            {
              "internalType": "uint256",
              "name": "",
              "type": "uint256"
            }
          ],
          "stateMutability": "view",
          "type": "function"
        },
        {
          "inputs": [],
          "name": "SUBSCRIPTION_COST_USD",
          "outputs": [
            {
              "internalType": "uint256",
              "name": "",
              "type": "uint256"
            }
          ],
          "stateMutability": "view",
          "type": "function"
        },
        {
          "inputs": [
            {
              "internalType": "uint256",
              "name": "",
              "type": "uint256"
            }
          ],
          "name": "activeUsers",
          "outputs": [
            {
              "internalType": "address",
              "name": "",
              "type": "address"
            }
          ],
          "stateMutability": "view",
          "type": "function"
        },
        {
          "inputs": [
            {
              "internalType": "address[]",
              "name": "users",
              "type": "address[]"
            },
            {
              "internalType": "bool",
              "name": "isWhitelisted",
              "type": "bool"
            }
          ],
          "name": "batchSetWhitelist",
          "outputs": [],
          "stateMutability": "nonpayable",
          "type": "function"
        },
        {
          "inputs": [],
          "name": "cancelSubscription",
          "outputs": [],
          "stateMutability": "nonpayable",
          "type": "function"
        },
        {
          "inputs": [
            {
              "internalType": "bytes",
              "name": "",
              "type": "bytes"
            }
          ],
          "name": "checkUpkeep",
          "outputs": [
            {
              "internalType": "bool",
              "name": "upkeepNeeded",
              "type": "bool"
            },
            {
              "internalType": "bytes",
              "name": "performData",
              "type": "bytes"
            }
          ],
          "stateMutability": "view",
          "type": "function"
        },
        {
          "inputs": [],
          "name": "disableWETHAutoPay",
          "outputs": [],
          "stateMutability": "nonpayable",
          "type": "function"
        },
        {
          "inputs": [],
          "name": "enableWETHAutoPay",
          "outputs": [],
          "stateMutability": "nonpayable",
          "type": "function"
        },
        {
          "inputs": [
            {
              "internalType": "uint256",
              "name": "index",
              "type": "uint256"
            }
          ],
          "name": "getActiveUserAtIndex",
          "outputs": [
            {
              "internalType": "address",
              "name": "",
              "type": "address"
            }
          ],
          "stateMutability": "view",
          "type": "function"
        },
        {
          "inputs": [],
          "name": "getLatestPrice",
          "outputs": [
            {
              "internalType": "uint256",
              "name": "",
              "type": "uint256"
            }
          ],
          "stateMutability": "view",
          "type": "function"
        },
        {
          "inputs": [],
          "name": "getPricingInfo",
          "outputs": [
            {
              "internalType": "uint256",
              "name": "usdPrice",
              "type": "uint256"
            },
            {
              "internalType": "uint256",
              "name": "wethAmount",
              "type": "uint256"
            },
            {
              "internalType": "uint256",
              "name": "ethPrice",
              "type": "uint256"
            }
          ],
          "stateMutability": "view",
          "type": "function"
        },
        {
          "inputs": [],
          "name": "getRequiredWETHAmount",
          "outputs": [
            {
              "internalType": "uint256",
              "name": "",
              "type": "uint256"
            }
          ],
          "stateMutability": "view",
          "type": "function"
        },
        {
          "inputs": [],
          "name": "getServiceDetails",
          "outputs": [
            {
              "internalType": "uint256",
              "name": "usdPrice",
              "type": "uint256"
            },
            {
              "internalType": "uint256",
              "name": "wethAmount",
              "type": "uint256"
            },
            {
              "internalType": "uint256",
              "name": "ethPrice",
              "type": "uint256"
            },
            {
              "internalType": "uint256",
              "name": "billingCycle",
              "type": "uint256"
            },
            {
              "internalType": "uint256",
              "name": "gracePeriod",
              "type": "uint256"
            },
            {
              "internalType": "uint256",
              "name": "maxUsers",
              "type": "uint256"
            },
            {
              "internalType": "uint256",
              "name": "currentUsers",
              "type": "uint256"
            },
            {
              "internalType": "address",
              "name": "contractAddress",
              "type": "address"
            }
          ],
          "stateMutability": "view",
          "type": "function"
        },
        {
          "inputs": [
            {
              "internalType": "address",
              "name": "user",
              "type": "address"
            }
          ],
          "name": "getSubscriptionDetails",
          "outputs": [
            {
              "internalType": "uint256",
              "name": "lastPayment",
              "type": "uint256"
            },
            {
              "internalType": "uint256",
              "name": "nextBilling",
              "type": "uint256"
            },
            {
              "internalType": "bool",
              "name": "isActive",
              "type": "bool"
            },
            {
              "internalType": "uint256",
              "name": "lastAmount",
              "type": "uint256"
            },
            {
              "internalType": "bool",
              "name": "isWhitelisted",
              "type": "bool"
            },
            {
              "internalType": "bool",
              "name": "paymentDue",
              "type": "bool"
            },
            {
              "internalType": "bool",
              "name": "hasExpired",
              "type": "bool"
            },
            {
              "internalType": "bool",
              "name": "hasWETHApproval",
              "type": "bool"
            }
          ],
          "stateMutability": "view",
          "type": "function"
        },
        {
          "inputs": [],
          "name": "getTotalActiveUsers",
          "outputs": [
            {
              "internalType": "uint256",
              "name": "",
              "type": "uint256"
            }
          ],
          "stateMutability": "view",
          "type": "function"
        },
        {
          "inputs": [
            {
              "internalType": "address",
              "name": "user",
              "type": "address"
            }
          ],
          "name": "hasActiveSubscription",
          "outputs": [
            {
              "internalType": "bool",
              "name": "",
              "type": "bool"
            }
          ],
          "stateMutability": "view",
          "type": "function"
        },
        {
          "inputs": [
            {
              "internalType": "address",
              "name": "user",
              "type": "address"
            }
          ],
          "name": "isPaymentDue",
          "outputs": [
            {
              "internalType": "bool",
              "name": "",
              "type": "bool"
            }
          ],
          "stateMutability": "view",
          "type": "function"
        },
        {
          "inputs": [
            {
              "internalType": "address",
              "name": "user",
              "type": "address"
            }
          ],
          "name": "isSubscriptionExpired",
          "outputs": [
            {
              "internalType": "bool",
              "name": "",
              "type": "bool"
            }
          ],
          "stateMutability": "view",
          "type": "function"
        },
        {
          "inputs": [
            {
              "internalType": "address",
              "name": "",
              "type": "address"
            }
          ],
          "name": "isUserTracked",
          "outputs": [
            {
              "internalType": "bool",
              "name": "",
              "type": "bool"
            }
          ],
          "stateMutability": "view",
          "type": "function"
        },
        {
          "inputs": [],
          "name": "lastAutomationTime",
          "outputs": [
            {
              "internalType": "uint256",
              "name": "",
              "type": "uint256"
            }
          ],
          "stateMutability": "view",
          "type": "function"
        },
        {
          "inputs": [
            {
              "internalType": "address",
              "name": "user",
              "type": "address"
            }
          ],
          "name": "manuallyProcessPayment",
          "outputs": [],
          "stateMutability": "nonpayable",
          "type": "function"
        },
        {
          "inputs": [],
          "name": "owner",
          "outputs": [
            {
              "internalType": "address",
              "name": "",
              "type": "address"
            }
          ],
          "stateMutability": "view",
          "type": "function"
        },
        {
          "inputs": [],
          "name": "payWithETH",
          "outputs": [],
          "stateMutability": "payable",
          "type": "function"
        },
        {
          "inputs": [
            {
              "internalType": "bytes",
              "name": "",
              "type": "bytes"
            }
          ],
          "name": "performUpkeep",
          "outputs": [],
          "stateMutability": "nonpayable",
          "type": "function"
        },
        {
          "inputs": [],
          "name": "renounceOwnership",
          "outputs": [],
          "stateMutability": "nonpayable",
          "type": "function"
        },
        {
          "inputs": [
            {
              "internalType": "address",
              "name": "user",
              "type": "address"
            },
            {
              "internalType": "bool",
              "name": "isWhitelisted",
              "type": "bool"
            }
          ],
          "name": "setWhitelist",
          "outputs": [],
          "stateMutability": "nonpayable",
          "type": "function"
        },
        {
          "inputs": [],
          "name": "setupWETHSubscription",
          "outputs": [],
          "stateMutability": "nonpayable",
          "type": "function"
        },
        {
          "inputs": [
            {
              "internalType": "address",
              "name": "",
              "type": "address"
            }
          ],
          "name": "subscriptions",
          "outputs": [
            {
              "internalType": "uint256",
              "name": "lastPaymentTimestamp",
              "type": "uint256"
            },
            {
              "internalType": "uint256",
              "name": "nextBillingTimestamp",
              "type": "uint256"
            },
            {
              "internalType": "bool",
              "name": "isActive",
              "type": "bool"
            },
            {
              "internalType": "uint256",
              "name": "lastPaymentAmount",
              "type": "uint256"
            },
            {
              "internalType": "bool",
              "name": "hasWETHApproval",
              "type": "bool"
            }
          ],
          "stateMutability": "view",
          "type": "function"
        },
        {
          "inputs": [
            {
              "internalType": "address",
              "name": "newOwner",
              "type": "address"
            }
          ],
          "name": "transferOwnership",
          "outputs": [],
          "stateMutability": "nonpayable",
          "type": "function"
        },
        {
          "inputs": [
            {
              "internalType": "uint256",
              "name": "newTime",
              "type": "uint256"
            }
          ],
          "name": "updateAutomationTime",
          "outputs": [],
          "stateMutability": "nonpayable",
          "type": "function"
        },
        {
          "inputs": [
            {
              "internalType": "address",
              "name": "",
              "type": "address"
            }
          ],
          "name": "userIndex",
          "outputs": [
            {
              "internalType": "uint256",
              "name": "",
              "type": "uint256"
            }
          ],
          "stateMutability": "view",
          "type": "function"
        },
        {
          "inputs": [],
          "name": "wethToken",
          "outputs": [
            {
              "internalType": "contract IERC20",
              "name": "",
              "type": "address"
            }
          ],
          "stateMutability": "view",
          "type": "function"
        },
        {
          "inputs": [
            {
              "internalType": "address",
              "name": "",
              "type": "address"
            }
          ],
          "name": "whitelist",
          "outputs": [
            {
              "internalType": "bool",
              "name": "",
              "type": "bool"
            }
          ],
          "stateMutability": "view",
          "type": "function"
        },
        {
          "inputs": [],
          "name": "withdrawETH",
          "outputs": [],
          "stateMutability": "nonpayable",
          "type": "function"
        },
        {
          "inputs": [],
          "name": "withdrawWETH",
          "outputs": [],
          "stateMutability": "nonpayable",
          "type": "function"
        },
        {
          "stateMutability": "payable",
          "type": "receive"
        }
      ],
      "evm": {
        "bytecode": {
          "linkReferences": {},
          "object": "60a0346101b257601f61265338819003918201601f19168301916001600160401b038311848410176101b75780849260409485528339810103126101b257610052602061004b836101cd565b92016101cd565b331561019c5760008054336001600160a01b0319821681178355604051949290916001600160a01b0316907f8be0079c531659141344cd1fd0a4f28419497f9722a3daafe3b4186f6b6457e09080a3600180556001600160a01b031691821561015a57506001600160a01b031690811561011557600280546001600160a01b0319169190911790556080524260085560405161247190816101e28239608051818181610d3b0152818161111c01528181611250015281816115f4015261206e0152f35b60405162461bcd60e51b815260206004820152601460248201527f496e76616c6964205745544820616464726573730000000000000000000000006044820152606490fd5b62461bcd60e51b815260206004820152601a60248201527f496e76616c6964207072696365206665656420616464726573730000000000006044820152606490fd5b631e4fbdf760e01b600052600060045260246000fd5b600080fd5b634e487b7160e01b600052604160045260246000fd5b51906001600160a01b03821682036101b25756fe6080604052600436101561001b575b361561001957600080fd5b005b60003560e01c806309612a981461157b57806313621a21146115605780631ec249a11461152157806324e9edb014611492578063374f6d5d146114565780633afb0551146114335780634585e33b1461127f5780634b57b0be1461123a5780634c02f62e146110ee5780635051a05f146110d2578063507b1e4e146110b4578063511671ee1461109657806353d6fd5914611002578063544af5f214610fe45780635f5028b514610ccf57806367aa682b14610caf5780636c7327a214610a965780636c87d2c214610a325780636e04ff0d1461090b578063715018a6146108b257806376fc0d2414610891578063803ae5181461084f57806388447175146107f65780638886fcc5146107d85780638da5cb5b146107af5780638e15f4731461078c57806397ad7e02146107695780639b19251a1461072a578063a095e8f91461060d578063b0fd8954146105a8578063bebe4a571461057b578063bfb8e2f2146104fd578063bfd97cd6146104dd578063c1a287e2146104bf578063c96679fe14610485578063d474f84f146103aa578063e086e5ec146102f3578063f046395a14610283578063f25b9caa146102665763f2fde38b0361000e5734610261576020366003190112610261576101f16116ef565b6101f96123d0565b6001600160a01b0316801561024b57600080546001600160a01b03198116831782556001600160a01b0316907f8be0079c531659141344cd1fd0a4f28419497f9722a3daafe3b4186f6b6457e09080a3005b631e4fbdf760e01b600052600060045260246000fd5b600080fd5b34610261576000366003190112610261576020604051610e108152f35b34610261576020366003190112610261576001600160a01b036102a46116ef565b16600052600360205260a0604060002080549060018101549060ff60028201541660ff600460038401549301541692604051948552602085015215156040840152606083015215156080820152f35b346102615760003660031901126102615761030c6123d0565b4780156103705760008080809360018060a01b038254165af161032d611a93565b501561033557005b60405162461bcd60e51b8152602060048201526013602482015272115512081d1c985b9cd9995c8819985a5b1959606a1b6044820152606490fd5b60405162461bcd60e51b81526020600482015260126024820152714e6f2045544820746f20776974686472617760701b6044820152606490fd5b34610261576020366003190112610261576101006103c66116ef565b60018060a01b03811690816000526003602052604060002090604051906103ec826117db565b82549384835260018401549384602085015260ff600282015416151591826040860152608060ff60046003850154948560608a015201541695019415158552600052600760205260ff604060002054169161044f61044985611cdc565b946118cc565b945115159560405197885260208801526040870152606086015215156080850152151560a0840152151560c083015260e0820152f35b34610261576020366003190112610261576001600160a01b036104a66116ef565b1660005260056020526020604060002054604051908152f35b346102615760003660031901126102615760206040516203f4808152f35b3461026157600036600319011261026157602060405164e8d4a510008152f35b346102615760203660031901126102615761052f6105196116ef565b6105216123d0565b610529611874565b90612002565b1561053657005b60405162461bcd60e51b815260206004820152601960248201527f5061796d656e742070726f63657373696e67206661696c6564000000000000006044820152606490fd5b3461026157602036600319011261026157602061059e6105996116ef565b611d8c565b6040519015158152f35b34610261576000366003190112610261576101006105c4611aea565b6105cc611874565b9060045490604051926402540be40084526020840152604083015262278d0060608301526203f4806080830152601460a083015260c08201523060e0820152f35b346102615760403660031901126102615760043567ffffffffffffffff8111610261573660238201121561026157806004013567ffffffffffffffff8111610261576024820191602436918360051b0101116102615761066b611756565b6106736123d0565b8015159060005b83811061068357005b6001906001600160a01b036106a161069c83888a611d68565b611d78565b166000526007602052826106c58160406000209060ff801983541691151516179055565b61070f575b818060a01b036106de61069c83888a611d68565b167f995d2434d36c9bceaab42c56efe51e8ffe41fd11cabefd9e2cb83700d8b2035e6020604051878152a20161067a565b61072561072061069c83888a611d68565b611eec565b6106ca565b34610261576020366003190112610261576001600160a01b0361074b6116ef565b166000526007602052602060ff604060002054166040519015158152f35b3461026157602036600319011261026157602061059e6107876116ef565b611cdc565b346102615760003660031901126102615760206107a7611aea565b604051908152f35b34610261576000366003190112610261576000546040516001600160a01b039091168152602090f35b34610261576000366003190112610261576020600454604051908152f35b3461026157600036600319011261026157336000526003602052600460406000200160ff198154169055604051600081527fb347c6bf445109e788a01515e0dba872723ddf737844d1e8bffb97c1fc2f3c2260203392a2005b346102615760203660031901126102615760043560045481101561026157610878602091611765565b905460405160039290921b1c6001600160a01b03168152f35b34610261576020366003190112610261576108aa6123d0565b600435600855005b34610261576000366003190112610261576108cb6123d0565b600080546001600160a01b0319811682556001600160a01b03167f8be0079c531659141344cd1fd0a4f28419497f9722a3daafe3b4186f6b6457e08280a3005b346102615761091936611705565b50506201518061092b6008544261196a565b101560006004549060005b82811080610a28575b15610a205761094d81611765565b905460039190911b1c6001600160a01b031661096881611cdc565b9081610a04575b506109825761097d9061198f565b610936565b50505060015b816109fc575b5060405160209161099f838361180d565b60008252604051928391151582526040818301528251908160408401526000935b8285106109e3575050606092506000838284010152601f80199101168101030190f35b84810182015186860160600152938101938593506109c0565b90508161098e565b9050600052600360205260ff600460406000200154168561096f565b509050610988565b506014811061093f565b3461026157602036600319011261026157600435600454811015610a5b57610878602091611765565b60405162461bcd60e51b8152602060048201526013602482015272496e646578206f7574206f6620626f756e647360681b6044820152606490fd5b600036600319011261026157610aaa6123f9565b336000526007602052610ac560ff6040600020541615611a0d565b33600052600360205260ff6002604060002001541615610c9c575b610ae8611874565b803410610c6057600090803411610c4f575b5062278d004201804211610c3957610b96610b15833461196a565b600460405191610b24836117db565b4283526020830190858252610b7a604085016001815260608601928352608086019360008552336000526003602052604060002096518755516001870155511515600286019060ff801983541691151516179055565b51600384015551151591019060ff801983541691151516179055565b610b9f33611e1a565b610ba9823461196a565b9060405191825260208201527f6cd9d6bebf8cc2076dd424f83deb0559d8774d1c44178b4f676f9d50709fb1be60403392a280610be7575b60018055005b600080808093335af1610bf8611a93565b5015610c045780610be1565b60405162461bcd60e51b815260206004820152600d60248201526c1499599d5b990819985a5b1959609a1b6044820152606490fd5b634e487b7160e01b600052601160045260246000fd5b610c5a91503461196a565b81610afa565b60405162461bcd60e51b8152602060048201526014602482015273125b9cdd59999a58da595b9d081c185e5b595b9d60621b6044820152606490fd5b610caa601460045410611a4f565b610ae0565b346102615760003660031901126102615760206040516402540be4008152f35b3461026157600036600319011261026157610ce86123f9565b336000526007602052610d0360ff6040600020541615611a0d565b33600052600360205260ff6002604060002001541615610fd1575b610d26611874565b6040516370a0823160e01b81523360048201527f00000000000000000000000000000000000000000000000000000000000000006001600160a01b031690602081602481855afa8015610f19578391600091610f9c575b5010610f5b57604051636eb1769f60e11b8152336004820152306024820152602081604481855afa8015610f19578390600090610f25575b610dc19250101561182f565b6040516323b872dd60e01b81523360048201523060248201526044810183905290602090829060649082906000905af18015610f1957610e0991600091610eea575b506119ca565b62278d004201804211610c3957610e7d604051610e25816117db565b4281526004602082018481526040830160018152610b7a6060850191888352608086019360018552336000526003602052604060002096518755516001870155511515600286019060ff801983541691151516179055565b610e8633611e1a565b60405191825260208201527f6cd9d6bebf8cc2076dd424f83deb0559d8774d1c44178b4f676f9d50709fb1be60403392a2604051600181527fb347c6bf445109e788a01515e0dba872723ddf737844d1e8bffb97c1fc2f3c2260203392a260018055005b610f0c915060203d602011610f12575b610f04818361180d565b8101906119b2565b83610e03565b503d610efa565b6040513d6000823e3d90fd5b50506020813d602011610f53575b81610f406020938361180d565b810103126102615782610dc19151610db5565b3d9150610f33565b60405162461bcd60e51b8152602060048201526019602482015278496e73756666696369656e7420574554482062616c616e636560381b6044820152606490fd5b9150506020813d602011610fc9575b81610fb86020938361180d565b810103126102615782905184610d7d565b3d9150610fab565b610fdf601460045410611a4f565b610d1e565b3461026157600036600319011261026157602060405162278d008152f35b346102615760403660031901126102615761101b6116ef565b7f995d2434d36c9bceaab42c56efe51e8ffe41fd11cabefd9e2cb83700d8b2035e6020611046611756565b61104e6123d0565b6001600160a01b03841660008181526007845260409020805460ff191660ff841515161790559381611087575b506040519015158152a2005b61109090611eec565b8461107b565b34610261576000366003190112610261576020600854604051908152f35b34610261576000366003190112610261576020604051620151808152f35b3461026157600036600319011261026157602060405160148152f35b34610261576000366003190112610261576111076123d0565b6040516370a0823160e01b81523060048201527f00000000000000000000000000000000000000000000000000000000000000006001600160a01b031690602081602481855afa908115610f1957600091611205575b5080156111ca57602090604460018060a01b03600054166000604051958694859363a9059cbb60e01b8552600485015260248401525af18015610f1957610019916000916111ab57506119ca565b6111c4915060203d602011610f1257610f04818361180d565b82610e03565b60405162461bcd60e51b81526020600482015260136024820152724e6f205745544820746f20776974686472617760681b6044820152606490fd5b906020823d602011611232575b8161121f6020938361180d565b8101031261122f5750518261115d565b80fd5b3d9150611212565b34610261576000366003190112610261576040517f00000000000000000000000000000000000000000000000000000000000000006001600160a01b03168152602090f35b346102615761128d36611705565b50506201518061129f6008544261196a565b1061140257426008556112b0611874565b6004546000916112bf82611977565b906112cd604051928361180d565b828252601f196112dc84611977565b013660208401378390845b848110806113f8575b1561136c576112fe81611765565b905460039190911b1c6001600160a01b031661131981611cdc565b80611353575b611333575b5061132e9061198f565b6112e7565b8361134c9161134661132e94968861199e565b5261198f565b9290611324565b50808752600360205260ff60046040892001541661131f565b508492835b8381106113ab575b7f37aeb7a78769e88660e2546f8ac9047631d3969faaa2dce0188f6a220ac99c176040868151904282526020820152a1005b620186a05a106113f3576113d2836001600160a01b036113cb848661199e565b5116612002565b6113df575b600101611371565b936113eb60019161198f565b9490506113d7565b611379565b50601483106112f0565b60405162461bcd60e51b8152602060048201526009602482015268546f6f206561726c7960b81b6044820152606490fd5b3461026157602036600319011261026157602061059e6114516116ef565b6118cc565b34610261576000366003190112610261576060611471611aea565b611479611874565b90604051916402540be400835260208301526040820152f35b34610261576000366003190112610261573360005260036020526114c060ff60026040600020015416611796565b33600081815260036020526040902060028101805460ff199081169091556004909101805490911690556114f390611eec565b6040514281527f75703d723c382baf9126c0b27310a322412b9e2bbaf52e74afcf50b107a7905f60203392a2005b34610261576020366003190112610261576001600160a01b036115426116ef565b166000526006602052602060ff604060002054166040519015158152f35b346102615760003660031901126102615760206107a7611874565b34610261576000366003190112610261573360005260036020526115a960ff60026040600020015416611796565b33600052600360205260ff600460406000200154166116b8576115ca611874565b604051636eb1769f60e11b8152336004820152306024820152906020826044816001600160a01b037f0000000000000000000000000000000000000000000000000000000000000000165afa8015610f1957600090611684575b6116309250101561182f565b3360005260036020526004604060002001600160ff1982541617905561165533611e1a565b604051600181527fb347c6bf445109e788a01515e0dba872723ddf737844d1e8bffb97c1fc2f3c2260203392a2005b506020823d6020116116b0575b8161169e6020938361180d565b81010312610261576116309151611624565b3d9150611691565b60405162461bcd60e51b815260206004820152600f60248201526e105b1c9958591e48195b98589b1959608a1b6044820152606490fd5b600435906001600160a01b038216820361026157565b9060206003198301126102615760043567ffffffffffffffff811161026157826023820112156102615780600401359267ffffffffffffffff84116102615760248483010111610261576024019190565b60243590811515820361026157565b60045481101561178057600460005260206000200190600090565b634e487b7160e01b600052603260045260246000fd5b1561179d57565b60405162461bcd60e51b815260206004820152601660248201527527379030b1ba34bb329039bab139b1b934b83a34b7b760511b6044820152606490fd5b60a0810190811067ffffffffffffffff8211176117f757604052565b634e487b7160e01b600052604160045260246000fd5b90601f8019910116810190811067ffffffffffffffff8211176117f757604052565b1561183657565b60405162461bcd60e51b815260206004820152601660248201527515d1551208185c1c1c9bdd985b081c995c5d5a5c995960521b6044820152606490fd5b61187c611aea565b8015611893576b204fce5e3e250261100000000490565b60405162461bcd60e51b8152602060048201526011602482015270496e76616c69642045544820707269636560781b6044820152606490fd5b6001600160a01b0316600081815260036020526040908190209051916118f1836117db565b815483526001820154926020810193845260ff6002840154161590608060ff600484159687604086015260038101546060860152015416151591015291611951575b5061194b57516203f4808101809111610c3957421190565b50600090565b9050600052600760205260ff6040600020541638611933565b91908203918211610c3957565b67ffffffffffffffff81116117f75760051b60200190565b6000198114610c395760010190565b80518210156117805760209160051b010190565b90816020910312610261575180151581036102615790565b156119d157565b60405162461bcd60e51b815260206004820152601460248201527315d15512081d1c985b9cd9995c8819985a5b195960621b6044820152606490fd5b15611a1457565b60405162461bcd60e51b8152602060048201526013602482015272155cd95c881a5cc81dda1a5d195b1a5cdd1959606a1b6044820152606490fd5b15611a5657565b60405162461bcd60e51b815260206004820152601560248201527413585e1a5b5d5b481d5cd95c9cc81c995858da1959605a1b6044820152606490fd5b3d15611ace573d9067ffffffffffffffff82116117f75760405191611ac2601f8201601f19166020018461180d565b82523d6000602084013e565b606090565b519069ffffffffffffffffffff8216820361026157565b600254604051633fabe5a360e21b81529060a090829060049082906001600160a01b03165afa8015610f19576000809281908293611c85575b506000841315611c4b578015611c1157611b40610e10914261196a565b11611bd75769ffffffffffffffffffff809116911610611b9f5764e8d4a510008111611b695790565b60405162461bcd60e51b815260206004820152600e60248201526d0a0e4d2c6ca40e8dede40d0d2ced60931b6044820152606490fd5b60405162461bcd60e51b815260206004820152601060248201526f5374616c65207072696365206461746160801b6044820152606490fd5b60405162461bcd60e51b8152602060048201526012602482015271141c9a58d94819185d18481d1bdbc81bdb1960721b6044820152606490fd5b60405162461bcd60e51b8152602060048201526012602482015271526f756e64206e6f7420636f6d706c65746560701b6044820152606490fd5b60405162461bcd60e51b8152602060048201526012602482015271125b9d985b1a59081c1c9a58d9481999595960721b6044820152606490fd5b935050905060a0823d60a011611cd4575b81611ca360a0938361180d565b8101031261122f5750611cb581611ad3565b6020820151611ccb608060608501519401611ad3565b91909238611b23565b3d9150611c96565b6001600160a01b031660008181526003602052604090819020905191611d01836117db565b815483526001820154926020810193845260ff6002840154161590608060ff600484159687604086015260038101546060860152015416151591015291611d4f575b5061194b575142101590565b9050600052600760205260ff6040600020541638611d43565b91908110156117805760051b0190565b356001600160a01b03811681036102615790565b6001600160a01b031660008181526007602052604090205460ff16611e14576000526003602052604060002060405190611dc5826117db565b80548252600181015491826020820152608060ff60048160028601541615948515604086015260038101546060860152015416151591015261194b576203f4808101809111610c395742111590565b50600190565b6001600160a01b03811660008181526006602052604090205490919060ff1615611e42575050565b60045490680100000000000000008210156117f757611e6a826001611e8e9401600455611765565b81546001600160a01b0393841660039290921b91821b9390911b1916919091179055565b6004546000198101908111610c39578160005260056020526040600020558060005260066020526040600020600160ff198254161790557fbff36ab077310ef747dcab7b87de0a2be21ee4ad9c8ed40251ffd3ff744235e7600080a2565b6001600160a01b031660008181526006602052604090205460ff16611f0e5750565b8060005260056020526040600020546004546000198101908111610c3957808203611fc5575b50506004548015611faf5760001901611f4c81611765565b81549060018060a01b039060031b1b1916905560045580600052600560205260006040812055806000526006602052604060002060ff1981541690557f8a52807acd44f50b6e4823de532df8cb7e684378369a85e00c4fd8da2bfd32c6600080a2565b634e487b7160e01b600052603160045260246000fd5b611fce90611765565b905460039190911b1c6001600160a01b0316611fed81611e6a84611765565b60005260056020526040600020553880611f34565b6001600160a01b0381166000818152600360205260409020600281018054929493919260ff81161580156123b8575b80156123a8575b61239d57612045836118cc565b61234f57505060ff6004830154161561230e576040516370a0823160e01b8152600481018590527f00000000000000000000000000000000000000000000000000000000000000006001600160a01b031690602081602481855afa8015610f195785916000916122d9575b501061228a57604051636eb1769f60e11b81526001600160a01b0383166004820152306024820152602081604481855afa8015610f19578591600091612255575b5010612206576040516323b872dd60e01b81526001600160a01b0392909216600483015230602483015260448201849052602090829060649082906000905af1908115610f19576000916121e7575b50156121975742815562278d00420191824211610c395782816003847f6cd9d6bebf8cc2076dd424f83deb0559d8774d1c44178b4f676f9d50709fb1be9660016040970155015582519182526020820152a2600190565b505060008051602061241c833981519152604051806121df8160609060208152601460208201527315d15512081d1c985b9cd9995c8819985a5b195960621b60408201520190565b0390a2600090565b612200915060203d602011610f1257610f04818361180d565b38612140565b5050505060008051602061241c833981519152606060405160208152601b60208201527f496e73756666696369656e74205745544820616c6c6f77616e636500000000006040820152a2600090565b9150506020813d602011612282575b816122716020938361180d565b8101031261026157849051386120f1565b3d9150612264565b5050505060008051602061241c833981519152604051806121df81606090602081526019602082015278496e73756666696369656e7420574554482062616c616e636560381b60408201520190565b9150506020813d602011612306575b816122f56020938361180d565b8101031261026157849051386120b0565b3d91506122e8565b50505060008051602061241c833981519152606060405160208152601060208201526f139bc815d1551208185c1c1c9bdd985b60821b6040820152a2600090565b61236e945090600492939160ff191690550160ff198154169055611eec565b7faeab0094d0f4ba2e37ab9c32d5eae0cbc49edafca1f7366f8ee1b6946c6dacfe6020604051428152a2600090565b505050505050600090565b506123b283611cdc565b15612038565b5085600052600760205260ff60406000205416612031565b6000546001600160a01b031633036123e457565b63118cdaa760e01b6000523360045260246000fd5b60026001541461240a576002600155565b633ee5aeb560e01b60005260046000fdfe87951482dc5c1eb7f32ab93cd897d85fccfa58819bd33c0aecda71c42cd8898aa2646970667358221220da295d44a74ca6ff83f51034117fa872fd77e24d8c78bf4472157b02c27000b564736f6c634300081c0033",
          "opcodes": "PUSH1 0xA0 CALLVALUE PUSH2 0x1B2 JUMPI PUSH1 0x1F PUSH2 0x2653 CODESIZE DUP2 SWAP1 SUB SWAP2 DUP3 ADD PUSH1 0x1F NOT AND DUP4 ADD SWAP2 PUSH1 0x1 PUSH1 0x1 PUSH1 0x40 SHL SUB DUP4 GT DUP5 DUP5 LT OR PUSH2 0x1B7 JUMPI DUP1 DUP5 SWAP3 PUSH1 0x40 SWAP5 DUP6 MSTORE DUP4 CODECOPY DUP2 ADD SUB SLT PUSH2 0x1B2 JUMPI PUSH2 0x52 PUSH1 0x20 PUSH2 0x4B DUP4 PUSH2 0x1CD JUMP JUMPDEST SWAP3 ADD PUSH2 0x1CD JUMP JUMPDEST CALLER ISZERO PUSH2 0x19C JUMPI PUSH1 0x0 DUP1 SLOAD CALLER PUSH1 0x1 PUSH1 0x1 PUSH1 0xA0 SHL SUB NOT DUP3 AND DUP2 OR DUP4 SSTORE PUSH1 0x40 MLOAD SWAP5 SWAP3 SWAP1 SWAP2 PUSH1 0x1 PUSH1 0x1 PUSH1 0xA0 SHL SUB AND SWAP1 PUSH32 0x8BE0079C531659141344CD1FD0A4F28419497F9722A3DAAFE3B4186F6B6457E0 SWAP1 DUP1 LOG3 PUSH1 0x1 DUP1 SSTORE PUSH1 0x1 PUSH1 0x1 PUSH1 0xA0 SHL SUB AND SWAP2 DUP3 ISZERO PUSH2 0x15A JUMPI POP PUSH1 0x1 PUSH1 0x1 PUSH1 0xA0 SHL SUB AND SWAP1 DUP2 ISZERO PUSH2 0x115 JUMPI PUSH1 0x2 DUP1 SLOAD PUSH1 0x1 PUSH1 0x1 PUSH1 0xA0 SHL SUB NOT AND SWAP2 SWAP1 SWAP2 OR SWAP1 SSTORE PUSH1 0x80 MSTORE TIMESTAMP PUSH1 0x8 SSTORE PUSH1 0x40 MLOAD PUSH2 0x2471 SWAP1 DUP2 PUSH2 0x1E2 DUP3 CODECOPY PUSH1 0x80 MLOAD DUP2 DUP2 DUP2 PUSH2 0xD3B ADD MSTORE DUP2 DUP2 PUSH2 0x111C ADD MSTORE DUP2 DUP2 PUSH2 0x1250 ADD MSTORE DUP2 DUP2 PUSH2 0x15F4 ADD MSTORE PUSH2 0x206E ADD MSTORE RETURN JUMPDEST PUSH1 0x40 MLOAD PUSH3 0x461BCD PUSH1 0xE5 SHL DUP2 MSTORE PUSH1 0x20 PUSH1 0x4 DUP3 ADD MSTORE PUSH1 0x14 PUSH1 0x24 DUP3 ADD MSTORE PUSH32 0x496E76616C696420574554482061646472657373000000000000000000000000 PUSH1 0x44 DUP3 ADD MSTORE PUSH1 0x64 SWAP1 REVERT JUMPDEST PUSH3 0x461BCD PUSH1 0xE5 SHL DUP2 MSTORE PUSH1 0x20 PUSH1 0x4 DUP3 ADD MSTORE PUSH1 0x1A PUSH1 0x24 DUP3 ADD MSTORE PUSH32 0x496E76616C696420707269636520666565642061646472657373000000000000 PUSH1 0x44 DUP3 ADD MSTORE PUSH1 0x64 SWAP1 REVERT JUMPDEST PUSH4 0x1E4FBDF7 PUSH1 0xE0 SHL PUSH1 0x0 MSTORE PUSH1 0x0 PUSH1 0x4 MSTORE PUSH1 0x24 PUSH1 0x0 REVERT JUMPDEST PUSH1 0x0 DUP1 REVERT JUMPDEST PUSH4 0x4E487B71 PUSH1 0xE0 SHL PUSH1 0x0 MSTORE PUSH1 0x41 PUSH1 0x4 MSTORE PUSH1 0x24 PUSH1 0x0 REVERT JUMPDEST MLOAD SWAP1 PUSH1 0x1 PUSH1 0x1 PUSH1 0xA0 SHL SUB DUP3 AND DUP3 SUB PUSH2 0x1B2 JUMPI JUMP INVALID PUSH1 0x80 PUSH1 0x40 MSTORE PUSH1 0x4 CALLDATASIZE LT ISZERO PUSH2 0x1B JUMPI JUMPDEST CALLDATASIZE ISZERO PUSH2 0x19 JUMPI PUSH1 0x0 DUP1 REVERT JUMPDEST STOP JUMPDEST PUSH1 0x0 CALLDATALOAD PUSH1 0xE0 SHR DUP1 PUSH4 0x9612A98 EQ PUSH2 0x157B JUMPI DUP1 PUSH4 0x13621A21 EQ PUSH2 0x1560 JUMPI DUP1 PUSH4 0x1EC249A1 EQ PUSH2 0x1521 JUMPI DUP1 PUSH4 0x24E9EDB0 EQ PUSH2 0x1492 JUMPI DUP1 PUSH4 0x374F6D5D EQ PUSH2 0x1456 JUMPI DUP1 PUSH4 0x3AFB0551 EQ PUSH2 0x1433 JUMPI DUP1 PUSH4 0x4585E33B EQ PUSH2 0x127F JUMPI DUP1 PUSH4 0x4B57B0BE EQ PUSH2 0x123A JUMPI DUP1 PUSH4 0x4C02F62E EQ PUSH2 0x10EE JUMPI DUP1 PUSH4 0x5051A05F EQ PUSH2 0x10D2 JUMPI DUP1 PUSH4 0x507B1E4E EQ PUSH2 0x10B4 JUMPI DUP1 PUSH4 0x511671EE EQ PUSH2 0x1096 JUMPI DUP1 PUSH4 0x53D6FD59 EQ PUSH2 0x1002 JUMPI DUP1 PUSH4 0x544AF5F2 EQ PUSH2 0xFE4 JUMPI DUP1 PUSH4 0x5F5028B5 EQ PUSH2 0xCCF JUMPI DUP1 PUSH4 0x67AA682B EQ PUSH2 0xCAF JUMPI DUP1 PUSH4 0x6C7327A2 EQ PUSH2 0xA96 JUMPI DUP1 PUSH4 0x6C87D2C2 EQ PUSH2 0xA32 JUMPI DUP1 PUSH4 0x6E04FF0D EQ PUSH2 0x90B JUMPI DUP1 PUSH4 0x715018A6 EQ PUSH2 0x8B2 JUMPI DUP1 PUSH4 0x76FC0D24 EQ PUSH2 0x891 JUMPI DUP1 PUSH4 0x803AE518 EQ PUSH2 0x84F JUMPI DUP1 PUSH4 0x88447175 EQ PUSH2 0x7F6 JUMPI DUP1 PUSH4 0x8886FCC5 EQ PUSH2 0x7D8 JUMPI DUP1 PUSH4 0x8DA5CB5B EQ PUSH2 0x7AF JUMPI DUP1 PUSH4 0x8E15F473 EQ PUSH2 0x78C JUMPI DUP1 PUSH4 0x97AD7E02 EQ PUSH2 0x769 JUMPI DUP1 PUSH4 0x9B19251A EQ PUSH2 0x72A JUMPI DUP1 PUSH4 0xA095E8F9 EQ PUSH2 0x60D JUMPI DUP1 PUSH4 0xB0FD8954 EQ PUSH2 0x5A8 JUMPI DUP1 PUSH4 0xBEBE4A57 EQ PUSH2 0x57B JUMPI DUP1 PUSH4 0xBFB8E2F2 EQ PUSH2 0x4FD JUMPI DUP1 PUSH4 0xBFD97CD6 EQ PUSH2 0x4DD JUMPI DUP1 PUSH4 0xC1A287E2 EQ PUSH2 0x4BF JUMPI DUP1 PUSH4 0xC96679FE EQ PUSH2 0x485 JUMPI DUP1 PUSH4 0xD474F84F EQ PUSH2 0x3AA JUMPI DUP1 PUSH4 0xE086E5EC EQ PUSH2 0x2F3 JUMPI DUP1 PUSH4 0xF046395A EQ PUSH2 0x283 JUMPI DUP1 PUSH4 0xF25B9CAA EQ PUSH2 0x266 JUMPI PUSH4 0xF2FDE38B SUB PUSH2 0xE JUMPI CALLVALUE PUSH2 0x261 JUMPI PUSH1 0x20 CALLDATASIZE PUSH1 0x3 NOT ADD SLT PUSH2 0x261 JUMPI PUSH2 0x1F1 PUSH2 0x16EF JUMP JUMPDEST PUSH2 0x1F9 PUSH2 0x23D0 JUMP JUMPDEST PUSH1 0x1 PUSH1 0x1 PUSH1 0xA0 SHL SUB AND DUP1 ISZERO PUSH2 0x24B JUMPI PUSH1 0x0 DUP1 SLOAD PUSH1 0x1 PUSH1 0x1 PUSH1 0xA0 SHL SUB NOT DUP2 AND DUP4 OR DUP3 SSTORE PUSH1 0x1 PUSH1 0x1 PUSH1 0xA0 SHL SUB AND SWAP1 PUSH32 0x8BE0079C531659141344CD1FD0A4F28419497F9722A3DAAFE3B4186F6B6457E0 SWAP1 DUP1 LOG3 STOP JUMPDEST PUSH4 0x1E4FBDF7 PUSH1 0xE0 SHL PUSH1 0x0 MSTORE PUSH1 0x0 PUSH1 0x4 MSTORE PUSH1 0x24 PUSH1 0x0 REVERT JUMPDEST PUSH1 0x0 DUP1 REVERT JUMPDEST CALLVALUE PUSH2 0x261 JUMPI PUSH1 0x0 CALLDATASIZE PUSH1 0x3 NOT ADD SLT PUSH2 0x261 JUMPI PUSH1 0x20 PUSH1 0x40 MLOAD PUSH2 0xE10 DUP2 MSTORE RETURN JUMPDEST CALLVALUE PUSH2 0x261 JUMPI PUSH1 0x20 CALLDATASIZE PUSH1 0x3 NOT ADD SLT PUSH2 0x261 JUMPI PUSH1 0x1 PUSH1 0x1 PUSH1 0xA0 SHL SUB PUSH2 0x2A4 PUSH2 0x16EF JUMP JUMPDEST AND PUSH1 0x0 MSTORE PUSH1 0x3 PUSH1 0x20 MSTORE PUSH1 0xA0 PUSH1 0x40 PUSH1 0x0 KECCAK256 DUP1 SLOAD SWAP1 PUSH1 0x1 DUP2 ADD SLOAD SWAP1 PUSH1 0xFF PUSH1 0x2 DUP3 ADD SLOAD AND PUSH1 0xFF PUSH1 0x4 PUSH1 0x3 DUP5 ADD SLOAD SWAP4 ADD SLOAD AND SWAP3 PUSH1 0x40 MLOAD SWAP5 DUP6 MSTORE PUSH1 0x20 DUP6 ADD MSTORE ISZERO ISZERO PUSH1 0x40 DUP5 ADD MSTORE PUSH1 0x60 DUP4 ADD MSTORE ISZERO ISZERO PUSH1 0x80 DUP3 ADD MSTORE RETURN JUMPDEST CALLVALUE PUSH2 0x261 JUMPI PUSH1 0x0 CALLDATASIZE PUSH1 0x3 NOT ADD SLT PUSH2 0x261 JUMPI PUSH2 0x30C PUSH2 0x23D0 JUMP JUMPDEST SELFBALANCE DUP1 ISZERO PUSH2 0x370 JUMPI PUSH1 0x0 DUP1 DUP1 DUP1 SWAP4 PUSH1 0x1 DUP1 PUSH1 0xA0 SHL SUB DUP3 SLOAD AND GAS CALL PUSH2 0x32D PUSH2 0x1A93 JUMP JUMPDEST POP ISZERO PUSH2 0x335 JUMPI STOP JUMPDEST PUSH1 0x40 MLOAD PUSH3 0x461BCD PUSH1 0xE5 SHL DUP2 MSTORE PUSH1 0x20 PUSH1 0x4 DUP3 ADD MSTORE PUSH1 0x13 PUSH1 0x24 DUP3 ADD MSTORE PUSH19 0x115512081D1C985B9CD9995C8819985A5B1959 PUSH1 0x6A SHL PUSH1 0x44 DUP3 ADD MSTORE PUSH1 0x64 SWAP1 REVERT JUMPDEST PUSH1 0x40 MLOAD PUSH3 0x461BCD PUSH1 0xE5 SHL DUP2 MSTORE PUSH1 0x20 PUSH1 0x4 DUP3 ADD MSTORE PUSH1 0x12 PUSH1 0x24 DUP3 ADD MSTORE PUSH18 0x4E6F2045544820746F207769746864726177 PUSH1 0x70 SHL PUSH1 0x44 DUP3 ADD MSTORE PUSH1 0x64 SWAP1 REVERT JUMPDEST CALLVALUE PUSH2 0x261 JUMPI PUSH1 0x20 CALLDATASIZE PUSH1 0x3 NOT ADD SLT PUSH2 0x261 JUMPI PUSH2 0x100 PUSH2 0x3C6 PUSH2 0x16EF JUMP JUMPDEST PUSH1 0x1 DUP1 PUSH1 0xA0 SHL SUB DUP2 AND SWAP1 DUP2 PUSH1 0x0 MSTORE PUSH1 0x3 PUSH1 0x20 MSTORE PUSH1 0x40 PUSH1 0x0 KECCAK256 SWAP1 PUSH1 0x40 MLOAD SWAP1 PUSH2 0x3EC DUP3 PUSH2 0x17DB JUMP JUMPDEST DUP3 SLOAD SWAP4 DUP5 DUP4 MSTORE PUSH1 0x1 DUP5 ADD SLOAD SWAP4 DUP5 PUSH1 0x20 DUP6 ADD MSTORE PUSH1 0xFF PUSH1 0x2 DUP3 ADD SLOAD AND ISZERO ISZERO SWAP2 DUP3 PUSH1 0x40 DUP7 ADD MSTORE PUSH1 0x80 PUSH1 0xFF PUSH1 0x4 PUSH1 0x3 DUP6 ADD SLOAD SWAP5 DUP6 PUSH1 0x60 DUP11 ADD MSTORE ADD SLOAD AND SWAP6 ADD SWAP5 ISZERO ISZERO DUP6 MSTORE PUSH1 0x0 MSTORE PUSH1 0x7 PUSH1 0x20 MSTORE PUSH1 0xFF PUSH1 0x40 PUSH1 0x0 KECCAK256 SLOAD AND SWAP2 PUSH2 0x44F PUSH2 0x449 DUP6 PUSH2 0x1CDC JUMP JUMPDEST SWAP5 PUSH2 0x18CC JUMP JUMPDEST SWAP5 MLOAD ISZERO ISZERO SWAP6 PUSH1 0x40 MLOAD SWAP8 DUP9 MSTORE PUSH1 0x20 DUP9 ADD MSTORE PUSH1 0x40 DUP8 ADD MSTORE PUSH1 0x60 DUP7 ADD MSTORE ISZERO ISZERO PUSH1 0x80 DUP6 ADD MSTORE ISZERO ISZERO PUSH1 0xA0 DUP5 ADD MSTORE ISZERO ISZERO PUSH1 0xC0 DUP4 ADD MSTORE PUSH1 0xE0 DUP3 ADD MSTORE RETURN JUMPDEST CALLVALUE PUSH2 0x261 JUMPI PUSH1 0x20 CALLDATASIZE PUSH1 0x3 NOT ADD SLT PUSH2 0x261 JUMPI PUSH1 0x1 PUSH1 0x1 PUSH1 0xA0 SHL SUB PUSH2 0x4A6 PUSH2 0x16EF JUMP JUMPDEST AND PUSH1 0x0 MSTORE PUSH1 0x5 PUSH1 0x20 MSTORE PUSH1 0x20 PUSH1 0x40 PUSH1 0x0 KECCAK256 SLOAD PUSH1 0x40 MLOAD SWAP1 DUP2 MSTORE RETURN JUMPDEST CALLVALUE PUSH2 0x261 JUMPI PUSH1 0x0 CALLDATASIZE PUSH1 0x3 NOT ADD SLT PUSH2 0x261 JUMPI PUSH1 0x20 PUSH1 0x40 MLOAD PUSH3 0x3F480 DUP2 MSTORE RETURN JUMPDEST CALLVALUE PUSH2 0x261 JUMPI PUSH1 0x0 CALLDATASIZE PUSH1 0x3 NOT ADD SLT PUSH2 0x261 JUMPI PUSH1 0x20 PUSH1 0x40 MLOAD PUSH5 0xE8D4A51000 DUP2 MSTORE RETURN JUMPDEST CALLVALUE PUSH2 0x261 JUMPI PUSH1 0x20 CALLDATASIZE PUSH1 0x3 NOT ADD SLT PUSH2 0x261 JUMPI PUSH2 0x52F PUSH2 0x519 PUSH2 0x16EF JUMP JUMPDEST PUSH2 0x521 PUSH2 0x23D0 JUMP JUMPDEST PUSH2 0x529 PUSH2 0x1874 JUMP JUMPDEST SWAP1 PUSH2 0x2002 JUMP JUMPDEST ISZERO PUSH2 0x536 JUMPI STOP JUMPDEST PUSH1 0x40 MLOAD PUSH3 0x461BCD PUSH1 0xE5 SHL DUP2 MSTORE PUSH1 0x20 PUSH1 0x4 DUP3 ADD MSTORE PUSH1 0x19 PUSH1 0x24 DUP3 ADD MSTORE PUSH32 0x5061796D656E742070726F63657373696E67206661696C656400000000000000 PUSH1 0x44 DUP3 ADD MSTORE PUSH1 0x64 SWAP1 REVERT JUMPDEST CALLVALUE PUSH2 0x261 JUMPI PUSH1 0x20 CALLDATASIZE PUSH1 0x3 NOT ADD SLT PUSH2 0x261 JUMPI PUSH1 0x20 PUSH2 0x59E PUSH2 0x599 PUSH2 0x16EF JUMP JUMPDEST PUSH2 0x1D8C JUMP JUMPDEST PUSH1 0x40 MLOAD SWAP1 ISZERO ISZERO DUP2 MSTORE RETURN JUMPDEST CALLVALUE PUSH2 0x261 JUMPI PUSH1 0x0 CALLDATASIZE PUSH1 0x3 NOT ADD SLT PUSH2 0x261 JUMPI PUSH2 0x100 PUSH2 0x5C4 PUSH2 0x1AEA JUMP JUMPDEST PUSH2 0x5CC PUSH2 0x1874 JUMP JUMPDEST SWAP1 PUSH1 0x4 SLOAD SWAP1 PUSH1 0x40 MLOAD SWAP3 PUSH5 0x2540BE400 DUP5 MSTORE PUSH1 0x20 DUP5 ADD MSTORE PUSH1 0x40 DUP4 ADD MSTORE PUSH3 0x278D00 PUSH1 0x60 DUP4 ADD MSTORE PUSH3 0x3F480 PUSH1 0x80 DUP4 ADD MSTORE PUSH1 0x14 PUSH1 0xA0 DUP4 ADD MSTORE PUSH1 0xC0 DUP3 ADD MSTORE ADDRESS PUSH1 0xE0 DUP3 ADD MSTORE RETURN JUMPDEST CALLVALUE PUSH2 0x261 JUMPI PUSH1 0x40 CALLDATASIZE PUSH1 0x3 NOT ADD SLT PUSH2 0x261 JUMPI PUSH1 0x4 CALLDATALOAD PUSH8 0xFFFFFFFFFFFFFFFF DUP2 GT PUSH2 0x261 JUMPI CALLDATASIZE PUSH1 0x23 DUP3 ADD SLT ISZERO PUSH2 0x261 JUMPI DUP1 PUSH1 0x4 ADD CALLDATALOAD PUSH8 0xFFFFFFFFFFFFFFFF DUP2 GT PUSH2 0x261 JUMPI PUSH1 0x24 DUP3 ADD SWAP2 PUSH1 0x24 CALLDATASIZE SWAP2 DUP4 PUSH1 0x5 SHL ADD ADD GT PUSH2 0x261 JUMPI PUSH2 0x66B PUSH2 0x1756 JUMP JUMPDEST PUSH2 0x673 PUSH2 0x23D0 JUMP JUMPDEST DUP1 ISZERO ISZERO SWAP1 PUSH1 0x0 JUMPDEST DUP4 DUP2 LT PUSH2 0x683 JUMPI STOP JUMPDEST PUSH1 0x1 SWAP1 PUSH1 0x1 PUSH1 0x1 PUSH1 0xA0 SHL SUB PUSH2 0x6A1 PUSH2 0x69C DUP4 DUP9 DUP11 PUSH2 0x1D68 JUMP JUMPDEST PUSH2 0x1D78 JUMP JUMPDEST AND PUSH1 0x0 MSTORE PUSH1 0x7 PUSH1 0x20 MSTORE DUP3 PUSH2 0x6C5 DUP2 PUSH1 0x40 PUSH1 0x0 KECCAK256 SWAP1 PUSH1 0xFF DUP1 NOT DUP4 SLOAD AND SWAP2 ISZERO ISZERO AND OR SWAP1 SSTORE JUMP JUMPDEST PUSH2 0x70F JUMPI JUMPDEST DUP2 DUP1 PUSH1 0xA0 SHL SUB PUSH2 0x6DE PUSH2 0x69C DUP4 DUP9 DUP11 PUSH2 0x1D68 JUMP JUMPDEST AND PUSH32 0x995D2434D36C9BCEAAB42C56EFE51E8FFE41FD11CABEFD9E2CB83700D8B2035E PUSH1 0x20 PUSH1 0x40 MLOAD DUP8 DUP2 MSTORE LOG2 ADD PUSH2 0x67A JUMP JUMPDEST PUSH2 0x725 PUSH2 0x720 PUSH2 0x69C DUP4 DUP9 DUP11 PUSH2 0x1D68 JUMP JUMPDEST PUSH2 0x1EEC JUMP JUMPDEST PUSH2 0x6CA JUMP JUMPDEST CALLVALUE PUSH2 0x261 JUMPI PUSH1 0x20 CALLDATASIZE PUSH1 0x3 NOT ADD SLT PUSH2 0x261 JUMPI PUSH1 0x1 PUSH1 0x1 PUSH1 0xA0 SHL SUB PUSH2 0x74B PUSH2 0x16EF JUMP JUMPDEST AND PUSH1 0x0 MSTORE PUSH1 0x7 PUSH1 0x20 MSTORE PUSH1 0x20 PUSH1 0xFF PUSH1 0x40 PUSH1 0x0 KECCAK256 SLOAD AND PUSH1 0x40 MLOAD SWAP1 ISZERO ISZERO DUP2 MSTORE RETURN JUMPDEST CALLVALUE PUSH2 0x261 JUMPI PUSH1 0x20 CALLDATASIZE PUSH1 0x3 NOT ADD SLT PUSH2 0x261 JUMPI PUSH1 0x20 PUSH2 0x59E PUSH2 0x787 PUSH2 0x16EF JUMP JUMPDEST PUSH2 0x1CDC JUMP JUMPDEST CALLVALUE PUSH2 0x261 JUMPI PUSH1 0x0 CALLDATASIZE PUSH1 0x3 NOT ADD SLT PUSH2 0x261 JUMPI PUSH1 0x20 PUSH2 0x7A7 PUSH2 0x1AEA JUMP JUMPDEST PUSH1 0x40 MLOAD SWAP1 DUP2 MSTORE RETURN JUMPDEST CALLVALUE PUSH2 0x261 JUMPI PUSH1 0x0 CALLDATASIZE PUSH1 0x3 NOT ADD SLT PUSH2 0x261 JUMPI PUSH1 0x0 SLOAD PUSH1 0x40 MLOAD PUSH1 0x1 PUSH1 0x1 PUSH1 0xA0 SHL SUB SWAP1 SWAP2 AND DUP2 MSTORE PUSH1 0x20 SWAP1 RETURN JUMPDEST CALLVALUE PUSH2 0x261 JUMPI PUSH1 0x0 CALLDATASIZE PUSH1 0x3 NOT ADD SLT PUSH2 0x261 JUMPI PUSH1 0x20 PUSH1 0x4 SLOAD PUSH1 0x40 MLOAD SWAP1 DUP2 MSTORE RETURN JUMPDEST CALLVALUE PUSH2 0x261 JUMPI PUSH1 0x0 CALLDATASIZE PUSH1 0x3 NOT ADD SLT PUSH2 0x261 JUMPI CALLER PUSH1 0x0 MSTORE PUSH1 0x3 PUSH1 0x20 MSTORE PUSH1 0x4 PUSH1 0x40 PUSH1 0x0 KECCAK256 ADD PUSH1 0xFF NOT DUP2 SLOAD AND SWAP1 SSTORE PUSH1 0x40 MLOAD PUSH1 0x0 DUP2 MSTORE PUSH32 0xB347C6BF445109E788A01515E0DBA872723DDF737844D1E8BFFB97C1FC2F3C22 PUSH1 0x20 CALLER SWAP3 LOG2 STOP JUMPDEST CALLVALUE PUSH2 0x261 JUMPI PUSH1 0x20 CALLDATASIZE PUSH1 0x3 NOT ADD SLT PUSH2 0x261 JUMPI PUSH1 0x4 CALLDATALOAD PUSH1 0x4 SLOAD DUP2 LT ISZERO PUSH2 0x261 JUMPI PUSH2 0x878 PUSH1 0x20 SWAP2 PUSH2 0x1765 JUMP JUMPDEST SWAP1 SLOAD PUSH1 0x40 MLOAD PUSH1 0x3 SWAP3 SWAP1 SWAP3 SHL SHR PUSH1 0x1 PUSH1 0x1 PUSH1 0xA0 SHL SUB AND DUP2 MSTORE RETURN JUMPDEST CALLVALUE PUSH2 0x261 JUMPI PUSH1 0x20 CALLDATASIZE PUSH1 0x3 NOT ADD SLT PUSH2 0x261 JUMPI PUSH2 0x8AA PUSH2 0x23D0 JUMP JUMPDEST PUSH1 0x4 CALLDATALOAD PUSH1 0x8 SSTORE STOP JUMPDEST CALLVALUE PUSH2 0x261 JUMPI PUSH1 0x0 CALLDATASIZE PUSH1 0x3 NOT ADD SLT PUSH2 0x261 JUMPI PUSH2 0x8CB PUSH2 0x23D0 JUMP JUMPDEST PUSH1 0x0 DUP1 SLOAD PUSH1 0x1 PUSH1 0x1 PUSH1 0xA0 SHL SUB NOT DUP2 AND DUP3 SSTORE PUSH1 0x1 PUSH1 0x1 PUSH1 0xA0 SHL SUB AND PUSH32 0x8BE0079C531659141344CD1FD0A4F28419497F9722A3DAAFE3B4186F6B6457E0 DUP3 DUP1 LOG3 STOP JUMPDEST CALLVALUE PUSH2 0x261 JUMPI PUSH2 0x919 CALLDATASIZE PUSH2 0x1705 JUMP JUMPDEST POP POP PUSH3 0x15180 PUSH2 0x92B PUSH1 0x8 SLOAD TIMESTAMP PUSH2 0x196A JUMP JUMPDEST LT ISZERO PUSH1 0x0 PUSH1 0x4 SLOAD SWAP1 PUSH1 0x0 JUMPDEST DUP3 DUP2 LT DUP1 PUSH2 0xA28 JUMPI JUMPDEST ISZERO PUSH2 0xA20 JUMPI PUSH2 0x94D DUP2 PUSH2 0x1765 JUMP JUMPDEST SWAP1 SLOAD PUSH1 0x3 SWAP2 SWAP1 SWAP2 SHL SHR PUSH1 0x1 PUSH1 0x1 PUSH1 0xA0 SHL SUB AND PUSH2 0x968 DUP2 PUSH2 0x1CDC JUMP JUMPDEST SWAP1 DUP2 PUSH2 0xA04 JUMPI JUMPDEST POP PUSH2 0x982 JUMPI PUSH2 0x97D SWAP1 PUSH2 0x198F JUMP JUMPDEST PUSH2 0x936 JUMP JUMPDEST POP POP POP PUSH1 0x1 JUMPDEST DUP2 PUSH2 0x9FC JUMPI JUMPDEST POP PUSH1 0x40 MLOAD PUSH1 0x20 SWAP2 PUSH2 0x99F DUP4 DUP4 PUSH2 0x180D JUMP JUMPDEST PUSH1 0x0 DUP3 MSTORE PUSH1 0x40 MLOAD SWAP3 DUP4 SWAP2 ISZERO ISZERO DUP3 MSTORE PUSH1 0x40 DUP2 DUP4 ADD MSTORE DUP3 MLOAD SWAP1 DUP2 PUSH1 0x40 DUP5 ADD MSTORE PUSH1 0x0 SWAP4 JUMPDEST DUP3 DUP6 LT PUSH2 0x9E3 JUMPI POP POP PUSH1 0x60 SWAP3 POP PUSH1 0x0 DUP4 DUP3 DUP5 ADD ADD MSTORE PUSH1 0x1F DUP1 NOT SWAP2 ADD AND DUP2 ADD SUB ADD SWAP1 RETURN JUMPDEST DUP5 DUP2 ADD DUP3 ADD MLOAD DUP7 DUP7 ADD PUSH1 0x60 ADD MSTORE SWAP4 DUP2 ADD SWAP4 DUP6 SWAP4 POP PUSH2 0x9C0 JUMP JUMPDEST SWAP1 POP DUP2 PUSH2 0x98E JUMP JUMPDEST SWAP1 POP PUSH1 0x0 MSTORE PUSH1 0x3 PUSH1 0x20 MSTORE PUSH1 0xFF PUSH1 0x4 PUSH1 0x40 PUSH1 0x0 KECCAK256 ADD SLOAD AND DUP6 PUSH2 0x96F JUMP JUMPDEST POP SWAP1 POP PUSH2 0x988 JUMP JUMPDEST POP PUSH1 0x14 DUP2 LT PUSH2 0x93F JUMP JUMPDEST CALLVALUE PUSH2 0x261 JUMPI PUSH1 0x20 CALLDATASIZE PUSH1 0x3 NOT ADD SLT PUSH2 0x261 JUMPI PUSH1 0x4 CALLDATALOAD PUSH1 0x4 SLOAD DUP2 LT ISZERO PUSH2 0xA5B JUMPI PUSH2 0x878 PUSH1 0x20 SWAP2 PUSH2 0x1765 JUMP JUMPDEST PUSH1 0x40 MLOAD PUSH3 0x461BCD PUSH1 0xE5 SHL DUP2 MSTORE PUSH1 0x20 PUSH1 0x4 DUP3 ADD MSTORE PUSH1 0x13 PUSH1 0x24 DUP3 ADD MSTORE PUSH19 0x496E646578206F7574206F6620626F756E6473 PUSH1 0x68 SHL PUSH1 0x44 DUP3 ADD MSTORE PUSH1 0x64 SWAP1 REVERT JUMPDEST PUSH1 0x0 CALLDATASIZE PUSH1 0x3 NOT ADD SLT PUSH2 0x261 JUMPI PUSH2 0xAAA PUSH2 0x23F9 JUMP JUMPDEST CALLER PUSH1 0x0 MSTORE PUSH1 0x7 PUSH1 0x20 MSTORE PUSH2 0xAC5 PUSH1 0xFF PUSH1 0x40 PUSH1 0x0 KECCAK256 SLOAD AND ISZERO PUSH2 0x1A0D JUMP JUMPDEST CALLER PUSH1 0x0 MSTORE PUSH1 0x3 PUSH1 0x20 MSTORE PUSH1 0xFF PUSH1 0x2 PUSH1 0x40 PUSH1 0x0 KECCAK256 ADD SLOAD AND ISZERO PUSH2 0xC9C JUMPI JUMPDEST PUSH2 0xAE8 PUSH2 0x1874 JUMP JUMPDEST DUP1 CALLVALUE LT PUSH2 0xC60 JUMPI PUSH1 0x0 SWAP1 DUP1 CALLVALUE GT PUSH2 0xC4F JUMPI JUMPDEST POP PUSH3 0x278D00 TIMESTAMP ADD DUP1 TIMESTAMP GT PUSH2 0xC39 JUMPI PUSH2 0xB96 PUSH2 0xB15 DUP4 CALLVALUE PUSH2 0x196A JUMP JUMPDEST PUSH1 0x4 PUSH1 0x40 MLOAD SWAP2 PUSH2 0xB24 DUP4 PUSH2 0x17DB JUMP JUMPDEST TIMESTAMP DUP4 MSTORE PUSH1 0x20 DUP4 ADD SWAP1 DUP6 DUP3 MSTORE PUSH2 0xB7A PUSH1 0x40 DUP6 ADD PUSH1 0x1 DUP2 MSTORE PUSH1 0x60 DUP7 ADD SWAP3 DUP4 MSTORE PUSH1 0x80 DUP7 ADD SWAP4 PUSH1 0x0 DUP6 MSTORE CALLER PUSH1 0x0 MSTORE PUSH1 0x3 PUSH1 0x20 MSTORE PUSH1 0x40 PUSH1 0x0 KECCAK256 SWAP7 MLOAD DUP8 SSTORE MLOAD PUSH1 0x1 DUP8 ADD SSTORE MLOAD ISZERO ISZERO PUSH1 0x2 DUP7 ADD SWAP1 PUSH1 0xFF DUP1 NOT DUP4 SLOAD AND SWAP2 ISZERO ISZERO AND OR SWAP1 SSTORE JUMP JUMPDEST MLOAD PUSH1 0x3 DUP5 ADD SSTORE MLOAD ISZERO ISZERO SWAP2 ADD SWAP1 PUSH1 0xFF DUP1 NOT DUP4 SLOAD AND SWAP2 ISZERO ISZERO AND OR SWAP1 SSTORE JUMP JUMPDEST PUSH2 0xB9F CALLER PUSH2 0x1E1A JUMP JUMPDEST PUSH2 0xBA9 DUP3 CALLVALUE PUSH2 0x196A JUMP JUMPDEST SWAP1 PUSH1 0x40 MLOAD SWAP2 DUP3 MSTORE PUSH1 0x20 DUP3 ADD MSTORE PUSH32 0x6CD9D6BEBF8CC2076DD424F83DEB0559D8774D1C44178B4F676F9D50709FB1BE PUSH1 0x40 CALLER SWAP3 LOG2 DUP1 PUSH2 0xBE7 JUMPI JUMPDEST PUSH1 0x1 DUP1 SSTORE STOP JUMPDEST PUSH1 0x0 DUP1 DUP1 DUP1 SWAP4 CALLER GAS CALL PUSH2 0xBF8 PUSH2 0x1A93 JUMP JUMPDEST POP ISZERO PUSH2 0xC04 JUMPI DUP1 PUSH2 0xBE1 JUMP JUMPDEST PUSH1 0x40 MLOAD PUSH3 0x461BCD PUSH1 0xE5 SHL DUP2 MSTORE PUSH1 0x20 PUSH1 0x4 DUP3 ADD MSTORE PUSH1 0xD PUSH1 0x24 DUP3 ADD MSTORE PUSH13 0x1499599D5B990819985A5B1959 PUSH1 0x9A SHL PUSH1 0x44 DUP3 ADD MSTORE PUSH1 0x64 SWAP1 REVERT JUMPDEST PUSH4 0x4E487B71 PUSH1 0xE0 SHL PUSH1 0x0 MSTORE PUSH1 0x11 PUSH1 0x4 MSTORE PUSH1 0x24 PUSH1 0x0 REVERT JUMPDEST PUSH2 0xC5A SWAP2 POP CALLVALUE PUSH2 0x196A JUMP JUMPDEST DUP2 PUSH2 0xAFA JUMP JUMPDEST PUSH1 0x40 MLOAD PUSH3 0x461BCD PUSH1 0xE5 SHL DUP2 MSTORE PUSH1 0x20 PUSH1 0x4 DUP3 ADD MSTORE PUSH1 0x14 PUSH1 0x24 DUP3 ADD MSTORE PUSH20 0x125B9CDD59999A58DA595B9D081C185E5B595B9D PUSH1 0x62 SHL PUSH1 0x44 DUP3 ADD MSTORE PUSH1 0x64 SWAP1 REVERT JUMPDEST PUSH2 0xCAA PUSH1 0x14 PUSH1 0x4 SLOAD LT PUSH2 0x1A4F JUMP JUMPDEST PUSH2 0xAE0 JUMP JUMPDEST CALLVALUE PUSH2 0x261 JUMPI PUSH1 0x0 CALLDATASIZE PUSH1 0x3 NOT ADD SLT PUSH2 0x261 JUMPI PUSH1 0x20 PUSH1 0x40 MLOAD PUSH5 0x2540BE400 DUP2 MSTORE RETURN JUMPDEST CALLVALUE PUSH2 0x261 JUMPI PUSH1 0x0 CALLDATASIZE PUSH1 0x3 NOT ADD SLT PUSH2 0x261 JUMPI PUSH2 0xCE8 PUSH2 0x23F9 JUMP JUMPDEST CALLER PUSH1 0x0 MSTORE PUSH1 0x7 PUSH1 0x20 MSTORE PUSH2 0xD03 PUSH1 0xFF PUSH1 0x40 PUSH1 0x0 KECCAK256 SLOAD AND ISZERO PUSH2 0x1A0D JUMP JUMPDEST CALLER PUSH1 0x0 MSTORE PUSH1 0x3 PUSH1 0x20 MSTORE PUSH1 0xFF PUSH1 0x2 PUSH1 0x40 PUSH1 0x0 KECCAK256 ADD SLOAD AND ISZERO PUSH2 0xFD1 JUMPI JUMPDEST PUSH2 0xD26 PUSH2 0x1874 JUMP JUMPDEST PUSH1 0x40 MLOAD PUSH4 0x70A08231 PUSH1 0xE0 SHL DUP2 MSTORE CALLER PUSH1 0x4 DUP3 ADD MSTORE PUSH32 0x0 PUSH1 0x1 PUSH1 0x1 PUSH1 0xA0 SHL SUB AND SWAP1 PUSH1 0x20 DUP2 PUSH1 0x24 DUP2 DUP6 GAS STATICCALL DUP1 ISZERO PUSH2 0xF19 JUMPI DUP4 SWAP2 PUSH1 0x0 SWAP2 PUSH2 0xF9C JUMPI JUMPDEST POP LT PUSH2 0xF5B JUMPI PUSH1 0x40 MLOAD PUSH4 0x6EB1769F PUSH1 0xE1 SHL DUP2 MSTORE CALLER PUSH1 0x4 DUP3 ADD MSTORE ADDRESS PUSH1 0x24 DUP3 ADD MSTORE PUSH1 0x20 DUP2 PUSH1 0x44 DUP2 DUP6 GAS STATICCALL DUP1 ISZERO PUSH2 0xF19 JUMPI DUP4 SWAP1 PUSH1 0x0 SWAP1 PUSH2 0xF25 JUMPI JUMPDEST PUSH2 0xDC1 SWAP3 POP LT ISZERO PUSH2 0x182F JUMP JUMPDEST PUSH1 0x40 MLOAD PUSH4 0x23B872DD PUSH1 0xE0 SHL DUP2 MSTORE CALLER PUSH1 0x4 DUP3 ADD MSTORE ADDRESS PUSH1 0x24 DUP3 ADD MSTORE PUSH1 0x44 DUP2 ADD DUP4 SWAP1 MSTORE SWAP1 PUSH1 0x20 SWAP1 DUP3 SWAP1 PUSH1 0x64 SWAP1 DUP3 SWAP1 PUSH1 0x0 SWAP1 GAS CALL DUP1 ISZERO PUSH2 0xF19 JUMPI PUSH2 0xE09 SWAP2 PUSH1 0x0 SWAP2 PUSH2 0xEEA JUMPI JUMPDEST POP PUSH2 0x19CA JUMP JUMPDEST PUSH3 0x278D00 TIMESTAMP ADD DUP1 TIMESTAMP GT PUSH2 0xC39 JUMPI PUSH2 0xE7D PUSH1 0x40 MLOAD PUSH2 0xE25 DUP2 PUSH2 0x17DB JUMP JUMPDEST TIMESTAMP DUP2 MSTORE PUSH1 0x4 PUSH1 0x20 DUP3 ADD DUP5 DUP2 MSTORE PUSH1 0x40 DUP4 ADD PUSH1 0x1 DUP2 MSTORE PUSH2 0xB7A PUSH1 0x60 DUP6 ADD SWAP2 DUP9 DUP4 MSTORE PUSH1 0x80 DUP7 ADD SWAP4 PUSH1 0x1 DUP6 MSTORE CALLER PUSH1 0x0 MSTORE PUSH1 0x3 PUSH1 0x20 MSTORE PUSH1 0x40 PUSH1 0x0 KECCAK256 SWAP7 MLOAD DUP8 SSTORE MLOAD PUSH1 0x1 DUP8 ADD SSTORE MLOAD ISZERO ISZERO PUSH1 0x2 DUP7 ADD SWAP1 PUSH1 0xFF DUP1 NOT DUP4 SLOAD AND SWAP2 ISZERO ISZERO AND OR SWAP1 SSTORE JUMP JUMPDEST PUSH2 0xE86 CALLER PUSH2 0x1E1A JUMP JUMPDEST PUSH1 0x40 MLOAD SWAP2 DUP3 MSTORE PUSH1 0x20 DUP3 ADD MSTORE PUSH32 0x6CD9D6BEBF8CC2076DD424F83DEB0559D8774D1C44178B4F676F9D50709FB1BE PUSH1 0x40 CALLER SWAP3 LOG2 PUSH1 0x40 MLOAD PUSH1 0x1 DUP2 MSTORE PUSH32 0xB347C6BF445109E788A01515E0DBA872723DDF737844D1E8BFFB97C1FC2F3C22 PUSH1 0x20 CALLER SWAP3 LOG2 PUSH1 0x1 DUP1 SSTORE STOP JUMPDEST PUSH2 0xF0C SWAP2 POP PUSH1 0x20 RETURNDATASIZE PUSH1 0x20 GT PUSH2 0xF12 JUMPI JUMPDEST PUSH2 0xF04 DUP2 DUP4 PUSH2 0x180D JUMP JUMPDEST DUP2 ADD SWAP1 PUSH2 0x19B2 JUMP JUMPDEST DUP4 PUSH2 0xE03 JUMP JUMPDEST POP RETURNDATASIZE PUSH2 0xEFA JUMP JUMPDEST PUSH1 0x40 MLOAD RETURNDATASIZE PUSH1 0x0 DUP3 RETURNDATACOPY RETURNDATASIZE SWAP1 REVERT JUMPDEST POP POP PUSH1 0x20 DUP2 RETURNDATASIZE PUSH1 0x20 GT PUSH2 0xF53 JUMPI JUMPDEST DUP2 PUSH2 0xF40 PUSH1 0x20 SWAP4 DUP4 PUSH2 0x180D JUMP JUMPDEST DUP2 ADD SUB SLT PUSH2 0x261 JUMPI DUP3 PUSH2 0xDC1 SWAP2 MLOAD PUSH2 0xDB5 JUMP JUMPDEST RETURNDATASIZE SWAP2 POP PUSH2 0xF33 JUMP JUMPDEST PUSH1 0x40 MLOAD PUSH3 0x461BCD PUSH1 0xE5 SHL DUP2 MSTORE PUSH1 0x20 PUSH1 0x4 DUP3 ADD MSTORE PUSH1 0x19 PUSH1 0x24 DUP3 ADD MSTORE PUSH25 0x496E73756666696369656E7420574554482062616C616E6365 PUSH1 0x38 SHL PUSH1 0x44 DUP3 ADD MSTORE PUSH1 0x64 SWAP1 REVERT JUMPDEST SWAP2 POP POP PUSH1 0x20 DUP2 RETURNDATASIZE PUSH1 0x20 GT PUSH2 0xFC9 JUMPI JUMPDEST DUP2 PUSH2 0xFB8 PUSH1 0x20 SWAP4 DUP4 PUSH2 0x180D JUMP JUMPDEST DUP2 ADD SUB SLT PUSH2 0x261 JUMPI DUP3 SWAP1 MLOAD DUP5 PUSH2 0xD7D JUMP JUMPDEST RETURNDATASIZE SWAP2 POP PUSH2 0xFAB JUMP JUMPDEST PUSH2 0xFDF PUSH1 0x14 PUSH1 0x4 SLOAD LT PUSH2 0x1A4F JUMP JUMPDEST PUSH2 0xD1E JUMP JUMPDEST CALLVALUE PUSH2 0x261 JUMPI PUSH1 0x0 CALLDATASIZE PUSH1 0x3 NOT ADD SLT PUSH2 0x261 JUMPI PUSH1 0x20 PUSH1 0x40 MLOAD PUSH3 0x278D00 DUP2 MSTORE RETURN JUMPDEST CALLVALUE PUSH2 0x261 JUMPI PUSH1 0x40 CALLDATASIZE PUSH1 0x3 NOT ADD SLT PUSH2 0x261 JUMPI PUSH2 0x101B PUSH2 0x16EF JUMP JUMPDEST PUSH32 0x995D2434D36C9BCEAAB42C56EFE51E8FFE41FD11CABEFD9E2CB83700D8B2035E PUSH1 0x20 PUSH2 0x1046 PUSH2 0x1756 JUMP JUMPDEST PUSH2 0x104E PUSH2 0x23D0 JUMP JUMPDEST PUSH1 0x1 PUSH1 0x1 PUSH1 0xA0 SHL SUB DUP5 AND PUSH1 0x0 DUP2 DUP2 MSTORE PUSH1 0x7 DUP5 MSTORE PUSH1 0x40 SWAP1 KECCAK256 DUP1 SLOAD PUSH1 0xFF NOT AND PUSH1 0xFF DUP5 ISZERO ISZERO AND OR SWAP1 SSTORE SWAP4 DUP2 PUSH2 0x1087 JUMPI JUMPDEST POP PUSH1 0x40 MLOAD SWAP1 ISZERO ISZERO DUP2 MSTORE LOG2 STOP JUMPDEST PUSH2 0x1090 SWAP1 PUSH2 0x1EEC JUMP JUMPDEST DUP5 PUSH2 0x107B JUMP JUMPDEST CALLVALUE PUSH2 0x261 JUMPI PUSH1 0x0 CALLDATASIZE PUSH1 0x3 NOT ADD SLT PUSH2 0x261 JUMPI PUSH1 0x20 PUSH1 0x8 SLOAD PUSH1 0x40 MLOAD SWAP1 DUP2 MSTORE RETURN JUMPDEST CALLVALUE PUSH2 0x261 JUMPI PUSH1 0x0 CALLDATASIZE PUSH1 0x3 NOT ADD SLT PUSH2 0x261 JUMPI PUSH1 0x20 PUSH1 0x40 MLOAD PUSH3 0x15180 DUP2 MSTORE RETURN JUMPDEST CALLVALUE PUSH2 0x261 JUMPI PUSH1 0x0 CALLDATASIZE PUSH1 0x3 NOT ADD SLT PUSH2 0x261 JUMPI PUSH1 0x20 PUSH1 0x40 MLOAD PUSH1 0x14 DUP2 MSTORE RETURN JUMPDEST CALLVALUE PUSH2 0x261 JUMPI PUSH1 0x0 CALLDATASIZE PUSH1 0x3 NOT ADD SLT PUSH2 0x261 JUMPI PUSH2 0x1107 PUSH2 0x23D0 JUMP JUMPDEST PUSH1 0x40 MLOAD PUSH4 0x70A08231 PUSH1 0xE0 SHL DUP2 MSTORE ADDRESS PUSH1 0x4 DUP3 ADD MSTORE PUSH32 0x0 PUSH1 0x1 PUSH1 0x1 PUSH1 0xA0 SHL SUB AND SWAP1 PUSH1 0x20 DUP2 PUSH1 0x24 DUP2 DUP6 GAS STATICCALL SWAP1 DUP2 ISZERO PUSH2 0xF19 JUMPI PUSH1 0x0 SWAP2 PUSH2 0x1205 JUMPI JUMPDEST POP DUP1 ISZERO PUSH2 0x11CA JUMPI PUSH1 0x20 SWAP1 PUSH1 0x44 PUSH1 0x1 DUP1 PUSH1 0xA0 SHL SUB PUSH1 0x0 SLOAD AND PUSH1 0x0 PUSH1 0x40 MLOAD SWAP6 DUP7 SWAP5 DUP6 SWAP4 PUSH4 0xA9059CBB PUSH1 0xE0 SHL DUP6 MSTORE PUSH1 0x4 DUP6 ADD MSTORE PUSH1 0x24 DUP5 ADD MSTORE GAS CALL DUP1 ISZERO PUSH2 0xF19 JUMPI PUSH2 0x19 SWAP2 PUSH1 0x0 SWAP2 PUSH2 0x11AB JUMPI POP PUSH2 0x19CA JUMP JUMPDEST PUSH2 0x11C4 SWAP2 POP PUSH1 0x20 RETURNDATASIZE PUSH1 0x20 GT PUSH2 0xF12 JUMPI PUSH2 0xF04 DUP2 DUP4 PUSH2 0x180D JUMP JUMPDEST DUP3 PUSH2 0xE03 JUMP JUMPDEST PUSH1 0x40 MLOAD PUSH3 0x461BCD PUSH1 0xE5 SHL DUP2 MSTORE PUSH1 0x20 PUSH1 0x4 DUP3 ADD MSTORE PUSH1 0x13 PUSH1 0x24 DUP3 ADD MSTORE PUSH19 0x4E6F205745544820746F207769746864726177 PUSH1 0x68 SHL PUSH1 0x44 DUP3 ADD MSTORE PUSH1 0x64 SWAP1 REVERT JUMPDEST SWAP1 PUSH1 0x20 DUP3 RETURNDATASIZE PUSH1 0x20 GT PUSH2 0x1232 JUMPI JUMPDEST DUP2 PUSH2 0x121F PUSH1 0x20 SWAP4 DUP4 PUSH2 0x180D JUMP JUMPDEST DUP2 ADD SUB SLT PUSH2 0x122F JUMPI POP MLOAD DUP3 PUSH2 0x115D JUMP JUMPDEST DUP1 REVERT JUMPDEST RETURNDATASIZE SWAP2 POP PUSH2 0x1212 JUMP JUMPDEST CALLVALUE PUSH2 0x261 JUMPI PUSH1 0x0 CALLDATASIZE PUSH1 0x3 NOT ADD SLT PUSH2 0x261 JUMPI PUSH1 0x40 MLOAD PUSH32 0x0 PUSH1 0x1 PUSH1 0x1 PUSH1 0xA0 SHL SUB AND DUP2 MSTORE PUSH1 0x20 SWAP1 RETURN JUMPDEST CALLVALUE PUSH2 0x261 JUMPI PUSH2 0x128D CALLDATASIZE PUSH2 0x1705 JUMP JUMPDEST POP POP PUSH3 0x15180 PUSH2 0x129F PUSH1 0x8 SLOAD TIMESTAMP PUSH2 0x196A JUMP JUMPDEST LT PUSH2 0x1402 JUMPI TIMESTAMP PUSH1 0x8 SSTORE PUSH2 0x12B0 PUSH2 0x1874 JUMP JUMPDEST PUSH1 0x4 SLOAD PUSH1 0x0 SWAP2 PUSH2 0x12BF DUP3 PUSH2 0x1977 JUMP JUMPDEST SWAP1 PUSH2 0x12CD PUSH1 0x40 MLOAD SWAP3 DUP4 PUSH2 0x180D JUMP JUMPDEST DUP3 DUP3 MSTORE PUSH1 0x1F NOT PUSH2 0x12DC DUP5 PUSH2 0x1977 JUMP JUMPDEST ADD CALLDATASIZE PUSH1 0x20 DUP5 ADD CALLDATACOPY DUP4 SWAP1 DUP5 JUMPDEST DUP5 DUP2 LT DUP1 PUSH2 0x13F8 JUMPI JUMPDEST ISZERO PUSH2 0x136C JUMPI PUSH2 0x12FE DUP2 PUSH2 0x1765 JUMP JUMPDEST SWAP1 SLOAD PUSH1 0x3 SWAP2 SWAP1 SWAP2 SHL SHR PUSH1 0x1 PUSH1 0x1 PUSH1 0xA0 SHL SUB AND PUSH2 0x1319 DUP2 PUSH2 0x1CDC JUMP JUMPDEST DUP1 PUSH2 0x1353 JUMPI JUMPDEST PUSH2 0x1333 JUMPI JUMPDEST POP PUSH2 0x132E SWAP1 PUSH2 0x198F JUMP JUMPDEST PUSH2 0x12E7 JUMP JUMPDEST DUP4 PUSH2 0x134C SWAP2 PUSH2 0x1346 PUSH2 0x132E SWAP5 SWAP7 DUP9 PUSH2 0x199E JUMP JUMPDEST MSTORE PUSH2 0x198F JUMP JUMPDEST SWAP3 SWAP1 PUSH2 0x1324 JUMP JUMPDEST POP DUP1 DUP8 MSTORE PUSH1 0x3 PUSH1 0x20 MSTORE PUSH1 0xFF PUSH1 0x4 PUSH1 0x40 DUP10 KECCAK256 ADD SLOAD AND PUSH2 0x131F JUMP JUMPDEST POP DUP5 SWAP3 DUP4 JUMPDEST DUP4 DUP2 LT PUSH2 0x13AB JUMPI JUMPDEST PUSH32 0x37AEB7A78769E88660E2546F8AC9047631D3969FAAA2DCE0188F6A220AC99C17 PUSH1 0x40 DUP7 DUP2 MLOAD SWAP1 TIMESTAMP DUP3 MSTORE PUSH1 0x20 DUP3 ADD MSTORE LOG1 STOP JUMPDEST PUSH3 0x186A0 GAS LT PUSH2 0x13F3 JUMPI PUSH2 0x13D2 DUP4 PUSH1 0x1 PUSH1 0x1 PUSH1 0xA0 SHL SUB PUSH2 0x13CB DUP5 DUP7 PUSH2 0x199E JUMP JUMPDEST MLOAD AND PUSH2 0x2002 JUMP JUMPDEST PUSH2 0x13DF JUMPI JUMPDEST PUSH1 0x1 ADD PUSH2 0x1371 JUMP JUMPDEST SWAP4 PUSH2 0x13EB PUSH1 0x1 SWAP2 PUSH2 0x198F JUMP JUMPDEST SWAP5 SWAP1 POP PUSH2 0x13D7 JUMP JUMPDEST PUSH2 0x1379 JUMP JUMPDEST POP PUSH1 0x14 DUP4 LT PUSH2 0x12F0 JUMP JUMPDEST PUSH1 0x40 MLOAD PUSH3 0x461BCD PUSH1 0xE5 SHL DUP2 MSTORE PUSH1 0x20 PUSH1 0x4 DUP3 ADD MSTORE PUSH1 0x9 PUSH1 0x24 DUP3 ADD MSTORE PUSH9 0x546F6F206561726C79 PUSH1 0xB8 SHL PUSH1 0x44 DUP3 ADD MSTORE PUSH1 0x64 SWAP1 REVERT JUMPDEST CALLVALUE PUSH2 0x261 JUMPI PUSH1 0x20 CALLDATASIZE PUSH1 0x3 NOT ADD SLT PUSH2 0x261 JUMPI PUSH1 0x20 PUSH2 0x59E PUSH2 0x1451 PUSH2 0x16EF JUMP JUMPDEST PUSH2 0x18CC JUMP JUMPDEST CALLVALUE PUSH2 0x261 JUMPI PUSH1 0x0 CALLDATASIZE PUSH1 0x3 NOT ADD SLT PUSH2 0x261 JUMPI PUSH1 0x60 PUSH2 0x1471 PUSH2 0x1AEA JUMP JUMPDEST PUSH2 0x1479 PUSH2 0x1874 JUMP JUMPDEST SWAP1 PUSH1 0x40 MLOAD SWAP2 PUSH5 0x2540BE400 DUP4 MSTORE PUSH1 0x20 DUP4 ADD MSTORE PUSH1 0x40 DUP3 ADD MSTORE RETURN JUMPDEST CALLVALUE PUSH2 0x261 JUMPI PUSH1 0x0 CALLDATASIZE PUSH1 0x3 NOT ADD SLT PUSH2 0x261 JUMPI CALLER PUSH1 0x0 MSTORE PUSH1 0x3 PUSH1 0x20 MSTORE PUSH2 0x14C0 PUSH1 0xFF PUSH1 0x2 PUSH1 0x40 PUSH1 0x0 KECCAK256 ADD SLOAD AND PUSH2 0x1796 JUMP JUMPDEST CALLER PUSH1 0x0 DUP2 DUP2 MSTORE PUSH1 0x3 PUSH1 0x20 MSTORE PUSH1 0x40 SWAP1 KECCAK256 PUSH1 0x2 DUP2 ADD DUP1 SLOAD PUSH1 0xFF NOT SWAP1 DUP2 AND SWAP1 SWAP2 SSTORE PUSH1 0x4 SWAP1 SWAP2 ADD DUP1 SLOAD SWAP1 SWAP2 AND SWAP1 SSTORE PUSH2 0x14F3 SWAP1 PUSH2 0x1EEC JUMP JUMPDEST PUSH1 0x40 MLOAD TIMESTAMP DUP2 MSTORE PUSH32 0x75703D723C382BAF9126C0B27310A322412B9E2BBAF52E74AFCF50B107A7905F PUSH1 0x20 CALLER SWAP3 LOG2 STOP JUMPDEST CALLVALUE PUSH2 0x261 JUMPI PUSH1 0x20 CALLDATASIZE PUSH1 0x3 NOT ADD SLT PUSH2 0x261 JUMPI PUSH1 0x1 PUSH1 0x1 PUSH1 0xA0 SHL SUB PUSH2 0x1542 PUSH2 0x16EF JUMP JUMPDEST AND PUSH1 0x0 MSTORE PUSH1 0x6 PUSH1 0x20 MSTORE PUSH1 0x20 PUSH1 0xFF PUSH1 0x40 PUSH1 0x0 KECCAK256 SLOAD AND PUSH1 0x40 MLOAD SWAP1 ISZERO ISZERO DUP2 MSTORE RETURN JUMPDEST CALLVALUE PUSH2 0x261 JUMPI PUSH1 0x0 CALLDATASIZE PUSH1 0x3 NOT ADD SLT PUSH2 0x261 JUMPI PUSH1 0x20 PUSH2 0x7A7 PUSH2 0x1874 JUMP JUMPDEST CALLVALUE PUSH2 0x261 JUMPI PUSH1 0x0 CALLDATASIZE PUSH1 0x3 NOT ADD SLT PUSH2 0x261 JUMPI CALLER PUSH1 0x0 MSTORE PUSH1 0x3 PUSH1 0x20 MSTORE PUSH2 0x15A9 PUSH1 0xFF PUSH1 0x2 PUSH1 0x40 PUSH1 0x0 KECCAK256 ADD SLOAD AND PUSH2 0x1796 JUMP JUMPDEST CALLER PUSH1 0x0 MSTORE PUSH1 0x3 PUSH1 0x20 MSTORE PUSH1 0xFF PUSH1 0x4 PUSH1 0x40 PUSH1 0x0 KECCAK256 ADD SLOAD AND PUSH2 0x16B8 JUMPI PUSH2 0x15CA PUSH2 0x1874 JUMP JUMPDEST PUSH1 0x40 MLOAD PUSH4 0x6EB1769F PUSH1 0xE1 SHL DUP2 MSTORE CALLER PUSH1 0x4 DUP3 ADD MSTORE ADDRESS PUSH1 0x24 DUP3 ADD MSTORE SWAP1 PUSH1 0x20 DUP3 PUSH1 0x44 DUP2 PUSH1 0x1 PUSH1 0x1 PUSH1 0xA0 SHL SUB PUSH32 0x0 AND GAS STATICCALL DUP1 ISZERO PUSH2 0xF19 JUMPI PUSH1 0x0 SWAP1 PUSH2 0x1684 JUMPI JUMPDEST PUSH2 0x1630 SWAP3 POP LT ISZERO PUSH2 0x182F JUMP JUMPDEST CALLER PUSH1 0x0 MSTORE PUSH1 0x3 PUSH1 0x20 MSTORE PUSH1 0x4 PUSH1 0x40 PUSH1 0x0 KECCAK256 ADD PUSH1 0x1 PUSH1 0xFF NOT DUP3 SLOAD AND OR SWAP1 SSTORE PUSH2 0x1655 CALLER PUSH2 0x1E1A JUMP JUMPDEST PUSH1 0x40 MLOAD PUSH1 0x1 DUP2 MSTORE PUSH32 0xB347C6BF445109E788A01515E0DBA872723DDF737844D1E8BFFB97C1FC2F3C22 PUSH1 0x20 CALLER SWAP3 LOG2 STOP JUMPDEST POP PUSH1 0x20 DUP3 RETURNDATASIZE PUSH1 0x20 GT PUSH2 0x16B0 JUMPI JUMPDEST DUP2 PUSH2 0x169E PUSH1 0x20 SWAP4 DUP4 PUSH2 0x180D JUMP JUMPDEST DUP2 ADD SUB SLT PUSH2 0x261 JUMPI PUSH2 0x1630 SWAP2 MLOAD PUSH2 0x1624 JUMP JUMPDEST RETURNDATASIZE SWAP2 POP PUSH2 0x1691 JUMP JUMPDEST PUSH1 0x40 MLOAD PUSH3 0x461BCD PUSH1 0xE5 SHL DUP2 MSTORE PUSH1 0x20 PUSH1 0x4 DUP3 ADD MSTORE PUSH1 0xF PUSH1 0x24 DUP3 ADD MSTORE PUSH15 0x105B1C9958591E48195B98589B1959 PUSH1 0x8A SHL PUSH1 0x44 DUP3 ADD MSTORE PUSH1 0x64 SWAP1 REVERT JUMPDEST PUSH1 0x4 CALLDATALOAD SWAP1 PUSH1 0x1 PUSH1 0x1 PUSH1 0xA0 SHL SUB DUP3 AND DUP3 SUB PUSH2 0x261 JUMPI JUMP JUMPDEST SWAP1 PUSH1 0x20 PUSH1 0x3 NOT DUP4 ADD SLT PUSH2 0x261 JUMPI PUSH1 0x4 CALLDATALOAD PUSH8 0xFFFFFFFFFFFFFFFF DUP2 GT PUSH2 0x261 JUMPI DUP3 PUSH1 0x23 DUP3 ADD SLT ISZERO PUSH2 0x261 JUMPI DUP1 PUSH1 0x4 ADD CALLDATALOAD SWAP3 PUSH8 0xFFFFFFFFFFFFFFFF DUP5 GT PUSH2 0x261 JUMPI PUSH1 0x24 DUP5 DUP4 ADD ADD GT PUSH2 0x261 JUMPI PUSH1 0x24 ADD SWAP2 SWAP1 JUMP JUMPDEST PUSH1 0x24 CALLDATALOAD SWAP1 DUP2 ISZERO ISZERO DUP3 SUB PUSH2 0x261 JUMPI JUMP JUMPDEST PUSH1 0x4 SLOAD DUP2 LT ISZERO PUSH2 0x1780 JUMPI PUSH1 0x4 PUSH1 0x0 MSTORE PUSH1 0x20 PUSH1 0x0 KECCAK256 ADD SWAP1 PUSH1 0x0 SWAP1 JUMP JUMPDEST PUSH4 0x4E487B71 PUSH1 0xE0 SHL PUSH1 0x0 MSTORE PUSH1 0x32 PUSH1 0x4 MSTORE PUSH1 0x24 PUSH1 0x0 REVERT JUMPDEST ISZERO PUSH2 0x179D JUMPI JUMP JUMPDEST PUSH1 0x40 MLOAD PUSH3 0x461BCD PUSH1 0xE5 SHL DUP2 MSTORE PUSH1 0x20 PUSH1 0x4 DUP3 ADD MSTORE PUSH1 0x16 PUSH1 0x24 DUP3 ADD MSTORE PUSH22 0x27379030B1BA34BB329039BAB139B1B934B83A34B7B7 PUSH1 0x51 SHL PUSH1 0x44 DUP3 ADD MSTORE PUSH1 0x64 SWAP1 REVERT JUMPDEST PUSH1 0xA0 DUP2 ADD SWAP1 DUP2 LT PUSH8 0xFFFFFFFFFFFFFFFF DUP3 GT OR PUSH2 0x17F7 JUMPI PUSH1 0x40 MSTORE JUMP JUMPDEST PUSH4 0x4E487B71 PUSH1 0xE0 SHL PUSH1 0x0 MSTORE PUSH1 0x41 PUSH1 0x4 MSTORE PUSH1 0x24 PUSH1 0x0 REVERT JUMPDEST SWAP1 PUSH1 0x1F DUP1 NOT SWAP2 ADD AND DUP2 ADD SWAP1 DUP2 LT PUSH8 0xFFFFFFFFFFFFFFFF DUP3 GT OR PUSH2 0x17F7 JUMPI PUSH1 0x40 MSTORE JUMP JUMPDEST ISZERO PUSH2 0x1836 JUMPI JUMP JUMPDEST PUSH1 0x40 MLOAD PUSH3 0x461BCD PUSH1 0xE5 SHL DUP2 MSTORE PUSH1 0x20 PUSH1 0x4 DUP3 ADD MSTORE PUSH1 0x16 PUSH1 0x24 DUP3 ADD MSTORE PUSH22 0x15D1551208185C1C1C9BDD985B081C995C5D5A5C9959 PUSH1 0x52 SHL PUSH1 0x44 DUP3 ADD MSTORE PUSH1 0x64 SWAP1 REVERT JUMPDEST PUSH2 0x187C PUSH2 0x1AEA JUMP JUMPDEST DUP1 ISZERO PUSH2 0x1893 JUMPI PUSH12 0x204FCE5E3E25026110000000 DIV SWAP1 JUMP JUMPDEST PUSH1 0x40 MLOAD PUSH3 0x461BCD PUSH1 0xE5 SHL DUP2 MSTORE PUSH1 0x20 PUSH1 0x4 DUP3 ADD MSTORE PUSH1 0x11 PUSH1 0x24 DUP3 ADD MSTORE PUSH17 0x496E76616C696420455448207072696365 PUSH1 0x78 SHL PUSH1 0x44 DUP3 ADD MSTORE PUSH1 0x64 SWAP1 REVERT JUMPDEST PUSH1 0x1 PUSH1 0x1 PUSH1 0xA0 SHL SUB AND PUSH1 0x0 DUP2 DUP2 MSTORE PUSH1 0x3 PUSH1 0x20 MSTORE PUSH1 0x40 SWAP1 DUP2 SWAP1 KECCAK256 SWAP1 MLOAD SWAP2 PUSH2 0x18F1 DUP4 PUSH2 0x17DB JUMP JUMPDEST DUP2 SLOAD DUP4 MSTORE PUSH1 0x1 DUP3 ADD SLOAD SWAP3 PUSH1 0x20 DUP2 ADD SWAP4 DUP5 MSTORE PUSH1 0xFF PUSH1 0x2 DUP5 ADD SLOAD AND ISZERO SWAP1 PUSH1 0x80 PUSH1 0xFF PUSH1 0x4 DUP5 ISZERO SWAP7 DUP8 PUSH1 0x40 DUP7 ADD MSTORE PUSH1 0x3 DUP2 ADD SLOAD PUSH1 0x60 DUP7 ADD MSTORE ADD SLOAD AND ISZERO ISZERO SWAP2 ADD MSTORE SWAP2 PUSH2 0x1951 JUMPI JUMPDEST POP PUSH2 0x194B JUMPI MLOAD PUSH3 0x3F480 DUP2 ADD DUP1 SWAP2 GT PUSH2 0xC39 JUMPI TIMESTAMP GT SWAP1 JUMP JUMPDEST POP PUSH1 0x0 SWAP1 JUMP JUMPDEST SWAP1 POP PUSH1 0x0 MSTORE PUSH1 0x7 PUSH1 0x20 MSTORE PUSH1 0xFF PUSH1 0x40 PUSH1 0x0 KECCAK256 SLOAD AND CODESIZE PUSH2 0x1933 JUMP JUMPDEST SWAP2 SWAP1 DUP3 SUB SWAP2 DUP3 GT PUSH2 0xC39 JUMPI JUMP JUMPDEST PUSH8 0xFFFFFFFFFFFFFFFF DUP2 GT PUSH2 0x17F7 JUMPI PUSH1 0x5 SHL PUSH1 0x20 ADD SWAP1 JUMP JUMPDEST PUSH1 0x0 NOT DUP2 EQ PUSH2 0xC39 JUMPI PUSH1 0x1 ADD SWAP1 JUMP JUMPDEST DUP1 MLOAD DUP3 LT ISZERO PUSH2 0x1780 JUMPI PUSH1 0x20 SWAP2 PUSH1 0x5 SHL ADD ADD SWAP1 JUMP JUMPDEST SWAP1 DUP2 PUSH1 0x20 SWAP2 SUB SLT PUSH2 0x261 JUMPI MLOAD DUP1 ISZERO ISZERO DUP2 SUB PUSH2 0x261 JUMPI SWAP1 JUMP JUMPDEST ISZERO PUSH2 0x19D1 JUMPI JUMP JUMPDEST PUSH1 0x40 MLOAD PUSH3 0x461BCD PUSH1 0xE5 SHL DUP2 MSTORE PUSH1 0x20 PUSH1 0x4 DUP3 ADD MSTORE PUSH1 0x14 PUSH1 0x24 DUP3 ADD MSTORE PUSH20 0x15D15512081D1C985B9CD9995C8819985A5B1959 PUSH1 0x62 SHL PUSH1 0x44 DUP3 ADD MSTORE PUSH1 0x64 SWAP1 REVERT JUMPDEST ISZERO PUSH2 0x1A14 JUMPI JUMP JUMPDEST PUSH1 0x40 MLOAD PUSH3 0x461BCD PUSH1 0xE5 SHL DUP2 MSTORE PUSH1 0x20 PUSH1 0x4 DUP3 ADD MSTORE PUSH1 0x13 PUSH1 0x24 DUP3 ADD MSTORE PUSH19 0x155CD95C881A5CC81DDA1A5D195B1A5CDD1959 PUSH1 0x6A SHL PUSH1 0x44 DUP3 ADD MSTORE PUSH1 0x64 SWAP1 REVERT JUMPDEST ISZERO PUSH2 0x1A56 JUMPI JUMP JUMPDEST PUSH1 0x40 MLOAD PUSH3 0x461BCD PUSH1 0xE5 SHL DUP2 MSTORE PUSH1 0x20 PUSH1 0x4 DUP3 ADD MSTORE PUSH1 0x15 PUSH1 0x24 DUP3 ADD MSTORE PUSH21 0x13585E1A5B5D5B481D5CD95C9CC81C995858DA1959 PUSH1 0x5A SHL PUSH1 0x44 DUP3 ADD MSTORE PUSH1 0x64 SWAP1 REVERT JUMPDEST RETURNDATASIZE ISZERO PUSH2 0x1ACE JUMPI RETURNDATASIZE SWAP1 PUSH8 0xFFFFFFFFFFFFFFFF DUP3 GT PUSH2 0x17F7 JUMPI PUSH1 0x40 MLOAD SWAP2 PUSH2 0x1AC2 PUSH1 0x1F DUP3 ADD PUSH1 0x1F NOT AND PUSH1 0x20 ADD DUP5 PUSH2 0x180D JUMP JUMPDEST DUP3 MSTORE RETURNDATASIZE PUSH1 0x0 PUSH1 0x20 DUP5 ADD RETURNDATACOPY JUMP JUMPDEST PUSH1 0x60 SWAP1 JUMP JUMPDEST MLOAD SWAP1 PUSH10 0xFFFFFFFFFFFFFFFFFFFF DUP3 AND DUP3 SUB PUSH2 0x261 JUMPI JUMP JUMPDEST PUSH1 0x2 SLOAD PUSH1 0x40 MLOAD PUSH4 0x3FABE5A3 PUSH1 0xE2 SHL DUP2 MSTORE SWAP1 PUSH1 0xA0 SWAP1 DUP3 SWAP1 PUSH1 0x4 SWAP1 DUP3 SWAP1 PUSH1 0x1 PUSH1 0x1 PUSH1 0xA0 SHL SUB AND GAS STATICCALL DUP1 ISZERO PUSH2 0xF19 JUMPI PUSH1 0x0 DUP1 SWAP3 DUP2 SWAP1 DUP3 SWAP4 PUSH2 0x1C85 JUMPI JUMPDEST POP PUSH1 0x0 DUP5 SGT ISZERO PUSH2 0x1C4B JUMPI DUP1 ISZERO PUSH2 0x1C11 JUMPI PUSH2 0x1B40 PUSH2 0xE10 SWAP2 TIMESTAMP PUSH2 0x196A JUMP JUMPDEST GT PUSH2 0x1BD7 JUMPI PUSH10 0xFFFFFFFFFFFFFFFFFFFF DUP1 SWAP2 AND SWAP2 AND LT PUSH2 0x1B9F JUMPI PUSH5 0xE8D4A51000 DUP2 GT PUSH2 0x1B69 JUMPI SWAP1 JUMP JUMPDEST PUSH1 0x40 MLOAD PUSH3 0x461BCD PUSH1 0xE5 SHL DUP2 MSTORE PUSH1 0x20 PUSH1 0x4 DUP3 ADD MSTORE PUSH1 0xE PUSH1 0x24 DUP3 ADD MSTORE PUSH14 0xA0E4D2C6CA40E8DEDE40D0D2CED PUSH1 0x93 SHL PUSH1 0x44 DUP3 ADD MSTORE PUSH1 0x64 SWAP1 REVERT JUMPDEST PUSH1 0x40 MLOAD PUSH3 0x461BCD PUSH1 0xE5 SHL DUP2 MSTORE PUSH1 0x20 PUSH1 0x4 DUP3 ADD MSTORE PUSH1 0x10 PUSH1 0x24 DUP3 ADD MSTORE PUSH16 0x5374616C652070726963652064617461 PUSH1 0x80 SHL PUSH1 0x44 DUP3 ADD MSTORE PUSH1 0x64 SWAP1 REVERT JUMPDEST PUSH1 0x40 MLOAD PUSH3 0x461BCD PUSH1 0xE5 SHL DUP2 MSTORE PUSH1 0x20 PUSH1 0x4 DUP3 ADD MSTORE PUSH1 0x12 PUSH1 0x24 DUP3 ADD MSTORE PUSH18 0x141C9A58D94819185D18481D1BDBC81BDB19 PUSH1 0x72 SHL PUSH1 0x44 DUP3 ADD MSTORE PUSH1 0x64 SWAP1 REVERT JUMPDEST PUSH1 0x40 MLOAD PUSH3 0x461BCD PUSH1 0xE5 SHL DUP2 MSTORE PUSH1 0x20 PUSH1 0x4 DUP3 ADD MSTORE PUSH1 0x12 PUSH1 0x24 DUP3 ADD MSTORE PUSH18 0x526F756E64206E6F7420636F6D706C657465 PUSH1 0x70 SHL PUSH1 0x44 DUP3 ADD MSTORE PUSH1 0x64 SWAP1 REVERT JUMPDEST PUSH1 0x40 MLOAD PUSH3 0x461BCD PUSH1 0xE5 SHL DUP2 MSTORE PUSH1 0x20 PUSH1 0x4 DUP3 ADD MSTORE PUSH1 0x12 PUSH1 0x24 DUP3 ADD MSTORE PUSH18 0x125B9D985B1A59081C1C9A58D94819995959 PUSH1 0x72 SHL PUSH1 0x44 DUP3 ADD MSTORE PUSH1 0x64 SWAP1 REVERT JUMPDEST SWAP4 POP POP SWAP1 POP PUSH1 0xA0 DUP3 RETURNDATASIZE PUSH1 0xA0 GT PUSH2 0x1CD4 JUMPI JUMPDEST DUP2 PUSH2 0x1CA3 PUSH1 0xA0 SWAP4 DUP4 PUSH2 0x180D JUMP JUMPDEST DUP2 ADD SUB SLT PUSH2 0x122F JUMPI POP PUSH2 0x1CB5 DUP2 PUSH2 0x1AD3 JUMP JUMPDEST PUSH1 0x20 DUP3 ADD MLOAD PUSH2 0x1CCB PUSH1 0x80 PUSH1 0x60 DUP6 ADD MLOAD SWAP5 ADD PUSH2 0x1AD3 JUMP JUMPDEST SWAP2 SWAP1 SWAP3 CODESIZE PUSH2 0x1B23 JUMP JUMPDEST RETURNDATASIZE SWAP2 POP PUSH2 0x1C96 JUMP JUMPDEST PUSH1 0x1 PUSH1 0x1 PUSH1 0xA0 SHL SUB AND PUSH1 0x0 DUP2 DUP2 MSTORE PUSH1 0x3 PUSH1 0x20 MSTORE PUSH1 0x40 SWAP1 DUP2 SWAP1 KECCAK256 SWAP1 MLOAD SWAP2 PUSH2 0x1D01 DUP4 PUSH2 0x17DB JUMP JUMPDEST DUP2 SLOAD DUP4 MSTORE PUSH1 0x1 DUP3 ADD SLOAD SWAP3 PUSH1 0x20 DUP2 ADD SWAP4 DUP5 MSTORE PUSH1 0xFF PUSH1 0x2 DUP5 ADD SLOAD AND ISZERO SWAP1 PUSH1 0x80 PUSH1 0xFF PUSH1 0x4 DUP5 ISZERO SWAP7 DUP8 PUSH1 0x40 DUP7 ADD MSTORE PUSH1 0x3 DUP2 ADD SLOAD PUSH1 0x60 DUP7 ADD MSTORE ADD SLOAD AND ISZERO ISZERO SWAP2 ADD MSTORE SWAP2 PUSH2 0x1D4F JUMPI JUMPDEST POP PUSH2 0x194B JUMPI MLOAD TIMESTAMP LT ISZERO SWAP1 JUMP JUMPDEST SWAP1 POP PUSH1 0x0 MSTORE PUSH1 0x7 PUSH1 0x20 MSTORE PUSH1 0xFF PUSH1 0x40 PUSH1 0x0 KECCAK256 SLOAD AND CODESIZE PUSH2 0x1D43 JUMP JUMPDEST SWAP2 SWAP1 DUP2 LT ISZERO PUSH2 0x1780 JUMPI PUSH1 0x5 SHL ADD SWAP1 JUMP JUMPDEST CALLDATALOAD PUSH1 0x1 PUSH1 0x1 PUSH1 0xA0 SHL SUB DUP2 AND DUP2 SUB PUSH2 0x261 JUMPI SWAP1 JUMP JUMPDEST PUSH1 0x1 PUSH1 0x1 PUSH1 0xA0 SHL SUB AND PUSH1 0x0 DUP2 DUP2 MSTORE PUSH1 0x7 PUSH1 0x20 MSTORE PUSH1 0x40 SWAP1 KECCAK256 SLOAD PUSH1 0xFF AND PUSH2 0x1E14 JUMPI PUSH1 0x0 MSTORE PUSH1 0x3 PUSH1 0x20 MSTORE PUSH1 0x40 PUSH1 0x0 KECCAK256 PUSH1 0x40 MLOAD SWAP1 PUSH2 0x1DC5 DUP3 PUSH2 0x17DB JUMP JUMPDEST DUP1 SLOAD DUP3 MSTORE PUSH1 0x1 DUP2 ADD SLOAD SWAP2 DUP3 PUSH1 0x20 DUP3 ADD MSTORE PUSH1 0x80 PUSH1 0xFF PUSH1 0x4 DUP2 PUSH1 0x2 DUP7 ADD SLOAD AND ISZERO SWAP5 DUP6 ISZERO PUSH1 0x40 DUP7 ADD MSTORE PUSH1 0x3 DUP2 ADD SLOAD PUSH1 0x60 DUP7 ADD MSTORE ADD SLOAD AND ISZERO ISZERO SWAP2 ADD MSTORE PUSH2 0x194B JUMPI PUSH3 0x3F480 DUP2 ADD DUP1 SWAP2 GT PUSH2 0xC39 JUMPI TIMESTAMP GT ISZERO SWAP1 JUMP JUMPDEST POP PUSH1 0x1 SWAP1 JUMP JUMPDEST PUSH1 0x1 PUSH1 0x1 PUSH1 0xA0 SHL SUB DUP2 AND PUSH1 0x0 DUP2 DUP2 MSTORE PUSH1 0x6 PUSH1 0x20 MSTORE PUSH1 0x40 SWAP1 KECCAK256 SLOAD SWAP1 SWAP2 SWAP1 PUSH1 0xFF AND ISZERO PUSH2 0x1E42 JUMPI POP POP JUMP JUMPDEST PUSH1 0x4 SLOAD SWAP1 PUSH9 0x10000000000000000 DUP3 LT ISZERO PUSH2 0x17F7 JUMPI PUSH2 0x1E6A DUP3 PUSH1 0x1 PUSH2 0x1E8E SWAP5 ADD PUSH1 0x4 SSTORE PUSH2 0x1765 JUMP JUMPDEST DUP2 SLOAD PUSH1 0x1 PUSH1 0x1 PUSH1 0xA0 SHL SUB SWAP4 DUP5 AND PUSH1 0x3 SWAP3 SWAP1 SWAP3 SHL SWAP2 DUP3 SHL SWAP4 SWAP1 SWAP2 SHL NOT AND SWAP2 SWAP1 SWAP2 OR SWAP1 SSTORE JUMP JUMPDEST PUSH1 0x4 SLOAD PUSH1 0x0 NOT DUP2 ADD SWAP1 DUP2 GT PUSH2 0xC39 JUMPI DUP2 PUSH1 0x0 MSTORE PUSH1 0x5 PUSH1 0x20 MSTORE PUSH1 0x40 PUSH1 0x0 KECCAK256 SSTORE DUP1 PUSH1 0x0 MSTORE PUSH1 0x6 PUSH1 0x20 MSTORE PUSH1 0x40 PUSH1 0x0 KECCAK256 PUSH1 0x1 PUSH1 0xFF NOT DUP3 SLOAD AND OR SWAP1 SSTORE PUSH32 0xBFF36AB077310EF747DCAB7B87DE0A2BE21EE4AD9C8ED40251FFD3FF744235E7 PUSH1 0x0 DUP1 LOG2 JUMP JUMPDEST PUSH1 0x1 PUSH1 0x1 PUSH1 0xA0 SHL SUB AND PUSH1 0x0 DUP2 DUP2 MSTORE PUSH1 0x6 PUSH1 0x20 MSTORE PUSH1 0x40 SWAP1 KECCAK256 SLOAD PUSH1 0xFF AND PUSH2 0x1F0E JUMPI POP JUMP JUMPDEST DUP1 PUSH1 0x0 MSTORE PUSH1 0x5 PUSH1 0x20 MSTORE PUSH1 0x40 PUSH1 0x0 KECCAK256 SLOAD PUSH1 0x4 SLOAD PUSH1 0x0 NOT DUP2 ADD SWAP1 DUP2 GT PUSH2 0xC39 JUMPI DUP1 DUP3 SUB PUSH2 0x1FC5 JUMPI JUMPDEST POP POP PUSH1 0x4 SLOAD DUP1 ISZERO PUSH2 0x1FAF JUMPI PUSH1 0x0 NOT ADD PUSH2 0x1F4C DUP2 PUSH2 0x1765 JUMP JUMPDEST DUP2 SLOAD SWAP1 PUSH1 0x1 DUP1 PUSH1 0xA0 SHL SUB SWAP1 PUSH1 0x3 SHL SHL NOT AND SWAP1 SSTORE PUSH1 0x4 SSTORE DUP1 PUSH1 0x0 MSTORE PUSH1 0x5 PUSH1 0x20 MSTORE PUSH1 0x0 PUSH1 0x40 DUP2 KECCAK256 SSTORE DUP1 PUSH1 0x0 MSTORE PUSH1 0x6 PUSH1 0x20 MSTORE PUSH1 0x40 PUSH1 0x0 KECCAK256 PUSH1 0xFF NOT DUP2 SLOAD AND SWAP1 SSTORE PUSH32 0x8A52807ACD44F50B6E4823DE532DF8CB7E684378369A85E00C4FD8DA2BFD32C6 PUSH1 0x0 DUP1 LOG2 JUMP JUMPDEST PUSH4 0x4E487B71 PUSH1 0xE0 SHL PUSH1 0x0 MSTORE PUSH1 0x31 PUSH1 0x4 MSTORE PUSH1 0x24 PUSH1 0x0 REVERT JUMPDEST PUSH2 0x1FCE SWAP1 PUSH2 0x1765 JUMP JUMPDEST SWAP1 SLOAD PUSH1 0x3 SWAP2 SWAP1 SWAP2 SHL SHR PUSH1 0x1 PUSH1 0x1 PUSH1 0xA0 SHL SUB AND PUSH2 0x1FED DUP2 PUSH2 0x1E6A DUP5 PUSH2 0x1765 JUMP JUMPDEST PUSH1 0x0 MSTORE PUSH1 0x5 PUSH1 0x20 MSTORE PUSH1 0x40 PUSH1 0x0 KECCAK256 SSTORE CODESIZE DUP1 PUSH2 0x1F34 JUMP JUMPDEST PUSH1 0x1 PUSH1 0x1 PUSH1 0xA0 SHL SUB DUP2 AND PUSH1 0x0 DUP2 DUP2 MSTORE PUSH1 0x3 PUSH1 0x20 MSTORE PUSH1 0x40 SWAP1 KECCAK256 PUSH1 0x2 DUP2 ADD DUP1 SLOAD SWAP3 SWAP5 SWAP4 SWAP2 SWAP3 PUSH1 0xFF DUP2 AND ISZERO DUP1 ISZERO PUSH2 0x23B8 JUMPI JUMPDEST DUP1 ISZERO PUSH2 0x23A8 JUMPI JUMPDEST PUSH2 0x239D JUMPI PUSH2 0x2045 DUP4 PUSH2 0x18CC JUMP JUMPDEST PUSH2 0x234F JUMPI POP POP PUSH1 0xFF PUSH1 0x4 DUP4 ADD SLOAD AND ISZERO PUSH2 0x230E JUMPI PUSH1 0x40 MLOAD PUSH4 0x70A08231 PUSH1 0xE0 SHL DUP2 MSTORE PUSH1 0x4 DUP2 ADD DUP6 SWAP1 MSTORE PUSH32 0x0 PUSH1 0x1 PUSH1 0x1 PUSH1 0xA0 SHL SUB AND SWAP1 PUSH1 0x20 DUP2 PUSH1 0x24 DUP2 DUP6 GAS STATICCALL DUP1 ISZERO PUSH2 0xF19 JUMPI DUP6 SWAP2 PUSH1 0x0 SWAP2 PUSH2 0x22D9 JUMPI JUMPDEST POP LT PUSH2 0x228A JUMPI PUSH1 0x40 MLOAD PUSH4 0x6EB1769F PUSH1 0xE1 SHL DUP2 MSTORE PUSH1 0x1 PUSH1 0x1 PUSH1 0xA0 SHL SUB DUP4 AND PUSH1 0x4 DUP3 ADD MSTORE ADDRESS PUSH1 0x24 DUP3 ADD MSTORE PUSH1 0x20 DUP2 PUSH1 0x44 DUP2 DUP6 GAS STATICCALL DUP1 ISZERO PUSH2 0xF19 JUMPI DUP6 SWAP2 PUSH1 0x0 SWAP2 PUSH2 0x2255 JUMPI JUMPDEST POP LT PUSH2 0x2206 JUMPI PUSH1 0x40 MLOAD PUSH4 0x23B872DD PUSH1 0xE0 SHL DUP2 MSTORE PUSH1 0x1 PUSH1 0x1 PUSH1 0xA0 SHL SUB SWAP3 SWAP1 SWAP3 AND PUSH1 0x4 DUP4 ADD MSTORE ADDRESS PUSH1 0x24 DUP4 ADD MSTORE PUSH1 0x44 DUP3 ADD DUP5 SWAP1 MSTORE PUSH1 0x20 SWAP1 DUP3 SWAP1 PUSH1 0x64 SWAP1 DUP3 SWAP1 PUSH1 0x0 SWAP1 GAS CALL SWAP1 DUP2 ISZERO PUSH2 0xF19 JUMPI PUSH1 0x0 SWAP2 PUSH2 0x21E7 JUMPI JUMPDEST POP ISZERO PUSH2 0x2197 JUMPI TIMESTAMP DUP2 SSTORE PUSH3 0x278D00 TIMESTAMP ADD SWAP2 DUP3 TIMESTAMP GT PUSH2 0xC39 JUMPI DUP3 DUP2 PUSH1 0x3 DUP5 PUSH32 0x6CD9D6BEBF8CC2076DD424F83DEB0559D8774D1C44178B4F676F9D50709FB1BE SWAP7 PUSH1 0x1 PUSH1 0x40 SWAP8 ADD SSTORE ADD SSTORE DUP3 MLOAD SWAP2 DUP3 MSTORE PUSH1 0x20 DUP3 ADD MSTORE LOG2 PUSH1 0x1 SWAP1 JUMP JUMPDEST POP POP PUSH1 0x0 DUP1 MLOAD PUSH1 0x20 PUSH2 0x241C DUP4 CODECOPY DUP2 MLOAD SWAP2 MSTORE PUSH1 0x40 MLOAD DUP1 PUSH2 0x21DF DUP2 PUSH1 0x60 SWAP1 PUSH1 0x20 DUP2 MSTORE PUSH1 0x14 PUSH1 0x20 DUP3 ADD MSTORE PUSH20 0x15D15512081D1C985B9CD9995C8819985A5B1959 PUSH1 0x62 SHL PUSH1 0x40 DUP3 ADD MSTORE ADD SWAP1 JUMP JUMPDEST SUB SWAP1 LOG2 PUSH1 0x0 SWAP1 JUMP JUMPDEST PUSH2 0x2200 SWAP2 POP PUSH1 0x20 RETURNDATASIZE PUSH1 0x20 GT PUSH2 0xF12 JUMPI PUSH2 0xF04 DUP2 DUP4 PUSH2 0x180D JUMP JUMPDEST CODESIZE PUSH2 0x2140 JUMP JUMPDEST POP POP POP POP PUSH1 0x0 DUP1 MLOAD PUSH1 0x20 PUSH2 0x241C DUP4 CODECOPY DUP2 MLOAD SWAP2 MSTORE PUSH1 0x60 PUSH1 0x40 MLOAD PUSH1 0x20 DUP2 MSTORE PUSH1 0x1B PUSH1 0x20 DUP3 ADD MSTORE PUSH32 0x496E73756666696369656E74205745544820616C6C6F77616E63650000000000 PUSH1 0x40 DUP3 ADD MSTORE LOG2 PUSH1 0x0 SWAP1 JUMP JUMPDEST SWAP2 POP POP PUSH1 0x20 DUP2 RETURNDATASIZE PUSH1 0x20 GT PUSH2 0x2282 JUMPI JUMPDEST DUP2 PUSH2 0x2271 PUSH1 0x20 SWAP4 DUP4 PUSH2 0x180D JUMP JUMPDEST DUP2 ADD SUB SLT PUSH2 0x261 JUMPI DUP5 SWAP1 MLOAD CODESIZE PUSH2 0x20F1 JUMP JUMPDEST RETURNDATASIZE SWAP2 POP PUSH2 0x2264 JUMP JUMPDEST POP POP POP POP PUSH1 0x0 DUP1 MLOAD PUSH1 0x20 PUSH2 0x241C DUP4 CODECOPY DUP2 MLOAD SWAP2 MSTORE PUSH1 0x40 MLOAD DUP1 PUSH2 0x21DF DUP2 PUSH1 0x60 SWAP1 PUSH1 0x20 DUP2 MSTORE PUSH1 0x19 PUSH1 0x20 DUP3 ADD MSTORE PUSH25 0x496E73756666696369656E7420574554482062616C616E6365 PUSH1 0x38 SHL PUSH1 0x40 DUP3 ADD MSTORE ADD SWAP1 JUMP JUMPDEST SWAP2 POP POP PUSH1 0x20 DUP2 RETURNDATASIZE PUSH1 0x20 GT PUSH2 0x2306 JUMPI JUMPDEST DUP2 PUSH2 0x22F5 PUSH1 0x20 SWAP4 DUP4 PUSH2 0x180D JUMP JUMPDEST DUP2 ADD SUB SLT PUSH2 0x261 JUMPI DUP5 SWAP1 MLOAD CODESIZE PUSH2 0x20B0 JUMP JUMPDEST RETURNDATASIZE SWAP2 POP PUSH2 0x22E8 JUMP JUMPDEST POP POP POP PUSH1 0x0 DUP1 MLOAD PUSH1 0x20 PUSH2 0x241C DUP4 CODECOPY DUP2 MLOAD SWAP2 MSTORE PUSH1 0x60 PUSH1 0x40 MLOAD PUSH1 0x20 DUP2 MSTORE PUSH1 0x10 PUSH1 0x20 DUP3 ADD MSTORE PUSH16 0x139BC815D1551208185C1C1C9BDD985B PUSH1 0x82 SHL PUSH1 0x40 DUP3 ADD MSTORE LOG2 PUSH1 0x0 SWAP1 JUMP JUMPDEST PUSH2 0x236E SWAP5 POP SWAP1 PUSH1 0x4 SWAP3 SWAP4 SWAP2 PUSH1 0xFF NOT AND SWAP1 SSTORE ADD PUSH1 0xFF NOT DUP2 SLOAD AND SWAP1 SSTORE PUSH2 0x1EEC JUMP JUMPDEST PUSH32 0xAEAB0094D0F4BA2E37AB9C32D5EAE0CBC49EDAFCA1F7366F8EE1B6946C6DACFE PUSH1 0x20 PUSH1 0x40 MLOAD TIMESTAMP DUP2 MSTORE LOG2 PUSH1 0x0 SWAP1 JUMP JUMPDEST POP POP POP POP POP POP PUSH1 0x0 SWAP1 JUMP JUMPDEST POP PUSH2 0x23B2 DUP4 PUSH2 0x1CDC JUMP JUMPDEST ISZERO PUSH2 0x2038 JUMP JUMPDEST POP DUP6 PUSH1 0x0 MSTORE PUSH1 0x7 PUSH1 0x20 MSTORE PUSH1 0xFF PUSH1 0x40 PUSH1 0x0 KECCAK256 SLOAD AND PUSH2 0x2031 JUMP JUMPDEST PUSH1 0x0 SLOAD PUSH1 0x1 PUSH1 0x1 PUSH1 0xA0 SHL SUB AND CALLER SUB PUSH2 0x23E4 JUMPI JUMP JUMPDEST PUSH4 0x118CDAA7 PUSH1 0xE0 SHL PUSH1 0x0 MSTORE CALLER PUSH1 0x4 MSTORE PUSH1 0x24 PUSH1 0x0 REVERT JUMPDEST PUSH1 0x2 PUSH1 0x1 SLOAD EQ PUSH2 0x240A JUMPI PUSH1 0x2 PUSH1 0x1 SSTORE JUMP JUMPDEST PUSH4 0x3EE5AEB5 PUSH1 0xE0 SHL PUSH1 0x0 MSTORE PUSH1 0x4 PUSH1 0x0 REVERT INVALID DUP8 SWAP6 EQ DUP3 0xDC TLOAD 0x1E 0xB7 RETURN 0x2A 0xB9 EXTCODECOPY 0xD8 SWAP8 0xD8 PUSH0 0xCC STATICCALL PC DUP2 SWAP12 0xD3 EXTCODECOPY EXP 0xEC 0xDA PUSH18 0xC42CD8898AA2646970667358221220DA295D PREVRANDAO 0xA7 0x4C 0xA6 SELFDESTRUCT DUP4 CREATE2 LT CALLVALUE GT PUSH32 0xA872FD77E24D8C78BF4472157B02C27000B564736F6C634300081C0033000000 "
        },
        "methodIdentifiers": {
          "AUTOMATION_INTERVAL()": "507b1e4e",
          "BILLING_CYCLE()": "544af5f2",
          "GRACE_PERIOD()": "c1a287e2",
          "MAX_PRICE_USD()": "bfd97cd6",
          "MAX_USERS_PER_UPKEEP()": "5051a05f",
          "PRICE_STALENESS_THRESHOLD()": "f25b9caa",
          "SUBSCRIPTION_COST_USD()": "67aa682b",
          "activeUsers(uint256)": "803ae518",
          "batchSetWhitelist(address[],bool)": "a095e8f9",
          "cancelSubscription()": "24e9edb0",
          "checkUpkeep(bytes)": "6e04ff0d",
          "disableWETHAutoPay()": "88447175",
          "enableWETHAutoPay()": "09612a98",
          "getActiveUserAtIndex(uint256)": "6c87d2c2",
          "getLatestPrice()": "8e15f473",
          "getPricingInfo()": "374f6d5d",
          "getRequiredWETHAmount()": "13621a21",
          "getServiceDetails()": "b0fd8954",
          "getSubscriptionDetails(address)": "d474f84f",
          "getTotalActiveUsers()": "8886fcc5",
          "hasActiveSubscription(address)": "bebe4a57",
          "isPaymentDue(address)": "97ad7e02",
          "isSubscriptionExpired(address)": "3afb0551",
          "isUserTracked(address)": "1ec249a1",
          "lastAutomationTime()": "511671ee",
          "manuallyProcessPayment(address)": "bfb8e2f2",
          "owner()": "8da5cb5b",
          "payWithETH()": "6c7327a2",
          "performUpkeep(bytes)": "4585e33b",
          "renounceOwnership()": "715018a6",
          "setWhitelist(address,bool)": "53d6fd59",
          "setupWETHSubscription()": "5f5028b5",
          "subscriptions(address)": "f046395a",
          "transferOwnership(address)": "f2fde38b",
          "updateAutomationTime(uint256)": "76fc0d24",
          "userIndex(address)": "c96679fe",
          "wethToken()": "4b57b0be",
          "whitelist(address)": "9b19251a",
          "withdrawETH()": "e086e5ec",
          "withdrawWETH()": "4c02f62e"
        }
      }
    }
  }
}