{
  "_format": "hh-sol-artifact-1",
  "contractName": "ConsumerSimpleImproved8",
  "sourceName": "contracts/ConsumerSimpleImproved8.sol",
  "abi": [
    {
      "inputs": [
        {
          "internalType": "address",
          "name": "router",
          "type": "address"
        },
        {
          "internalType": "bytes32",
          "name": "_donId",
          "type": "bytes32"
        },
        {
          "internalType": "uint64",
          "name": "_subscriptionId",
          "type": "uint64"
        },
        {
          "internalType": "uint32",
          "name": "_gasLimit",
          "type": "uint32"
        },
        {
          "internalType": "uint8",
          "name": "_secretsSlot",
          "type": "uint8"
        },
        {
          "internalType": "uint64",
          "name": "_secretsVersion",
          "type": "uint64"
        }
      ],
      "stateMutability": "nonpayable",
      "type": "constructor"
    },
    {
      "inputs": [],
      "name": "EmptyArgs",
      "type": "error"
    },
    {
      "inputs": [],
      "name": "EmptySource",
      "type": "error"
    },
    {
      "inputs": [],
      "name": "NoInlineSecrets",
      "type": "error"
    },
    {
      "inputs": [],
      "name": "OnlyRouterCanFulfill",
      "type": "error"
    },
    {
      "anonymous": false,
      "inputs": [
        {
          "indexed": true,
          "internalType": "bytes32",
          "name": "id",
          "type": "bytes32"
        }
      ],
      "name": "RequestFulfilled",
      "type": "event"
    },
    {
      "anonymous": false,
      "inputs": [
        {
          "indexed": true,
          "internalType": "bytes32",
          "name": "id",
          "type": "bytes32"
        }
      ],
      "name": "RequestSent",
      "type": "event"
    },
    {
      "inputs": [],
      "name": "donId",
      "outputs": [
        {
          "internalType": "bytes32",
          "name": "",
          "type": "bytes32"
        }
      ],
      "stateMutability": "view",
      "type": "function"
    },
    {
      "inputs": [],
      "name": "execute",
      "outputs": [],
      "stateMutability": "nonpayable",
      "type": "function"
    },
    {
      "inputs": [],
      "name": "gasLimit",
      "outputs": [
        {
          "internalType": "uint32",
          "name": "",
          "type": "uint32"
        }
      ],
      "stateMutability": "view",
      "type": "function"
    },
    {
      "inputs": [
        {
          "internalType": "bytes32",
          "name": "requestId",
          "type": "bytes32"
        },
        {
          "internalType": "bytes",
          "name": "response",
          "type": "bytes"
        },
        {
          "internalType": "bytes",
          "name": "err",
          "type": "bytes"
        }
      ],
      "name": "handleOracleFulfillment",
      "outputs": [],
      "stateMutability": "nonpayable",
      "type": "function"
    },
    {
      "inputs": [],
      "name": "lastId",
      "outputs": [
        {
          "internalType": "bytes32",
          "name": "",
          "type": "bytes32"
        }
      ],
      "stateMutability": "view",
      "type": "function"
    },
    {
      "inputs": [],
      "name": "lastResponse",
      "outputs": [
        {
          "internalType": "string",
          "name": "",
          "type": "string"
        }
      ],
      "stateMutability": "view",
      "type": "function"
    },
    {
      "inputs": [],
      "name": "secretsSlot",
      "outputs": [
        {
          "internalType": "uint8",
          "name": "",
          "type": "uint8"
        }
      ],
      "stateMutability": "view",
      "type": "function"
    },
    {
      "inputs": [],
      "name": "secretsVersion",
      "outputs": [
        {
          "internalType": "uint64",
          "name": "",
          "type": "uint64"
        }
      ],
      "stateMutability": "view",
      "type": "function"
    },
    {
      "inputs": [],
      "name": "subscriptionId",
      "outputs": [
        {
          "internalType": "uint64",
          "name": "",
          "type": "uint64"
        }
      ],
      "stateMutability": "view",
      "type": "function"
    },
    {
      "inputs": [
        {
          "internalType": "uint8",
          "name": "_newSlot",
          "type": "uint8"
        }
      ],
      "name": "updateSecretsSlot",
      "outputs": [],
      "stateMutability": "nonpayable",
      "type": "function"
    },
    {
      "inputs": [
        {
          "internalType": "uint64",
          "name": "_newVersion",
          "type": "uint64"
        }
      ],
      "name": "updateSecretsVersion",
      "outputs": [],
      "stateMutability": "nonpayable",
      "type": "function"
    }
  ],
  "bytecode": "0x60a060405234801561001057600080fd5b50604051612a00380380612a0083398181016040528101906100329190610256565b858073ffffffffffffffffffffffffffffffffffffffff1660808173ffffffffffffffffffffffffffffffffffffffff1681525050508460008190555083600160006101000a81548167ffffffffffffffff021916908367ffffffffffffffff16021790555082600160086101000a81548163ffffffff021916908363ffffffff160217905550816001600c6101000a81548160ff021916908360ff160217905550806001600d6101000a81548167ffffffffffffffff021916908367ffffffffffffffff1602179055505050505050506102e3565b600080fd5b600073ffffffffffffffffffffffffffffffffffffffff82169050919050565b60006101388261010d565b9050919050565b6101488161012d565b811461015357600080fd5b50565b6000815190506101658161013f565b92915050565b6000819050919050565b61017e8161016b565b811461018957600080fd5b50565b60008151905061019b81610175565b92915050565b600067ffffffffffffffff82169050919050565b6101be816101a1565b81146101c957600080fd5b50565b6000815190506101db816101b5565b92915050565b600063ffffffff82169050919050565b6101fa816101e1565b811461020557600080fd5b50565b600081519050610217816101f1565b92915050565b600060ff82169050919050565b6102338161021d565b811461023e57600080fd5b50565b6000815190506102508161022a565b92915050565b60008060008060008060c0878903121561027357610272610108565b5b600061028189828a01610156565b965050602061029289828a0161018c565b95505060406102a389828a016101cc565b94505060606102b489828a01610208565b93505060806102c589828a01610241565b92505060a06102d689828a016101cc565b9150509295509295509295565b6080516126fb610305600039600081816101fa0152610e6801526126fb6000f3fe608060405234801561001057600080fd5b50600436106100a95760003560e01c806362747e421161007157806362747e421461012a57806375b1d195146101485780638dbe7b9d14610166578063af8d73c014610184578063c1292cc3146101a2578063f68016b7146101c0576100a9565b806309c1ba2e146100ae5780630ca76175146100cc5780630d6c0710146100e85780631e48d85e146101045780636146195414610120575b600080fd5b6100b66101de565b6040516100c391906117da565b60405180910390f35b6100e660048036038101906100e19190611985565b6101f8565b005b61010260048036038101906100fd9190611a49565b6102ba565b005b61011e60048036038101906101199190611aa2565b6102d8565b005b610128610304565b005b6101326104a2565b60405161013f9190611b4e565b60405180910390f35b610150610530565b60405161015d91906117da565b60405180910390f35b61016e61054a565b60405161017b9190611b7f565b60405180910390f35b61018c610550565b6040516101999190611ba9565b60405180910390f35b6101aa610563565b6040516101b79190611b7f565b60405180910390f35b6101c8610569565b6040516101d59190611be3565b60405180910390f35b600160009054906101000a900467ffffffffffffffff1681565b7f000000000000000000000000000000000000000000000000000000000000000073ffffffffffffffffffffffffffffffffffffffff163373ffffffffffffffffffffffffffffffffffffffff161461027d576040517fc6829f8300000000000000000000000000000000000000000000000000000000815260040160405180910390fd5b61028883838361057f565b827f85e1543bf2f84fe80c6badbce3648c8539ad1df4d2b3d822938ca0538be727e660405160405180910390a2505050565b806001600c6101000a81548160ff021916908360ff16021790555050565b806001600d6101000a81548167ffffffffffffffff021916908367ffffffffffffffff16021790555050565b61030c61170b565b600060405160200161031d90611e72565b6040516020818303038152906040529050610341818361059490919063ffffffff16565b6000600367ffffffffffffffff81111561035e5761035d61185a565b5b60405190808252806020026020018201604052801561039157816020015b606081526020019060019003908161037c5790505b50905061039d336105a5565b816000815181106103b1576103b0611e87565b5b60200260200101819052506103c5306105a5565b816001815181106103d9576103d8611e87565b5b60200260200101819052506103ed4261082d565b8160028151811061040157610400611e87565b5b602002602001018190525061041f81846108fb90919063ffffffff16565b6104596001600c9054906101000a900460ff166001600d9054906101000a900467ffffffffffffffff16856109439092919063ffffffff16565b61049761046584610a53565b600160009054906101000a900467ffffffffffffffff16600160089054906101000a900463ffffffff16600054610e63565b600281905550505050565b600380546104af90611ee5565b80601f01602080910402602001604051908101604052809291908181526020018280546104db90611ee5565b80156105285780601f106104fd57610100808354040283529160200191610528565b820191906000526020600020905b81548152906001019060200180831161050b57829003601f168201915b505050505081565b6001600d9054906101000a900467ffffffffffffffff1681565b60005481565b6001600c9054906101000a900460ff1681565b60025481565b600160089054906101000a900463ffffffff1681565b816003908161058e91906120cc565b50505050565b6105a18260008084610f46565b5050565b60606000602a67ffffffffffffffff8111156105c4576105c361185a565b5b6040519080825280601f01601f1916602001820160405280156105f65781602001600182028036833780820191505090505b5090507f30000000000000000000000000000000000000000000000000000000000000008160008151811061062e5761062d611e87565b5b60200101907effffffffffffffffffffffffffffffffffffffffffffffffffffffffffffff1916908160001a9053507f78000000000000000000000000000000000000000000000000000000000000008160018151811061069257610691611e87565b5b60200101907effffffffffffffffffffffffffffffffffffffffffffffffffffffffffffff1916908160001a90535060005b60148110156108235760008160136106dc91906121cd565b60086106e89190612201565b60026106f49190612376565b8573ffffffffffffffffffffffffffffffffffffffff1661071591906123f0565b60f81b9050600060108260f81c61072c9190612421565b9050600081601061073d9190612452565b8360f81c61074b919061248f565b905061075682610ff0565b8560028660026107669190612201565b61077091906124c4565b8151811061078157610780611e87565b5b60200101907effffffffffffffffffffffffffffffffffffffffffffffffffffffffffffff1916908160001a9053506107b981610ff0565b8560038660026107c99190612201565b6107d391906124c4565b815181106107e4576107e3611e87565b5b60200101907effffffffffffffffffffffffffffffffffffffffffffffffffffffffffffff1916908160001a90535050505080806001019150506106c4565b5080915050919050565b60606000600161083c8461102d565b01905060008167ffffffffffffffff81111561085b5761085a61185a565b5b6040519080825280601f01601f19166020018201604052801561088d5781602001600182028036833780820191505090505b509050600082602001820190505b6001156108f0578080600190039150507f3031323334353637383961626364656600000000000000000000000000000000600a86061a8153600a85816108e4576108e36123c1565b5b0494506000850361089b575b819350505050919050565b6000815103610936576040517ffe936cb700000000000000000000000000000000000000000000000000000000815260040160405180910390fd5b808260a001819052505050565b6000610950610100611180565b905061099a6040518060400160405280600681526020017f736c6f7449440000000000000000000000000000000000000000000000000000815250826111a790919063ffffffff16565b6109b08360ff16826111d090919063ffffffff16565b6109f86040518060400160405280600781526020017f76657273696f6e00000000000000000000000000000000000000000000000000815250826111a790919063ffffffff16565b610a0b82826111d090919063ffffffff16565b600284602001906002811115610a2457610a236124f8565b5b90816002811115610a3857610a376124f8565b5b81525050806000015160000151846080018190525050505050565b60606000610a62610100611180565b9050610aac6040518060400160405280600c81526020017f636f64654c6f636174696f6e0000000000000000000000000000000000000000815250826111a790919063ffffffff16565b610ad583600001516002811115610ac657610ac56124f8565b5b826111e090919063ffffffff16565b610b1d6040518060400160405280600881526020017f6c616e6775616765000000000000000000000000000000000000000000000000815250826111a790919063ffffffff16565b610b4683604001516000811115610b3757610b366124f8565b5b826111e090919063ffffffff16565b610b8e6040518060400160405280600681526020017f736f757263650000000000000000000000000000000000000000000000000000815250826111a790919063ffffffff16565b610ba58360600151826111a790919063ffffffff16565b60008360a00151511115610c5b57610bfb6040518060400160405280600481526020017f6172677300000000000000000000000000000000000000000000000000000000815250826111a790919063ffffffff16565b610c0481611230565b60005b8360a0015151811015610c5057610c458460a001518281518110610c2e57610c2d611e87565b5b6020026020010151836111a790919063ffffffff16565b806001019050610c07565b50610c5a81611258565b5b60008360800151511115610d9c5760006002811115610c7d57610c7c6124f8565b5b83602001516002811115610c9457610c936124f8565b5b03610ccb576040517fa80d31f700000000000000000000000000000000000000000000000000000000815260040160405180910390fd5b610d136040518060400160405280600f81526020017f736563726574734c6f636174696f6e0000000000000000000000000000000000815250826111a790919063ffffffff16565b610d3c83602001516002811115610d2d57610d2c6124f8565b5b826111e090919063ffffffff16565b610d846040518060400160405280600781526020017f7365637265747300000000000000000000000000000000000000000000000000815250826111a790919063ffffffff16565b610d9b83608001518261128090919063ffffffff16565b5b60008360c00151511115610e5257610df26040518060400160405280600981526020017f6279746573417267730000000000000000000000000000000000000000000000815250826111a790919063ffffffff16565b610dfb81611230565b60005b8360c0015151811015610e4757610e3c8460c001518281518110610e2557610e24611e87565b5b60200260200101518361128090919063ffffffff16565b806001019050610dfe565b50610e5181611258565b5b806000015160000151915050919050565b6000807f000000000000000000000000000000000000000000000000000000000000000073ffffffffffffffffffffffffffffffffffffffff1663461d27628688600188886040518663ffffffff1660e01b8152600401610ec8959493929190612599565b6020604051808303816000875af1158015610ee7573d6000803e3d6000fd5b505050506040513d601f19601f82011682018060405250810190610f0b9190612608565b9050807f1131472297a800fee664d1d89cfa8f7676ff07189ecc53f80bbb5f4969099db860405160405180910390a280915050949350505050565b6000815103610f81576040517f22ce3edd00000000000000000000000000000000000000000000000000000000815260040160405180910390fd5b8284600001906002811115610f9957610f986124f8565b5b90816002811115610fad57610fac6124f8565b5b815250508184604001906000811115610fc957610fc86124f8565b5b90816000811115610fdd57610fdc6124f8565b5b8152505080846060018190525050505050565b6000600a8260ff1610156110155760308261100b9190612635565b60f81b9050611028565b6057826110229190612635565b60f81b90505b919050565b600080600090507a184f03e93ff9f4daa797ed6e38ed64bf6a1f010000000000000000831061108b577a184f03e93ff9f4daa797ed6e38ed64bf6a1f0100000000000000008381611081576110806123c1565b5b0492506040810190505b6d04ee2d6d415b85acef810000000083106110c8576d04ee2d6d415b85acef810000000083816110be576110bd6123c1565b5b0492506020810190505b662386f26fc1000083106110f757662386f26fc1000083816110ed576110ec6123c1565b5b0492506010810190505b6305f5e1008310611120576305f5e1008381611116576111156123c1565b5b0492506008810190505b612710831061114557612710838161113b5761113a6123c1565b5b0492506004810190505b60648310611168576064838161115e5761115d6123c1565b5b0492506002810190505b600a8310611177576001810190505b80915050919050565b61118861177d565b6111968160000151836112a9565b506000816020018181525050919050565b6111b48260038351611322565b6111cb8183600001516114cb90919063ffffffff16565b505050565b6111dc82600083611322565b5050565b61120260026005600660ff16901b1783600001516114e790919063ffffffff16565b5061122c82826040516020016112189190612679565b604051602081830303815290604052611280565b5050565b61123b816004611551565b60018160200181815161124e91906124c4565b9150818152505050565b611263816007611551565b60018160200181815161127691906121cd565b9150818152505050565b61128d8260028351611322565b6112a48183600001516114cb90919063ffffffff16565b505050565b6112b161179d565b60006020836112c09190612694565b146112ec576020826112d29190612694565b60206112de91906121cd565b826112e991906124c4565b91505b81836020018181525050604051808452600081528281016020018181101561131357600080fd5b80604052505082905092915050565b60178167ffffffffffffffff161161135d576113578160058460ff16901b60ff161784600001516114e790919063ffffffff16565b506114c6565b60ff8167ffffffffffffffff16116113bb57611390601860058460ff16901b1784600001516114e790919063ffffffff16565b506113b58167ffffffffffffffff16600185600001516115779092919063ffffffff16565b506114c5565b61ffff8167ffffffffffffffff161161141a576113ef601960058460ff16901b1784600001516114e790919063ffffffff16565b506114148167ffffffffffffffff16600285600001516115779092919063ffffffff16565b506114c4565b63ffffffff8167ffffffffffffffff161161147b57611450601a60058460ff16901b1784600001516114e790919063ffffffff16565b506114758167ffffffffffffffff16600485600001516115779092919063ffffffff16565b506114c3565b61149c601b60058460ff16901b1784600001516114e790919063ffffffff16565b506114c18167ffffffffffffffff16600885600001516115779092919063ffffffff16565b505b5b5b5b505050565b6114d361179d565b6114df83838451611604565b905092915050565b6114ef61179d565b60008360000151519050600060018261150891906124c4565b90508460200151821061152c5761152b856002836115269190612201565b6116e7565b5b84516020838201018581538151831115611544578282525b5050849250505092915050565b611572601f60058360ff16901b1783600001516114e790919063ffffffff16565b505050565b61157f61179d565b600084600001515190506000818461159791906124c4565b905085602001518111156115bc576115bb866002836115b69190612201565b6116e7565b5b60006001856101006115ce9190612376565b6115d891906121cd565b9050865182810187831982511617815281518411156115f5578382525b50508693505050509392505050565b61160c61179d565b825182111561161a57600080fd5b600084600001515190506000838261163291906124c4565b9050856020015181111561165757611656866002836116519190612201565b6116e7565b5b60008087518051856020830101935080851115611672578482525b60208901925050505b602086106116b9578051825260208261169491906124c4565b91506020816116a391906124c4565b90506020866116b291906121cd565b955061167b565b60006001876020036101000a0390508019825116818451168181178552505050879450505050509392505050565b6000826000015190506116fa83836112a9565b5061170583826114cb565b50505050565b6040518060e001604052806000600281111561172a576117296124f8565b5b815260200160006002811115611743576117426124f8565b5b815260200160008081111561175b5761175a6124f8565b5b8152602001606081526020016060815260200160608152602001606081525090565b604051806040016040528061179061179d565b8152602001600081525090565b604051806040016040528060608152602001600081525090565b600067ffffffffffffffff82169050919050565b6117d4816117b7565b82525050565b60006020820190506117ef60008301846117cb565b92915050565b6000604051905090565b600080fd5b600080fd5b6000819050919050565b61181c81611809565b811461182757600080fd5b50565b60008135905061183981611813565b92915050565b600080fd5b600080fd5b6000601f19601f8301169050919050565b7f4e487b7100000000000000000000000000000000000000000000000000000000600052604160045260246000fd5b61189282611849565b810181811067ffffffffffffffff821117156118b1576118b061185a565b5b80604052505050565b60006118c46117f5565b90506118d08282611889565b919050565b600067ffffffffffffffff8211156118f0576118ef61185a565b5b6118f982611849565b9050602081019050919050565b82818337600083830152505050565b6000611928611923846118d5565b6118ba565b90508281526020810184848401111561194457611943611844565b5b61194f848285611906565b509392505050565b600082601f83011261196c5761196b61183f565b5b813561197c848260208601611915565b91505092915050565b60008060006060848603121561199e5761199d6117ff565b5b60006119ac8682870161182a565b935050602084013567ffffffffffffffff8111156119cd576119cc611804565b5b6119d986828701611957565b925050604084013567ffffffffffffffff8111156119fa576119f9611804565b5b611a0686828701611957565b9150509250925092565b600060ff82169050919050565b611a2681611a10565b8114611a3157600080fd5b50565b600081359050611a4381611a1d565b92915050565b600060208284031215611a5f57611a5e6117ff565b5b6000611a6d84828501611a34565b91505092915050565b611a7f816117b7565b8114611a8a57600080fd5b50565b600081359050611a9c81611a76565b92915050565b600060208284031215611ab857611ab76117ff565b5b6000611ac684828501611a8d565b91505092915050565b600081519050919050565b600082825260208201905092915050565b60005b83811015611b09578082015181840152602081019050611aee565b60008484015250505050565b6000611b2082611acf565b611b2a8185611ada565b9350611b3a818560208601611aeb565b611b4381611849565b840191505092915050565b60006020820190508181036000830152611b688184611b15565b905092915050565b611b7981611809565b82525050565b6000602082019050611b946000830184611b70565b92915050565b611ba381611a10565b82525050565b6000602082019050611bbe6000830184611b9a565b92915050565b600063ffffffff82169050919050565b611bdd81611bc4565b82525050565b6000602082019050611bf86000830184611bd4565b92915050565b600081905092915050565b7f636f6e737420726573706f6e7365203d2061776169742046756e6374696f6e7360008201527f2e6d616b654874747052657175657374287b0a202075726c3a2027687474707360208201527f3a2f2f746f6d61732d776562332d6170692d6578356b736d636465712d75632e60408201527f612e72756e2e6170702f746f6d61732f657363616c6174652d746f2d68756d6160608201527f6e2d6c6177796572272c0a20206d6574686f643a2027504f5354272c0a20207460808201527f696d656f75743a2031303030302c0a2020686561646572733a207b202763686160a08201527f696e6c696e6b2d66756e6374696f6e732d736563726574273a2073656372657460c08201527f732e636861696e6c696e6b536563726574207d2c0a2020646174613a207b0a2060e08201527f2020206361736549643a20617267735b305d2c0a20202020636f6e74726163746101008201527f416464726573733a20617267735b315d2c0a2020202074696d657374616d703a6101208201527f20617267735b325d2c0a20207d2c0a7d293b0a69662028726573706f6e73652e6101408201527f6572726f7229207b207468726f77204572726f72284a534f4e2e737472696e676101608201527f69667928726573706f6e736529293b207d0a72657475726e2046756e6374696f6101808201527f6e732e656e636f6465537472696e67284a534f4e2e737472696e6769667928726101a08201527f6573706f6e73652e6461746129293b00000000000000000000000000000000006101c082015250565b6000611e5b6101cf83611bfe565b9150611e6682611c09565b6101cf82019050919050565b6000611e7d82611e4d565b9150819050919050565b7f4e487b7100000000000000000000000000000000000000000000000000000000600052603260045260246000fd5b7f4e487b7100000000000000000000000000000000000000000000000000000000600052602260045260246000fd5b60006002820490506001821680611efd57607f821691505b602082108103611f1057611f0f611eb6565b5b50919050565b60008190508160005260206000209050919050565b60006020601f8301049050919050565b600082821b905092915050565b600060088302611f787fffffffffffffffffffffffffffffffffffffffffffffffffffffffffffffffff82611f3b565b611f828683611f3b565b95508019841693508086168417925050509392505050565b6000819050919050565b6000819050919050565b6000611fc9611fc4611fbf84611f9a565b611fa4565b611f9a565b9050919050565b6000819050919050565b611fe383611fae565b611ff7611fef82611fd0565b848454611f48565b825550505050565b600090565b61200c611fff565b612017818484611fda565b505050565b5b8181101561203b57612030600082612004565b60018101905061201d565b5050565b601f8211156120805761205181611f16565b61205a84611f2b565b81016020851015612069578190505b61207d61207585611f2b565b83018261201c565b50505b505050565b600082821c905092915050565b60006120a360001984600802612085565b1980831691505092915050565b60006120bc8383612092565b9150826002028217905092915050565b6120d582611acf565b67ffffffffffffffff8111156120ee576120ed61185a565b5b6120f88254611ee5565b61210382828561203f565b600060209050601f8311600181146121365760008415612124578287015190505b61212e85826120b0565b865550612196565b601f19841661214486611f16565b60005b8281101561216c57848901518255600182019150602085019450602081019050612147565b868310156121895784890151612185601f891682612092565b8355505b6001600288020188555050505b505050505050565b7f4e487b7100000000000000000000000000000000000000000000000000000000600052601160045260246000fd5b60006121d882611f9a565b91506121e383611f9a565b92508282039050818111156121fb576121fa61219e565b5b92915050565b600061220c82611f9a565b915061221783611f9a565b925082820261222581611f9a565b9150828204841483151761223c5761223b61219e565b5b5092915050565b60008160011c9050919050565b6000808291508390505b600185111561229a578086048111156122765761227561219e565b5b60018516156122855780820291505b808102905061229385612243565b945061225a565b94509492505050565b6000826122b3576001905061236f565b816122c1576000905061236f565b81600181146122d757600281146122e157612310565b600191505061236f565b60ff8411156122f3576122f261219e565b5b8360020a91508482111561230a5761230961219e565b5b5061236f565b5060208310610133831016604e8410600b84101617156123455782820a9050838111156123405761233f61219e565b5b61236f565b6123528484846001612250565b925090508184048111156123695761236861219e565b5b81810290505b9392505050565b600061238182611f9a565b915061238c83611f9a565b92506123b97fffffffffffffffffffffffffffffffffffffffffffffffffffffffffffffffff84846122a3565b905092915050565b7f4e487b7100000000000000000000000000000000000000000000000000000000600052601260045260246000fd5b60006123fb82611f9a565b915061240683611f9a565b925082612416576124156123c1565b5b828204905092915050565b600061242c82611a10565b915061243783611a10565b925082612447576124466123c1565b5b828204905092915050565b600061245d82611a10565b915061246883611a10565b925082820261247681611a10565b91508082146124885761248761219e565b5b5092915050565b600061249a82611a10565b91506124a583611a10565b9250828203905060ff8111156124be576124bd61219e565b5b92915050565b60006124cf82611f9a565b91506124da83611f9a565b92508282019050808211156124f2576124f161219e565b5b92915050565b7f4e487b7100000000000000000000000000000000000000000000000000000000600052602160045260246000fd5b600081519050919050565b600082825260208201905092915050565b600061254e82612527565b6125588185612532565b9350612568818560208601611aeb565b61257181611849565b840191505092915050565b600061ffff82169050919050565b6125938161257c565b82525050565b600060a0820190506125ae60008301886117cb565b81810360208301526125c08187612543565b90506125cf604083018661258a565b6125dc6060830185611bd4565b6125e96080830184611b70565b9695505050505050565b60008151905061260281611813565b92915050565b60006020828403121561261e5761261d6117ff565b5b600061262c848285016125f3565b91505092915050565b600061264082611a10565b915061264b83611a10565b9250828201905060ff8111156126645761266361219e565b5b92915050565b61267381611f9a565b82525050565b600060208201905061268e600083018461266a565b92915050565b600061269f82611f9a565b91506126aa83611f9a565b9250826126ba576126b96123c1565b5b82820690509291505056fea2646970667358221220c1816a9912f4c0effdd57515dfd8abb03de1f19fe303507cd448acb36ec67b5f64736f6c634300081c0033",
  "linkReferences": {},
  "deployedLinkReferences": {}
}