{
  "_format": "hh-sol-artifact-1",
  "contractName": "ConsumerSimpleImproved9",
  "sourceName": "contracts/ConsumerSimpleImproved9.sol",
  "abi": [
    {
      "inputs": [
        {
          "internalType": "address",
          "name": "router",
          "type": "address"
        },
        {
          "internalType": "bytes32",
          "name": "_donId",
          "type": "bytes32"
        },
        {
          "internalType": "uint64",
          "name": "_subscriptionId",
          "type": "uint64"
        },
        {
          "internalType": "uint32",
          "name": "_gasLimit",
          "type": "uint32"
        },
        {
          "internalType": "uint8",
          "name": "_secretsSlot",
          "type": "uint8"
        },
        {
          "internalType": "uint64",
          "name": "_secretsVersion",
          "type": "uint64"
        }
      ],
      "stateMutability": "nonpayable",
      "type": "constructor"
    },
    {
      "inputs": [],
      "name": "EmptyArgs",
      "type": "error"
    },
    {
      "inputs": [],
      "name": "EmptySource",
      "type": "error"
    },
    {
      "inputs": [],
      "name": "NoInlineSecrets",
      "type": "error"
    },
    {
      "inputs": [],
      "name": "OnlyRouterCanFulfill",
      "type": "error"
    },
    {
      "anonymous": false,
      "inputs": [
        {
          "indexed": true,
          "internalType": "bytes32",
          "name": "id",
          "type": "bytes32"
        }
      ],
      "name": "RequestFulfilled",
      "type": "event"
    },
    {
      "anonymous": false,
      "inputs": [
        {
          "indexed": true,
          "internalType": "bytes32",
          "name": "id",
          "type": "bytes32"
        }
      ],
      "name": "RequestSent",
      "type": "event"
    },
    {
      "inputs": [],
      "name": "donId",
      "outputs": [
        {
          "internalType": "bytes32",
          "name": "",
          "type": "bytes32"
        }
      ],
      "stateMutability": "view",
      "type": "function"
    },
    {
      "inputs": [],
      "name": "execute",
      "outputs": [],
      "stateMutability": "nonpayable",
      "type": "function"
    },
    {
      "inputs": [],
      "name": "gasLimit",
      "outputs": [
        {
          "internalType": "uint32",
          "name": "",
          "type": "uint32"
        }
      ],
      "stateMutability": "view",
      "type": "function"
    },
    {
      "inputs": [
        {
          "internalType": "bytes32",
          "name": "requestId",
          "type": "bytes32"
        },
        {
          "internalType": "bytes",
          "name": "response",
          "type": "bytes"
        },
        {
          "internalType": "bytes",
          "name": "err",
          "type": "bytes"
        }
      ],
      "name": "handleOracleFulfillment",
      "outputs": [],
      "stateMutability": "nonpayable",
      "type": "function"
    },
    {
      "inputs": [],
      "name": "lastId",
      "outputs": [
        {
          "internalType": "bytes32",
          "name": "",
          "type": "bytes32"
        }
      ],
      "stateMutability": "view",
      "type": "function"
    },
    {
      "inputs": [],
      "name": "lastResponse",
      "outputs": [
        {
          "internalType": "string",
          "name": "",
          "type": "string"
        }
      ],
      "stateMutability": "view",
      "type": "function"
    },
    {
      "inputs": [],
      "name": "secretsSlot",
      "outputs": [
        {
          "internalType": "uint8",
          "name": "",
          "type": "uint8"
        }
      ],
      "stateMutability": "view",
      "type": "function"
    },
    {
      "inputs": [],
      "name": "secretsVersion",
      "outputs": [
        {
          "internalType": "uint64",
          "name": "",
          "type": "uint64"
        }
      ],
      "stateMutability": "view",
      "type": "function"
    },
    {
      "inputs": [],
      "name": "subscriptionId",
      "outputs": [
        {
          "internalType": "uint64",
          "name": "",
          "type": "uint64"
        }
      ],
      "stateMutability": "view",
      "type": "function"
    }
  ],
  "bytecode": "0x60a060405234801561001057600080fd5b506040516128b63803806128b683398181016040528101906100329190610256565b858073ffffffffffffffffffffffffffffffffffffffff1660808173ffffffffffffffffffffffffffffffffffffffff1681525050508460008190555083600160006101000a81548167ffffffffffffffff021916908367ffffffffffffffff16021790555082600160086101000a81548163ffffffff021916908363ffffffff160217905550816001600c6101000a81548160ff021916908360ff160217905550806001600d6101000a81548167ffffffffffffffff021916908367ffffffffffffffff1602179055505050505050506102e3565b600080fd5b600073ffffffffffffffffffffffffffffffffffffffff82169050919050565b60006101388261010d565b9050919050565b6101488161012d565b811461015357600080fd5b50565b6000815190506101658161013f565b92915050565b6000819050919050565b61017e8161016b565b811461018957600080fd5b50565b60008151905061019b81610175565b92915050565b600067ffffffffffffffff82169050919050565b6101be816101a1565b81146101c957600080fd5b50565b6000815190506101db816101b5565b92915050565b600063ffffffff82169050919050565b6101fa816101e1565b811461020557600080fd5b50565b600081519050610217816101f1565b92915050565b600060ff82169050919050565b6102338161021d565b811461023e57600080fd5b50565b6000815190506102508161022a565b92915050565b60008060008060008060c0878903121561027357610272610108565b5b600061028189828a01610156565b965050602061029289828a0161018c565b95505060406102a389828a016101cc565b94505060606102b489828a01610208565b93505060806102c589828a01610241565b92505060a06102d689828a016101cc565b9150509295509295509295565b6080516125b1610305600039600081816101ac0152610dd001526125b16000f3fe608060405234801561001057600080fd5b50600436106100935760003560e01c806375b1d1951161006657806375b1d195146100fa5780638dbe7b9d14610118578063af8d73c014610136578063c1292cc314610154578063f68016b71461017257610093565b806309c1ba2e146100985780630ca76175146100b657806361461954146100d257806362747e42146100dc575b600080fd5b6100a0610190565b6040516100ad9190611742565b60405180910390f35b6100d060048036038101906100cb91906118ed565b6101aa565b005b6100da61026c565b005b6100e461040a565b6040516100f191906119f7565b60405180910390f35b610102610498565b60405161010f9190611742565b60405180910390f35b6101206104b2565b60405161012d9190611a28565b60405180910390f35b61013e6104b8565b60405161014b9190611a5f565b60405180910390f35b61015c6104cb565b6040516101699190611a28565b60405180910390f35b61017a6104d1565b6040516101879190611a99565b60405180910390f35b600160009054906101000a900467ffffffffffffffff1681565b7f000000000000000000000000000000000000000000000000000000000000000073ffffffffffffffffffffffffffffffffffffffff163373ffffffffffffffffffffffffffffffffffffffff161461022f576040517fc6829f8300000000000000000000000000000000000000000000000000000000815260040160405180910390fd5b61023a8383836104e7565b827f85e1543bf2f84fe80c6badbce3648c8539ad1df4d2b3d822938ca0538be727e660405160405180910390a2505050565b610274611673565b600060405160200161028590611d28565b60405160208183030381529060405290506102a981836104fc90919063ffffffff16565b6000600367ffffffffffffffff8111156102c6576102c56117c2565b5b6040519080825280602002602001820160405280156102f957816020015b60608152602001906001900390816102e45790505b5090506103053361050d565b8160008151811061031957610318611d3d565b5b602002602001018190525061032d3061050d565b8160018151811061034157610340611d3d565b5b602002602001018190525061035542610795565b8160028151811061036957610368611d3d565b5b6020026020010181905250610387818461086390919063ffffffff16565b6103c16001600c9054906101000a900460ff166001600d9054906101000a900467ffffffffffffffff16856108ab9092919063ffffffff16565b6103ff6103cd846109bb565b600160009054906101000a900467ffffffffffffffff16600160089054906101000a900463ffffffff16600054610dcb565b600281905550505050565b6003805461041790611d9b565b80601f016020809104026020016040519081016040528092919081815260200182805461044390611d9b565b80156104905780601f1061046557610100808354040283529160200191610490565b820191906000526020600020905b81548152906001019060200180831161047357829003601f168201915b505050505081565b6001600d9054906101000a900467ffffffffffffffff1681565b60005481565b6001600c9054906101000a900460ff1681565b60025481565b600160089054906101000a900463ffffffff1681565b81600390816104f69190611f82565b50505050565b6105098260008084610eae565b5050565b60606000602a67ffffffffffffffff81111561052c5761052b6117c2565b5b6040519080825280601f01601f19166020018201604052801561055e5781602001600182028036833780820191505090505b5090507f30000000000000000000000000000000000000000000000000000000000000008160008151811061059657610595611d3d565b5b60200101907effffffffffffffffffffffffffffffffffffffffffffffffffffffffffffff1916908160001a9053507f7800000000000000000000000000000000000000000000000000000000000000816001815181106105fa576105f9611d3d565b5b60200101907effffffffffffffffffffffffffffffffffffffffffffffffffffffffffffff1916908160001a90535060005b601481101561078b5760008160136106449190612083565b600861065091906120b7565b600261065c919061222c565b8573ffffffffffffffffffffffffffffffffffffffff1661067d91906122a6565b60f81b9050600060108260f81c61069491906122d7565b905060008160106106a59190612308565b8360f81c6106b39190612345565b90506106be82610f58565b8560028660026106ce91906120b7565b6106d8919061237a565b815181106106e9576106e8611d3d565b5b60200101907effffffffffffffffffffffffffffffffffffffffffffffffffffffffffffff1916908160001a90535061072181610f58565b85600386600261073191906120b7565b61073b919061237a565b8151811061074c5761074b611d3d565b5b60200101907effffffffffffffffffffffffffffffffffffffffffffffffffffffffffffff1916908160001a905350505050808060010191505061062c565b5080915050919050565b6060600060016107a484610f95565b01905060008167ffffffffffffffff8111156107c3576107c26117c2565b5b6040519080825280601f01601f1916602001820160405280156107f55781602001600182028036833780820191505090505b509050600082602001820190505b600115610858578080600190039150507f3031323334353637383961626364656600000000000000000000000000000000600a86061a8153600a858161084c5761084b612277565b5b04945060008503610803575b819350505050919050565b600081510361089e576040517ffe936cb700000000000000000000000000000000000000000000000000000000815260040160405180910390fd5b808260a001819052505050565b60006108b86101006110e8565b90506109026040518060400160405280600681526020017f736c6f74494400000000000000000000000000000000000000000000000000008152508261110f90919063ffffffff16565b6109188360ff168261113890919063ffffffff16565b6109606040518060400160405280600781526020017f76657273696f6e000000000000000000000000000000000000000000000000008152508261110f90919063ffffffff16565b610973828261113890919063ffffffff16565b60028460200190600281111561098c5761098b6123ae565b5b908160028111156109a05761099f6123ae565b5b81525050806000015160000151846080018190525050505050565b606060006109ca6101006110e8565b9050610a146040518060400160405280600c81526020017f636f64654c6f636174696f6e00000000000000000000000000000000000000008152508261110f90919063ffffffff16565b610a3d83600001516002811115610a2e57610a2d6123ae565b5b8261114890919063ffffffff16565b610a856040518060400160405280600881526020017f6c616e67756167650000000000000000000000000000000000000000000000008152508261110f90919063ffffffff16565b610aae83604001516000811115610a9f57610a9e6123ae565b5b8261114890919063ffffffff16565b610af66040518060400160405280600681526020017f736f7572636500000000000000000000000000000000000000000000000000008152508261110f90919063ffffffff16565b610b0d83606001518261110f90919063ffffffff16565b60008360a00151511115610bc357610b636040518060400160405280600481526020017f61726773000000000000000000000000000000000000000000000000000000008152508261110f90919063ffffffff16565b610b6c81611198565b60005b8360a0015151811015610bb857610bad8460a001518281518110610b9657610b95611d3d565b5b60200260200101518361110f90919063ffffffff16565b806001019050610b6f565b50610bc2816111c0565b5b60008360800151511115610d045760006002811115610be557610be46123ae565b5b83602001516002811115610bfc57610bfb6123ae565b5b03610c33576040517fa80d31f700000000000000000000000000000000000000000000000000000000815260040160405180910390fd5b610c7b6040518060400160405280600f81526020017f736563726574734c6f636174696f6e00000000000000000000000000000000008152508261110f90919063ffffffff16565b610ca483602001516002811115610c9557610c946123ae565b5b8261114890919063ffffffff16565b610cec6040518060400160405280600781526020017f73656372657473000000000000000000000000000000000000000000000000008152508261110f90919063ffffffff16565b610d038360800151826111e890919063ffffffff16565b5b60008360c00151511115610dba57610d5a6040518060400160405280600981526020017f62797465734172677300000000000000000000000000000000000000000000008152508261110f90919063ffffffff16565b610d6381611198565b60005b8360c0015151811015610daf57610da48460c001518281518110610d8d57610d8c611d3d565b5b6020026020010151836111e890919063ffffffff16565b806001019050610d66565b50610db9816111c0565b5b806000015160000151915050919050565b6000807f000000000000000000000000000000000000000000000000000000000000000073ffffffffffffffffffffffffffffffffffffffff1663461d27628688600188886040518663ffffffff1660e01b8152600401610e3095949392919061244f565b6020604051808303816000875af1158015610e4f573d6000803e3d6000fd5b505050506040513d601f19601f82011682018060405250810190610e7391906124be565b9050807f1131472297a800fee664d1d89cfa8f7676ff07189ecc53f80bbb5f4969099db860405160405180910390a280915050949350505050565b6000815103610ee9576040517f22ce3edd00000000000000000000000000000000000000000000000000000000815260040160405180910390fd5b8284600001906002811115610f0157610f006123ae565b5b90816002811115610f1557610f146123ae565b5b815250508184604001906000811115610f3157610f306123ae565b5b90816000811115610f4557610f446123ae565b5b8152505080846060018190525050505050565b6000600a8260ff161015610f7d57603082610f7391906124eb565b60f81b9050610f90565b605782610f8a91906124eb565b60f81b90505b919050565b600080600090507a184f03e93ff9f4daa797ed6e38ed64bf6a1f0100000000000000008310610ff3577a184f03e93ff9f4daa797ed6e38ed64bf6a1f0100000000000000008381610fe957610fe8612277565b5b0492506040810190505b6d04ee2d6d415b85acef81000000008310611030576d04ee2d6d415b85acef8100000000838161102657611025612277565b5b0492506020810190505b662386f26fc10000831061105f57662386f26fc10000838161105557611054612277565b5b0492506010810190505b6305f5e1008310611088576305f5e100838161107e5761107d612277565b5b0492506008810190505b61271083106110ad5761271083816110a3576110a2612277565b5b0492506004810190505b606483106110d057606483816110c6576110c5612277565b5b0492506002810190505b600a83106110df576001810190505b80915050919050565b6110f06116e5565b6110fe816000015183611211565b506000816020018181525050919050565b61111c826003835161128a565b61113381836000015161143390919063ffffffff16565b505050565b6111448260008361128a565b5050565b61116a60026005600660ff16901b17836000015161144f90919063ffffffff16565b506111948282604051602001611180919061252f565b6040516020818303038152906040526111e8565b5050565b6111a38160046114b9565b6001816020018181516111b6919061237a565b9150818152505050565b6111cb8160076114b9565b6001816020018181516111de9190612083565b9150818152505050565b6111f5826002835161128a565b61120c81836000015161143390919063ffffffff16565b505050565b611219611705565b6000602083611228919061254a565b146112545760208261123a919061254a565b60206112469190612083565b82611251919061237a565b91505b81836020018181525050604051808452600081528281016020018181101561127b57600080fd5b80604052505082905092915050565b60178167ffffffffffffffff16116112c5576112bf8160058460ff16901b60ff1617846000015161144f90919063ffffffff16565b5061142e565b60ff8167ffffffffffffffff1611611323576112f8601860058460ff16901b17846000015161144f90919063ffffffff16565b5061131d8167ffffffffffffffff16600185600001516114df9092919063ffffffff16565b5061142d565b61ffff8167ffffffffffffffff161161138257611357601960058460ff16901b17846000015161144f90919063ffffffff16565b5061137c8167ffffffffffffffff16600285600001516114df9092919063ffffffff16565b5061142c565b63ffffffff8167ffffffffffffffff16116113e3576113b8601a60058460ff16901b17846000015161144f90919063ffffffff16565b506113dd8167ffffffffffffffff16600485600001516114df9092919063ffffffff16565b5061142b565b611404601b60058460ff16901b17846000015161144f90919063ffffffff16565b506114298167ffffffffffffffff16600885600001516114df9092919063ffffffff16565b505b5b5b5b505050565b61143b611705565b6114478383845161156c565b905092915050565b611457611705565b600083600001515190506000600182611470919061237a565b905084602001518210611494576114938560028361148e91906120b7565b61164f565b5b845160208382010185815381518311156114ac578282525b5050849250505092915050565b6114da601f60058360ff16901b17836000015161144f90919063ffffffff16565b505050565b6114e7611705565b60008460000151519050600081846114ff919061237a565b90508560200151811115611524576115238660028361151e91906120b7565b61164f565b5b6000600185610100611536919061222c565b6115409190612083565b90508651828101878319825116178152815184111561155d578382525b50508693505050509392505050565b611574611705565b825182111561158257600080fd5b600084600001515190506000838261159a919061237a565b905085602001518111156115bf576115be866002836115b991906120b7565b61164f565b5b600080875180518560208301019350808511156115da578482525b60208901925050505b6020861061162157805182526020826115fc919061237a565b915060208161160b919061237a565b905060208661161a9190612083565b95506115e3565b60006001876020036101000a0390508019825116818451168181178552505050879450505050509392505050565b6000826000015190506116628383611211565b5061166d8382611433565b50505050565b6040518060e0016040528060006002811115611692576116916123ae565b5b8152602001600060028111156116ab576116aa6123ae565b5b81526020016000808111156116c3576116c26123ae565b5b8152602001606081526020016060815260200160608152602001606081525090565b60405180604001604052806116f8611705565b8152602001600081525090565b604051806040016040528060608152602001600081525090565b600067ffffffffffffffff82169050919050565b61173c8161171f565b82525050565b60006020820190506117576000830184611733565b92915050565b6000604051905090565b600080fd5b600080fd5b6000819050919050565b61178481611771565b811461178f57600080fd5b50565b6000813590506117a18161177b565b92915050565b600080fd5b600080fd5b6000601f19601f8301169050919050565b7f4e487b7100000000000000000000000000000000000000000000000000000000600052604160045260246000fd5b6117fa826117b1565b810181811067ffffffffffffffff82111715611819576118186117c2565b5b80604052505050565b600061182c61175d565b905061183882826117f1565b919050565b600067ffffffffffffffff821115611858576118576117c2565b5b611861826117b1565b9050602081019050919050565b82818337600083830152505050565b600061189061188b8461183d565b611822565b9050828152602081018484840111156118ac576118ab6117ac565b5b6118b784828561186e565b509392505050565b600082601f8301126118d4576118d36117a7565b5b81356118e484826020860161187d565b91505092915050565b60008060006060848603121561190657611905611767565b5b600061191486828701611792565b935050602084013567ffffffffffffffff8111156119355761193461176c565b5b611941868287016118bf565b925050604084013567ffffffffffffffff8111156119625761196161176c565b5b61196e868287016118bf565b9150509250925092565b600081519050919050565b600082825260208201905092915050565b60005b838110156119b2578082015181840152602081019050611997565b60008484015250505050565b60006119c982611978565b6119d38185611983565b93506119e3818560208601611994565b6119ec816117b1565b840191505092915050565b60006020820190508181036000830152611a1181846119be565b905092915050565b611a2281611771565b82525050565b6000602082019050611a3d6000830184611a19565b92915050565b600060ff82169050919050565b611a5981611a43565b82525050565b6000602082019050611a746000830184611a50565b92915050565b600063ffffffff82169050919050565b611a9381611a7a565b82525050565b6000602082019050611aae6000830184611a8a565b92915050565b600081905092915050565b7f636f6e737420726573706f6e7365203d2061776169742046756e6374696f6e7360008201527f2e6d616b654874747052657175657374287b0a202075726c3a2027687474707360208201527f3a2f2f746f6d61732d776562332d6170692d6578356b736d636465712d75632e60408201527f612e72756e2e6170702f746f6d61732f657363616c6174652d746f2d68756d6160608201527f6e2d6c6177796572272c0a20206d6574686f643a2027504f5354272c0a20207460808201527f696d656f75743a2031303030302c0a2020686561646572733a207b202763686160a08201527f696e6c696e6b2d66756e6374696f6e732d736563726574273a2073656372657460c08201527f732e636861696e6c696e6b536563726574207d2c0a2020646174613a207b0a2060e08201527f2020206361736549643a20617267735b305d2c0a20202020636f6e74726163746101008201527f416464726573733a20617267735b315d2c0a2020202074696d657374616d703a6101208201527f20617267735b325d2c0a20207d2c0a7d293b0a69662028726573706f6e73652e6101408201527f6572726f7229207b207468726f77204572726f72284a534f4e2e737472696e676101608201527f69667928726573706f6e736529293b207d0a72657475726e2046756e6374696f6101808201527f6e732e656e636f6465537472696e67284a534f4e2e737472696e6769667928726101a08201527f6573706f6e73652e6461746129293b00000000000000000000000000000000006101c082015250565b6000611d116101cf83611ab4565b9150611d1c82611abf565b6101cf82019050919050565b6000611d3382611d03565b9150819050919050565b7f4e487b7100000000000000000000000000000000000000000000000000000000600052603260045260246000fd5b7f4e487b7100000000000000000000000000000000000000000000000000000000600052602260045260246000fd5b60006002820490506001821680611db357607f821691505b602082108103611dc657611dc5611d6c565b5b50919050565b60008190508160005260206000209050919050565b60006020601f8301049050919050565b600082821b905092915050565b600060088302611e2e7fffffffffffffffffffffffffffffffffffffffffffffffffffffffffffffffff82611df1565b611e388683611df1565b95508019841693508086168417925050509392505050565b6000819050919050565b6000819050919050565b6000611e7f611e7a611e7584611e50565b611e5a565b611e50565b9050919050565b6000819050919050565b611e9983611e64565b611ead611ea582611e86565b848454611dfe565b825550505050565b600090565b611ec2611eb5565b611ecd818484611e90565b505050565b5b81811015611ef157611ee6600082611eba565b600181019050611ed3565b5050565b601f821115611f3657611f0781611dcc565b611f1084611de1565b81016020851015611f1f578190505b611f33611f2b85611de1565b830182611ed2565b50505b505050565b600082821c905092915050565b6000611f5960001984600802611f3b565b1980831691505092915050565b6000611f728383611f48565b9150826002028217905092915050565b611f8b82611978565b67ffffffffffffffff811115611fa457611fa36117c2565b5b611fae8254611d9b565b611fb9828285611ef5565b600060209050601f831160018114611fec5760008415611fda578287015190505b611fe48582611f66565b86555061204c565b601f198416611ffa86611dcc565b60005b8281101561202257848901518255600182019150602085019450602081019050611ffd565b8683101561203f578489015161203b601f891682611f48565b8355505b6001600288020188555050505b505050505050565b7f4e487b7100000000000000000000000000000000000000000000000000000000600052601160045260246000fd5b600061208e82611e50565b915061209983611e50565b92508282039050818111156120b1576120b0612054565b5b92915050565b60006120c282611e50565b91506120cd83611e50565b92508282026120db81611e50565b915082820484148315176120f2576120f1612054565b5b5092915050565b60008160011c9050919050565b6000808291508390505b60018511156121505780860481111561212c5761212b612054565b5b600185161561213b5780820291505b8081029050612149856120f9565b9450612110565b94509492505050565b6000826121695760019050612225565b816121775760009050612225565b816001811461218d5760028114612197576121c6565b6001915050612225565b60ff8411156121a9576121a8612054565b5b8360020a9150848211156121c0576121bf612054565b5b50612225565b5060208310610133831016604e8410600b84101617156121fb5782820a9050838111156121f6576121f5612054565b5b612225565b6122088484846001612106565b9250905081840481111561221f5761221e612054565b5b81810290505b9392505050565b600061223782611e50565b915061224283611e50565b925061226f7fffffffffffffffffffffffffffffffffffffffffffffffffffffffffffffffff8484612159565b905092915050565b7f4e487b7100000000000000000000000000000000000000000000000000000000600052601260045260246000fd5b60006122b182611e50565b91506122bc83611e50565b9250826122cc576122cb612277565b5b828204905092915050565b60006122e282611a43565b91506122ed83611a43565b9250826122fd576122fc612277565b5b828204905092915050565b600061231382611a43565b915061231e83611a43565b925082820261232c81611a43565b915080821461233e5761233d612054565b5b5092915050565b600061235082611a43565b915061235b83611a43565b9250828203905060ff81111561237457612373612054565b5b92915050565b600061238582611e50565b915061239083611e50565b92508282019050808211156123a8576123a7612054565b5b92915050565b7f4e487b7100000000000000000000000000000000000000000000000000000000600052602160045260246000fd5b600081519050919050565b600082825260208201905092915050565b6000612404826123dd565b61240e81856123e8565b935061241e818560208601611994565b612427816117b1565b840191505092915050565b600061ffff82169050919050565b61244981612432565b82525050565b600060a0820190506124646000830188611733565b818103602083015261247681876123f9565b90506124856040830186612440565b6124926060830185611a8a565b61249f6080830184611a19565b9695505050505050565b6000815190506124b88161177b565b92915050565b6000602082840312156124d4576124d3611767565b5b60006124e2848285016124a9565b91505092915050565b60006124f682611a43565b915061250183611a43565b9250828201905060ff81111561251a57612519612054565b5b92915050565b61252981611e50565b82525050565b60006020820190506125446000830184612520565b92915050565b600061255582611e50565b915061256083611e50565b9250826125705761256f612277565b5b82820690509291505056fea2646970667358221220d65dc7c61886695f77b62eb6a31ad5597d9caae9528021a1c669581b5d0767a164736f6c634300081c0033",
  "linkReferences": {},
  "deployedLinkReferences": {}
}