{
  "_format": "hh-sol-artifact-1",
  "contractName": "ConsumerSimpleWithVRF4",
  "sourceName": "contracts/ConsumerSimpleWithVRF4.sol",
  "abi": [
    {
      "inputs": [
        {
          "internalType": "address",
          "name": "functionsRouter",
          "type": "address"
        },
        {
          "internalType": "bytes32",
          "name": "_donId",
          "type": "bytes32"
        },
        {
          "internalType": "uint64",
          "name": "_functionsSubId",
          "type": "uint64"
        },
        {
          "internalType": "uint32",
          "name": "_functionsGasLimit",
          "type": "uint32"
        },
        {
          "internalType": "address",
          "name": "vrfCoordinator",
          "type": "address"
        },
        {
          "internalType": "bytes32",
          "name": "_keyHash",
          "type": "bytes32"
        },
        {
          "internalType": "uint256",
          "name": "_vrfSubId",
          "type": "uint256"
        },
        {
          "internalType": "uint8",
          "name": "_secretsSlot",
          "type": "uint8"
        },
        {
          "internalType": "uint64",
          "name": "_secretsVersion",
          "type": "uint64"
        }
      ],
      "stateMutability": "nonpayable",
      "type": "constructor"
    },
    {
      "inputs": [],
      "name": "EmptyArgs",
      "type": "error"
    },
    {
      "inputs": [],
      "name": "EmptySource",
      "type": "error"
    },
    {
      "inputs": [],
      "name": "NoInlineSecrets",
      "type": "error"
    },
    {
      "inputs": [
        {
          "internalType": "address",
          "name": "have",
          "type": "address"
        },
        {
          "internalType": "address",
          "name": "want",
          "type": "address"
        }
      ],
      "name": "OnlyCoordinatorCanFulfill",
      "type": "error"
    },
    {
      "inputs": [
        {
          "internalType": "address",
          "name": "have",
          "type": "address"
        },
        {
          "internalType": "address",
          "name": "owner",
          "type": "address"
        },
        {
          "internalType": "address",
          "name": "coordinator",
          "type": "address"
        }
      ],
      "name": "OnlyOwnerOrCoordinator",
      "type": "error"
    },
    {
      "inputs": [],
      "name": "OnlyRouterCanFulfill",
      "type": "error"
    },
    {
      "inputs": [],
      "name": "ZeroAddress",
      "type": "error"
    },
    {
      "anonymous": false,
      "inputs": [
        {
          "indexed": false,
          "internalType": "address",
          "name": "vrfCoordinator",
          "type": "address"
        }
      ],
      "name": "CoordinatorSet",
      "type": "event"
    },
    {
      "anonymous": false,
      "inputs": [
        {
          "indexed": true,
          "internalType": "uint256",
          "name": "vrfRequestId",
          "type": "uint256"
        },
        {
          "indexed": false,
          "internalType": "bytes32",
          "name": "functionsReqId",
          "type": "bytes32"
        }
      ],
      "name": "ExecutedRequest",
      "type": "event"
    },
    {
      "anonymous": false,
      "inputs": [
        {
          "indexed": true,
          "internalType": "address",
          "name": "from",
          "type": "address"
        },
        {
          "indexed": true,
          "internalType": "address",
          "name": "to",
          "type": "address"
        }
      ],
      "name": "OwnershipTransferRequested",
      "type": "event"
    },
    {
      "anonymous": false,
      "inputs": [
        {
          "indexed": true,
          "internalType": "address",
          "name": "from",
          "type": "address"
        },
        {
          "indexed": true,
          "internalType": "address",
          "name": "to",
          "type": "address"
        }
      ],
      "name": "OwnershipTransferred",
      "type": "event"
    },
    {
      "anonymous": false,
      "inputs": [
        {
          "indexed": true,
          "internalType": "bytes32",
          "name": "id",
          "type": "bytes32"
        }
      ],
      "name": "RequestFulfilled",
      "type": "event"
    },
    {
      "anonymous": false,
      "inputs": [
        {
          "indexed": true,
          "internalType": "uint256",
          "name": "vrfRequestId",
          "type": "uint256"
        },
        {
          "indexed": true,
          "internalType": "address",
          "name": "caller",
          "type": "address"
        }
      ],
      "name": "RequestQueued",
      "type": "event"
    },
    {
      "anonymous": false,
      "inputs": [
        {
          "indexed": true,
          "internalType": "bytes32",
          "name": "id",
          "type": "bytes32"
        }
      ],
      "name": "RequestSent",
      "type": "event"
    },
    {
      "anonymous": false,
      "inputs": [
        {
          "indexed": true,
          "internalType": "uint256",
          "name": "vrfRequestId",
          "type": "uint256"
        },
        {
          "indexed": false,
          "internalType": "uint256",
          "name": "randomWord",
          "type": "uint256"
        }
      ],
      "name": "SkippedRequest",
      "type": "event"
    },
    {
      "anonymous": false,
      "inputs": [
        {
          "indexed": true,
          "internalType": "uint256",
          "name": "vrfRequestId",
          "type": "uint256"
        },
        {
          "indexed": false,
          "internalType": "uint256",
          "name": "randomWord",
          "type": "uint256"
        }
      ],
      "name": "VRFReceived",
      "type": "event"
    },
    {
      "inputs": [],
      "name": "acceptOwnership",
      "outputs": [],
      "stateMutability": "nonpayable",
      "type": "function"
    },
    {
      "inputs": [],
      "name": "donId",
      "outputs": [
        {
          "internalType": "bytes32",
          "name": "",
          "type": "bytes32"
        }
      ],
      "stateMutability": "view",
      "type": "function"
    },
    {
      "inputs": [],
      "name": "execute",
      "outputs": [],
      "stateMutability": "nonpayable",
      "type": "function"
    },
    {
      "inputs": [],
      "name": "functionsGasLimit",
      "outputs": [
        {
          "internalType": "uint32",
          "name": "",
          "type": "uint32"
        }
      ],
      "stateMutability": "view",
      "type": "function"
    },
    {
      "inputs": [],
      "name": "functionsSubId",
      "outputs": [
        {
          "internalType": "uint64",
          "name": "",
          "type": "uint64"
        }
      ],
      "stateMutability": "view",
      "type": "function"
    },
    {
      "inputs": [
        {
          "internalType": "bytes32",
          "name": "requestId",
          "type": "bytes32"
        },
        {
          "internalType": "bytes",
          "name": "response",
          "type": "bytes"
        },
        {
          "internalType": "bytes",
          "name": "err",
          "type": "bytes"
        }
      ],
      "name": "handleOracleFulfillment",
      "outputs": [],
      "stateMutability": "nonpayable",
      "type": "function"
    },
    {
      "inputs": [],
      "name": "keyHash",
      "outputs": [
        {
          "internalType": "bytes32",
          "name": "",
          "type": "bytes32"
        }
      ],
      "stateMutability": "view",
      "type": "function"
    },
    {
      "inputs": [],
      "name": "lastFunctionsRequestId",
      "outputs": [
        {
          "internalType": "bytes32",
          "name": "",
          "type": "bytes32"
        }
      ],
      "stateMutability": "view",
      "type": "function"
    },
    {
      "inputs": [],
      "name": "lastResponse",
      "outputs": [
        {
          "internalType": "string",
          "name": "",
          "type": "string"
        }
      ],
      "stateMutability": "view",
      "type": "function"
    },
    {
      "inputs": [],
      "name": "owner",
      "outputs": [
        {
          "internalType": "address",
          "name": "",
          "type": "address"
        }
      ],
      "stateMutability": "view",
      "type": "function"
    },
    {
      "inputs": [
        {
          "internalType": "uint256",
          "name": "",
          "type": "uint256"
        }
      ],
      "name": "pending",
      "outputs": [
        {
          "internalType": "address",
          "name": "caller",
          "type": "address"
        },
        {
          "internalType": "uint256",
          "name": "timestamp",
          "type": "uint256"
        }
      ],
      "stateMutability": "view",
      "type": "function"
    },
    {
      "inputs": [
        {
          "internalType": "uint256",
          "name": "requestId",
          "type": "uint256"
        },
        {
          "internalType": "uint256[]",
          "name": "randomWords",
          "type": "uint256[]"
        }
      ],
      "name": "rawFulfillRandomWords",
      "outputs": [],
      "stateMutability": "nonpayable",
      "type": "function"
    },
    {
      "inputs": [],
      "name": "requestConfirmations",
      "outputs": [
        {
          "internalType": "uint16",
          "name": "",
          "type": "uint16"
        }
      ],
      "stateMutability": "view",
      "type": "function"
    },
    {
      "inputs": [],
      "name": "s_vrfCoordinator",
      "outputs": [
        {
          "internalType": "contract IVRFCoordinatorV2Plus",
          "name": "",
          "type": "address"
        }
      ],
      "stateMutability": "view",
      "type": "function"
    },
    {
      "inputs": [],
      "name": "secretsSlot",
      "outputs": [
        {
          "internalType": "uint8",
          "name": "",
          "type": "uint8"
        }
      ],
      "stateMutability": "view",
      "type": "function"
    },
    {
      "inputs": [],
      "name": "secretsVersion",
      "outputs": [
        {
          "internalType": "uint64",
          "name": "",
          "type": "uint64"
        }
      ],
      "stateMutability": "view",
      "type": "function"
    },
    {
      "inputs": [
        {
          "internalType": "address",
          "name": "_vrfCoordinator",
          "type": "address"
        }
      ],
      "name": "setCoordinator",
      "outputs": [],
      "stateMutability": "nonpayable",
      "type": "function"
    },
    {
      "inputs": [
        {
          "internalType": "address",
          "name": "to",
          "type": "address"
        }
      ],
      "name": "transferOwnership",
      "outputs": [],
      "stateMutability": "nonpayable",
      "type": "function"
    },
    {
      "inputs": [
        {
          "internalType": "uint8",
          "name": "newSlot",
          "type": "uint8"
        }
      ],
      "name": "updateSecretsSlot",
      "outputs": [],
      "stateMutability": "nonpayable",
      "type": "function"
    },
    {
      "inputs": [
        {
          "internalType": "uint64",
          "name": "newVersion",
          "type": "uint64"
        }
      ],
      "name": "updateSecretsVersion",
      "outputs": [],
      "stateMutability": "nonpayable",
      "type": "function"
    },
    {
      "inputs": [],
      "name": "vrfCallbackGasLimit",
      "outputs": [
        {
          "internalType": "uint32",
          "name": "",
          "type": "uint32"
        }
      ],
      "stateMutability": "view",
      "type": "function"
    },
    {
      "inputs": [],
      "name": "vrfSubId",
      "outputs": [
        {
          "internalType": "uint256",
          "name": "",
          "type": "uint256"
        }
      ],
      "stateMutability": "view",
      "type": "function"
    }
  ],
  "bytecode": "0x60a06040526003600760006101000a81548161ffff021916908361ffff16021790555062055730600760026101000a81548163ffffffff021916908363ffffffff16021790555034801561005257600080fd5b50604051614524380380614524833981810160405281019061007491906105ee565b84338060008c8073ffffffffffffffffffffffffffffffffffffffff1660808173ffffffffffffffffffffffffffffffffffffffff168152505050600073ffffffffffffffffffffffffffffffffffffffff168273ffffffffffffffffffffffffffffffffffffffff160361011e576040517f08c379a000000000000000000000000000000000000000000000000000000000815260040161011590610715565b60405180910390fd5b816000806101000a81548173ffffffffffffffffffffffffffffffffffffffff021916908373ffffffffffffffffffffffffffffffffffffffff160217905550600073ffffffffffffffffffffffffffffffffffffffff168173ffffffffffffffffffffffffffffffffffffffff16146101a2576101a18161033e60201b60201c565b5b505050600073ffffffffffffffffffffffffffffffffffffffff168173ffffffffffffffffffffffffffffffffffffffff160361020b576040517fd92e233d00000000000000000000000000000000000000000000000000000000815260040160405180910390fd5b80600260006101000a81548173ffffffffffffffffffffffffffffffffffffffff021916908373ffffffffffffffffffffffffffffffffffffffff160217905550508760038190555086600460006101000a81548167ffffffffffffffff021916908367ffffffffffffffff16021790555085600460086101000a81548163ffffffff021916908363ffffffff160217905550846004600c6101000a81548173ffffffffffffffffffffffffffffffffffffffff021916908373ffffffffffffffffffffffffffffffffffffffff160217905550836005819055508260068190555081600760066101000a81548160ff021916908360ff160217905550806007806101000a81548167ffffffffffffffff021916908367ffffffffffffffff1602179055505050505050505050506107a1565b3373ffffffffffffffffffffffffffffffffffffffff168173ffffffffffffffffffffffffffffffffffffffff16036103ac576040517f08c379a00000000000000000000000000000000000000000000000000000000081526004016103a390610781565b60405180910390fd5b80600160006101000a81548173ffffffffffffffffffffffffffffffffffffffff021916908373ffffffffffffffffffffffffffffffffffffffff1602179055508073ffffffffffffffffffffffffffffffffffffffff1660008054906101000a900473ffffffffffffffffffffffffffffffffffffffff1673ffffffffffffffffffffffffffffffffffffffff167fed8889f560326eb138920d842192f0eb3dd22b4f139c87a2c57538e05bae127860405160405180910390a350565b600080fd5b600073ffffffffffffffffffffffffffffffffffffffff82169050919050565b600061049a8261046f565b9050919050565b6104aa8161048f565b81146104b557600080fd5b50565b6000815190506104c7816104a1565b92915050565b6000819050919050565b6104e0816104cd565b81146104eb57600080fd5b50565b6000815190506104fd816104d7565b92915050565b600067ffffffffffffffff82169050919050565b61052081610503565b811461052b57600080fd5b50565b60008151905061053d81610517565b92915050565b600063ffffffff82169050919050565b61055c81610543565b811461056757600080fd5b50565b60008151905061057981610553565b92915050565b6000819050919050565b6105928161057f565b811461059d57600080fd5b50565b6000815190506105af81610589565b92915050565b600060ff82169050919050565b6105cb816105b5565b81146105d657600080fd5b50565b6000815190506105e8816105c2565b92915050565b60008060008060008060008060006101208a8c0312156106115761061061046a565b5b600061061f8c828d016104b8565b99505060206106308c828d016104ee565b98505060406106418c828d0161052e565b97505060606106528c828d0161056a565b96505060806106638c828d016104b8565b95505060a06106748c828d016104ee565b94505060c06106858c828d016105a0565b93505060e06106968c828d016105d9565b9250506101006106a88c828d0161052e565b9150509295985092959850929598565b600082825260208201905092915050565b7f43616e6e6f7420736574206f776e657220746f207a65726f0000000000000000600082015250565b60006106ff6018836106b8565b915061070a826106c9565b602082019050919050565b6000602082019050818103600083015261072e816106f2565b9050919050565b7f43616e6e6f74207472616e7366657220746f2073656c66000000000000000000600082015250565b600061076b6017836106b8565b915061077682610735565b602082019050919050565b6000602082019050818103600083015261079a8161075e565b9050919050565b608051613d616107c3600039600081816103bc0152611b8e0152613d616000f3fe608060405234801561001057600080fd5b50600436106101425760003560e01c806366dd6ff9116100b85780638ea981171161007c5780638ea98117146102f75780639eccacf614610313578063af6e623814610331578063af8d73c014610362578063b0fb162f14610380578063f2fde38b1461039e57610142565b806366dd6ff91461027557806375b1d1951461029357806379ba5097146102b15780638da5cb5b146102bb5780638dbe7b9d146102d957610142565b8063326156401161010a57806332615640146101d55780633b7ed734146101f357806346ffc94014610211578063614619541461022f57806361728f391461023957806362747e421461025757610142565b80630ca76175146101475780630d6c0710146101635780631ace0fa11461017f5780631e48d85e1461019d5780631fe543e3146101b9575b600080fd5b610161600480360381019061015c919061266a565b6103ba565b005b61017d6004803603810190610178919061272e565b61047c565b005b61018761049a565b604051610194919061276a565b60405180910390f35b6101b760048036038101906101b291906127c5565b6104a0565b005b6101d360048036038101906101ce9190612888565b6104cb565b005b6101dd610591565b6040516101ea91906128f7565b60405180910390f35b6101fb610597565b6040516102089190612931565b60405180910390f35b6102196105ad565b6040516102269190612931565b60405180910390f35b6102376105c3565b005b6102416107c0565b60405161024e919061276a565b60405180910390f35b61025f6107c6565b60405161026c91906129cb565b60405180910390f35b61027d610854565b60405161028a91906129fc565b60405180910390f35b61029b61086e565b6040516102a891906129fc565b60405180910390f35b6102b9610886565b005b6102c3610a1b565b6040516102d09190612a58565b60405180910390f35b6102e1610a44565b6040516102ee919061276a565b60405180910390f35b610311600480360381019061030c9190612a9f565b610a4a565b005b61031b610c2b565b6040516103289190612b2b565b60405180910390f35b61034b60048036038101906103469190612b46565b610c51565b604051610359929190612b73565b60405180910390f35b61036a610c95565b6040516103779190612bab565b60405180910390f35b610388610ca8565b6040516103959190612be3565b60405180910390f35b6103b860048036038101906103b39190612a9f565b610cbc565b005b7f000000000000000000000000000000000000000000000000000000000000000073ffffffffffffffffffffffffffffffffffffffff163373ffffffffffffffffffffffffffffffffffffffff161461043f576040517fc6829f8300000000000000000000000000000000000000000000000000000000815260040160405180910390fd5b61044a838383610cd0565b827f85e1543bf2f84fe80c6badbce3648c8539ad1df4d2b3d822938ca0538be727e660405160405180910390a2505050565b80600760066101000a81548160ff021916908360ff16021790555050565b60095481565b806007806101000a81548167ffffffffffffffff021916908367ffffffffffffffff16021790555050565b600260009054906101000a900473ffffffffffffffffffffffffffffffffffffffff1673ffffffffffffffffffffffffffffffffffffffff163373ffffffffffffffffffffffffffffffffffffffff16146105815733600260009054906101000a900473ffffffffffffffffffffffffffffffffffffffff166040517f1cf993f4000000000000000000000000000000000000000000000000000000008152600401610578929190612bfe565b60405180910390fd5b61058c838383610ce5565b505050565b60065481565b600760029054906101000a900463ffffffff1681565b600460089054906101000a900463ffffffff1681565b60006040518060c0016040528060055481526020016006548152602001600760009054906101000a900461ffff1661ffff168152602001600760029054906101000a900463ffffffff1663ffffffff168152602001600163ffffffff16815260200161063f604051806020016040528060011515815250611066565b815250905060006004600c9054906101000a900473ffffffffffffffffffffffffffffffffffffffff1673ffffffffffffffffffffffffffffffffffffffff16639b1c385e836040518263ffffffff1660e01b81526004016106a19190612d41565b6020604051808303816000875af11580156106c0573d6000803e3d6000fd5b505050506040513d601f19601f820116820180604052508101906106e49190612d78565b905060405180604001604052803373ffffffffffffffffffffffffffffffffffffffff168152602001428152506008600083815260200190815260200160002060008201518160000160006101000a81548173ffffffffffffffffffffffffffffffffffffffff021916908373ffffffffffffffffffffffffffffffffffffffff160217905550602082015181600101559050503373ffffffffffffffffffffffffffffffffffffffff16817f2870783f5e099b2e9a04a7d03ef690871ac7498d8f68a8d23a64052fffded39460405160405180910390a35050565b60055481565b600a80546107d390612dd4565b80601f01602080910402602001604051908101604052809291908181526020018280546107ff90612dd4565b801561084c5780601f106108215761010080835404028352916020019161084c565b820191906000526020600020905b81548152906001019060200180831161082f57829003601f168201915b505050505081565b600460009054906101000a900467ffffffffffffffff1681565b60078054906101000a900467ffffffffffffffff1681565b600160009054906101000a900473ffffffffffffffffffffffffffffffffffffffff1673ffffffffffffffffffffffffffffffffffffffff163373ffffffffffffffffffffffffffffffffffffffff1614610916576040517f08c379a000000000000000000000000000000000000000000000000000000000815260040161090d90612e51565b60405180910390fd5b60008060009054906101000a900473ffffffffffffffffffffffffffffffffffffffff169050336000806101000a81548173ffffffffffffffffffffffffffffffffffffffff021916908373ffffffffffffffffffffffffffffffffffffffff1602179055506000600160006101000a81548173ffffffffffffffffffffffffffffffffffffffff021916908373ffffffffffffffffffffffffffffffffffffffff1602179055503373ffffffffffffffffffffffffffffffffffffffff168173ffffffffffffffffffffffffffffffffffffffff167f8be0079c531659141344cd1fd0a4f28419497f9722a3daafe3b4186f6b6457e060405160405180910390a350565b60008060009054906101000a900473ffffffffffffffffffffffffffffffffffffffff16905090565b60035481565b610a52610a1b565b73ffffffffffffffffffffffffffffffffffffffff163373ffffffffffffffffffffffffffffffffffffffff1614158015610adb5750600260009054906101000a900473ffffffffffffffffffffffffffffffffffffffff1673ffffffffffffffffffffffffffffffffffffffff163373ffffffffffffffffffffffffffffffffffffffff1614155b15610b4a5733610ae9610a1b565b600260009054906101000a900473ffffffffffffffffffffffffffffffffffffffff166040517f061db9c1000000000000000000000000000000000000000000000000000000008152600401610b4193929190612e71565b60405180910390fd5b600073ffffffffffffffffffffffffffffffffffffffff168173ffffffffffffffffffffffffffffffffffffffff1603610bb0576040517fd92e233d00000000000000000000000000000000000000000000000000000000815260040160405180910390fd5b80600260006101000a81548173ffffffffffffffffffffffffffffffffffffffff021916908373ffffffffffffffffffffffffffffffffffffffff1602179055507fd1a6a14209a385a964d036e404cb5cfb71f4000cdb03c9366292430787261be681604051610c209190612a58565b60405180910390a150565b600260009054906101000a900473ffffffffffffffffffffffffffffffffffffffff1681565b60086020528060005260406000206000915090508060000160009054906101000a900473ffffffffffffffffffffffffffffffffffffffff16908060010154905082565b600760069054906101000a900460ff1681565b600760009054906101000a900461ffff1681565b610cc46110fe565b610ccd8161118e565b50565b81600a9081610cdf919061304a565b50505050565b6000600860008581526020019081526020016000206040518060400160405290816000820160009054906101000a900473ffffffffffffffffffffffffffffffffffffffff1673ffffffffffffffffffffffffffffffffffffffff1673ffffffffffffffffffffffffffffffffffffffff168152602001600182015481525050905060086000858152602001908152602001600020600080820160006101000a81549073ffffffffffffffffffffffffffffffffffffffff021916905560018201600090555050600083836000818110610dc257610dc161311c565b5b905060200201359050847f936fe18cf1ae151e1bc53947d9b72671fb007ae8fb2ec8ad96d98a23c8d51dc182604051610dfb91906128f7565b60405180910390a26000600582610e12919061317a565b03610e5657847ff59254795d000152d96e61129a9aad6516f46e3537f805bc7f8f70c38534fef582604051610e4791906128f7565b60405180910390a25050611061565b610e5e61242e565b6000604051602001610e6f906136e8565b6040516020818303038152906040529050610e9381836112ba90919063ffffffff16565b6000600467ffffffffffffffff811115610eb057610eaf61253f565b5b604051908082528060200260200182016040528015610ee357816020015b6060815260200190600190039081610ece5790505b509050610ef385600001516112cb565b81600081518110610f0757610f0661311c565b5b6020026020010181905250610f1b306112cb565b81600181518110610f2f57610f2e61311c565b5b6020026020010181905250610f478560200151611553565b81600281518110610f5b57610f5a61311c565b5b6020026020010181905250610f6f84611553565b81600381518110610f8357610f8261311c565b5b6020026020010181905250610fa1818461162190919063ffffffff16565b610fd9600760069054906101000a900460ff1660078054906101000a900467ffffffffffffffff16856116699092919063ffffffff16565b6000611019610fe785611779565b600460009054906101000a900467ffffffffffffffff16600460089054906101000a900463ffffffff16600354611b89565b905080600981905550887ff6f9cf2a89d29b7b0752e980500ade3da318edcc93ca4eea6b0e8ef338946da082604051611052919061276a565b60405180910390a25050505050505b505050565b60607f92fd13387c7fe7befbc38d303d6468778fb9731bc4583f17d92989c6fcfdeaaa8260405160240161109a91906137c3565b604051602081830303815290604052907bffffffffffffffffffffffffffffffffffffffffffffffffffffffff19166020820180517bffffffffffffffffffffffffffffffffffffffffffffffffffffffff83818316178352505050509050919050565b60008054906101000a900473ffffffffffffffffffffffffffffffffffffffff1673ffffffffffffffffffffffffffffffffffffffff163373ffffffffffffffffffffffffffffffffffffffff161461118c576040517f08c379a00000000000000000000000000000000000000000000000000000000081526004016111839061382a565b60405180910390fd5b565b3373ffffffffffffffffffffffffffffffffffffffff168173ffffffffffffffffffffffffffffffffffffffff16036111fc576040517f08c379a00000000000000000000000000000000000000000000000000000000081526004016111f390613896565b60405180910390fd5b80600160006101000a81548173ffffffffffffffffffffffffffffffffffffffff021916908373ffffffffffffffffffffffffffffffffffffffff1602179055508073ffffffffffffffffffffffffffffffffffffffff1660008054906101000a900473ffffffffffffffffffffffffffffffffffffffff1673ffffffffffffffffffffffffffffffffffffffff167fed8889f560326eb138920d842192f0eb3dd22b4f139c87a2c57538e05bae127860405160405180910390a350565b6112c78260008084611c6c565b5050565b60606000602a67ffffffffffffffff8111156112ea576112e961253f565b5b6040519080825280601f01601f19166020018201604052801561131c5781602001600182028036833780820191505090505b5090507f3000000000000000000000000000000000000000000000000000000000000000816000815181106113545761135361311c565b5b60200101907effffffffffffffffffffffffffffffffffffffffffffffffffffffffffffff1916908160001a9053507f7800000000000000000000000000000000000000000000000000000000000000816001815181106113b8576113b761311c565b5b60200101907effffffffffffffffffffffffffffffffffffffffffffffffffffffffffffff1916908160001a90535060005b601481101561154957600081601361140291906138e5565b600861140e9190613919565b600261141a9190613a8e565b8573ffffffffffffffffffffffffffffffffffffffff1661143b9190613ad9565b60f81b9050600060108260f81c6114529190613b0a565b905060008160106114639190613b3b565b8360f81c6114719190613b78565b905061147c82611d16565b85600286600261148c9190613919565b6114969190613bad565b815181106114a7576114a661311c565b5b60200101907effffffffffffffffffffffffffffffffffffffffffffffffffffffffffffff1916908160001a9053506114df81611d16565b8560038660026114ef9190613919565b6114f99190613bad565b8151811061150a5761150961311c565b5b60200101907effffffffffffffffffffffffffffffffffffffffffffffffffffffffffffff1916908160001a90535050505080806001019150506113ea565b5080915050919050565b60606000600161156284611d50565b01905060008167ffffffffffffffff8111156115815761158061253f565b5b6040519080825280601f01601f1916602001820160405280156115b35781602001600182028036833780820191505090505b509050600082602001820190505b600115611616578080600190039150507f3031323334353637383961626364656600000000000000000000000000000000600a86061a8153600a858161160a5761160961314b565b5b049450600085036115c1575b819350505050919050565b600081510361165c576040517ffe936cb700000000000000000000000000000000000000000000000000000000815260040160405180910390fd5b808260a001819052505050565b6000611676610100611ea3565b90506116c06040518060400160405280600681526020017f736c6f744944000000000000000000000000000000000000000000000000000081525082611eca90919063ffffffff16565b6116d68360ff1682611ef390919063ffffffff16565b61171e6040518060400160405280600781526020017f76657273696f6e0000000000000000000000000000000000000000000000000081525082611eca90919063ffffffff16565b6117318282611ef390919063ffffffff16565b60028460200190600281111561174a57611749613be1565b5b9081600281111561175e5761175d613be1565b5b81525050806000015160000151846080018190525050505050565b60606000611788610100611ea3565b90506117d26040518060400160405280600c81526020017f636f64654c6f636174696f6e000000000000000000000000000000000000000081525082611eca90919063ffffffff16565b6117fb836000015160028111156117ec576117eb613be1565b5b82611f0390919063ffffffff16565b6118436040518060400160405280600881526020017f6c616e677561676500000000000000000000000000000000000000000000000081525082611eca90919063ffffffff16565b61186c8360400151600081111561185d5761185c613be1565b5b82611f0390919063ffffffff16565b6118b46040518060400160405280600681526020017f736f75726365000000000000000000000000000000000000000000000000000081525082611eca90919063ffffffff16565b6118cb836060015182611eca90919063ffffffff16565b60008360a00151511115611981576119216040518060400160405280600481526020017f617267730000000000000000000000000000000000000000000000000000000081525082611eca90919063ffffffff16565b61192a81611f53565b60005b8360a00151518110156119765761196b8460a0015182815181106119545761195361311c565b5b602002602001015183611eca90919063ffffffff16565b80600101905061192d565b5061198081611f7b565b5b60008360800151511115611ac257600060028111156119a3576119a2613be1565b5b836020015160028111156119ba576119b9613be1565b5b036119f1576040517fa80d31f700000000000000000000000000000000000000000000000000000000815260040160405180910390fd5b611a396040518060400160405280600f81526020017f736563726574734c6f636174696f6e000000000000000000000000000000000081525082611eca90919063ffffffff16565b611a6283602001516002811115611a5357611a52613be1565b5b82611f0390919063ffffffff16565b611aaa6040518060400160405280600781526020017f736563726574730000000000000000000000000000000000000000000000000081525082611eca90919063ffffffff16565b611ac1836080015182611fa390919063ffffffff16565b5b60008360c00151511115611b7857611b186040518060400160405280600981526020017f627974657341726773000000000000000000000000000000000000000000000081525082611eca90919063ffffffff16565b611b2181611f53565b60005b8360c0015151811015611b6d57611b628460c001518281518110611b4b57611b4a61311c565b5b602002602001015183611fa390919063ffffffff16565b806001019050611b24565b50611b7781611f7b565b5b806000015160000151915050919050565b6000807f000000000000000000000000000000000000000000000000000000000000000073ffffffffffffffffffffffffffffffffffffffff1663461d27628688600188886040518663ffffffff1660e01b8152600401611bee959493929190613c5a565b6020604051808303816000875af1158015611c0d573d6000803e3d6000fd5b505050506040513d601f19601f82011682018060405250810190611c319190613cc9565b9050807f1131472297a800fee664d1d89cfa8f7676ff07189ecc53f80bbb5f4969099db860405160405180910390a280915050949350505050565b6000815103611ca7576040517f22ce3edd00000000000000000000000000000000000000000000000000000000815260040160405180910390fd5b8284600001906002811115611cbf57611cbe613be1565b5b90816002811115611cd357611cd2613be1565b5b815250508184604001906000811115611cef57611cee613be1565b5b90816000811115611d0357611d02613be1565b5b8152505080846060018190525050505050565b6000600a8260ff1610611d3857605782611d309190613cf6565b60f81b611d49565b603082611d459190613cf6565b60f81b5b9050919050565b600080600090507a184f03e93ff9f4daa797ed6e38ed64bf6a1f0100000000000000008310611dae577a184f03e93ff9f4daa797ed6e38ed64bf6a1f0100000000000000008381611da457611da361314b565b5b0492506040810190505b6d04ee2d6d415b85acef81000000008310611deb576d04ee2d6d415b85acef81000000008381611de157611de061314b565b5b0492506020810190505b662386f26fc100008310611e1a57662386f26fc100008381611e1057611e0f61314b565b5b0492506010810190505b6305f5e1008310611e43576305f5e1008381611e3957611e3861314b565b5b0492506008810190505b6127108310611e68576127108381611e5e57611e5d61314b565b5b0492506004810190505b60648310611e8b5760648381611e8157611e8061314b565b5b0492506002810190505b600a8310611e9a576001810190505b80915050919050565b611eab6124a0565b611eb9816000015183611fcc565b506000816020018181525050919050565b611ed78260038351612045565b611eee8183600001516121ee90919063ffffffff16565b505050565b611eff82600083612045565b5050565b611f2560026005600660ff16901b17836000015161220a90919063ffffffff16565b50611f4f8282604051602001611f3b91906128f7565b604051602081830303815290604052611fa3565b5050565b611f5e816004612274565b600181602001818151611f719190613bad565b9150818152505050565b611f86816007612274565b600181602001818151611f9991906138e5565b9150818152505050565b611fb08260028351612045565b611fc78183600001516121ee90919063ffffffff16565b505050565b611fd46124c0565b6000602083611fe3919061317a565b1461200f57602082611ff5919061317a565b602061200191906138e5565b8261200c9190613bad565b91505b81836020018181525050604051808452600081528281016020018181101561203657600080fd5b80604052505082905092915050565b60178167ffffffffffffffff16116120805761207a8160058460ff16901b60ff1617846000015161220a90919063ffffffff16565b506121e9565b60ff8167ffffffffffffffff16116120de576120b3601860058460ff16901b17846000015161220a90919063ffffffff16565b506120d88167ffffffffffffffff166001856000015161229a9092919063ffffffff16565b506121e8565b61ffff8167ffffffffffffffff161161213d57612112601960058460ff16901b17846000015161220a90919063ffffffff16565b506121378167ffffffffffffffff166002856000015161229a9092919063ffffffff16565b506121e7565b63ffffffff8167ffffffffffffffff161161219e57612173601a60058460ff16901b17846000015161220a90919063ffffffff16565b506121988167ffffffffffffffff166004856000015161229a9092919063ffffffff16565b506121e6565b6121bf601b60058460ff16901b17846000015161220a90919063ffffffff16565b506121e48167ffffffffffffffff166008856000015161229a9092919063ffffffff16565b505b5b5b5b505050565b6121f66124c0565b61220283838451612327565b905092915050565b6122126124c0565b60008360000151519050600060018261222b9190613bad565b90508460200151821061224f5761224e856002836122499190613919565b61240a565b5b84516020838201018581538151831115612267578282525b5050849250505092915050565b612295601f60058360ff16901b17836000015161220a90919063ffffffff16565b505050565b6122a26124c0565b60008460000151519050600081846122ba9190613bad565b905085602001518111156122df576122de866002836122d99190613919565b61240a565b5b60006001856101006122f19190613a8e565b6122fb91906138e5565b905086518281018783198251161781528151841115612318578382525b50508693505050509392505050565b61232f6124c0565b825182111561233d57600080fd5b60008460000151519050600083826123559190613bad565b9050856020015181111561237a57612379866002836123749190613919565b61240a565b5b60008087518051856020830101935080851115612395578482525b60208901925050505b602086106123dc57805182526020826123b79190613bad565b91506020816123c69190613bad565b90506020866123d591906138e5565b955061239e565b60006001876020036101000a0390508019825116818451168181178552505050879450505050509392505050565b60008260000151905061241d8383611fcc565b5061242883826121ee565b50505050565b6040518060e001604052806000600281111561244d5761244c613be1565b5b81526020016000600281111561246657612465613be1565b5b815260200160008081111561247e5761247d613be1565b5b8152602001606081526020016060815260200160608152602001606081525090565b60405180604001604052806124b36124c0565b8152602001600081525090565b604051806040016040528060608152602001600081525090565b6000604051905090565b600080fd5b600080fd5b6000819050919050565b612501816124ee565b811461250c57600080fd5b50565b60008135905061251e816124f8565b92915050565b600080fd5b600080fd5b6000601f19601f8301169050919050565b7f4e487b7100000000000000000000000000000000000000000000000000000000600052604160045260246000fd5b6125778261252e565b810181811067ffffffffffffffff821117156125965761259561253f565b5b80604052505050565b60006125a96124da565b90506125b5828261256e565b919050565b600067ffffffffffffffff8211156125d5576125d461253f565b5b6125de8261252e565b9050602081019050919050565b82818337600083830152505050565b600061260d612608846125ba565b61259f565b90508281526020810184848401111561262957612628612529565b5b6126348482856125eb565b509392505050565b600082601f83011261265157612650612524565b5b81356126618482602086016125fa565b91505092915050565b600080600060608486031215612683576126826124e4565b5b60006126918682870161250f565b935050602084013567ffffffffffffffff8111156126b2576126b16124e9565b5b6126be8682870161263c565b925050604084013567ffffffffffffffff8111156126df576126de6124e9565b5b6126eb8682870161263c565b9150509250925092565b600060ff82169050919050565b61270b816126f5565b811461271657600080fd5b50565b60008135905061272881612702565b92915050565b600060208284031215612744576127436124e4565b5b600061275284828501612719565b91505092915050565b612764816124ee565b82525050565b600060208201905061277f600083018461275b565b92915050565b600067ffffffffffffffff82169050919050565b6127a281612785565b81146127ad57600080fd5b50565b6000813590506127bf81612799565b92915050565b6000602082840312156127db576127da6124e4565b5b60006127e9848285016127b0565b91505092915050565b6000819050919050565b612805816127f2565b811461281057600080fd5b50565b600081359050612822816127fc565b92915050565b600080fd5b600080fd5b60008083601f84011261284857612847612524565b5b8235905067ffffffffffffffff81111561286557612864612828565b5b6020830191508360208202830111156128815761288061282d565b5b9250929050565b6000806000604084860312156128a1576128a06124e4565b5b60006128af86828701612813565b935050602084013567ffffffffffffffff8111156128d0576128cf6124e9565b5b6128dc86828701612832565b92509250509250925092565b6128f1816127f2565b82525050565b600060208201905061290c60008301846128e8565b92915050565b600063ffffffff82169050919050565b61292b81612912565b82525050565b60006020820190506129466000830184612922565b92915050565b600081519050919050565b600082825260208201905092915050565b60005b8381101561298657808201518184015260208101905061296b565b60008484015250505050565b600061299d8261294c565b6129a78185612957565b93506129b7818560208601612968565b6129c08161252e565b840191505092915050565b600060208201905081810360008301526129e58184612992565b905092915050565b6129f681612785565b82525050565b6000602082019050612a1160008301846129ed565b92915050565b600073ffffffffffffffffffffffffffffffffffffffff82169050919050565b6000612a4282612a17565b9050919050565b612a5281612a37565b82525050565b6000602082019050612a6d6000830184612a49565b92915050565b612a7c81612a37565b8114612a8757600080fd5b50565b600081359050612a9981612a73565b92915050565b600060208284031215612ab557612ab46124e4565b5b6000612ac384828501612a8a565b91505092915050565b6000819050919050565b6000612af1612aec612ae784612a17565b612acc565b612a17565b9050919050565b6000612b0382612ad6565b9050919050565b6000612b1582612af8565b9050919050565b612b2581612b0a565b82525050565b6000602082019050612b406000830184612b1c565b92915050565b600060208284031215612b5c57612b5b6124e4565b5b6000612b6a84828501612813565b91505092915050565b6000604082019050612b886000830185612a49565b612b9560208301846128e8565b9392505050565b612ba5816126f5565b82525050565b6000602082019050612bc06000830184612b9c565b92915050565b600061ffff82169050919050565b612bdd81612bc6565b82525050565b6000602082019050612bf86000830184612bd4565b92915050565b6000604082019050612c136000830185612a49565b612c206020830184612a49565b9392505050565b612c30816124ee565b82525050565b612c3f816127f2565b82525050565b612c4e81612bc6565b82525050565b612c5d81612912565b82525050565b600081519050919050565b600082825260208201905092915050565b6000612c8a82612c63565b612c948185612c6e565b9350612ca4818560208601612968565b612cad8161252e565b840191505092915050565b600060c083016000830151612cd06000860182612c27565b506020830151612ce36020860182612c36565b506040830151612cf66040860182612c45565b506060830151612d096060860182612c54565b506080830151612d1c6080860182612c54565b5060a083015184820360a0860152612d348282612c7f565b9150508091505092915050565b60006020820190508181036000830152612d5b8184612cb8565b905092915050565b600081519050612d72816127fc565b92915050565b600060208284031215612d8e57612d8d6124e4565b5b6000612d9c84828501612d63565b91505092915050565b7f4e487b7100000000000000000000000000000000000000000000000000000000600052602260045260246000fd5b60006002820490506001821680612dec57607f821691505b602082108103612dff57612dfe612da5565b5b50919050565b7f4d7573742062652070726f706f736564206f776e657200000000000000000000600082015250565b6000612e3b601683612957565b9150612e4682612e05565b602082019050919050565b60006020820190508181036000830152612e6a81612e2e565b9050919050565b6000606082019050612e866000830186612a49565b612e936020830185612a49565b612ea06040830184612a49565b949350505050565b60008190508160005260206000209050919050565b60006020601f8301049050919050565b600082821b905092915050565b600060088302612f0a7fffffffffffffffffffffffffffffffffffffffffffffffffffffffffffffffff82612ecd565b612f148683612ecd565b95508019841693508086168417925050509392505050565b6000612f47612f42612f3d846127f2565b612acc565b6127f2565b9050919050565b6000819050919050565b612f6183612f2c565b612f75612f6d82612f4e565b848454612eda565b825550505050565b600090565b612f8a612f7d565b612f95818484612f58565b505050565b5b81811015612fb957612fae600082612f82565b600181019050612f9b565b5050565b601f821115612ffe57612fcf81612ea8565b612fd884612ebd565b81016020851015612fe7578190505b612ffb612ff385612ebd565b830182612f9a565b50505b505050565b600082821c905092915050565b600061302160001984600802613003565b1980831691505092915050565b600061303a8383613010565b9150826002028217905092915050565b6130538261294c565b67ffffffffffffffff81111561306c5761306b61253f565b5b6130768254612dd4565b613081828285612fbd565b600060209050601f8311600181146130b457600084156130a2578287015190505b6130ac858261302e565b865550613114565b601f1984166130c286612ea8565b60005b828110156130ea578489015182556001820191506020850194506020810190506130c5565b868310156131075784890151613103601f891682613010565b8355505b6001600288020188555050505b505050505050565b7f4e487b7100000000000000000000000000000000000000000000000000000000600052603260045260246000fd5b7f4e487b7100000000000000000000000000000000000000000000000000000000600052601260045260246000fd5b6000613185826127f2565b9150613190836127f2565b9250826131a05761319f61314b565b5b828206905092915050565b600081905092915050565b7f636f6e737420726573706f6e7365203d2061776169742046756e6374696f6e7360008201527f2e6d616b654874747052657175657374287b0000000000000000000000000000602082015250565b60006132126032836131ab565b915061321d826131b6565b603282019050919050565b7f202075726c3a202768747470733a2f2f746f6d61732d776562332d6170692d6560008201527f78356b736d636465712d75632e612e72756e2e6170702f746f6d61732f65736360208201527f616c6174652d746f2d68756d616e2d6c6177796572272c000000000000000000604082015250565b60006132aa6057836131ab565b91506132b582613228565b605782019050919050565b7f20206d6574686f643a2027504f5354272c000000000000000000000000000000600082015250565b60006132f66011836131ab565b9150613301826132c0565b601182019050919050565b7f202074696d656f75743a2031303030302c000000000000000000000000000000600082015250565b60006133426011836131ab565b915061334d8261330c565b601182019050919050565b7f2020686561646572733a207b2027636861696e6c696e6b2d66756e6374696f6e60008201527f732d736563726574273a20736563726574732e636861696e6c696e6b5365637260208201527f6574207d2c000000000000000000000000000000000000000000000000000000604082015250565b60006133da6045836131ab565b91506133e582613358565b604582019050919050565b7f2020646174613a207b0000000000000000000000000000000000000000000000600082015250565b60006134266009836131ab565b9150613431826133f0565b600982019050919050565b7f202020206361736549643a20617267735b305d2c000000000000000000000000600082015250565b60006134726014836131ab565b915061347d8261343c565b601482019050919050565b7f20202020636f6e7472616374416464726573733a20617267735b315d2c000000600082015250565b60006134be601d836131ab565b91506134c982613488565b601d82019050919050565b7f2020202074696d657374616d703a20617267735b325d2c000000000000000000600082015250565b600061350a6017836131ab565b9150613515826134d4565b601782019050919050565b7f2020202072616e646f6d576f72643a20617267735b335d2c0000000000000000600082015250565b60006135566018836131ab565b915061356182613520565b601882019050919050565b7f20207d2c00000000000000000000000000000000000000000000000000000000600082015250565b60006135a26004836131ab565b91506135ad8261356c565b600482019050919050565b7f7d293b0000000000000000000000000000000000000000000000000000000000600082015250565b60006135ee6003836131ab565b91506135f9826135b8565b600382019050919050565b7f69662028726573706f6e73652e6572726f7229207b207468726f77204572726f60008201527f72284a534f4e2e737472696e6769667928726573706f6e736529293b207d0000602082015250565b6000613660603e836131ab565b915061366b82613604565b603e82019050919050565b7f72657475726e2046756e6374696f6e732e656e636f6465537472696e67284a5360008201527f4f4e2e737472696e6769667928726573706f6e73652e6461746129293b000000602082015250565b60006136d2603d836131ab565b91506136dd82613676565b603d82019050919050565b60006136f382613205565b91506136fe8261329d565b9150613709826132e9565b915061371482613335565b915061371f826133cd565b915061372a82613419565b915061373582613465565b9150613740826134b1565b915061374b826134fd565b915061375682613549565b915061376182613595565b915061376c826135e1565b915061377782613653565b9150613782826136c5565b9150819050919050565b60008115159050919050565b6137a18161378c565b82525050565b6020820160008201516137bd6000850182613798565b50505050565b60006020820190506137d860008301846137a7565b92915050565b7f4f6e6c792063616c6c61626c65206279206f776e657200000000000000000000600082015250565b6000613814601683612957565b915061381f826137de565b602082019050919050565b6000602082019050818103600083015261384381613807565b9050919050565b7f43616e6e6f74207472616e7366657220746f2073656c66000000000000000000600082015250565b6000613880601783612957565b915061388b8261384a565b602082019050919050565b600060208201905081810360008301526138af81613873565b9050919050565b7f4e487b7100000000000000000000000000000000000000000000000000000000600052601160045260246000fd5b60006138f0826127f2565b91506138fb836127f2565b9250828203905081811115613913576139126138b6565b5b92915050565b6000613924826127f2565b915061392f836127f2565b925082820261393d816127f2565b91508282048414831517613954576139536138b6565b5b5092915050565b60008160011c9050919050565b6000808291508390505b60018511156139b25780860481111561398e5761398d6138b6565b5b600185161561399d5780820291505b80810290506139ab8561395b565b9450613972565b94509492505050565b6000826139cb5760019050613a87565b816139d95760009050613a87565b81600181146139ef57600281146139f957613a28565b6001915050613a87565b60ff841115613a0b57613a0a6138b6565b5b8360020a915084821115613a2257613a216138b6565b5b50613a87565b5060208310610133831016604e8410600b8410161715613a5d5782820a905083811115613a5857613a576138b6565b5b613a87565b613a6a8484846001613968565b92509050818404811115613a8157613a806138b6565b5b81810290505b9392505050565b6000613a99826127f2565b9150613aa4836127f2565b9250613ad17fffffffffffffffffffffffffffffffffffffffffffffffffffffffffffffffff84846139bb565b905092915050565b6000613ae4826127f2565b9150613aef836127f2565b925082613aff57613afe61314b565b5b828204905092915050565b6000613b15826126f5565b9150613b20836126f5565b925082613b3057613b2f61314b565b5b828204905092915050565b6000613b46826126f5565b9150613b51836126f5565b9250828202613b5f816126f5565b9150808214613b7157613b706138b6565b5b5092915050565b6000613b83826126f5565b9150613b8e836126f5565b9250828203905060ff811115613ba757613ba66138b6565b5b92915050565b6000613bb8826127f2565b9150613bc3836127f2565b9250828201905080821115613bdb57613bda6138b6565b5b92915050565b7f4e487b7100000000000000000000000000000000000000000000000000000000600052602160045260246000fd5b600082825260208201905092915050565b6000613c2c82612c63565b613c368185613c10565b9350613c46818560208601612968565b613c4f8161252e565b840191505092915050565b600060a082019050613c6f60008301886129ed565b8181036020830152613c818187613c21565b9050613c906040830186612bd4565b613c9d6060830185612922565b613caa608083018461275b565b9695505050505050565b600081519050613cc3816124f8565b92915050565b600060208284031215613cdf57613cde6124e4565b5b6000613ced84828501613cb4565b91505092915050565b6000613d01826126f5565b9150613d0c836126f5565b9250828201905060ff811115613d2557613d246138b6565b5b9291505056fea2646970667358221220151a514ae8801cfd40035666f052539a5f151545b6d1688fa70c4265d13f472a64736f6c634300081c0033",
  "linkReferences": {},
  "deployedLinkReferences": {}
}