{
  "_format": "hh-sol-artifact-1",
  "contractName": "ConsumerSimpleImproved7",
  "sourceName": "contracts/ConsumerSimpleImproved7.sol",
  "abi": [
    {
      "inputs": [
        {
          "internalType": "address",
          "name": "router",
          "type": "address"
        },
        {
          "internalType": "bytes32",
          "name": "_donId",
          "type": "bytes32"
        },
        {
          "internalType": "uint64",
          "name": "_subscriptionId",
          "type": "uint64"
        },
        {
          "internalType": "uint32",
          "name": "_gasLimit",
          "type": "uint32"
        },
        {
          "internalType": "uint8",
          "name": "_secretsSlot",
          "type": "uint8"
        },
        {
          "internalType": "uint64",
          "name": "_secretsVersion",
          "type": "uint64"
        }
      ],
      "stateMutability": "nonpayable",
      "type": "constructor"
    },
    {
      "inputs": [],
      "name": "EmptyArgs",
      "type": "error"
    },
    {
      "inputs": [],
      "name": "EmptySecrets",
      "type": "error"
    },
    {
      "inputs": [],
      "name": "EmptySource",
      "type": "error"
    },
    {
      "inputs": [],
      "name": "NoInlineSecrets",
      "type": "error"
    },
    {
      "inputs": [],
      "name": "OnlyRouterCanFulfill",
      "type": "error"
    },
    {
      "anonymous": false,
      "inputs": [
        {
          "indexed": true,
          "internalType": "bytes32",
          "name": "id",
          "type": "bytes32"
        }
      ],
      "name": "RequestFulfilled",
      "type": "event"
    },
    {
      "anonymous": false,
      "inputs": [
        {
          "indexed": true,
          "internalType": "bytes32",
          "name": "id",
          "type": "bytes32"
        }
      ],
      "name": "RequestSent",
      "type": "event"
    },
    {
      "inputs": [],
      "name": "donId",
      "outputs": [
        {
          "internalType": "bytes32",
          "name": "",
          "type": "bytes32"
        }
      ],
      "stateMutability": "view",
      "type": "function"
    },
    {
      "inputs": [],
      "name": "execute",
      "outputs": [],
      "stateMutability": "nonpayable",
      "type": "function"
    },
    {
      "inputs": [],
      "name": "gasLimit",
      "outputs": [
        {
          "internalType": "uint32",
          "name": "",
          "type": "uint32"
        }
      ],
      "stateMutability": "view",
      "type": "function"
    },
    {
      "inputs": [
        {
          "internalType": "bytes32",
          "name": "requestId",
          "type": "bytes32"
        },
        {
          "internalType": "bytes",
          "name": "response",
          "type": "bytes"
        },
        {
          "internalType": "bytes",
          "name": "err",
          "type": "bytes"
        }
      ],
      "name": "handleOracleFulfillment",
      "outputs": [],
      "stateMutability": "nonpayable",
      "type": "function"
    },
    {
      "inputs": [],
      "name": "lastId",
      "outputs": [
        {
          "internalType": "bytes32",
          "name": "",
          "type": "bytes32"
        }
      ],
      "stateMutability": "view",
      "type": "function"
    },
    {
      "inputs": [],
      "name": "lastResponse",
      "outputs": [
        {
          "internalType": "string",
          "name": "",
          "type": "string"
        }
      ],
      "stateMutability": "view",
      "type": "function"
    },
    {
      "inputs": [],
      "name": "secretsSlot",
      "outputs": [
        {
          "internalType": "uint8",
          "name": "",
          "type": "uint8"
        }
      ],
      "stateMutability": "view",
      "type": "function"
    },
    {
      "inputs": [],
      "name": "secretsVersion",
      "outputs": [
        {
          "internalType": "uint64",
          "name": "",
          "type": "uint64"
        }
      ],
      "stateMutability": "view",
      "type": "function"
    },
    {
      "inputs": [],
      "name": "subscriptionId",
      "outputs": [
        {
          "internalType": "uint64",
          "name": "",
          "type": "uint64"
        }
      ],
      "stateMutability": "view",
      "type": "function"
    },
    {
      "inputs": [
        {
          "internalType": "uint8",
          "name": "_newSlot",
          "type": "uint8"
        }
      ],
      "name": "updateSecretsSlot",
      "outputs": [],
      "stateMutability": "nonpayable",
      "type": "function"
    },
    {
      "inputs": [
        {
          "internalType": "uint64",
          "name": "_newVersion",
          "type": "uint64"
        }
      ],
      "name": "updateSecretsVersion",
      "outputs": [],
      "stateMutability": "nonpayable",
      "type": "function"
    }
  ],
  "bytecode": "0x60a060405234801561001057600080fd5b50604051612a41380380612a4183398181016040528101906100329190610256565b858073ffffffffffffffffffffffffffffffffffffffff1660808173ffffffffffffffffffffffffffffffffffffffff1681525050508460008190555083600160006101000a81548167ffffffffffffffff021916908367ffffffffffffffff16021790555082600160086101000a81548163ffffffff021916908363ffffffff160217905550816001600c6101000a81548160ff021916908360ff160217905550806001600d6101000a81548167ffffffffffffffff021916908367ffffffffffffffff1602179055505050505050506102e3565b600080fd5b600073ffffffffffffffffffffffffffffffffffffffff82169050919050565b60006101388261010d565b9050919050565b6101488161012d565b811461015357600080fd5b50565b6000815190506101658161013f565b92915050565b6000819050919050565b61017e8161016b565b811461018957600080fd5b50565b60008151905061019b81610175565b92915050565b600067ffffffffffffffff82169050919050565b6101be816101a1565b81146101c957600080fd5b50565b6000815190506101db816101b5565b92915050565b600063ffffffff82169050919050565b6101fa816101e1565b811461020557600080fd5b50565b600081519050610217816101f1565b92915050565b600060ff82169050919050565b6102338161021d565b811461023e57600080fd5b50565b6000815190506102508161022a565b92915050565b60008060008060008060c0878903121561027357610272610108565b5b600061028189828a01610156565b965050602061029289828a0161018c565b95505060406102a389828a016101cc565b94505060606102b489828a01610208565b93505060806102c589828a01610241565b92505060a06102d689828a016101cc565b9150509295509295509295565b60805161273c610305600039600081816101fa0152610e21015261273c6000f3fe608060405234801561001057600080fd5b50600436106100a95760003560e01c806362747e421161007157806362747e421461012a57806375b1d195146101485780638dbe7b9d14610166578063af8d73c014610184578063c1292cc3146101a2578063f68016b7146101c0576100a9565b806309c1ba2e146100ae5780630ca76175146100cc5780630d6c0710146100e85780631e48d85e146101045780636146195414610120575b600080fd5b6100b66101de565b6040516100c39190611783565b60405180910390f35b6100e660048036038101906100e1919061192e565b6101f8565b005b61010260048036038101906100fd91906119f2565b6102ba565b005b61011e60048036038101906101199190611a4b565b6102d8565b005b610128610304565b005b6101326104f2565b60405161013f9190611af7565b60405180910390f35b610150610580565b60405161015d9190611783565b60405180910390f35b61016e61059a565b60405161017b9190611b28565b60405180910390f35b61018c6105a0565b6040516101999190611b52565b60405180910390f35b6101aa6105b3565b6040516101b79190611b28565b60405180910390f35b6101c86105b9565b6040516101d59190611b8c565b60405180910390f35b600160009054906101000a900467ffffffffffffffff1681565b7f000000000000000000000000000000000000000000000000000000000000000073ffffffffffffffffffffffffffffffffffffffff163373ffffffffffffffffffffffffffffffffffffffff161461027d576040517fc6829f8300000000000000000000000000000000000000000000000000000000815260040160405180910390fd5b6102888383836105cf565b827f85e1543bf2f84fe80c6badbce3648c8539ad1df4d2b3d822938ca0538be727e660405160405180910390a2505050565b806001600c6101000a81548160ff021916908360ff16021790555050565b806001600d6101000a81548167ffffffffffffffff021916908367ffffffffffffffff16021790555050565b61030c6116b4565b600060405160200161031d90611e1b565b604051602081830303815290604052905061034181836105e490919063ffffffff16565b6000600367ffffffffffffffff81111561035e5761035d611803565b5b60405190808252806020026020018201604052801561039157816020015b606081526020019060019003908161037c5790505b50905061039d336105f5565b816000815181106103b1576103b0611e30565b5b60200260200101819052506103c5306105f5565b816001815181106103d9576103d8611e30565b5b60200260200101819052506103ed4261087d565b8160028151811061040157610400611e30565b5b602002602001018190525061041f818461094b90919063ffffffff16565b60028360200190600281111561043857610437611e5f565b5b9081600281111561044c5761044b611e5f565b5b815250506104a96001600c9054906101000a900460ff166001600d9054906101000a900467ffffffffffffffff1660405160200161048b929190611efa565b6040516020818303038152906040528461099390919063ffffffff16565b6104e76104b584610a0c565b600160009054906101000a900467ffffffffffffffff16600160089054906101000a900463ffffffff16600054610e1c565b600281905550505050565b600380546104ff90611f55565b80601f016020809104026020016040519081016040528092919081815260200182805461052b90611f55565b80156105785780601f1061054d57610100808354040283529160200191610578565b820191906000526020600020905b81548152906001019060200180831161055b57829003601f168201915b505050505081565b6001600d9054906101000a900467ffffffffffffffff1681565b60005481565b6001600c9054906101000a900460ff1681565b60025481565b600160089054906101000a900463ffffffff1681565b81600390816105de919061213c565b50505050565b6105f18260008084610eff565b5050565b60606000602a67ffffffffffffffff81111561061457610613611803565b5b6040519080825280601f01601f1916602001820160405280156106465781602001600182028036833780820191505090505b5090507f30000000000000000000000000000000000000000000000000000000000000008160008151811061067e5761067d611e30565b5b60200101907effffffffffffffffffffffffffffffffffffffffffffffffffffffffffffff1916908160001a9053507f7800000000000000000000000000000000000000000000000000000000000000816001815181106106e2576106e1611e30565b5b60200101907effffffffffffffffffffffffffffffffffffffffffffffffffffffffffffff1916908160001a90535060005b601481101561087357600081601361072c919061223d565b60086107389190612271565b600261074491906123e6565b8573ffffffffffffffffffffffffffffffffffffffff166107659190612460565b60f81b9050600060108260f81c61077c9190612491565b9050600081601061078d91906124c2565b8360f81c61079b91906124ff565b90506107a682610fa9565b8560028660026107b69190612271565b6107c09190612534565b815181106107d1576107d0611e30565b5b60200101907effffffffffffffffffffffffffffffffffffffffffffffffffffffffffffff1916908160001a90535061080981610fa9565b8560038660026108199190612271565b6108239190612534565b8151811061083457610833611e30565b5b60200101907effffffffffffffffffffffffffffffffffffffffffffffffffffffffffffff1916908160001a9053505050508080600101915050610714565b5080915050919050565b60606000600161088c84610fe6565b01905060008167ffffffffffffffff8111156108ab576108aa611803565b5b6040519080825280601f01601f1916602001820160405280156108dd5781602001600182028036833780820191505090505b509050600082602001820190505b600115610940578080600190039150507f3031323334353637383961626364656600000000000000000000000000000000600a86061a8153600a858161093457610933612431565b5b049450600085036108eb575b819350505050919050565b6000815103610986576040517ffe936cb700000000000000000000000000000000000000000000000000000000815260040160405180910390fd5b808260a001819052505050565b60008151036109ce576040517fe889636f00000000000000000000000000000000000000000000000000000000815260040160405180910390fd5b6001826020019060028111156109e7576109e6611e5f565b5b908160028111156109fb576109fa611e5f565b5b815250508082608001819052505050565b60606000610a1b610100611139565b9050610a656040518060400160405280600c81526020017f636f64654c6f636174696f6e00000000000000000000000000000000000000008152508261116090919063ffffffff16565b610a8e83600001516002811115610a7f57610a7e611e5f565b5b8261118990919063ffffffff16565b610ad66040518060400160405280600881526020017f6c616e67756167650000000000000000000000000000000000000000000000008152508261116090919063ffffffff16565b610aff83604001516000811115610af057610aef611e5f565b5b8261118990919063ffffffff16565b610b476040518060400160405280600681526020017f736f7572636500000000000000000000000000000000000000000000000000008152508261116090919063ffffffff16565b610b5e83606001518261116090919063ffffffff16565b60008360a00151511115610c1457610bb46040518060400160405280600481526020017f61726773000000000000000000000000000000000000000000000000000000008152508261116090919063ffffffff16565b610bbd816111d9565b60005b8360a0015151811015610c0957610bfe8460a001518281518110610be757610be6611e30565b5b60200260200101518361116090919063ffffffff16565b806001019050610bc0565b50610c1381611201565b5b60008360800151511115610d555760006002811115610c3657610c35611e5f565b5b83602001516002811115610c4d57610c4c611e5f565b5b03610c84576040517fa80d31f700000000000000000000000000000000000000000000000000000000815260040160405180910390fd5b610ccc6040518060400160405280600f81526020017f736563726574734c6f636174696f6e00000000000000000000000000000000008152508261116090919063ffffffff16565b610cf583602001516002811115610ce657610ce5611e5f565b5b8261118990919063ffffffff16565b610d3d6040518060400160405280600781526020017f73656372657473000000000000000000000000000000000000000000000000008152508261116090919063ffffffff16565b610d5483608001518261122990919063ffffffff16565b5b60008360c00151511115610e0b57610dab6040518060400160405280600981526020017f62797465734172677300000000000000000000000000000000000000000000008152508261116090919063ffffffff16565b610db4816111d9565b60005b8360c0015151811015610e0057610df58460c001518281518110610dde57610ddd611e30565b5b60200260200101518361122990919063ffffffff16565b806001019050610db7565b50610e0a81611201565b5b806000015160000151915050919050565b6000807f000000000000000000000000000000000000000000000000000000000000000073ffffffffffffffffffffffffffffffffffffffff1663461d27628688600188886040518663ffffffff1660e01b8152600401610e819594939291906125da565b6020604051808303816000875af1158015610ea0573d6000803e3d6000fd5b505050506040513d601f19601f82011682018060405250810190610ec49190612649565b9050807f1131472297a800fee664d1d89cfa8f7676ff07189ecc53f80bbb5f4969099db860405160405180910390a280915050949350505050565b6000815103610f3a576040517f22ce3edd00000000000000000000000000000000000000000000000000000000815260040160405180910390fd5b8284600001906002811115610f5257610f51611e5f565b5b90816002811115610f6657610f65611e5f565b5b815250508184604001906000811115610f8257610f81611e5f565b5b90816000811115610f9657610f95611e5f565b5b8152505080846060018190525050505050565b6000600a8260ff161015610fce57603082610fc49190612676565b60f81b9050610fe1565b605782610fdb9190612676565b60f81b90505b919050565b600080600090507a184f03e93ff9f4daa797ed6e38ed64bf6a1f0100000000000000008310611044577a184f03e93ff9f4daa797ed6e38ed64bf6a1f010000000000000000838161103a57611039612431565b5b0492506040810190505b6d04ee2d6d415b85acef81000000008310611081576d04ee2d6d415b85acef8100000000838161107757611076612431565b5b0492506020810190505b662386f26fc1000083106110b057662386f26fc1000083816110a6576110a5612431565b5b0492506010810190505b6305f5e10083106110d9576305f5e10083816110cf576110ce612431565b5b0492506008810190505b61271083106110fe5761271083816110f4576110f3612431565b5b0492506004810190505b60648310611121576064838161111757611116612431565b5b0492506002810190505b600a8310611130576001810190505b80915050919050565b611141611726565b61114f816000015183611252565b506000816020018181525050919050565b61116d82600383516112cb565b61118481836000015161147490919063ffffffff16565b505050565b6111ab60026005600660ff16901b17836000015161149090919063ffffffff16565b506111d582826040516020016111c191906126ba565b604051602081830303815290604052611229565b5050565b6111e48160046114fa565b6001816020018181516111f79190612534565b9150818152505050565b61120c8160076114fa565b60018160200181815161121f919061223d565b9150818152505050565b61123682600283516112cb565b61124d81836000015161147490919063ffffffff16565b505050565b61125a611746565b600060208361126991906126d5565b146112955760208261127b91906126d5565b6020611287919061223d565b826112929190612534565b91505b8183602001818152505060405180845260008152828101602001818110156112bc57600080fd5b80604052505082905092915050565b60178167ffffffffffffffff1611611306576113008160058460ff16901b60ff1617846000015161149090919063ffffffff16565b5061146f565b60ff8167ffffffffffffffff161161136457611339601860058460ff16901b17846000015161149090919063ffffffff16565b5061135e8167ffffffffffffffff16600185600001516115209092919063ffffffff16565b5061146e565b61ffff8167ffffffffffffffff16116113c357611398601960058460ff16901b17846000015161149090919063ffffffff16565b506113bd8167ffffffffffffffff16600285600001516115209092919063ffffffff16565b5061146d565b63ffffffff8167ffffffffffffffff1611611424576113f9601a60058460ff16901b17846000015161149090919063ffffffff16565b5061141e8167ffffffffffffffff16600485600001516115209092919063ffffffff16565b5061146c565b611445601b60058460ff16901b17846000015161149090919063ffffffff16565b5061146a8167ffffffffffffffff16600885600001516115209092919063ffffffff16565b505b5b5b5b505050565b61147c611746565b611488838384516115ad565b905092915050565b611498611746565b6000836000015151905060006001826114b19190612534565b9050846020015182106114d5576114d4856002836114cf9190612271565b611690565b5b845160208382010185815381518311156114ed578282525b5050849250505092915050565b61151b601f60058360ff16901b17836000015161149090919063ffffffff16565b505050565b611528611746565b60008460000151519050600081846115409190612534565b90508560200151811115611565576115648660028361155f9190612271565b611690565b5b600060018561010061157791906123e6565b611581919061223d565b90508651828101878319825116178152815184111561159e578382525b50508693505050509392505050565b6115b5611746565b82518211156115c357600080fd5b60008460000151519050600083826115db9190612534565b90508560200151811115611600576115ff866002836115fa9190612271565b611690565b5b6000808751805185602083010193508085111561161b578482525b60208901925050505b60208610611662578051825260208261163d9190612534565b915060208161164c9190612534565b905060208661165b919061223d565b9550611624565b60006001876020036101000a0390508019825116818451168181178552505050879450505050509392505050565b6000826000015190506116a38383611252565b506116ae8382611474565b50505050565b6040518060e00160405280600060028111156116d3576116d2611e5f565b5b8152602001600060028111156116ec576116eb611e5f565b5b815260200160008081111561170457611703611e5f565b5b8152602001606081526020016060815260200160608152602001606081525090565b6040518060400160405280611739611746565b8152602001600081525090565b604051806040016040528060608152602001600081525090565b600067ffffffffffffffff82169050919050565b61177d81611760565b82525050565b60006020820190506117986000830184611774565b92915050565b6000604051905090565b600080fd5b600080fd5b6000819050919050565b6117c5816117b2565b81146117d057600080fd5b50565b6000813590506117e2816117bc565b92915050565b600080fd5b600080fd5b6000601f19601f8301169050919050565b7f4e487b7100000000000000000000000000000000000000000000000000000000600052604160045260246000fd5b61183b826117f2565b810181811067ffffffffffffffff8211171561185a57611859611803565b5b80604052505050565b600061186d61179e565b90506118798282611832565b919050565b600067ffffffffffffffff82111561189957611898611803565b5b6118a2826117f2565b9050602081019050919050565b82818337600083830152505050565b60006118d16118cc8461187e565b611863565b9050828152602081018484840111156118ed576118ec6117ed565b5b6118f88482856118af565b509392505050565b600082601f830112611915576119146117e8565b5b81356119258482602086016118be565b91505092915050565b600080600060608486031215611947576119466117a8565b5b6000611955868287016117d3565b935050602084013567ffffffffffffffff811115611976576119756117ad565b5b61198286828701611900565b925050604084013567ffffffffffffffff8111156119a3576119a26117ad565b5b6119af86828701611900565b9150509250925092565b600060ff82169050919050565b6119cf816119b9565b81146119da57600080fd5b50565b6000813590506119ec816119c6565b92915050565b600060208284031215611a0857611a076117a8565b5b6000611a16848285016119dd565b91505092915050565b611a2881611760565b8114611a3357600080fd5b50565b600081359050611a4581611a1f565b92915050565b600060208284031215611a6157611a606117a8565b5b6000611a6f84828501611a36565b91505092915050565b600081519050919050565b600082825260208201905092915050565b60005b83811015611ab2578082015181840152602081019050611a97565b60008484015250505050565b6000611ac982611a78565b611ad38185611a83565b9350611ae3818560208601611a94565b611aec816117f2565b840191505092915050565b60006020820190508181036000830152611b118184611abe565b905092915050565b611b22816117b2565b82525050565b6000602082019050611b3d6000830184611b19565b92915050565b611b4c816119b9565b82525050565b6000602082019050611b676000830184611b43565b92915050565b600063ffffffff82169050919050565b611b8681611b6d565b82525050565b6000602082019050611ba16000830184611b7d565b92915050565b600081905092915050565b7f636f6e737420726573706f6e7365203d2061776169742046756e6374696f6e7360008201527f2e6d616b654874747052657175657374287b0a202075726c3a2027687474707360208201527f3a2f2f746f6d61732d776562332d6170692d6578356b736d636465712d75632e60408201527f612e72756e2e6170702f746f6d61732f657363616c6174652d746f2d68756d6160608201527f6e2d6c6177796572272c0a20206d6574686f643a2027504f5354272c0a20207460808201527f696d656f75743a2031303030302c0a2020686561646572733a207b202763686160a08201527f696e6c696e6b2d66756e6374696f6e732d736563726574273a2073656372657460c08201527f732e636861696e6c696e6b536563726574207d2c0a2020646174613a207b0a2060e08201527f2020206361736549643a20617267735b305d2c0a20202020636f6e74726163746101008201527f416464726573733a20617267735b315d2c0a2020202074696d657374616d703a6101208201527f20617267735b325d2c0a20207d2c0a7d293b0a69662028726573706f6e73652e6101408201527f6572726f7229207b207468726f77204572726f72284a534f4e2e737472696e676101608201527f69667928726573706f6e736529293b207d0a72657475726e2046756e6374696f6101808201527f6e732e656e636f6465537472696e67284a534f4e2e737472696e6769667928726101a08201527f6573706f6e73652e6461746129293b00000000000000000000000000000000006101c082015250565b6000611e046101cf83611ba7565b9150611e0f82611bb2565b6101cf82019050919050565b6000611e2682611df6565b9150819050919050565b7f4e487b7100000000000000000000000000000000000000000000000000000000600052603260045260246000fd5b7f4e487b7100000000000000000000000000000000000000000000000000000000600052602160045260246000fd5b60008160f81b9050919050565b6000611ea682611e8e565b9050919050565b611ebe611eb9826119b9565b611e9b565b82525050565b60008160c01b9050919050565b6000611edc82611ec4565b9050919050565b611ef4611eef82611760565b611ed1565b82525050565b6000611f068285611ead565b600182019150611f168284611ee3565b6008820191508190509392505050565b7f4e487b7100000000000000000000000000000000000000000000000000000000600052602260045260246000fd5b60006002820490506001821680611f6d57607f821691505b602082108103611f8057611f7f611f26565b5b50919050565b60008190508160005260206000209050919050565b60006020601f8301049050919050565b600082821b905092915050565b600060088302611fe87fffffffffffffffffffffffffffffffffffffffffffffffffffffffffffffffff82611fab565b611ff28683611fab565b95508019841693508086168417925050509392505050565b6000819050919050565b6000819050919050565b600061203961203461202f8461200a565b612014565b61200a565b9050919050565b6000819050919050565b6120538361201e565b61206761205f82612040565b848454611fb8565b825550505050565b600090565b61207c61206f565b61208781848461204a565b505050565b5b818110156120ab576120a0600082612074565b60018101905061208d565b5050565b601f8211156120f0576120c181611f86565b6120ca84611f9b565b810160208510156120d9578190505b6120ed6120e585611f9b565b83018261208c565b50505b505050565b600082821c905092915050565b6000612113600019846008026120f5565b1980831691505092915050565b600061212c8383612102565b9150826002028217905092915050565b61214582611a78565b67ffffffffffffffff81111561215e5761215d611803565b5b6121688254611f55565b6121738282856120af565b600060209050601f8311600181146121a65760008415612194578287015190505b61219e8582612120565b865550612206565b601f1984166121b486611f86565b60005b828110156121dc578489015182556001820191506020850194506020810190506121b7565b868310156121f957848901516121f5601f891682612102565b8355505b6001600288020188555050505b505050505050565b7f4e487b7100000000000000000000000000000000000000000000000000000000600052601160045260246000fd5b60006122488261200a565b91506122538361200a565b925082820390508181111561226b5761226a61220e565b5b92915050565b600061227c8261200a565b91506122878361200a565b92508282026122958161200a565b915082820484148315176122ac576122ab61220e565b5b5092915050565b60008160011c9050919050565b6000808291508390505b600185111561230a578086048111156122e6576122e561220e565b5b60018516156122f55780820291505b8081029050612303856122b3565b94506122ca565b94509492505050565b60008261232357600190506123df565b8161233157600090506123df565b8160018114612347576002811461235157612380565b60019150506123df565b60ff8411156123635761236261220e565b5b8360020a91508482111561237a5761237961220e565b5b506123df565b5060208310610133831016604e8410600b84101617156123b55782820a9050838111156123b0576123af61220e565b5b6123df565b6123c284848460016122c0565b925090508184048111156123d9576123d861220e565b5b81810290505b9392505050565b60006123f18261200a565b91506123fc8361200a565b92506124297fffffffffffffffffffffffffffffffffffffffffffffffffffffffffffffffff8484612313565b905092915050565b7f4e487b7100000000000000000000000000000000000000000000000000000000600052601260045260246000fd5b600061246b8261200a565b91506124768361200a565b92508261248657612485612431565b5b828204905092915050565b600061249c826119b9565b91506124a7836119b9565b9250826124b7576124b6612431565b5b828204905092915050565b60006124cd826119b9565b91506124d8836119b9565b92508282026124e6816119b9565b91508082146124f8576124f761220e565b5b5092915050565b600061250a826119b9565b9150612515836119b9565b9250828203905060ff81111561252e5761252d61220e565b5b92915050565b600061253f8261200a565b915061254a8361200a565b92508282019050808211156125625761256161220e565b5b92915050565b600081519050919050565b600082825260208201905092915050565b600061258f82612568565b6125998185612573565b93506125a9818560208601611a94565b6125b2816117f2565b840191505092915050565b600061ffff82169050919050565b6125d4816125bd565b82525050565b600060a0820190506125ef6000830188611774565b81810360208301526126018187612584565b905061261060408301866125cb565b61261d6060830185611b7d565b61262a6080830184611b19565b9695505050505050565b600081519050612643816117bc565b92915050565b60006020828403121561265f5761265e6117a8565b5b600061266d84828501612634565b91505092915050565b6000612681826119b9565b915061268c836119b9565b9250828201905060ff8111156126a5576126a461220e565b5b92915050565b6126b48161200a565b82525050565b60006020820190506126cf60008301846126ab565b92915050565b60006126e08261200a565b91506126eb8361200a565b9250826126fb576126fa612431565b5b82820690509291505056fea264697066735822122085502d9cfe576821571cdfed1bb9b2b8fccf2cf2956166ac7c0ee1834508904264736f6c634300081c0033",
  "linkReferences": {},
  "deployedLinkReferences": {}
}