{
  "_format": "hh-sol-artifact-1",
  "contractName": "ConsumerSimple",
  "sourceName": "contracts/ConsumerSimple.sol",
  "abi": [
    {
      "inputs": [
        {
          "internalType": "address",
          "name": "router",
          "type": "address"
        },
        {
          "internalType": "bytes32",
          "name": "_donId",
          "type": "bytes32"
        },
        {
          "internalType": "uint64",
          "name": "_subscriptionId",
          "type": "uint64"
        },
        {
          "internalType": "uint32",
          "name": "_gasLimit",
          "type": "uint32"
        }
      ],
      "stateMutability": "nonpayable",
      "type": "constructor"
    },
    {
      "inputs": [],
      "name": "EmptySource",
      "type": "error"
    },
    {
      "inputs": [],
      "name": "NoInlineSecrets",
      "type": "error"
    },
    {
      "inputs": [],
      "name": "OnlyRouterCanFulfill",
      "type": "error"
    },
    {
      "anonymous": false,
      "inputs": [
        {
          "indexed": true,
          "internalType": "bytes32",
          "name": "id",
          "type": "bytes32"
        }
      ],
      "name": "RequestFulfilled",
      "type": "event"
    },
    {
      "anonymous": false,
      "inputs": [
        {
          "indexed": true,
          "internalType": "bytes32",
          "name": "id",
          "type": "bytes32"
        }
      ],
      "name": "RequestSent",
      "type": "event"
    },
    {
      "inputs": [],
      "name": "donId",
      "outputs": [
        {
          "internalType": "bytes32",
          "name": "",
          "type": "bytes32"
        }
      ],
      "stateMutability": "view",
      "type": "function"
    },
    {
      "inputs": [
        {
          "internalType": "string",
          "name": "source",
          "type": "string"
        }
      ],
      "name": "execute",
      "outputs": [],
      "stateMutability": "nonpayable",
      "type": "function"
    },
    {
      "inputs": [],
      "name": "gasLimit",
      "outputs": [
        {
          "internalType": "uint32",
          "name": "",
          "type": "uint32"
        }
      ],
      "stateMutability": "view",
      "type": "function"
    },
    {
      "inputs": [
        {
          "internalType": "bytes32",
          "name": "requestId",
          "type": "bytes32"
        },
        {
          "internalType": "bytes",
          "name": "response",
          "type": "bytes"
        },
        {
          "internalType": "bytes",
          "name": "err",
          "type": "bytes"
        }
      ],
      "name": "handleOracleFulfillment",
      "outputs": [],
      "stateMutability": "nonpayable",
      "type": "function"
    },
    {
      "inputs": [],
      "name": "lastId",
      "outputs": [
        {
          "internalType": "bytes32",
          "name": "",
          "type": "bytes32"
        }
      ],
      "stateMutability": "view",
      "type": "function"
    },
    {
      "inputs": [],
      "name": "lastResponse",
      "outputs": [
        {
          "internalType": "string",
          "name": "",
          "type": "string"
        }
      ],
      "stateMutability": "view",
      "type": "function"
    },
    {
      "inputs": [],
      "name": "subscriptionId",
      "outputs": [
        {
          "internalType": "uint64",
          "name": "",
          "type": "uint64"
        }
      ],
      "stateMutability": "view",
      "type": "function"
    }
  ],
  "bytecode": "0x60a060405234801561001057600080fd5b50604051611d44380380611d44833981810160405281019061003291906101d7565b838073ffffffffffffffffffffffffffffffffffffffff1660808173ffffffffffffffffffffffffffffffffffffffff1681525050508260008190555081600160006101000a81548167ffffffffffffffff021916908367ffffffffffffffff16021790555080600160086101000a81548163ffffffff021916908363ffffffff1602179055505050505061023e565b600080fd5b600073ffffffffffffffffffffffffffffffffffffffff82169050919050565b60006100f2826100c7565b9050919050565b610102816100e7565b811461010d57600080fd5b50565b60008151905061011f816100f9565b92915050565b6000819050919050565b61013881610125565b811461014357600080fd5b50565b6000815190506101558161012f565b92915050565b600067ffffffffffffffff82169050919050565b6101788161015b565b811461018357600080fd5b50565b6000815190506101958161016f565b92915050565b600063ffffffff82169050919050565b6101b48161019b565b81146101bf57600080fd5b50565b6000815190506101d1816101ab565b92915050565b600080600080608085870312156101f1576101f06100c2565b5b60006101ff87828801610110565b945050602061021087828801610146565b935050604061022187828801610186565b9250506060610232878288016101c2565b91505092959194509250565b608051611ae46102606000396000818161016c01526107bf0152611ae46000f3fe608060405234801561001057600080fd5b506004361061007d5760003560e01c80638dbe7b9d1161005b5780638dbe7b9d146100da578063bd590d7e146100f8578063c1292cc314610114578063f68016b7146101325761007d565b806309c1ba2e146100825780630ca76175146100a057806362747e42146100bc575b600080fd5b61008a610150565b6040516100979190610f91565b60405180910390f35b6100ba60048036038101906100b5919061113c565b61016a565b005b6100c461022c565b6040516100d19190611246565b60405180910390f35b6100e26102ba565b6040516100ef9190611277565b60405180910390f35b610112600480360381019061010d91906112f2565b6102c0565b005b61011c610368565b6040516101299190611277565b60405180910390f35b61013a61036e565b604051610147919061135e565b60405180910390f35b600160009054906101000a900467ffffffffffffffff1681565b7f000000000000000000000000000000000000000000000000000000000000000073ffffffffffffffffffffffffffffffffffffffff163373ffffffffffffffffffffffffffffffffffffffff16146101ef576040517fc6829f8300000000000000000000000000000000000000000000000000000000815260040160405180910390fd5b6101fa838383610384565b827f85e1543bf2f84fe80c6badbce3648c8539ad1df4d2b3d822938ca0538be727e660405160405180910390a2505050565b60038054610239906113a8565b80601f0160208091040260200160405190810160405280929190818152602001828054610265906113a8565b80156102b25780601f10610287576101008083540402835291602001916102b2565b820191906000526020600020905b81548152906001019060200180831161029557829003601f168201915b505050505081565b60005481565b6102c8610ec2565b61031f83838080601f016020809104026020016040519081016040528093929190818152602001838380828437600081840152601f19601f820116905080830192505050505050508261039990919063ffffffff16565b61035d61032b826103aa565b600160009054906101000a900467ffffffffffffffff16600160089054906101000a900463ffffffff166000546107ba565b600281905550505050565b60025481565b600160089054906101000a900463ffffffff1681565b8160039081610393919061158f565b50505050565b6103a6826000808461089d565b5050565b606060006103b9610100610947565b90506104036040518060400160405280600c81526020017f636f64654c6f636174696f6e00000000000000000000000000000000000000008152508261096e90919063ffffffff16565b61042c8360000151600281111561041d5761041c611661565b5b8261099790919063ffffffff16565b6104746040518060400160405280600881526020017f6c616e67756167650000000000000000000000000000000000000000000000008152508261096e90919063ffffffff16565b61049d8360400151600081111561048e5761048d611661565b5b8261099790919063ffffffff16565b6104e56040518060400160405280600681526020017f736f7572636500000000000000000000000000000000000000000000000000008152508261096e90919063ffffffff16565b6104fc83606001518261096e90919063ffffffff16565b60008360a001515111156105b2576105526040518060400160405280600481526020017f61726773000000000000000000000000000000000000000000000000000000008152508261096e90919063ffffffff16565b61055b816109e7565b60005b8360a00151518110156105a75761059c8460a00151828151811061058557610584611690565b5b60200260200101518361096e90919063ffffffff16565b80600101905061055e565b506105b181610a0f565b5b600083608001515111156106f357600060028111156105d4576105d3611661565b5b836020015160028111156105eb576105ea611661565b5b03610622576040517fa80d31f700000000000000000000000000000000000000000000000000000000815260040160405180910390fd5b61066a6040518060400160405280600f81526020017f736563726574734c6f636174696f6e00000000000000000000000000000000008152508261096e90919063ffffffff16565b6106938360200151600281111561068457610683611661565b5b8261099790919063ffffffff16565b6106db6040518060400160405280600781526020017f73656372657473000000000000000000000000000000000000000000000000008152508261096e90919063ffffffff16565b6106f2836080015182610a3790919063ffffffff16565b5b60008360c001515111156107a9576107496040518060400160405280600981526020017f62797465734172677300000000000000000000000000000000000000000000008152508261096e90919063ffffffff16565b610752816109e7565b60005b8360c001515181101561079e576107938460c00151828151811061077c5761077b611690565b5b602002602001015183610a3790919063ffffffff16565b806001019050610755565b506107a881610a0f565b5b806000015160000151915050919050565b6000807f000000000000000000000000000000000000000000000000000000000000000073ffffffffffffffffffffffffffffffffffffffff1663461d27628688600188886040518663ffffffff1660e01b815260040161081f959493929190611731565b6020604051808303816000875af115801561083e573d6000803e3d6000fd5b505050506040513d601f19601f8201168201806040525081019061086291906117a0565b9050807f1131472297a800fee664d1d89cfa8f7676ff07189ecc53f80bbb5f4969099db860405160405180910390a280915050949350505050565b60008151036108d8576040517f22ce3edd00000000000000000000000000000000000000000000000000000000815260040160405180910390fd5b82846000019060028111156108f0576108ef611661565b5b9081600281111561090457610903611661565b5b8152505081846040019060008111156109205761091f611661565b5b9081600081111561093457610933611661565b5b8152505080846060018190525050505050565b61094f610f34565b61095d816000015183610a60565b506000816020018181525050919050565b61097b8260038351610ad9565b610992818360000151610c8290919063ffffffff16565b505050565b6109b960026005600660ff16901b178360000151610c9e90919063ffffffff16565b506109e382826040516020016109cf91906117dc565b604051602081830303815290604052610a37565b5050565b6109f2816004610d08565b600181602001818151610a059190611826565b9150818152505050565b610a1a816007610d08565b600181602001818151610a2d919061185a565b9150818152505050565b610a448260028351610ad9565b610a5b818360000151610c8290919063ffffffff16565b505050565b610a68610f54565b6000602083610a7791906118bd565b14610aa357602082610a8991906118bd565b6020610a95919061185a565b82610aa09190611826565b91505b818360200181815250506040518084526000815282810160200181811015610aca57600080fd5b80604052505082905092915050565b60178167ffffffffffffffff1611610b1457610b0e8160058460ff16901b60ff16178460000151610c9e90919063ffffffff16565b50610c7d565b60ff8167ffffffffffffffff1611610b7257610b47601860058460ff16901b178460000151610c9e90919063ffffffff16565b50610b6c8167ffffffffffffffff1660018560000151610d2e9092919063ffffffff16565b50610c7c565b61ffff8167ffffffffffffffff1611610bd157610ba6601960058460ff16901b178460000151610c9e90919063ffffffff16565b50610bcb8167ffffffffffffffff1660028560000151610d2e9092919063ffffffff16565b50610c7b565b63ffffffff8167ffffffffffffffff1611610c3257610c07601a60058460ff16901b178460000151610c9e90919063ffffffff16565b50610c2c8167ffffffffffffffff1660048560000151610d2e9092919063ffffffff16565b50610c7a565b610c53601b60058460ff16901b178460000151610c9e90919063ffffffff16565b50610c788167ffffffffffffffff1660088560000151610d2e9092919063ffffffff16565b505b5b5b5b505050565b610c8a610f54565b610c9683838451610dbb565b905092915050565b610ca6610f54565b600083600001515190506000600182610cbf9190611826565b905084602001518210610ce357610ce285600283610cdd91906118ee565b610e9e565b5b84516020838201018581538151831115610cfb578282525b5050849250505092915050565b610d29601f60058360ff16901b178360000151610c9e90919063ffffffff16565b505050565b610d36610f54565b6000846000015151905060008184610d4e9190611826565b90508560200151811115610d7357610d7286600283610d6d91906118ee565b610e9e565b5b6000600185610100610d859190611a63565b610d8f919061185a565b905086518281018783198251161781528151841115610dac578382525b50508693505050509392505050565b610dc3610f54565b8251821115610dd157600080fd5b6000846000015151905060008382610de99190611826565b90508560200151811115610e0e57610e0d86600283610e0891906118ee565b610e9e565b5b60008087518051856020830101935080851115610e29578482525b60208901925050505b60208610610e705780518252602082610e4b9190611826565b9150602081610e5a9190611826565b9050602086610e69919061185a565b9550610e32565b60006001876020036101000a0390508019825116818451168181178552505050879450505050509392505050565b600082600001519050610eb18383610a60565b50610ebc8382610c82565b50505050565b6040518060e0016040528060006002811115610ee157610ee0611661565b5b815260200160006002811115610efa57610ef9611661565b5b8152602001600080811115610f1257610f11611661565b5b8152602001606081526020016060815260200160608152602001606081525090565b6040518060400160405280610f47610f54565b8152602001600081525090565b604051806040016040528060608152602001600081525090565b600067ffffffffffffffff82169050919050565b610f8b81610f6e565b82525050565b6000602082019050610fa66000830184610f82565b92915050565b6000604051905090565b600080fd5b600080fd5b6000819050919050565b610fd381610fc0565b8114610fde57600080fd5b50565b600081359050610ff081610fca565b92915050565b600080fd5b600080fd5b6000601f19601f8301169050919050565b7f4e487b7100000000000000000000000000000000000000000000000000000000600052604160045260246000fd5b61104982611000565b810181811067ffffffffffffffff8211171561106857611067611011565b5b80604052505050565b600061107b610fac565b90506110878282611040565b919050565b600067ffffffffffffffff8211156110a7576110a6611011565b5b6110b082611000565b9050602081019050919050565b82818337600083830152505050565b60006110df6110da8461108c565b611071565b9050828152602081018484840111156110fb576110fa610ffb565b5b6111068482856110bd565b509392505050565b600082601f83011261112357611122610ff6565b5b81356111338482602086016110cc565b91505092915050565b60008060006060848603121561115557611154610fb6565b5b600061116386828701610fe1565b935050602084013567ffffffffffffffff81111561118457611183610fbb565b5b6111908682870161110e565b925050604084013567ffffffffffffffff8111156111b1576111b0610fbb565b5b6111bd8682870161110e565b9150509250925092565b600081519050919050565b600082825260208201905092915050565b60005b838110156112015780820151818401526020810190506111e6565b60008484015250505050565b6000611218826111c7565b61122281856111d2565b93506112328185602086016111e3565b61123b81611000565b840191505092915050565b60006020820190508181036000830152611260818461120d565b905092915050565b61127181610fc0565b82525050565b600060208201905061128c6000830184611268565b92915050565b600080fd5b600080fd5b60008083601f8401126112b2576112b1610ff6565b5b8235905067ffffffffffffffff8111156112cf576112ce611292565b5b6020830191508360018202830111156112eb576112ea611297565b5b9250929050565b6000806020838503121561130957611308610fb6565b5b600083013567ffffffffffffffff81111561132757611326610fbb565b5b6113338582860161129c565b92509250509250929050565b600063ffffffff82169050919050565b6113588161133f565b82525050565b6000602082019050611373600083018461134f565b92915050565b7f4e487b7100000000000000000000000000000000000000000000000000000000600052602260045260246000fd5b600060028204905060018216806113c057607f821691505b6020821081036113d3576113d2611379565b5b50919050565b60008190508160005260206000209050919050565b60006020601f8301049050919050565b600082821b905092915050565b60006008830261143b7fffffffffffffffffffffffffffffffffffffffffffffffffffffffffffffffff826113fe565b61144586836113fe565b95508019841693508086168417925050509392505050565b6000819050919050565b6000819050919050565b600061148c6114876114828461145d565b611467565b61145d565b9050919050565b6000819050919050565b6114a683611471565b6114ba6114b282611493565b84845461140b565b825550505050565b600090565b6114cf6114c2565b6114da81848461149d565b505050565b5b818110156114fe576114f36000826114c7565b6001810190506114e0565b5050565b601f82111561154357611514816113d9565b61151d846113ee565b8101602085101561152c578190505b611540611538856113ee565b8301826114df565b50505b505050565b600082821c905092915050565b600061156660001984600802611548565b1980831691505092915050565b600061157f8383611555565b9150826002028217905092915050565b611598826111c7565b67ffffffffffffffff8111156115b1576115b0611011565b5b6115bb82546113a8565b6115c6828285611502565b600060209050601f8311600181146115f957600084156115e7578287015190505b6115f18582611573565b865550611659565b601f198416611607866113d9565b60005b8281101561162f5784890151825560018201915060208501945060208101905061160a565b8683101561164c5784890151611648601f891682611555565b8355505b6001600288020188555050505b505050505050565b7f4e487b7100000000000000000000000000000000000000000000000000000000600052602160045260246000fd5b7f4e487b7100000000000000000000000000000000000000000000000000000000600052603260045260246000fd5b600081519050919050565b600082825260208201905092915050565b60006116e6826116bf565b6116f081856116ca565b93506117008185602086016111e3565b61170981611000565b840191505092915050565b600061ffff82169050919050565b61172b81611714565b82525050565b600060a0820190506117466000830188610f82565b818103602083015261175881876116db565b90506117676040830186611722565b611774606083018561134f565b6117816080830184611268565b9695505050505050565b60008151905061179a81610fca565b92915050565b6000602082840312156117b6576117b5610fb6565b5b60006117c48482850161178b565b91505092915050565b6117d68161145d565b82525050565b60006020820190506117f160008301846117cd565b92915050565b7f4e487b7100000000000000000000000000000000000000000000000000000000600052601160045260246000fd5b60006118318261145d565b915061183c8361145d565b9250828201905080821115611854576118536117f7565b5b92915050565b60006118658261145d565b91506118708361145d565b9250828203905081811115611888576118876117f7565b5b92915050565b7f4e487b7100000000000000000000000000000000000000000000000000000000600052601260045260246000fd5b60006118c88261145d565b91506118d38361145d565b9250826118e3576118e261188e565b5b828206905092915050565b60006118f98261145d565b91506119048361145d565b92508282026119128161145d565b91508282048414831517611929576119286117f7565b5b5092915050565b60008160011c9050919050565b6000808291508390505b600185111561198757808604811115611963576119626117f7565b5b60018516156119725780820291505b808102905061198085611930565b9450611947565b94509492505050565b6000826119a05760019050611a5c565b816119ae5760009050611a5c565b81600181146119c457600281146119ce576119fd565b6001915050611a5c565b60ff8411156119e0576119df6117f7565b5b8360020a9150848211156119f7576119f66117f7565b5b50611a5c565b5060208310610133831016604e8410600b8410161715611a325782820a905083811115611a2d57611a2c6117f7565b5b611a5c565b611a3f848484600161193d565b92509050818404811115611a5657611a556117f7565b5b81810290505b9392505050565b6000611a6e8261145d565b9150611a798361145d565b9250611aa67fffffffffffffffffffffffffffffffffffffffffffffffffffffffffffffffff8484611990565b90509291505056fea26469706673582212208c23fc296ff136afb14b22900d563f700665da63ada1387f3a37f799a50628c764736f6c634300081c0033",
  "linkReferences": {},
  "deployedLinkReferences": {}
}