{
  "_format": "hh-sol-artifact-1",
  "contractName": "ConsumerSimpleImproved3",
  "sourceName": "contracts/ConsumerSimpleImproved3.sol",
  "abi": [
    {
      "inputs": [
        {
          "internalType": "address",
          "name": "router",
          "type": "address"
        },
        {
          "internalType": "bytes32",
          "name": "_donId",
          "type": "bytes32"
        },
        {
          "internalType": "uint64",
          "name": "_subscriptionId",
          "type": "uint64"
        },
        {
          "internalType": "uint32",
          "name": "_gasLimit",
          "type": "uint32"
        }
      ],
      "stateMutability": "nonpayable",
      "type": "constructor"
    },
    {
      "inputs": [],
      "name": "EmptyArgs",
      "type": "error"
    },
    {
      "inputs": [],
      "name": "EmptySource",
      "type": "error"
    },
    {
      "inputs": [],
      "name": "NoInlineSecrets",
      "type": "error"
    },
    {
      "inputs": [],
      "name": "OnlyRouterCanFulfill",
      "type": "error"
    },
    {
      "anonymous": false,
      "inputs": [
        {
          "indexed": true,
          "internalType": "bytes32",
          "name": "id",
          "type": "bytes32"
        }
      ],
      "name": "RequestFulfilled",
      "type": "event"
    },
    {
      "anonymous": false,
      "inputs": [
        {
          "indexed": true,
          "internalType": "bytes32",
          "name": "id",
          "type": "bytes32"
        }
      ],
      "name": "RequestSent",
      "type": "event"
    },
    {
      "inputs": [],
      "name": "donId",
      "outputs": [
        {
          "internalType": "bytes32",
          "name": "",
          "type": "bytes32"
        }
      ],
      "stateMutability": "view",
      "type": "function"
    },
    {
      "inputs": [],
      "name": "execute",
      "outputs": [],
      "stateMutability": "nonpayable",
      "type": "function"
    },
    {
      "inputs": [],
      "name": "gasLimit",
      "outputs": [
        {
          "internalType": "uint32",
          "name": "",
          "type": "uint32"
        }
      ],
      "stateMutability": "view",
      "type": "function"
    },
    {
      "inputs": [
        {
          "internalType": "bytes32",
          "name": "requestId",
          "type": "bytes32"
        },
        {
          "internalType": "bytes",
          "name": "response",
          "type": "bytes"
        },
        {
          "internalType": "bytes",
          "name": "err",
          "type": "bytes"
        }
      ],
      "name": "handleOracleFulfillment",
      "outputs": [],
      "stateMutability": "nonpayable",
      "type": "function"
    },
    {
      "inputs": [],
      "name": "lastId",
      "outputs": [
        {
          "internalType": "bytes32",
          "name": "",
          "type": "bytes32"
        }
      ],
      "stateMutability": "view",
      "type": "function"
    },
    {
      "inputs": [],
      "name": "lastResponse",
      "outputs": [
        {
          "internalType": "string",
          "name": "",
          "type": "string"
        }
      ],
      "stateMutability": "view",
      "type": "function"
    },
    {
      "inputs": [],
      "name": "subscriptionId",
      "outputs": [
        {
          "internalType": "uint64",
          "name": "",
          "type": "uint64"
        }
      ],
      "stateMutability": "view",
      "type": "function"
    }
  ],
  "bytecode": "0x60a060405234801561001057600080fd5b5060405161254b38038061254b833981810160405281019061003291906101d7565b838073ffffffffffffffffffffffffffffffffffffffff1660808173ffffffffffffffffffffffffffffffffffffffff1681525050508260008190555081600160006101000a81548167ffffffffffffffff021916908367ffffffffffffffff16021790555080600160086101000a81548163ffffffff021916908363ffffffff1602179055505050505061023e565b600080fd5b600073ffffffffffffffffffffffffffffffffffffffff82169050919050565b60006100f2826100c7565b9050919050565b610102816100e7565b811461010d57600080fd5b50565b60008151905061011f816100f9565b92915050565b6000819050919050565b61013881610125565b811461014357600080fd5b50565b6000815190506101558161012f565b92915050565b600067ffffffffffffffff82169050919050565b6101788161015b565b811461018357600080fd5b50565b6000815190506101958161016f565b92915050565b600063ffffffff82169050919050565b6101b48161019b565b81146101bf57600080fd5b50565b6000815190506101d1816101ab565b92915050565b600080600080608085870312156101f1576101f06100c2565b5b60006101ff87828801610110565b945050602061021087828801610146565b935050604061022187828801610186565b9250506060610232878288016101c2565b91505092959194509250565b6080516122eb6102606000396000818161015a0152610c0501526122eb6000f3fe608060405234801561001057600080fd5b506004361061007d5760003560e01c806362747e421161005b57806362747e42146100c65780638dbe7b9d146100e4578063c1292cc314610102578063f68016b7146101205761007d565b806309c1ba2e146100825780630ca76175146100a057806361461954146100bc575b600080fd5b61008a61013e565b6040516100979190611567565b60405180910390f35b6100ba60048036038101906100b59190611712565b610158565b005b6100c461021a565b005b6100ce61037c565b6040516100db919061181c565b60405180910390f35b6100ec61040a565b6040516100f9919061184d565b60405180910390f35b61010a610410565b604051610117919061184d565b60405180910390f35b610128610416565b6040516101359190611887565b60405180910390f35b600160009054906101000a900467ffffffffffffffff1681565b7f000000000000000000000000000000000000000000000000000000000000000073ffffffffffffffffffffffffffffffffffffffff163373ffffffffffffffffffffffffffffffffffffffff16146101dd576040517fc6829f8300000000000000000000000000000000000000000000000000000000815260040160405180910390fd5b6101e883838361042c565b827f85e1543bf2f84fe80c6badbce3648c8539ad1df4d2b3d822938ca0538be727e660405160405180910390a2505050565b610222611498565b60006040518061020001604052806101c881526020016120ee6101c891399050610255818361044190919063ffffffff16565b6000600367ffffffffffffffff811115610272576102716115e7565b5b6040519080825280602002602001820160405280156102a557816020015b60608152602001906001900390816102905790505b5090506102b133610452565b816000815181106102c5576102c46118a2565b5b60200260200101819052506102d930610452565b816001815181106102ed576102ec6118a2565b5b6020026020010181905250610301426106da565b81600281518110610315576103146118a2565b5b602002602001018190525061033381846107a890919063ffffffff16565b61037161033f846107f0565b600160009054906101000a900467ffffffffffffffff16600160089054906101000a900463ffffffff16600054610c00565b600281905550505050565b6003805461038990611900565b80601f01602080910402602001604051908101604052809291908181526020018280546103b590611900565b80156104025780601f106103d757610100808354040283529160200191610402565b820191906000526020600020905b8154815290600101906020018083116103e557829003601f168201915b505050505081565b60005481565b60025481565b600160089054906101000a900463ffffffff1681565b816003908161043b9190611ae7565b50505050565b61044e8260008084610ce3565b5050565b60606000602a67ffffffffffffffff811115610471576104706115e7565b5b6040519080825280601f01601f1916602001820160405280156104a35781602001600182028036833780820191505090505b5090507f3000000000000000000000000000000000000000000000000000000000000000816000815181106104db576104da6118a2565b5b60200101907effffffffffffffffffffffffffffffffffffffffffffffffffffffffffffff1916908160001a9053507f78000000000000000000000000000000000000000000000000000000000000008160018151811061053f5761053e6118a2565b5b60200101907effffffffffffffffffffffffffffffffffffffffffffffffffffffffffffff1916908160001a90535060005b60148110156106d05760008160136105899190611be8565b60086105959190611c1c565b60026105a19190611d91565b8573ffffffffffffffffffffffffffffffffffffffff166105c29190611e0b565b60f81b9050600060108260f81c6105d99190611e49565b905060008160106105ea9190611e7a565b8360f81c6105f89190611eb7565b905061060382610d8d565b8560028660026106139190611c1c565b61061d9190611eec565b8151811061062e5761062d6118a2565b5b60200101907effffffffffffffffffffffffffffffffffffffffffffffffffffffffffffff1916908160001a90535061066681610d8d565b8560038660026106769190611c1c565b6106809190611eec565b81518110610691576106906118a2565b5b60200101907effffffffffffffffffffffffffffffffffffffffffffffffffffffffffffff1916908160001a9053505050508080600101915050610571565b5080915050919050565b6060600060016106e984610dca565b01905060008167ffffffffffffffff811115610708576107076115e7565b5b6040519080825280601f01601f19166020018201604052801561073a5781602001600182028036833780820191505090505b509050600082602001820190505b60011561079d578080600190039150507f3031323334353637383961626364656600000000000000000000000000000000600a86061a8153600a858161079157610790611ddc565b5b04945060008503610748575b819350505050919050565b60008151036107e3576040517ffe936cb700000000000000000000000000000000000000000000000000000000815260040160405180910390fd5b808260a001819052505050565b606060006107ff610100610f1d565b90506108496040518060400160405280600c81526020017f636f64654c6f636174696f6e000000000000000000000000000000000000000081525082610f4490919063ffffffff16565b6108728360000151600281111561086357610862611f20565b5b82610f6d90919063ffffffff16565b6108ba6040518060400160405280600881526020017f6c616e677561676500000000000000000000000000000000000000000000000081525082610f4490919063ffffffff16565b6108e3836040015160008111156108d4576108d3611f20565b5b82610f6d90919063ffffffff16565b61092b6040518060400160405280600681526020017f736f75726365000000000000000000000000000000000000000000000000000081525082610f4490919063ffffffff16565b610942836060015182610f4490919063ffffffff16565b60008360a001515111156109f8576109986040518060400160405280600481526020017f617267730000000000000000000000000000000000000000000000000000000081525082610f4490919063ffffffff16565b6109a181610fbd565b60005b8360a00151518110156109ed576109e28460a0015182815181106109cb576109ca6118a2565b5b602002602001015183610f4490919063ffffffff16565b8060010190506109a4565b506109f781610fe5565b5b60008360800151511115610b395760006002811115610a1a57610a19611f20565b5b83602001516002811115610a3157610a30611f20565b5b03610a68576040517fa80d31f700000000000000000000000000000000000000000000000000000000815260040160405180910390fd5b610ab06040518060400160405280600f81526020017f736563726574734c6f636174696f6e000000000000000000000000000000000081525082610f4490919063ffffffff16565b610ad983602001516002811115610aca57610ac9611f20565b5b82610f6d90919063ffffffff16565b610b216040518060400160405280600781526020017f736563726574730000000000000000000000000000000000000000000000000081525082610f4490919063ffffffff16565b610b3883608001518261100d90919063ffffffff16565b5b60008360c00151511115610bef57610b8f6040518060400160405280600981526020017f627974657341726773000000000000000000000000000000000000000000000081525082610f4490919063ffffffff16565b610b9881610fbd565b60005b8360c0015151811015610be457610bd98460c001518281518110610bc257610bc16118a2565b5b60200260200101518361100d90919063ffffffff16565b806001019050610b9b565b50610bee81610fe5565b5b806000015160000151915050919050565b6000807f000000000000000000000000000000000000000000000000000000000000000073ffffffffffffffffffffffffffffffffffffffff1663461d27628688600188886040518663ffffffff1660e01b8152600401610c65959493929190611fc1565b6020604051808303816000875af1158015610c84573d6000803e3d6000fd5b505050506040513d601f19601f82011682018060405250810190610ca89190612030565b9050807f1131472297a800fee664d1d89cfa8f7676ff07189ecc53f80bbb5f4969099db860405160405180910390a280915050949350505050565b6000815103610d1e576040517f22ce3edd00000000000000000000000000000000000000000000000000000000815260040160405180910390fd5b8284600001906002811115610d3657610d35611f20565b5b90816002811115610d4a57610d49611f20565b5b815250508184604001906000811115610d6657610d65611f20565b5b90816000811115610d7a57610d79611f20565b5b8152505080846060018190525050505050565b6000600a8260ff161015610db257603082610da8919061205d565b60f81b9050610dc5565b605782610dbf919061205d565b60f81b90505b919050565b600080600090507a184f03e93ff9f4daa797ed6e38ed64bf6a1f0100000000000000008310610e28577a184f03e93ff9f4daa797ed6e38ed64bf6a1f0100000000000000008381610e1e57610e1d611ddc565b5b0492506040810190505b6d04ee2d6d415b85acef81000000008310610e65576d04ee2d6d415b85acef81000000008381610e5b57610e5a611ddc565b5b0492506020810190505b662386f26fc100008310610e9457662386f26fc100008381610e8a57610e89611ddc565b5b0492506010810190505b6305f5e1008310610ebd576305f5e1008381610eb357610eb2611ddc565b5b0492506008810190505b6127108310610ee2576127108381610ed857610ed7611ddc565b5b0492506004810190505b60648310610f055760648381610efb57610efa611ddc565b5b0492506002810190505b600a8310610f14576001810190505b80915050919050565b610f2561150a565b610f33816000015183611036565b506000816020018181525050919050565b610f5182600383516110af565b610f6881836000015161125890919063ffffffff16565b505050565b610f8f60026005600660ff16901b17836000015161127490919063ffffffff16565b50610fb98282604051602001610fa591906120a1565b60405160208183030381529060405261100d565b5050565b610fc88160046112de565b600181602001818151610fdb9190611eec565b9150818152505050565b610ff08160076112de565b6001816020018181516110039190611be8565b9150818152505050565b61101a82600283516110af565b61103181836000015161125890919063ffffffff16565b505050565b61103e61152a565b600060208361104d91906120bc565b146110795760208261105f91906120bc565b602061106b9190611be8565b826110769190611eec565b91505b8183602001818152505060405180845260008152828101602001818110156110a057600080fd5b80604052505082905092915050565b60178167ffffffffffffffff16116110ea576110e48160058460ff16901b60ff1617846000015161127490919063ffffffff16565b50611253565b60ff8167ffffffffffffffff16116111485761111d601860058460ff16901b17846000015161127490919063ffffffff16565b506111428167ffffffffffffffff16600185600001516113049092919063ffffffff16565b50611252565b61ffff8167ffffffffffffffff16116111a75761117c601960058460ff16901b17846000015161127490919063ffffffff16565b506111a18167ffffffffffffffff16600285600001516113049092919063ffffffff16565b50611251565b63ffffffff8167ffffffffffffffff1611611208576111dd601a60058460ff16901b17846000015161127490919063ffffffff16565b506112028167ffffffffffffffff16600485600001516113049092919063ffffffff16565b50611250565b611229601b60058460ff16901b17846000015161127490919063ffffffff16565b5061124e8167ffffffffffffffff16600885600001516113049092919063ffffffff16565b505b5b5b5b505050565b61126061152a565b61126c83838451611391565b905092915050565b61127c61152a565b6000836000015151905060006001826112959190611eec565b9050846020015182106112b9576112b8856002836112b39190611c1c565b611474565b5b845160208382010185815381518311156112d1578282525b5050849250505092915050565b6112ff601f60058360ff16901b17836000015161127490919063ffffffff16565b505050565b61130c61152a565b60008460000151519050600081846113249190611eec565b9050856020015181111561134957611348866002836113439190611c1c565b611474565b5b600060018561010061135b9190611d91565b6113659190611be8565b905086518281018783198251161781528151841115611382578382525b50508693505050509392505050565b61139961152a565b82518211156113a757600080fd5b60008460000151519050600083826113bf9190611eec565b905085602001518111156113e4576113e3866002836113de9190611c1c565b611474565b5b600080875180518560208301019350808511156113ff578482525b60208901925050505b6020861061144657805182526020826114219190611eec565b91506020816114309190611eec565b905060208661143f9190611be8565b9550611408565b60006001876020036101000a0390508019825116818451168181178552505050879450505050509392505050565b6000826000015190506114878383611036565b506114928382611258565b50505050565b6040518060e00160405280600060028111156114b7576114b6611f20565b5b8152602001600060028111156114d0576114cf611f20565b5b81526020016000808111156114e8576114e7611f20565b5b8152602001606081526020016060815260200160608152602001606081525090565b604051806040016040528061151d61152a565b8152602001600081525090565b604051806040016040528060608152602001600081525090565b600067ffffffffffffffff82169050919050565b61156181611544565b82525050565b600060208201905061157c6000830184611558565b92915050565b6000604051905090565b600080fd5b600080fd5b6000819050919050565b6115a981611596565b81146115b457600080fd5b50565b6000813590506115c6816115a0565b92915050565b600080fd5b600080fd5b6000601f19601f8301169050919050565b7f4e487b7100000000000000000000000000000000000000000000000000000000600052604160045260246000fd5b61161f826115d6565b810181811067ffffffffffffffff8211171561163e5761163d6115e7565b5b80604052505050565b6000611651611582565b905061165d8282611616565b919050565b600067ffffffffffffffff82111561167d5761167c6115e7565b5b611686826115d6565b9050602081019050919050565b82818337600083830152505050565b60006116b56116b084611662565b611647565b9050828152602081018484840111156116d1576116d06115d1565b5b6116dc848285611693565b509392505050565b600082601f8301126116f9576116f86115cc565b5b81356117098482602086016116a2565b91505092915050565b60008060006060848603121561172b5761172a61158c565b5b6000611739868287016115b7565b935050602084013567ffffffffffffffff81111561175a57611759611591565b5b611766868287016116e4565b925050604084013567ffffffffffffffff81111561178757611786611591565b5b611793868287016116e4565b9150509250925092565b600081519050919050565b600082825260208201905092915050565b60005b838110156117d75780820151818401526020810190506117bc565b60008484015250505050565b60006117ee8261179d565b6117f881856117a8565b93506118088185602086016117b9565b611811816115d6565b840191505092915050565b6000602082019050818103600083015261183681846117e3565b905092915050565b61184781611596565b82525050565b6000602082019050611862600083018461183e565b92915050565b600063ffffffff82169050919050565b61188181611868565b82525050565b600060208201905061189c6000830184611878565b92915050565b7f4e487b7100000000000000000000000000000000000000000000000000000000600052603260045260246000fd5b7f4e487b7100000000000000000000000000000000000000000000000000000000600052602260045260246000fd5b6000600282049050600182168061191857607f821691505b60208210810361192b5761192a6118d1565b5b50919050565b60008190508160005260206000209050919050565b60006020601f8301049050919050565b600082821b905092915050565b6000600883026119937fffffffffffffffffffffffffffffffffffffffffffffffffffffffffffffffff82611956565b61199d8683611956565b95508019841693508086168417925050509392505050565b6000819050919050565b6000819050919050565b60006119e46119df6119da846119b5565b6119bf565b6119b5565b9050919050565b6000819050919050565b6119fe836119c9565b611a12611a0a826119eb565b848454611963565b825550505050565b600090565b611a27611a1a565b611a328184846119f5565b505050565b5b81811015611a5657611a4b600082611a1f565b600181019050611a38565b5050565b601f821115611a9b57611a6c81611931565b611a7584611946565b81016020851015611a84578190505b611a98611a9085611946565b830182611a37565b50505b505050565b600082821c905092915050565b6000611abe60001984600802611aa0565b1980831691505092915050565b6000611ad78383611aad565b9150826002028217905092915050565b611af08261179d565b67ffffffffffffffff811115611b0957611b086115e7565b5b611b138254611900565b611b1e828285611a5a565b600060209050601f831160018114611b515760008415611b3f578287015190505b611b498582611acb565b865550611bb1565b601f198416611b5f86611931565b60005b82811015611b8757848901518255600182019150602085019450602081019050611b62565b86831015611ba45784890151611ba0601f891682611aad565b8355505b6001600288020188555050505b505050505050565b7f4e487b7100000000000000000000000000000000000000000000000000000000600052601160045260246000fd5b6000611bf3826119b5565b9150611bfe836119b5565b9250828203905081811115611c1657611c15611bb9565b5b92915050565b6000611c27826119b5565b9150611c32836119b5565b9250828202611c40816119b5565b91508282048414831517611c5757611c56611bb9565b5b5092915050565b60008160011c9050919050565b6000808291508390505b6001851115611cb557808604811115611c9157611c90611bb9565b5b6001851615611ca05780820291505b8081029050611cae85611c5e565b9450611c75565b94509492505050565b600082611cce5760019050611d8a565b81611cdc5760009050611d8a565b8160018114611cf25760028114611cfc57611d2b565b6001915050611d8a565b60ff841115611d0e57611d0d611bb9565b5b8360020a915084821115611d2557611d24611bb9565b5b50611d8a565b5060208310610133831016604e8410600b8410161715611d605782820a905083811115611d5b57611d5a611bb9565b5b611d8a565b611d6d8484846001611c6b565b92509050818404811115611d8457611d83611bb9565b5b81810290505b9392505050565b6000611d9c826119b5565b9150611da7836119b5565b9250611dd47fffffffffffffffffffffffffffffffffffffffffffffffffffffffffffffffff8484611cbe565b905092915050565b7f4e487b7100000000000000000000000000000000000000000000000000000000600052601260045260246000fd5b6000611e16826119b5565b9150611e21836119b5565b925082611e3157611e30611ddc565b5b828204905092915050565b600060ff82169050919050565b6000611e5482611e3c565b9150611e5f83611e3c565b925082611e6f57611e6e611ddc565b5b828204905092915050565b6000611e8582611e3c565b9150611e9083611e3c565b9250828202611e9e81611e3c565b9150808214611eb057611eaf611bb9565b5b5092915050565b6000611ec282611e3c565b9150611ecd83611e3c565b9250828203905060ff811115611ee657611ee5611bb9565b5b92915050565b6000611ef7826119b5565b9150611f02836119b5565b9250828201905080821115611f1a57611f19611bb9565b5b92915050565b7f4e487b7100000000000000000000000000000000000000000000000000000000600052602160045260246000fd5b600081519050919050565b600082825260208201905092915050565b6000611f7682611f4f565b611f808185611f5a565b9350611f908185602086016117b9565b611f99816115d6565b840191505092915050565b600061ffff82169050919050565b611fbb81611fa4565b82525050565b600060a082019050611fd66000830188611558565b8181036020830152611fe88187611f6b565b9050611ff76040830186611fb2565b6120046060830185611878565b612011608083018461183e565b9695505050505050565b60008151905061202a816115a0565b92915050565b6000602082840312156120465761204561158c565b5b60006120548482850161201b565b91505092915050565b600061206882611e3c565b915061207383611e3c565b9250828201905060ff81111561208c5761208b611bb9565b5b92915050565b61209b816119b5565b82525050565b60006020820190506120b66000830184612092565b92915050565b60006120c7826119b5565b91506120d2836119b5565b9250826120e2576120e1611ddc565b5b82820690509291505056fe2f2f2043616c6c20657363616c6174652d746f2d68756d616e2d6c617779657220656e64706f696e74207769746820726571756972656420706172616d730a636f6e737420726573706f6e7365203d2061776169742046756e6374696f6e732e6d616b654874747052657175657374287b0a202075726c3a202768747470733a2f2f746f6d61732d776562332d6170692d6578356b736d636465712d75632e612e72756e2e6170702f746f6d61732f657363616c6174652d746f2d68756d616e2d6c6177796572272c0a20206d6574686f643a2027504f5354272c0a202074696d656f75743a2031303030302c0a2020646174613a207b0a202020206361736549643a20617267735b305d2c0a20202020636f6e7472616374416464726573733a20617267735b315d2c0a2020202074696d657374616d703a20617267735b325d2c0a20207d2c0a7d293b0a69662028726573706f6e73652e6572726f7229207b207468726f77204572726f72284a534f4e2e737472696e6769667928726573706f6e736529293b207d0a72657475726e2046756e6374696f6e732e656e636f6465537472696e67284a534f4e2e737472696e6769667928726573706f6e73652e6461746129293ba264697066735822122052482cd9ead888c9bb2b2bd0b4eb76e5b4d6c0d057dcca6e388c9c4fb7d7183d64736f6c634300081c0033",
  "linkReferences": {},
  "deployedLinkReferences": {}
}