{
  "_format": "hh-sol-artifact-1",
  "contractName": "ConsumerSimpleImproved2",
  "sourceName": "contracts/ConsumerSimpleImproved2.sol",
  "abi": [
    {
      "inputs": [
        {
          "internalType": "address",
          "name": "router",
          "type": "address"
        },
        {
          "internalType": "bytes32",
          "name": "_donId",
          "type": "bytes32"
        },
        {
          "internalType": "uint64",
          "name": "_subscriptionId",
          "type": "uint64"
        },
        {
          "internalType": "uint32",
          "name": "_gasLimit",
          "type": "uint32"
        }
      ],
      "stateMutability": "nonpayable",
      "type": "constructor"
    },
    {
      "inputs": [],
      "name": "EmptyArgs",
      "type": "error"
    },
    {
      "inputs": [],
      "name": "EmptySource",
      "type": "error"
    },
    {
      "inputs": [],
      "name": "NoInlineSecrets",
      "type": "error"
    },
    {
      "inputs": [],
      "name": "OnlyRouterCanFulfill",
      "type": "error"
    },
    {
      "anonymous": false,
      "inputs": [
        {
          "indexed": true,
          "internalType": "bytes32",
          "name": "id",
          "type": "bytes32"
        }
      ],
      "name": "RequestFulfilled",
      "type": "event"
    },
    {
      "anonymous": false,
      "inputs": [
        {
          "indexed": true,
          "internalType": "bytes32",
          "name": "id",
          "type": "bytes32"
        }
      ],
      "name": "RequestSent",
      "type": "event"
    },
    {
      "inputs": [],
      "name": "donId",
      "outputs": [
        {
          "internalType": "bytes32",
          "name": "",
          "type": "bytes32"
        }
      ],
      "stateMutability": "view",
      "type": "function"
    },
    {
      "inputs": [
        {
          "internalType": "string",
          "name": "signature",
          "type": "string"
        },
        {
          "internalType": "uint256",
          "name": "timestamp",
          "type": "uint256"
        }
      ],
      "name": "execute",
      "outputs": [],
      "stateMutability": "nonpayable",
      "type": "function"
    },
    {
      "inputs": [],
      "name": "gasLimit",
      "outputs": [
        {
          "internalType": "uint32",
          "name": "",
          "type": "uint32"
        }
      ],
      "stateMutability": "view",
      "type": "function"
    },
    {
      "inputs": [
        {
          "internalType": "bytes32",
          "name": "requestId",
          "type": "bytes32"
        },
        {
          "internalType": "bytes",
          "name": "response",
          "type": "bytes"
        },
        {
          "internalType": "bytes",
          "name": "err",
          "type": "bytes"
        }
      ],
      "name": "handleOracleFulfillment",
      "outputs": [],
      "stateMutability": "nonpayable",
      "type": "function"
    },
    {
      "inputs": [],
      "name": "lastId",
      "outputs": [
        {
          "internalType": "bytes32",
          "name": "",
          "type": "bytes32"
        }
      ],
      "stateMutability": "view",
      "type": "function"
    },
    {
      "inputs": [],
      "name": "lastResponse",
      "outputs": [
        {
          "internalType": "string",
          "name": "",
          "type": "string"
        }
      ],
      "stateMutability": "view",
      "type": "function"
    },
    {
      "inputs": [],
      "name": "subscriptionId",
      "outputs": [
        {
          "internalType": "uint64",
          "name": "",
          "type": "uint64"
        }
      ],
      "stateMutability": "view",
      "type": "function"
    }
  ],
  "bytecode": "0x60a060405234801561001057600080fd5b506040516126c83803806126c8833981810160405281019061003291906101d7565b838073ffffffffffffffffffffffffffffffffffffffff1660808173ffffffffffffffffffffffffffffffffffffffff1681525050508260008190555081600160006101000a81548167ffffffffffffffff021916908367ffffffffffffffff16021790555080600160086101000a81548163ffffffff021916908363ffffffff1602179055505050505061023e565b600080fd5b600073ffffffffffffffffffffffffffffffffffffffff82169050919050565b60006100f2826100c7565b9050919050565b610102816100e7565b811461010d57600080fd5b50565b60008151905061011f816100f9565b92915050565b6000819050919050565b61013881610125565b811461014357600080fd5b50565b6000815190506101558161012f565b92915050565b600067ffffffffffffffff82169050919050565b6101788161015b565b811461018357600080fd5b50565b6000815190506101958161016f565b92915050565b600063ffffffff82169050919050565b6101b48161019b565b81146101bf57600080fd5b50565b6000815190506101d1816101ab565b92915050565b600080600080608085870312156101f1576101f06100c2565b5b60006101ff87828801610110565b945050602061021087828801610146565b935050604061022187828801610186565b9250506060610232878288016101c2565b91505092959194509250565b6080516124686102606000396000818161016c0152610c7e01526124686000f3fe608060405234801561001057600080fd5b506004361061007d5760003560e01c806376d432711161005b57806376d43271146100da5780638dbe7b9d146100f6578063c1292cc314610114578063f68016b7146101325761007d565b806309c1ba2e146100825780630ca76175146100a057806362747e42146100bc575b600080fd5b61008a610150565b60405161009791906115e0565b60405180910390f35b6100ba60048036038101906100b5919061178b565b61016a565b005b6100c461022c565b6040516100d19190611895565b60405180910390f35b6100f460048036038101906100ef919061194d565b6102ba565b005b6100fe610483565b60405161010b91906119bc565b60405180910390f35b61011c610489565b60405161012991906119bc565b60405180910390f35b61013a61048f565b60405161014791906119f6565b60405180910390f35b600160009054906101000a900467ffffffffffffffff1681565b7f000000000000000000000000000000000000000000000000000000000000000073ffffffffffffffffffffffffffffffffffffffff163373ffffffffffffffffffffffffffffffffffffffff16146101ef576040517fc6829f8300000000000000000000000000000000000000000000000000000000815260040160405180910390fd5b6101fa8383836104a5565b827f85e1543bf2f84fe80c6badbce3648c8539ad1df4d2b3d822938ca0538be727e660405160405180910390a2505050565b6003805461023990611a40565b80601f016020809104026020016040519081016040528092919081815260200182805461026590611a40565b80156102b25780601f10610287576101008083540402835291602001916102b2565b820191906000526020600020905b81548152906001019060200180831161029557829003601f168201915b505050505081565b6102c2611511565b60006040518061020001604052806101e081526020016122536101e0913990506102f581836104ba90919063ffffffff16565b6000600467ffffffffffffffff81111561031257610311611660565b5b60405190808252806020026020018201604052801561034557816020015b60608152602001906001900390816103305790505b509050610351336104cb565b8160008151811061036557610364611a71565b5b6020026020010181905250610379306104cb565b8160018151811061038d5761038c611a71565b5b602002602001018190525085858080601f016020809104026020016040519081016040528093929190818152602001838380828437600081840152601f19601f82011690508083019250505050505050816002815181106103f1576103f0611a71565b5b602002602001018190525061040584610753565b8160038151811061041957610418611a71565b5b6020026020010181905250610437818461082190919063ffffffff16565b61047561044384610869565b600160009054906101000a900467ffffffffffffffff16600160089054906101000a900463ffffffff16600054610c79565b600281905550505050505050565b60005481565b60025481565b600160089054906101000a900463ffffffff1681565b81600390816104b49190611c4c565b50505050565b6104c78260008084610d5c565b5050565b60606000602a67ffffffffffffffff8111156104ea576104e9611660565b5b6040519080825280601f01601f19166020018201604052801561051c5781602001600182028036833780820191505090505b5090507f30000000000000000000000000000000000000000000000000000000000000008160008151811061055457610553611a71565b5b60200101907effffffffffffffffffffffffffffffffffffffffffffffffffffffffffffff1916908160001a9053507f7800000000000000000000000000000000000000000000000000000000000000816001815181106105b8576105b7611a71565b5b60200101907effffffffffffffffffffffffffffffffffffffffffffffffffffffffffffff1916908160001a90535060005b60148110156107495760008160136106029190611d4d565b600861060e9190611d81565b600261061a9190611ef6565b8573ffffffffffffffffffffffffffffffffffffffff1661063b9190611f70565b60f81b9050600060108260f81c6106529190611fae565b905060008160106106639190611fdf565b8360f81c610671919061201c565b905061067c82610e06565b85600286600261068c9190611d81565b6106969190612051565b815181106106a7576106a6611a71565b5b60200101907effffffffffffffffffffffffffffffffffffffffffffffffffffffffffffff1916908160001a9053506106df81610e06565b8560038660026106ef9190611d81565b6106f99190612051565b8151811061070a57610709611a71565b5b60200101907effffffffffffffffffffffffffffffffffffffffffffffffffffffffffffff1916908160001a90535050505080806001019150506105ea565b5080915050919050565b60606000600161076284610e43565b01905060008167ffffffffffffffff81111561078157610780611660565b5b6040519080825280601f01601f1916602001820160405280156107b35781602001600182028036833780820191505090505b509050600082602001820190505b600115610816578080600190039150507f3031323334353637383961626364656600000000000000000000000000000000600a86061a8153600a858161080a57610809611f41565b5b049450600085036107c1575b819350505050919050565b600081510361085c576040517ffe936cb700000000000000000000000000000000000000000000000000000000815260040160405180910390fd5b808260a001819052505050565b60606000610878610100610f96565b90506108c26040518060400160405280600c81526020017f636f64654c6f636174696f6e000000000000000000000000000000000000000081525082610fbd90919063ffffffff16565b6108eb836000015160028111156108dc576108db612085565b5b82610fe690919063ffffffff16565b6109336040518060400160405280600881526020017f6c616e677561676500000000000000000000000000000000000000000000000081525082610fbd90919063ffffffff16565b61095c8360400151600081111561094d5761094c612085565b5b82610fe690919063ffffffff16565b6109a46040518060400160405280600681526020017f736f75726365000000000000000000000000000000000000000000000000000081525082610fbd90919063ffffffff16565b6109bb836060015182610fbd90919063ffffffff16565b60008360a00151511115610a7157610a116040518060400160405280600481526020017f617267730000000000000000000000000000000000000000000000000000000081525082610fbd90919063ffffffff16565b610a1a81611036565b60005b8360a0015151811015610a6657610a5b8460a001518281518110610a4457610a43611a71565b5b602002602001015183610fbd90919063ffffffff16565b806001019050610a1d565b50610a708161105e565b5b60008360800151511115610bb25760006002811115610a9357610a92612085565b5b83602001516002811115610aaa57610aa9612085565b5b03610ae1576040517fa80d31f700000000000000000000000000000000000000000000000000000000815260040160405180910390fd5b610b296040518060400160405280600f81526020017f736563726574734c6f636174696f6e000000000000000000000000000000000081525082610fbd90919063ffffffff16565b610b5283602001516002811115610b4357610b42612085565b5b82610fe690919063ffffffff16565b610b9a6040518060400160405280600781526020017f736563726574730000000000000000000000000000000000000000000000000081525082610fbd90919063ffffffff16565b610bb183608001518261108690919063ffffffff16565b5b60008360c00151511115610c6857610c086040518060400160405280600981526020017f627974657341726773000000000000000000000000000000000000000000000081525082610fbd90919063ffffffff16565b610c1181611036565b60005b8360c0015151811015610c5d57610c528460c001518281518110610c3b57610c3a611a71565b5b60200260200101518361108690919063ffffffff16565b806001019050610c14565b50610c678161105e565b5b806000015160000151915050919050565b6000807f000000000000000000000000000000000000000000000000000000000000000073ffffffffffffffffffffffffffffffffffffffff1663461d27628688600188886040518663ffffffff1660e01b8152600401610cde959493929190612126565b6020604051808303816000875af1158015610cfd573d6000803e3d6000fd5b505050506040513d601f19601f82011682018060405250810190610d219190612195565b9050807f1131472297a800fee664d1d89cfa8f7676ff07189ecc53f80bbb5f4969099db860405160405180910390a280915050949350505050565b6000815103610d97576040517f22ce3edd00000000000000000000000000000000000000000000000000000000815260040160405180910390fd5b8284600001906002811115610daf57610dae612085565b5b90816002811115610dc357610dc2612085565b5b815250508184604001906000811115610ddf57610dde612085565b5b90816000811115610df357610df2612085565b5b8152505080846060018190525050505050565b6000600a8260ff161015610e2b57603082610e2191906121c2565b60f81b9050610e3e565b605782610e3891906121c2565b60f81b90505b919050565b600080600090507a184f03e93ff9f4daa797ed6e38ed64bf6a1f0100000000000000008310610ea1577a184f03e93ff9f4daa797ed6e38ed64bf6a1f0100000000000000008381610e9757610e96611f41565b5b0492506040810190505b6d04ee2d6d415b85acef81000000008310610ede576d04ee2d6d415b85acef81000000008381610ed457610ed3611f41565b5b0492506020810190505b662386f26fc100008310610f0d57662386f26fc100008381610f0357610f02611f41565b5b0492506010810190505b6305f5e1008310610f36576305f5e1008381610f2c57610f2b611f41565b5b0492506008810190505b6127108310610f5b576127108381610f5157610f50611f41565b5b0492506004810190505b60648310610f7e5760648381610f7457610f73611f41565b5b0492506002810190505b600a8310610f8d576001810190505b80915050919050565b610f9e611583565b610fac8160000151836110af565b506000816020018181525050919050565b610fca8260038351611128565b610fe18183600001516112d190919063ffffffff16565b505050565b61100860026005600660ff16901b1783600001516112ed90919063ffffffff16565b50611032828260405160200161101e9190612206565b604051602081830303815290604052611086565b5050565b611041816004611357565b6001816020018181516110549190612051565b9150818152505050565b611069816007611357565b60018160200181815161107c9190611d4d565b9150818152505050565b6110938260028351611128565b6110aa8183600001516112d190919063ffffffff16565b505050565b6110b76115a3565b60006020836110c69190612221565b146110f2576020826110d89190612221565b60206110e49190611d4d565b826110ef9190612051565b91505b81836020018181525050604051808452600081528281016020018181101561111957600080fd5b80604052505082905092915050565b60178167ffffffffffffffff16116111635761115d8160058460ff16901b60ff161784600001516112ed90919063ffffffff16565b506112cc565b60ff8167ffffffffffffffff16116111c157611196601860058460ff16901b1784600001516112ed90919063ffffffff16565b506111bb8167ffffffffffffffff166001856000015161137d9092919063ffffffff16565b506112cb565b61ffff8167ffffffffffffffff1611611220576111f5601960058460ff16901b1784600001516112ed90919063ffffffff16565b5061121a8167ffffffffffffffff166002856000015161137d9092919063ffffffff16565b506112ca565b63ffffffff8167ffffffffffffffff161161128157611256601a60058460ff16901b1784600001516112ed90919063ffffffff16565b5061127b8167ffffffffffffffff166004856000015161137d9092919063ffffffff16565b506112c9565b6112a2601b60058460ff16901b1784600001516112ed90919063ffffffff16565b506112c78167ffffffffffffffff166008856000015161137d9092919063ffffffff16565b505b5b5b5b505050565b6112d96115a3565b6112e58383845161140a565b905092915050565b6112f56115a3565b60008360000151519050600060018261130e9190612051565b905084602001518210611332576113318560028361132c9190611d81565b6114ed565b5b8451602083820101858153815183111561134a578282525b5050849250505092915050565b611378601f60058360ff16901b1783600001516112ed90919063ffffffff16565b505050565b6113856115a3565b600084600001515190506000818461139d9190612051565b905085602001518111156113c2576113c1866002836113bc9190611d81565b6114ed565b5b60006001856101006113d49190611ef6565b6113de9190611d4d565b9050865182810187831982511617815281518411156113fb578382525b50508693505050509392505050565b6114126115a3565b825182111561142057600080fd5b60008460000151519050600083826114389190612051565b9050856020015181111561145d5761145c866002836114579190611d81565b6114ed565b5b60008087518051856020830101935080851115611478578482525b60208901925050505b602086106114bf578051825260208261149a9190612051565b91506020816114a99190612051565b90506020866114b89190611d4d565b9550611481565b60006001876020036101000a0390508019825116818451168181178552505050879450505050509392505050565b60008260000151905061150083836110af565b5061150b83826112d1565b50505050565b6040518060e00160405280600060028111156115305761152f612085565b5b81526020016000600281111561154957611548612085565b5b815260200160008081111561156157611560612085565b5b8152602001606081526020016060815260200160608152602001606081525090565b60405180604001604052806115966115a3565b8152602001600081525090565b604051806040016040528060608152602001600081525090565b600067ffffffffffffffff82169050919050565b6115da816115bd565b82525050565b60006020820190506115f560008301846115d1565b92915050565b6000604051905090565b600080fd5b600080fd5b6000819050919050565b6116228161160f565b811461162d57600080fd5b50565b60008135905061163f81611619565b92915050565b600080fd5b600080fd5b6000601f19601f8301169050919050565b7f4e487b7100000000000000000000000000000000000000000000000000000000600052604160045260246000fd5b6116988261164f565b810181811067ffffffffffffffff821117156116b7576116b6611660565b5b80604052505050565b60006116ca6115fb565b90506116d6828261168f565b919050565b600067ffffffffffffffff8211156116f6576116f5611660565b5b6116ff8261164f565b9050602081019050919050565b82818337600083830152505050565b600061172e611729846116db565b6116c0565b90508281526020810184848401111561174a5761174961164a565b5b61175584828561170c565b509392505050565b600082601f83011261177257611771611645565b5b813561178284826020860161171b565b91505092915050565b6000806000606084860312156117a4576117a3611605565b5b60006117b286828701611630565b935050602084013567ffffffffffffffff8111156117d3576117d261160a565b5b6117df8682870161175d565b925050604084013567ffffffffffffffff811115611800576117ff61160a565b5b61180c8682870161175d565b9150509250925092565b600081519050919050565b600082825260208201905092915050565b60005b83811015611850578082015181840152602081019050611835565b60008484015250505050565b600061186782611816565b6118718185611821565b9350611881818560208601611832565b61188a8161164f565b840191505092915050565b600060208201905081810360008301526118af818461185c565b905092915050565b600080fd5b600080fd5b60008083601f8401126118d7576118d6611645565b5b8235905067ffffffffffffffff8111156118f4576118f36118b7565b5b6020830191508360018202830111156119105761190f6118bc565b5b9250929050565b6000819050919050565b61192a81611917565b811461193557600080fd5b50565b60008135905061194781611921565b92915050565b60008060006040848603121561196657611965611605565b5b600084013567ffffffffffffffff8111156119845761198361160a565b5b611990868287016118c1565b935093505060206119a386828701611938565b9150509250925092565b6119b68161160f565b82525050565b60006020820190506119d160008301846119ad565b92915050565b600063ffffffff82169050919050565b6119f0816119d7565b82525050565b6000602082019050611a0b60008301846119e7565b92915050565b7f4e487b7100000000000000000000000000000000000000000000000000000000600052602260045260246000fd5b60006002820490506001821680611a5857607f821691505b602082108103611a6b57611a6a611a11565b5b50919050565b7f4e487b7100000000000000000000000000000000000000000000000000000000600052603260045260246000fd5b60008190508160005260206000209050919050565b60006020601f8301049050919050565b600082821b905092915050565b600060088302611b027fffffffffffffffffffffffffffffffffffffffffffffffffffffffffffffffff82611ac5565b611b0c8683611ac5565b95508019841693508086168417925050509392505050565b6000819050919050565b6000611b49611b44611b3f84611917565b611b24565b611917565b9050919050565b6000819050919050565b611b6383611b2e565b611b77611b6f82611b50565b848454611ad2565b825550505050565b600090565b611b8c611b7f565b611b97818484611b5a565b505050565b5b81811015611bbb57611bb0600082611b84565b600181019050611b9d565b5050565b601f821115611c0057611bd181611aa0565b611bda84611ab5565b81016020851015611be9578190505b611bfd611bf585611ab5565b830182611b9c565b50505b505050565b600082821c905092915050565b6000611c2360001984600802611c05565b1980831691505092915050565b6000611c3c8383611c12565b9150826002028217905092915050565b611c5582611816565b67ffffffffffffffff811115611c6e57611c6d611660565b5b611c788254611a40565b611c83828285611bbf565b600060209050601f831160018114611cb65760008415611ca4578287015190505b611cae8582611c30565b865550611d16565b601f198416611cc486611aa0565b60005b82811015611cec57848901518255600182019150602085019450602081019050611cc7565b86831015611d095784890151611d05601f891682611c12565b8355505b6001600288020188555050505b505050505050565b7f4e487b7100000000000000000000000000000000000000000000000000000000600052601160045260246000fd5b6000611d5882611917565b9150611d6383611917565b9250828203905081811115611d7b57611d7a611d1e565b5b92915050565b6000611d8c82611917565b9150611d9783611917565b9250828202611da581611917565b91508282048414831517611dbc57611dbb611d1e565b5b5092915050565b60008160011c9050919050565b6000808291508390505b6001851115611e1a57808604811115611df657611df5611d1e565b5b6001851615611e055780820291505b8081029050611e1385611dc3565b9450611dda565b94509492505050565b600082611e335760019050611eef565b81611e415760009050611eef565b8160018114611e575760028114611e6157611e90565b6001915050611eef565b60ff841115611e7357611e72611d1e565b5b8360020a915084821115611e8a57611e89611d1e565b5b50611eef565b5060208310610133831016604e8410600b8410161715611ec55782820a905083811115611ec057611ebf611d1e565b5b611eef565b611ed28484846001611dd0565b92509050818404811115611ee957611ee8611d1e565b5b81810290505b9392505050565b6000611f0182611917565b9150611f0c83611917565b9250611f397fffffffffffffffffffffffffffffffffffffffffffffffffffffffffffffffff8484611e23565b905092915050565b7f4e487b7100000000000000000000000000000000000000000000000000000000600052601260045260246000fd5b6000611f7b82611917565b9150611f8683611917565b925082611f9657611f95611f41565b5b828204905092915050565b600060ff82169050919050565b6000611fb982611fa1565b9150611fc483611fa1565b925082611fd457611fd3611f41565b5b828204905092915050565b6000611fea82611fa1565b9150611ff583611fa1565b925082820261200381611fa1565b915080821461201557612014611d1e565b5b5092915050565b600061202782611fa1565b915061203283611fa1565b9250828203905060ff81111561204b5761204a611d1e565b5b92915050565b600061205c82611917565b915061206783611917565b925082820190508082111561207f5761207e611d1e565b5b92915050565b7f4e487b7100000000000000000000000000000000000000000000000000000000600052602160045260246000fd5b600081519050919050565b600082825260208201905092915050565b60006120db826120b4565b6120e581856120bf565b93506120f5818560208601611832565b6120fe8161164f565b840191505092915050565b600061ffff82169050919050565b61212081612109565b82525050565b600060a08201905061213b60008301886115d1565b818103602083015261214d81876120d0565b905061215c6040830186612117565b61216960608301856119e7565b61217660808301846119ad565b9695505050505050565b60008151905061218f81611619565b92915050565b6000602082840312156121ab576121aa611605565b5b60006121b984828501612180565b91505092915050565b60006121cd82611fa1565b91506121d883611fa1565b9250828201905060ff8111156121f1576121f0611d1e565b5b92915050565b61220081611917565b82525050565b600060208201905061221b60008301846121f7565b92915050565b600061222c82611917565b915061223783611917565b92508261224757612246611f41565b5b82820690509291505056fe2f2f2043616c6c20657363616c6174652d746f2d68756d616e2d6c617779657220656e64706f696e74207769746820726571756972656420706172616d730a636f6e737420726573706f6e7365203d2061776169742046756e6374696f6e732e6d616b654874747052657175657374287b0a202075726c3a202768747470733a2f2f746f6d61732d776562332d6170692d6578356b736d636465712d75632e612e72756e2e6170702f746f6d61732f657363616c6174652d746f2d68756d616e2d6c6177796572272c0a20206d6574686f643a2027504f5354272c0a202074696d656f75743a2031303030302c0a2020646174613a207b0a202020206361736549643a20617267735b305d2c0a20202020636f6e7472616374416464726573733a20617267735b315d2c0a202020207369676e61747572653a20617267735b325d2c0a2020202074696d657374616d703a20617267735b335d2c0a20207d2c0a7d293b0a69662028726573706f6e73652e6572726f7229207b207468726f77204572726f72284a534f4e2e737472696e6769667928726573706f6e736529293b207d0a72657475726e2046756e6374696f6e732e656e636f6465537472696e67284a534f4e2e737472696e6769667928726573706f6e73652e6461746129293ba26469706673582212206cff72c61328640b82303caba2f2b74ea9a583625e24d2e029910243f8dd516064736f6c634300081c0033",
  "linkReferences": {},
  "deployedLinkReferences": {}
}