{
  "_format": "hh-sol-artifact-1",
  "contractName": "ConsumerSimpleWithVRF3",
  "sourceName": "contracts/ConsumerSimpleWithVRF.sol",
  "abi": [
    {
      "inputs": [
        {
          "internalType": "address",
          "name": "functionsRouter",
          "type": "address"
        },
        {
          "internalType": "bytes32",
          "name": "_donId",
          "type": "bytes32"
        },
        {
          "internalType": "uint64",
          "name": "_functionsSubId",
          "type": "uint64"
        },
        {
          "internalType": "uint32",
          "name": "_functionsGasLimit",
          "type": "uint32"
        },
        {
          "internalType": "address",
          "name": "vrfCoordinator",
          "type": "address"
        },
        {
          "internalType": "bytes32",
          "name": "_keyHash",
          "type": "bytes32"
        },
        {
          "internalType": "uint256",
          "name": "_vrfSubId",
          "type": "uint256"
        },
        {
          "internalType": "uint8",
          "name": "_secretsSlot",
          "type": "uint8"
        },
        {
          "internalType": "uint64",
          "name": "_secretsVersion",
          "type": "uint64"
        }
      ],
      "stateMutability": "nonpayable",
      "type": "constructor"
    },
    {
      "inputs": [],
      "name": "EmptyArgs",
      "type": "error"
    },
    {
      "inputs": [],
      "name": "EmptySource",
      "type": "error"
    },
    {
      "inputs": [],
      "name": "NoInlineSecrets",
      "type": "error"
    },
    {
      "inputs": [
        {
          "internalType": "address",
          "name": "have",
          "type": "address"
        },
        {
          "internalType": "address",
          "name": "want",
          "type": "address"
        }
      ],
      "name": "OnlyCoordinatorCanFulfill",
      "type": "error"
    },
    {
      "inputs": [
        {
          "internalType": "address",
          "name": "have",
          "type": "address"
        },
        {
          "internalType": "address",
          "name": "owner",
          "type": "address"
        },
        {
          "internalType": "address",
          "name": "coordinator",
          "type": "address"
        }
      ],
      "name": "OnlyOwnerOrCoordinator",
      "type": "error"
    },
    {
      "inputs": [],
      "name": "OnlyRouterCanFulfill",
      "type": "error"
    },
    {
      "inputs": [],
      "name": "ZeroAddress",
      "type": "error"
    },
    {
      "anonymous": false,
      "inputs": [
        {
          "indexed": false,
          "internalType": "address",
          "name": "vrfCoordinator",
          "type": "address"
        }
      ],
      "name": "CoordinatorSet",
      "type": "event"
    },
    {
      "anonymous": false,
      "inputs": [
        {
          "indexed": true,
          "internalType": "uint256",
          "name": "vrfRequestId",
          "type": "uint256"
        },
        {
          "indexed": false,
          "internalType": "bytes32",
          "name": "functionsReqId",
          "type": "bytes32"
        }
      ],
      "name": "ExecutedRequest",
      "type": "event"
    },
    {
      "anonymous": false,
      "inputs": [
        {
          "indexed": true,
          "internalType": "address",
          "name": "from",
          "type": "address"
        },
        {
          "indexed": true,
          "internalType": "address",
          "name": "to",
          "type": "address"
        }
      ],
      "name": "OwnershipTransferRequested",
      "type": "event"
    },
    {
      "anonymous": false,
      "inputs": [
        {
          "indexed": true,
          "internalType": "address",
          "name": "from",
          "type": "address"
        },
        {
          "indexed": true,
          "internalType": "address",
          "name": "to",
          "type": "address"
        }
      ],
      "name": "OwnershipTransferred",
      "type": "event"
    },
    {
      "anonymous": false,
      "inputs": [
        {
          "indexed": true,
          "internalType": "bytes32",
          "name": "id",
          "type": "bytes32"
        }
      ],
      "name": "RequestFulfilled",
      "type": "event"
    },
    {
      "anonymous": false,
      "inputs": [
        {
          "indexed": true,
          "internalType": "uint256",
          "name": "vrfRequestId",
          "type": "uint256"
        },
        {
          "indexed": true,
          "internalType": "address",
          "name": "caller",
          "type": "address"
        }
      ],
      "name": "RequestQueued",
      "type": "event"
    },
    {
      "anonymous": false,
      "inputs": [
        {
          "indexed": true,
          "internalType": "bytes32",
          "name": "id",
          "type": "bytes32"
        }
      ],
      "name": "RequestSent",
      "type": "event"
    },
    {
      "anonymous": false,
      "inputs": [
        {
          "indexed": true,
          "internalType": "uint256",
          "name": "vrfRequestId",
          "type": "uint256"
        },
        {
          "indexed": false,
          "internalType": "uint256",
          "name": "randomWord",
          "type": "uint256"
        }
      ],
      "name": "SkippedRequest",
      "type": "event"
    },
    {
      "inputs": [],
      "name": "acceptOwnership",
      "outputs": [],
      "stateMutability": "nonpayable",
      "type": "function"
    },
    {
      "inputs": [],
      "name": "donId",
      "outputs": [
        {
          "internalType": "bytes32",
          "name": "",
          "type": "bytes32"
        }
      ],
      "stateMutability": "view",
      "type": "function"
    },
    {
      "inputs": [],
      "name": "execute",
      "outputs": [],
      "stateMutability": "nonpayable",
      "type": "function"
    },
    {
      "inputs": [],
      "name": "functionsGasLimit",
      "outputs": [
        {
          "internalType": "uint32",
          "name": "",
          "type": "uint32"
        }
      ],
      "stateMutability": "view",
      "type": "function"
    },
    {
      "inputs": [],
      "name": "functionsSubId",
      "outputs": [
        {
          "internalType": "uint64",
          "name": "",
          "type": "uint64"
        }
      ],
      "stateMutability": "view",
      "type": "function"
    },
    {
      "inputs": [
        {
          "internalType": "bytes32",
          "name": "requestId",
          "type": "bytes32"
        },
        {
          "internalType": "bytes",
          "name": "response",
          "type": "bytes"
        },
        {
          "internalType": "bytes",
          "name": "err",
          "type": "bytes"
        }
      ],
      "name": "handleOracleFulfillment",
      "outputs": [],
      "stateMutability": "nonpayable",
      "type": "function"
    },
    {
      "inputs": [],
      "name": "keyHash",
      "outputs": [
        {
          "internalType": "bytes32",
          "name": "",
          "type": "bytes32"
        }
      ],
      "stateMutability": "view",
      "type": "function"
    },
    {
      "inputs": [],
      "name": "lastFunctionsRequestId",
      "outputs": [
        {
          "internalType": "bytes32",
          "name": "",
          "type": "bytes32"
        }
      ],
      "stateMutability": "view",
      "type": "function"
    },
    {
      "inputs": [],
      "name": "lastResponse",
      "outputs": [
        {
          "internalType": "string",
          "name": "",
          "type": "string"
        }
      ],
      "stateMutability": "view",
      "type": "function"
    },
    {
      "inputs": [],
      "name": "owner",
      "outputs": [
        {
          "internalType": "address",
          "name": "",
          "type": "address"
        }
      ],
      "stateMutability": "view",
      "type": "function"
    },
    {
      "inputs": [
        {
          "internalType": "uint256",
          "name": "",
          "type": "uint256"
        }
      ],
      "name": "pending",
      "outputs": [
        {
          "internalType": "address",
          "name": "caller",
          "type": "address"
        },
        {
          "internalType": "uint256",
          "name": "timestamp",
          "type": "uint256"
        }
      ],
      "stateMutability": "view",
      "type": "function"
    },
    {
      "inputs": [
        {
          "internalType": "uint256",
          "name": "requestId",
          "type": "uint256"
        },
        {
          "internalType": "uint256[]",
          "name": "randomWords",
          "type": "uint256[]"
        }
      ],
      "name": "rawFulfillRandomWords",
      "outputs": [],
      "stateMutability": "nonpayable",
      "type": "function"
    },
    {
      "inputs": [],
      "name": "requestConfirmations",
      "outputs": [
        {
          "internalType": "uint16",
          "name": "",
          "type": "uint16"
        }
      ],
      "stateMutability": "view",
      "type": "function"
    },
    {
      "inputs": [],
      "name": "s_vrfCoordinator",
      "outputs": [
        {
          "internalType": "contract IVRFCoordinatorV2Plus",
          "name": "",
          "type": "address"
        }
      ],
      "stateMutability": "view",
      "type": "function"
    },
    {
      "inputs": [],
      "name": "secretsSlot",
      "outputs": [
        {
          "internalType": "uint8",
          "name": "",
          "type": "uint8"
        }
      ],
      "stateMutability": "view",
      "type": "function"
    },
    {
      "inputs": [],
      "name": "secretsVersion",
      "outputs": [
        {
          "internalType": "uint64",
          "name": "",
          "type": "uint64"
        }
      ],
      "stateMutability": "view",
      "type": "function"
    },
    {
      "inputs": [
        {
          "internalType": "address",
          "name": "_vrfCoordinator",
          "type": "address"
        }
      ],
      "name": "setCoordinator",
      "outputs": [],
      "stateMutability": "nonpayable",
      "type": "function"
    },
    {
      "inputs": [
        {
          "internalType": "address",
          "name": "to",
          "type": "address"
        }
      ],
      "name": "transferOwnership",
      "outputs": [],
      "stateMutability": "nonpayable",
      "type": "function"
    },
    {
      "inputs": [
        {
          "internalType": "uint8",
          "name": "newSlot",
          "type": "uint8"
        }
      ],
      "name": "updateSecretsSlot",
      "outputs": [],
      "stateMutability": "nonpayable",
      "type": "function"
    },
    {
      "inputs": [
        {
          "internalType": "uint64",
          "name": "newVersion",
          "type": "uint64"
        }
      ],
      "name": "updateSecretsVersion",
      "outputs": [],
      "stateMutability": "nonpayable",
      "type": "function"
    },
    {
      "inputs": [],
      "name": "vrfCallbackGasLimit",
      "outputs": [
        {
          "internalType": "uint32",
          "name": "",
          "type": "uint32"
        }
      ],
      "stateMutability": "view",
      "type": "function"
    },
    {
      "inputs": [],
      "name": "vrfSubId",
      "outputs": [
        {
          "internalType": "uint256",
          "name": "",
          "type": "uint256"
        }
      ],
      "stateMutability": "view",
      "type": "function"
    }
  ],
  "bytecode": "0x60a06040526003600760006101000a81548161ffff021916908361ffff16021790555062055730600760026101000a81548163ffffffff021916908363ffffffff16021790555034801561005257600080fd5b5060405161446d38038061446d833981810160405281019061007491906105ee565b84338060008c8073ffffffffffffffffffffffffffffffffffffffff1660808173ffffffffffffffffffffffffffffffffffffffff168152505050600073ffffffffffffffffffffffffffffffffffffffff168273ffffffffffffffffffffffffffffffffffffffff160361011e576040517f08c379a000000000000000000000000000000000000000000000000000000000815260040161011590610715565b60405180910390fd5b816000806101000a81548173ffffffffffffffffffffffffffffffffffffffff021916908373ffffffffffffffffffffffffffffffffffffffff160217905550600073ffffffffffffffffffffffffffffffffffffffff168173ffffffffffffffffffffffffffffffffffffffff16146101a2576101a18161033e60201b60201c565b5b505050600073ffffffffffffffffffffffffffffffffffffffff168173ffffffffffffffffffffffffffffffffffffffff160361020b576040517fd92e233d00000000000000000000000000000000000000000000000000000000815260040160405180910390fd5b80600260006101000a81548173ffffffffffffffffffffffffffffffffffffffff021916908373ffffffffffffffffffffffffffffffffffffffff160217905550508760038190555086600460006101000a81548167ffffffffffffffff021916908367ffffffffffffffff16021790555085600460086101000a81548163ffffffff021916908363ffffffff160217905550846004600c6101000a81548173ffffffffffffffffffffffffffffffffffffffff021916908373ffffffffffffffffffffffffffffffffffffffff160217905550836005819055508260068190555081600760066101000a81548160ff021916908360ff160217905550806007806101000a81548167ffffffffffffffff021916908367ffffffffffffffff1602179055505050505050505050506107a1565b3373ffffffffffffffffffffffffffffffffffffffff168173ffffffffffffffffffffffffffffffffffffffff16036103ac576040517f08c379a00000000000000000000000000000000000000000000000000000000081526004016103a390610781565b60405180910390fd5b80600160006101000a81548173ffffffffffffffffffffffffffffffffffffffff021916908373ffffffffffffffffffffffffffffffffffffffff1602179055508073ffffffffffffffffffffffffffffffffffffffff1660008054906101000a900473ffffffffffffffffffffffffffffffffffffffff1673ffffffffffffffffffffffffffffffffffffffff167fed8889f560326eb138920d842192f0eb3dd22b4f139c87a2c57538e05bae127860405160405180910390a350565b600080fd5b600073ffffffffffffffffffffffffffffffffffffffff82169050919050565b600061049a8261046f565b9050919050565b6104aa8161048f565b81146104b557600080fd5b50565b6000815190506104c7816104a1565b92915050565b6000819050919050565b6104e0816104cd565b81146104eb57600080fd5b50565b6000815190506104fd816104d7565b92915050565b600067ffffffffffffffff82169050919050565b61052081610503565b811461052b57600080fd5b50565b60008151905061053d81610517565b92915050565b600063ffffffff82169050919050565b61055c81610543565b811461056757600080fd5b50565b60008151905061057981610553565b92915050565b6000819050919050565b6105928161057f565b811461059d57600080fd5b50565b6000815190506105af81610589565b92915050565b600060ff82169050919050565b6105cb816105b5565b81146105d657600080fd5b50565b6000815190506105e8816105c2565b92915050565b60008060008060008060008060006101208a8c0312156106115761061061046a565b5b600061061f8c828d016104b8565b99505060206106308c828d016104ee565b98505060406106418c828d0161052e565b97505060606106528c828d0161056a565b96505060806106638c828d016104b8565b95505060a06106748c828d016104ee565b94505060c06106858c828d016105a0565b93505060e06106968c828d016105d9565b9250506101006106a88c828d0161052e565b9150509295985092959850929598565b600082825260208201905092915050565b7f43616e6e6f7420736574206f776e657220746f207a65726f0000000000000000600082015250565b60006106ff6018836106b8565b915061070a826106c9565b602082019050919050565b6000602082019050818103600083015261072e816106f2565b9050919050565b7f43616e6e6f74207472616e7366657220746f2073656c66000000000000000000600082015250565b600061076b6017836106b8565b915061077682610735565b602082019050919050565b6000602082019050818103600083015261079a8161075e565b9050919050565b608051613caa6107c3600039600081816103bc0152611b2e0152613caa6000f3fe608060405234801561001057600080fd5b50600436106101425760003560e01c806366dd6ff9116100b85780638ea981171161007c5780638ea98117146102f75780639eccacf614610313578063af6e623814610331578063af8d73c014610362578063b0fb162f14610380578063f2fde38b1461039e57610142565b806366dd6ff91461027557806375b1d1951461029357806379ba5097146102b15780638da5cb5b146102bb5780638dbe7b9d146102d957610142565b8063326156401161010a57806332615640146101d55780633b7ed734146101f357806346ffc94014610211578063614619541461022f57806361728f391461023957806362747e421461025757610142565b80630ca76175146101475780630d6c0710146101635780631ace0fa11461017f5780631e48d85e1461019d5780631fe543e3146101b9575b600080fd5b610161600480360381019061015c919061260a565b6103ba565b005b61017d600480360381019061017891906126ce565b61047c565b005b61018761049a565b604051610194919061270a565b60405180910390f35b6101b760048036038101906101b29190612765565b6104a0565b005b6101d360048036038101906101ce9190612828565b6104cb565b005b6101dd610591565b6040516101ea9190612897565b60405180910390f35b6101fb610597565b60405161020891906128d1565b60405180910390f35b6102196105ad565b60405161022691906128d1565b60405180910390f35b6102376105c3565b005b6102416107c0565b60405161024e919061270a565b60405180910390f35b61025f6107c6565b60405161026c919061296b565b60405180910390f35b61027d610854565b60405161028a919061299c565b60405180910390f35b61029b61086e565b6040516102a8919061299c565b60405180910390f35b6102b9610886565b005b6102c3610a1b565b6040516102d091906129f8565b60405180910390f35b6102e1610a44565b6040516102ee919061270a565b60405180910390f35b610311600480360381019061030c9190612a3f565b610a4a565b005b61031b610c2b565b6040516103289190612acb565b60405180910390f35b61034b60048036038101906103469190612ae6565b610c51565b604051610359929190612b13565b60405180910390f35b61036a610c95565b6040516103779190612b4b565b60405180910390f35b610388610ca8565b6040516103959190612b83565b60405180910390f35b6103b860048036038101906103b39190612a3f565b610cbc565b005b7f000000000000000000000000000000000000000000000000000000000000000073ffffffffffffffffffffffffffffffffffffffff163373ffffffffffffffffffffffffffffffffffffffff161461043f576040517fc6829f8300000000000000000000000000000000000000000000000000000000815260040160405180910390fd5b61044a838383610cd0565b827f85e1543bf2f84fe80c6badbce3648c8539ad1df4d2b3d822938ca0538be727e660405160405180910390a2505050565b80600760066101000a81548160ff021916908360ff16021790555050565b60095481565b806007806101000a81548167ffffffffffffffff021916908367ffffffffffffffff16021790555050565b600260009054906101000a900473ffffffffffffffffffffffffffffffffffffffff1673ffffffffffffffffffffffffffffffffffffffff163373ffffffffffffffffffffffffffffffffffffffff16146105815733600260009054906101000a900473ffffffffffffffffffffffffffffffffffffffff166040517f1cf993f4000000000000000000000000000000000000000000000000000000008152600401610578929190612b9e565b60405180910390fd5b61058c838383610ce5565b505050565b60065481565b600760029054906101000a900463ffffffff1681565b600460089054906101000a900463ffffffff1681565b60006040518060c0016040528060055481526020016006548152602001600760009054906101000a900461ffff1661ffff168152602001600760029054906101000a900463ffffffff1663ffffffff168152602001600163ffffffff16815260200161063f604051806020016040528060011515815250611006565b815250905060006004600c9054906101000a900473ffffffffffffffffffffffffffffffffffffffff1673ffffffffffffffffffffffffffffffffffffffff16639b1c385e836040518263ffffffff1660e01b81526004016106a19190612ce1565b6020604051808303816000875af11580156106c0573d6000803e3d6000fd5b505050506040513d601f19601f820116820180604052508101906106e49190612d18565b905060405180604001604052803373ffffffffffffffffffffffffffffffffffffffff168152602001428152506008600083815260200190815260200160002060008201518160000160006101000a81548173ffffffffffffffffffffffffffffffffffffffff021916908373ffffffffffffffffffffffffffffffffffffffff160217905550602082015181600101559050503373ffffffffffffffffffffffffffffffffffffffff16817f2870783f5e099b2e9a04a7d03ef690871ac7498d8f68a8d23a64052fffded39460405160405180910390a35050565b60055481565b600a80546107d390612d74565b80601f01602080910402602001604051908101604052809291908181526020018280546107ff90612d74565b801561084c5780601f106108215761010080835404028352916020019161084c565b820191906000526020600020905b81548152906001019060200180831161082f57829003601f168201915b505050505081565b600460009054906101000a900467ffffffffffffffff1681565b60078054906101000a900467ffffffffffffffff1681565b600160009054906101000a900473ffffffffffffffffffffffffffffffffffffffff1673ffffffffffffffffffffffffffffffffffffffff163373ffffffffffffffffffffffffffffffffffffffff1614610916576040517f08c379a000000000000000000000000000000000000000000000000000000000815260040161090d90612df1565b60405180910390fd5b60008060009054906101000a900473ffffffffffffffffffffffffffffffffffffffff169050336000806101000a81548173ffffffffffffffffffffffffffffffffffffffff021916908373ffffffffffffffffffffffffffffffffffffffff1602179055506000600160006101000a81548173ffffffffffffffffffffffffffffffffffffffff021916908373ffffffffffffffffffffffffffffffffffffffff1602179055503373ffffffffffffffffffffffffffffffffffffffff168173ffffffffffffffffffffffffffffffffffffffff167f8be0079c531659141344cd1fd0a4f28419497f9722a3daafe3b4186f6b6457e060405160405180910390a350565b60008060009054906101000a900473ffffffffffffffffffffffffffffffffffffffff16905090565b60035481565b610a52610a1b565b73ffffffffffffffffffffffffffffffffffffffff163373ffffffffffffffffffffffffffffffffffffffff1614158015610adb5750600260009054906101000a900473ffffffffffffffffffffffffffffffffffffffff1673ffffffffffffffffffffffffffffffffffffffff163373ffffffffffffffffffffffffffffffffffffffff1614155b15610b4a5733610ae9610a1b565b600260009054906101000a900473ffffffffffffffffffffffffffffffffffffffff166040517f061db9c1000000000000000000000000000000000000000000000000000000008152600401610b4193929190612e11565b60405180910390fd5b600073ffffffffffffffffffffffffffffffffffffffff168173ffffffffffffffffffffffffffffffffffffffff1603610bb0576040517fd92e233d00000000000000000000000000000000000000000000000000000000815260040160405180910390fd5b80600260006101000a81548173ffffffffffffffffffffffffffffffffffffffff021916908373ffffffffffffffffffffffffffffffffffffffff1602179055507fd1a6a14209a385a964d036e404cb5cfb71f4000cdb03c9366292430787261be681604051610c2091906129f8565b60405180910390a150565b600260009054906101000a900473ffffffffffffffffffffffffffffffffffffffff1681565b60086020528060005260406000206000915090508060000160009054906101000a900473ffffffffffffffffffffffffffffffffffffffff16908060010154905082565b600760069054906101000a900460ff1681565b600760009054906101000a900461ffff1681565b610cc461109e565b610ccd8161112e565b50565b81600a9081610cdf9190612fea565b50505050565b6000600860008581526020019081526020016000206040518060400160405290816000820160009054906101000a900473ffffffffffffffffffffffffffffffffffffffff1673ffffffffffffffffffffffffffffffffffffffff1673ffffffffffffffffffffffffffffffffffffffff168152602001600182015481525050905060086000858152602001908152602001600020600080820160006101000a81549073ffffffffffffffffffffffffffffffffffffffff021916905560018201600090555050600083836000818110610dc257610dc16130bc565b5b9050602002013590506000600582610dda919061311a565b14610e1e57847ff59254795d000152d96e61129a9aad6516f46e3537f805bc7f8f70c38534fef582604051610e0f9190612897565b60405180910390a25050611001565b610e266123ce565b6000604051602001610e379061363c565b6040516020818303038152906040529050610e5b818361125a90919063ffffffff16565b6000600367ffffffffffffffff811115610e7857610e776124df565b5b604051908082528060200260200182016040528015610eab57816020015b6060815260200190600190039081610e965790505b509050610ebb856000015161126b565b81600081518110610ecf57610ece6130bc565b5b6020026020010181905250610ee33061126b565b81600181518110610ef757610ef66130bc565b5b6020026020010181905250610f0f85602001516114f3565b81600281518110610f2357610f226130bc565b5b6020026020010181905250610f4181846115c190919063ffffffff16565b610f79600760069054906101000a900460ff1660078054906101000a900467ffffffffffffffff16856116099092919063ffffffff16565b6000610fb9610f8785611719565b600460009054906101000a900467ffffffffffffffff16600460089054906101000a900463ffffffff16600354611b29565b905080600981905550887ff6f9cf2a89d29b7b0752e980500ade3da318edcc93ca4eea6b0e8ef338946da082604051610ff2919061270a565b60405180910390a25050505050505b505050565b60607f92fd13387c7fe7befbc38d303d6468778fb9731bc4583f17d92989c6fcfdeaaa8260405160240161103a919061370c565b604051602081830303815290604052907bffffffffffffffffffffffffffffffffffffffffffffffffffffffff19166020820180517bffffffffffffffffffffffffffffffffffffffffffffffffffffffff83818316178352505050509050919050565b60008054906101000a900473ffffffffffffffffffffffffffffffffffffffff1673ffffffffffffffffffffffffffffffffffffffff163373ffffffffffffffffffffffffffffffffffffffff161461112c576040517f08c379a000000000000000000000000000000000000000000000000000000000815260040161112390613773565b60405180910390fd5b565b3373ffffffffffffffffffffffffffffffffffffffff168173ffffffffffffffffffffffffffffffffffffffff160361119c576040517f08c379a0000000000000000000000000000000000000000000000000000000008152600401611193906137df565b60405180910390fd5b80600160006101000a81548173ffffffffffffffffffffffffffffffffffffffff021916908373ffffffffffffffffffffffffffffffffffffffff1602179055508073ffffffffffffffffffffffffffffffffffffffff1660008054906101000a900473ffffffffffffffffffffffffffffffffffffffff1673ffffffffffffffffffffffffffffffffffffffff167fed8889f560326eb138920d842192f0eb3dd22b4f139c87a2c57538e05bae127860405160405180910390a350565b6112678260008084611c0c565b5050565b60606000602a67ffffffffffffffff81111561128a576112896124df565b5b6040519080825280601f01601f1916602001820160405280156112bc5781602001600182028036833780820191505090505b5090507f3000000000000000000000000000000000000000000000000000000000000000816000815181106112f4576112f36130bc565b5b60200101907effffffffffffffffffffffffffffffffffffffffffffffffffffffffffffff1916908160001a9053507f780000000000000000000000000000000000000000000000000000000000000081600181518110611358576113576130bc565b5b60200101907effffffffffffffffffffffffffffffffffffffffffffffffffffffffffffff1916908160001a90535060005b60148110156114e95760008160136113a2919061382e565b60086113ae9190613862565b60026113ba91906139d7565b8573ffffffffffffffffffffffffffffffffffffffff166113db9190613a22565b60f81b9050600060108260f81c6113f29190613a53565b905060008160106114039190613a84565b8360f81c6114119190613ac1565b905061141c82611cb6565b85600286600261142c9190613862565b6114369190613af6565b81518110611447576114466130bc565b5b60200101907effffffffffffffffffffffffffffffffffffffffffffffffffffffffffffff1916908160001a90535061147f81611cb6565b85600386600261148f9190613862565b6114999190613af6565b815181106114aa576114a96130bc565b5b60200101907effffffffffffffffffffffffffffffffffffffffffffffffffffffffffffff1916908160001a905350505050808060010191505061138a565b5080915050919050565b60606000600161150284611cf0565b01905060008167ffffffffffffffff811115611521576115206124df565b5b6040519080825280601f01601f1916602001820160405280156115535781602001600182028036833780820191505090505b509050600082602001820190505b6001156115b6578080600190039150507f3031323334353637383961626364656600000000000000000000000000000000600a86061a8153600a85816115aa576115a96130eb565b5b04945060008503611561575b819350505050919050565b60008151036115fc576040517ffe936cb700000000000000000000000000000000000000000000000000000000815260040160405180910390fd5b808260a001819052505050565b6000611616610100611e43565b90506116606040518060400160405280600681526020017f736c6f744944000000000000000000000000000000000000000000000000000081525082611e6a90919063ffffffff16565b6116768360ff1682611e9390919063ffffffff16565b6116be6040518060400160405280600781526020017f76657273696f6e0000000000000000000000000000000000000000000000000081525082611e6a90919063ffffffff16565b6116d18282611e9390919063ffffffff16565b6002846020019060028111156116ea576116e9613b2a565b5b908160028111156116fe576116fd613b2a565b5b81525050806000015160000151846080018190525050505050565b60606000611728610100611e43565b90506117726040518060400160405280600c81526020017f636f64654c6f636174696f6e000000000000000000000000000000000000000081525082611e6a90919063ffffffff16565b61179b8360000151600281111561178c5761178b613b2a565b5b82611ea390919063ffffffff16565b6117e36040518060400160405280600881526020017f6c616e677561676500000000000000000000000000000000000000000000000081525082611e6a90919063ffffffff16565b61180c836040015160008111156117fd576117fc613b2a565b5b82611ea390919063ffffffff16565b6118546040518060400160405280600681526020017f736f75726365000000000000000000000000000000000000000000000000000081525082611e6a90919063ffffffff16565b61186b836060015182611e6a90919063ffffffff16565b60008360a00151511115611921576118c16040518060400160405280600481526020017f617267730000000000000000000000000000000000000000000000000000000081525082611e6a90919063ffffffff16565b6118ca81611ef3565b60005b8360a00151518110156119165761190b8460a0015182815181106118f4576118f36130bc565b5b602002602001015183611e6a90919063ffffffff16565b8060010190506118cd565b5061192081611f1b565b5b60008360800151511115611a62576000600281111561194357611942613b2a565b5b8360200151600281111561195a57611959613b2a565b5b03611991576040517fa80d31f700000000000000000000000000000000000000000000000000000000815260040160405180910390fd5b6119d96040518060400160405280600f81526020017f736563726574734c6f636174696f6e000000000000000000000000000000000081525082611e6a90919063ffffffff16565b611a02836020015160028111156119f3576119f2613b2a565b5b82611ea390919063ffffffff16565b611a4a6040518060400160405280600781526020017f736563726574730000000000000000000000000000000000000000000000000081525082611e6a90919063ffffffff16565b611a61836080015182611f4390919063ffffffff16565b5b60008360c00151511115611b1857611ab86040518060400160405280600981526020017f627974657341726773000000000000000000000000000000000000000000000081525082611e6a90919063ffffffff16565b611ac181611ef3565b60005b8360c0015151811015611b0d57611b028460c001518281518110611aeb57611aea6130bc565b5b602002602001015183611f4390919063ffffffff16565b806001019050611ac4565b50611b1781611f1b565b5b806000015160000151915050919050565b6000807f000000000000000000000000000000000000000000000000000000000000000073ffffffffffffffffffffffffffffffffffffffff1663461d27628688600188886040518663ffffffff1660e01b8152600401611b8e959493929190613ba3565b6020604051808303816000875af1158015611bad573d6000803e3d6000fd5b505050506040513d601f19601f82011682018060405250810190611bd19190613c12565b9050807f1131472297a800fee664d1d89cfa8f7676ff07189ecc53f80bbb5f4969099db860405160405180910390a280915050949350505050565b6000815103611c47576040517f22ce3edd00000000000000000000000000000000000000000000000000000000815260040160405180910390fd5b8284600001906002811115611c5f57611c5e613b2a565b5b90816002811115611c7357611c72613b2a565b5b815250508184604001906000811115611c8f57611c8e613b2a565b5b90816000811115611ca357611ca2613b2a565b5b8152505080846060018190525050505050565b6000600a8260ff1610611cd857605782611cd09190613c3f565b60f81b611ce9565b603082611ce59190613c3f565b60f81b5b9050919050565b600080600090507a184f03e93ff9f4daa797ed6e38ed64bf6a1f0100000000000000008310611d4e577a184f03e93ff9f4daa797ed6e38ed64bf6a1f0100000000000000008381611d4457611d436130eb565b5b0492506040810190505b6d04ee2d6d415b85acef81000000008310611d8b576d04ee2d6d415b85acef81000000008381611d8157611d806130eb565b5b0492506020810190505b662386f26fc100008310611dba57662386f26fc100008381611db057611daf6130eb565b5b0492506010810190505b6305f5e1008310611de3576305f5e1008381611dd957611dd86130eb565b5b0492506008810190505b6127108310611e08576127108381611dfe57611dfd6130eb565b5b0492506004810190505b60648310611e2b5760648381611e2157611e206130eb565b5b0492506002810190505b600a8310611e3a576001810190505b80915050919050565b611e4b612440565b611e59816000015183611f6c565b506000816020018181525050919050565b611e778260038351611fe5565b611e8e81836000015161218e90919063ffffffff16565b505050565b611e9f82600083611fe5565b5050565b611ec560026005600660ff16901b1783600001516121aa90919063ffffffff16565b50611eef8282604051602001611edb9190612897565b604051602081830303815290604052611f43565b5050565b611efe816004612214565b600181602001818151611f119190613af6565b9150818152505050565b611f26816007612214565b600181602001818151611f39919061382e565b9150818152505050565b611f508260028351611fe5565b611f6781836000015161218e90919063ffffffff16565b505050565b611f74612460565b6000602083611f83919061311a565b14611faf57602082611f95919061311a565b6020611fa1919061382e565b82611fac9190613af6565b91505b818360200181815250506040518084526000815282810160200181811015611fd657600080fd5b80604052505082905092915050565b60178167ffffffffffffffff16116120205761201a8160058460ff16901b60ff161784600001516121aa90919063ffffffff16565b50612189565b60ff8167ffffffffffffffff161161207e57612053601860058460ff16901b1784600001516121aa90919063ffffffff16565b506120788167ffffffffffffffff166001856000015161223a9092919063ffffffff16565b50612188565b61ffff8167ffffffffffffffff16116120dd576120b2601960058460ff16901b1784600001516121aa90919063ffffffff16565b506120d78167ffffffffffffffff166002856000015161223a9092919063ffffffff16565b50612187565b63ffffffff8167ffffffffffffffff161161213e57612113601a60058460ff16901b1784600001516121aa90919063ffffffff16565b506121388167ffffffffffffffff166004856000015161223a9092919063ffffffff16565b50612186565b61215f601b60058460ff16901b1784600001516121aa90919063ffffffff16565b506121848167ffffffffffffffff166008856000015161223a9092919063ffffffff16565b505b5b5b5b505050565b612196612460565b6121a2838384516122c7565b905092915050565b6121b2612460565b6000836000015151905060006001826121cb9190613af6565b9050846020015182106121ef576121ee856002836121e99190613862565b6123aa565b5b84516020838201018581538151831115612207578282525b5050849250505092915050565b612235601f60058360ff16901b1783600001516121aa90919063ffffffff16565b505050565b612242612460565b600084600001515190506000818461225a9190613af6565b9050856020015181111561227f5761227e866002836122799190613862565b6123aa565b5b600060018561010061229191906139d7565b61229b919061382e565b9050865182810187831982511617815281518411156122b8578382525b50508693505050509392505050565b6122cf612460565b82518211156122dd57600080fd5b60008460000151519050600083826122f59190613af6565b9050856020015181111561231a57612319866002836123149190613862565b6123aa565b5b60008087518051856020830101935080851115612335578482525b60208901925050505b6020861061237c57805182526020826123579190613af6565b91506020816123669190613af6565b9050602086612375919061382e565b955061233e565b60006001876020036101000a0390508019825116818451168181178552505050879450505050509392505050565b6000826000015190506123bd8383611f6c565b506123c8838261218e565b50505050565b6040518060e00160405280600060028111156123ed576123ec613b2a565b5b81526020016000600281111561240657612405613b2a565b5b815260200160008081111561241e5761241d613b2a565b5b8152602001606081526020016060815260200160608152602001606081525090565b6040518060400160405280612453612460565b8152602001600081525090565b604051806040016040528060608152602001600081525090565b6000604051905090565b600080fd5b600080fd5b6000819050919050565b6124a18161248e565b81146124ac57600080fd5b50565b6000813590506124be81612498565b92915050565b600080fd5b600080fd5b6000601f19601f8301169050919050565b7f4e487b7100000000000000000000000000000000000000000000000000000000600052604160045260246000fd5b612517826124ce565b810181811067ffffffffffffffff82111715612536576125356124df565b5b80604052505050565b600061254961247a565b9050612555828261250e565b919050565b600067ffffffffffffffff821115612575576125746124df565b5b61257e826124ce565b9050602081019050919050565b82818337600083830152505050565b60006125ad6125a88461255a565b61253f565b9050828152602081018484840111156125c9576125c86124c9565b5b6125d484828561258b565b509392505050565b600082601f8301126125f1576125f06124c4565b5b813561260184826020860161259a565b91505092915050565b60008060006060848603121561262357612622612484565b5b6000612631868287016124af565b935050602084013567ffffffffffffffff81111561265257612651612489565b5b61265e868287016125dc565b925050604084013567ffffffffffffffff81111561267f5761267e612489565b5b61268b868287016125dc565b9150509250925092565b600060ff82169050919050565b6126ab81612695565b81146126b657600080fd5b50565b6000813590506126c8816126a2565b92915050565b6000602082840312156126e4576126e3612484565b5b60006126f2848285016126b9565b91505092915050565b6127048161248e565b82525050565b600060208201905061271f60008301846126fb565b92915050565b600067ffffffffffffffff82169050919050565b61274281612725565b811461274d57600080fd5b50565b60008135905061275f81612739565b92915050565b60006020828403121561277b5761277a612484565b5b600061278984828501612750565b91505092915050565b6000819050919050565b6127a581612792565b81146127b057600080fd5b50565b6000813590506127c28161279c565b92915050565b600080fd5b600080fd5b60008083601f8401126127e8576127e76124c4565b5b8235905067ffffffffffffffff811115612805576128046127c8565b5b602083019150836020820283011115612821576128206127cd565b5b9250929050565b60008060006040848603121561284157612840612484565b5b600061284f868287016127b3565b935050602084013567ffffffffffffffff8111156128705761286f612489565b5b61287c868287016127d2565b92509250509250925092565b61289181612792565b82525050565b60006020820190506128ac6000830184612888565b92915050565b600063ffffffff82169050919050565b6128cb816128b2565b82525050565b60006020820190506128e660008301846128c2565b92915050565b600081519050919050565b600082825260208201905092915050565b60005b8381101561292657808201518184015260208101905061290b565b60008484015250505050565b600061293d826128ec565b61294781856128f7565b9350612957818560208601612908565b612960816124ce565b840191505092915050565b600060208201905081810360008301526129858184612932565b905092915050565b61299681612725565b82525050565b60006020820190506129b1600083018461298d565b92915050565b600073ffffffffffffffffffffffffffffffffffffffff82169050919050565b60006129e2826129b7565b9050919050565b6129f2816129d7565b82525050565b6000602082019050612a0d60008301846129e9565b92915050565b612a1c816129d7565b8114612a2757600080fd5b50565b600081359050612a3981612a13565b92915050565b600060208284031215612a5557612a54612484565b5b6000612a6384828501612a2a565b91505092915050565b6000819050919050565b6000612a91612a8c612a87846129b7565b612a6c565b6129b7565b9050919050565b6000612aa382612a76565b9050919050565b6000612ab582612a98565b9050919050565b612ac581612aaa565b82525050565b6000602082019050612ae06000830184612abc565b92915050565b600060208284031215612afc57612afb612484565b5b6000612b0a848285016127b3565b91505092915050565b6000604082019050612b2860008301856129e9565b612b356020830184612888565b9392505050565b612b4581612695565b82525050565b6000602082019050612b606000830184612b3c565b92915050565b600061ffff82169050919050565b612b7d81612b66565b82525050565b6000602082019050612b986000830184612b74565b92915050565b6000604082019050612bb360008301856129e9565b612bc060208301846129e9565b9392505050565b612bd08161248e565b82525050565b612bdf81612792565b82525050565b612bee81612b66565b82525050565b612bfd816128b2565b82525050565b600081519050919050565b600082825260208201905092915050565b6000612c2a82612c03565b612c348185612c0e565b9350612c44818560208601612908565b612c4d816124ce565b840191505092915050565b600060c083016000830151612c706000860182612bc7565b506020830151612c836020860182612bd6565b506040830151612c966040860182612be5565b506060830151612ca96060860182612bf4565b506080830151612cbc6080860182612bf4565b5060a083015184820360a0860152612cd48282612c1f565b9150508091505092915050565b60006020820190508181036000830152612cfb8184612c58565b905092915050565b600081519050612d128161279c565b92915050565b600060208284031215612d2e57612d2d612484565b5b6000612d3c84828501612d03565b91505092915050565b7f4e487b7100000000000000000000000000000000000000000000000000000000600052602260045260246000fd5b60006002820490506001821680612d8c57607f821691505b602082108103612d9f57612d9e612d45565b5b50919050565b7f4d7573742062652070726f706f736564206f776e657200000000000000000000600082015250565b6000612ddb6016836128f7565b9150612de682612da5565b602082019050919050565b60006020820190508181036000830152612e0a81612dce565b9050919050565b6000606082019050612e2660008301866129e9565b612e3360208301856129e9565b612e4060408301846129e9565b949350505050565b60008190508160005260206000209050919050565b60006020601f8301049050919050565b600082821b905092915050565b600060088302612eaa7fffffffffffffffffffffffffffffffffffffffffffffffffffffffffffffffff82612e6d565b612eb48683612e6d565b95508019841693508086168417925050509392505050565b6000612ee7612ee2612edd84612792565b612a6c565b612792565b9050919050565b6000819050919050565b612f0183612ecc565b612f15612f0d82612eee565b848454612e7a565b825550505050565b600090565b612f2a612f1d565b612f35818484612ef8565b505050565b5b81811015612f5957612f4e600082612f22565b600181019050612f3b565b5050565b601f821115612f9e57612f6f81612e48565b612f7884612e5d565b81016020851015612f87578190505b612f9b612f9385612e5d565b830182612f3a565b50505b505050565b600082821c905092915050565b6000612fc160001984600802612fa3565b1980831691505092915050565b6000612fda8383612fb0565b9150826002028217905092915050565b612ff3826128ec565b67ffffffffffffffff81111561300c5761300b6124df565b5b6130168254612d74565b613021828285612f5d565b600060209050601f8311600181146130545760008415613042578287015190505b61304c8582612fce565b8655506130b4565b601f19841661306286612e48565b60005b8281101561308a57848901518255600182019150602085019450602081019050613065565b868310156130a757848901516130a3601f891682612fb0565b8355505b6001600288020188555050505b505050505050565b7f4e487b7100000000000000000000000000000000000000000000000000000000600052603260045260246000fd5b7f4e487b7100000000000000000000000000000000000000000000000000000000600052601260045260246000fd5b600061312582612792565b915061313083612792565b9250826131405761313f6130eb565b5b828206905092915050565b600081905092915050565b7f636f6e737420726573706f6e7365203d2061776169742046756e6374696f6e7360008201527f2e6d616b654874747052657175657374287b0000000000000000000000000000602082015250565b60006131b260328361314b565b91506131bd82613156565b603282019050919050565b7f202075726c3a202768747470733a2f2f746f6d61732d776562332d6170692d6560008201527f78356b736d636465712d75632e612e72756e2e6170702f746f6d61732f65736360208201527f616c6174652d746f2d68756d616e2d6c6177796572272c000000000000000000604082015250565b600061324a60578361314b565b9150613255826131c8565b605782019050919050565b7f20206d6574686f643a2027504f5354272c000000000000000000000000000000600082015250565b600061329660118361314b565b91506132a182613260565b601182019050919050565b7f202074696d656f75743a2031303030302c000000000000000000000000000000600082015250565b60006132e260118361314b565b91506132ed826132ac565b601182019050919050565b7f2020686561646572733a207b2027636861696e6c696e6b2d66756e6374696f6e60008201527f732d736563726574273a20736563726574732e636861696e6c696e6b5365637260208201527f6574207d2c000000000000000000000000000000000000000000000000000000604082015250565b600061337a60458361314b565b9150613385826132f8565b604582019050919050565b7f2020646174613a207b0000000000000000000000000000000000000000000000600082015250565b60006133c660098361314b565b91506133d182613390565b600982019050919050565b7f202020206361736549643a20617267735b305d2c000000000000000000000000600082015250565b600061341260148361314b565b915061341d826133dc565b601482019050919050565b7f20202020636f6e7472616374416464726573733a20617267735b315d2c000000600082015250565b600061345e601d8361314b565b915061346982613428565b601d82019050919050565b7f2020202074696d657374616d703a20617267735b325d2c000000000000000000600082015250565b60006134aa60178361314b565b91506134b582613474565b601782019050919050565b7f20207d2c00000000000000000000000000000000000000000000000000000000600082015250565b60006134f660048361314b565b9150613501826134c0565b600482019050919050565b7f7d293b0000000000000000000000000000000000000000000000000000000000600082015250565b600061354260038361314b565b915061354d8261350c565b600382019050919050565b7f69662028726573706f6e73652e6572726f7229207b207468726f77204572726f60008201527f72284a534f4e2e737472696e6769667928726573706f6e736529293b207d0000602082015250565b60006135b4603e8361314b565b91506135bf82613558565b603e82019050919050565b7f72657475726e2046756e6374696f6e732e656e636f6465537472696e67284a5360008201527f4f4e2e737472696e6769667928726573706f6e73652e6461746129293b000000602082015250565b6000613626603d8361314b565b9150613631826135ca565b603d82019050919050565b6000613647826131a5565b91506136528261323d565b915061365d82613289565b9150613668826132d5565b91506136738261336d565b915061367e826133b9565b915061368982613405565b915061369482613451565b915061369f8261349d565b91506136aa826134e9565b91506136b582613535565b91506136c0826135a7565b91506136cb82613619565b9150819050919050565b60008115159050919050565b6136ea816136d5565b82525050565b60208201600082015161370660008501826136e1565b50505050565b600060208201905061372160008301846136f0565b92915050565b7f4f6e6c792063616c6c61626c65206279206f776e657200000000000000000000600082015250565b600061375d6016836128f7565b915061376882613727565b602082019050919050565b6000602082019050818103600083015261378c81613750565b9050919050565b7f43616e6e6f74207472616e7366657220746f2073656c66000000000000000000600082015250565b60006137c96017836128f7565b91506137d482613793565b602082019050919050565b600060208201905081810360008301526137f8816137bc565b9050919050565b7f4e487b7100000000000000000000000000000000000000000000000000000000600052601160045260246000fd5b600061383982612792565b915061384483612792565b925082820390508181111561385c5761385b6137ff565b5b92915050565b600061386d82612792565b915061387883612792565b925082820261388681612792565b9150828204841483151761389d5761389c6137ff565b5b5092915050565b60008160011c9050919050565b6000808291508390505b60018511156138fb578086048111156138d7576138d66137ff565b5b60018516156138e65780820291505b80810290506138f4856138a4565b94506138bb565b94509492505050565b60008261391457600190506139d0565b8161392257600090506139d0565b8160018114613938576002811461394257613971565b60019150506139d0565b60ff841115613954576139536137ff565b5b8360020a91508482111561396b5761396a6137ff565b5b506139d0565b5060208310610133831016604e8410600b84101617156139a65782820a9050838111156139a1576139a06137ff565b5b6139d0565b6139b384848460016138b1565b925090508184048111156139ca576139c96137ff565b5b81810290505b9392505050565b60006139e282612792565b91506139ed83612792565b9250613a1a7fffffffffffffffffffffffffffffffffffffffffffffffffffffffffffffffff8484613904565b905092915050565b6000613a2d82612792565b9150613a3883612792565b925082613a4857613a476130eb565b5b828204905092915050565b6000613a5e82612695565b9150613a6983612695565b925082613a7957613a786130eb565b5b828204905092915050565b6000613a8f82612695565b9150613a9a83612695565b9250828202613aa881612695565b9150808214613aba57613ab96137ff565b5b5092915050565b6000613acc82612695565b9150613ad783612695565b9250828203905060ff811115613af057613aef6137ff565b5b92915050565b6000613b0182612792565b9150613b0c83612792565b9250828201905080821115613b2457613b236137ff565b5b92915050565b7f4e487b7100000000000000000000000000000000000000000000000000000000600052602160045260246000fd5b600082825260208201905092915050565b6000613b7582612c03565b613b7f8185613b59565b9350613b8f818560208601612908565b613b98816124ce565b840191505092915050565b600060a082019050613bb8600083018861298d565b8181036020830152613bca8187613b6a565b9050613bd96040830186612b74565b613be660608301856128c2565b613bf360808301846126fb565b9695505050505050565b600081519050613c0c81612498565b92915050565b600060208284031215613c2857613c27612484565b5b6000613c3684828501613bfd565b91505092915050565b6000613c4a82612695565b9150613c5583612695565b9250828201905060ff811115613c6e57613c6d6137ff565b5b9291505056fea26469706673582212200cd7776da427dd086e8e290b2750dbd52f9e61c4e05692368f1ad21f6bed904964736f6c634300081c0033",
  "linkReferences": {},
  "deployedLinkReferences": {}
}