{
  "_format": "hh-sol-artifact-1",
  "contractName": "TomasSubscription",
  "sourceName": "contracts/TomasSubscription.sol",
  "abi": [
    {
      "inputs": [
        {
          "internalType": "address",
          "name": "_priceFeed",
          "type": "address"
        },
        {
          "internalType": "address",
          "name": "_wethToken",
          "type": "address"
        }
      ],
      "stateMutability": "nonpayable",
      "type": "constructor"
    },
    {
      "inputs": [
        {
          "internalType": "address",
          "name": "owner",
          "type": "address"
        }
      ],
      "name": "OwnableInvalidOwner",
      "type": "error"
    },
    {
      "inputs": [
        {
          "internalType": "address",
          "name": "account",
          "type": "address"
        }
      ],
      "name": "OwnableUnauthorizedAccount",
      "type": "error"
    },
    {
      "inputs": [],
      "name": "ReentrancyGuardReentrantCall",
      "type": "error"
    },
    {
      "anonymous": false,
      "inputs": [
        {
          "indexed": true,
          "internalType": "address",
          "name": "user",
          "type": "address"
        },
        {
          "indexed": false,
          "internalType": "string",
          "name": "reason",
          "type": "string"
        }
      ],
      "name": "AutomaticPaymentFailed",
      "type": "event"
    },
    {
      "anonymous": false,
      "inputs": [
        {
          "indexed": false,
          "internalType": "uint256",
          "name": "timestamp",
          "type": "uint256"
        },
        {
          "indexed": false,
          "internalType": "uint256",
          "name": "usersProcessed",
          "type": "uint256"
        }
      ],
      "name": "AutomationTriggered",
      "type": "event"
    },
    {
      "anonymous": false,
      "inputs": [
        {
          "indexed": true,
          "internalType": "address",
          "name": "previousOwner",
          "type": "address"
        },
        {
          "indexed": true,
          "internalType": "address",
          "name": "newOwner",
          "type": "address"
        }
      ],
      "name": "OwnershipTransferred",
      "type": "event"
    },
    {
      "anonymous": false,
      "inputs": [
        {
          "indexed": true,
          "internalType": "address",
          "name": "user",
          "type": "address"
        },
        {
          "indexed": false,
          "internalType": "uint256",
          "name": "timestamp",
          "type": "uint256"
        }
      ],
      "name": "SubscriptionCanceled",
      "type": "event"
    },
    {
      "anonymous": false,
      "inputs": [
        {
          "indexed": true,
          "internalType": "address",
          "name": "user",
          "type": "address"
        },
        {
          "indexed": false,
          "internalType": "uint256",
          "name": "timestamp",
          "type": "uint256"
        }
      ],
      "name": "SubscriptionExpired",
      "type": "event"
    },
    {
      "anonymous": false,
      "inputs": [
        {
          "indexed": true,
          "internalType": "address",
          "name": "user",
          "type": "address"
        },
        {
          "indexed": false,
          "internalType": "uint256",
          "name": "amountWETH",
          "type": "uint256"
        },
        {
          "indexed": false,
          "internalType": "uint256",
          "name": "nextBilling",
          "type": "uint256"
        }
      ],
      "name": "SubscriptionPaid",
      "type": "event"
    },
    {
      "anonymous": false,
      "inputs": [
        {
          "indexed": true,
          "internalType": "address",
          "name": "user",
          "type": "address"
        }
      ],
      "name": "UserAddedToTracking",
      "type": "event"
    },
    {
      "anonymous": false,
      "inputs": [
        {
          "indexed": true,
          "internalType": "address",
          "name": "user",
          "type": "address"
        }
      ],
      "name": "UserRemovedFromTracking",
      "type": "event"
    },
    {
      "anonymous": false,
      "inputs": [
        {
          "indexed": true,
          "internalType": "address",
          "name": "user",
          "type": "address"
        },
        {
          "indexed": false,
          "internalType": "bool",
          "name": "isWhitelisted",
          "type": "bool"
        }
      ],
      "name": "UserWhitelisted",
      "type": "event"
    },
    {
      "anonymous": false,
      "inputs": [
        {
          "indexed": true,
          "internalType": "address",
          "name": "user",
          "type": "address"
        },
        {
          "indexed": false,
          "internalType": "bool",
          "name": "approved",
          "type": "bool"
        }
      ],
      "name": "WETHApprovalUpdated",
      "type": "event"
    },
    {
      "inputs": [],
      "name": "AUTOMATION_INTERVAL",
      "outputs": [
        {
          "internalType": "uint256",
          "name": "",
          "type": "uint256"
        }
      ],
      "stateMutability": "view",
      "type": "function"
    },
    {
      "inputs": [],
      "name": "BILLING_CYCLE",
      "outputs": [
        {
          "internalType": "uint256",
          "name": "",
          "type": "uint256"
        }
      ],
      "stateMutability": "view",
      "type": "function"
    },
    {
      "inputs": [],
      "name": "GRACE_PERIOD",
      "outputs": [
        {
          "internalType": "uint256",
          "name": "",
          "type": "uint256"
        }
      ],
      "stateMutability": "view",
      "type": "function"
    },
    {
      "inputs": [],
      "name": "MAX_PRICE_USD",
      "outputs": [
        {
          "internalType": "uint256",
          "name": "",
          "type": "uint256"
        }
      ],
      "stateMutability": "view",
      "type": "function"
    },
    {
      "inputs": [],
      "name": "MAX_USERS_PER_UPKEEP",
      "outputs": [
        {
          "internalType": "uint256",
          "name": "",
          "type": "uint256"
        }
      ],
      "stateMutability": "view",
      "type": "function"
    },
    {
      "inputs": [],
      "name": "PRICE_STALENESS_THRESHOLD",
      "outputs": [
        {
          "internalType": "uint256",
          "name": "",
          "type": "uint256"
        }
      ],
      "stateMutability": "view",
      "type": "function"
    },
    {
      "inputs": [],
      "name": "SUBSCRIPTION_COST_USD",
      "outputs": [
        {
          "internalType": "uint256",
          "name": "",
          "type": "uint256"
        }
      ],
      "stateMutability": "view",
      "type": "function"
    },
    {
      "inputs": [
        {
          "internalType": "uint256",
          "name": "",
          "type": "uint256"
        }
      ],
      "name": "activeUsers",
      "outputs": [
        {
          "internalType": "address",
          "name": "",
          "type": "address"
        }
      ],
      "stateMutability": "view",
      "type": "function"
    },
    {
      "inputs": [
        {
          "internalType": "address[]",
          "name": "users",
          "type": "address[]"
        },
        {
          "internalType": "bool",
          "name": "isWhitelisted",
          "type": "bool"
        }
      ],
      "name": "batchSetWhitelist",
      "outputs": [],
      "stateMutability": "nonpayable",
      "type": "function"
    },
    {
      "inputs": [],
      "name": "cancelSubscription",
      "outputs": [],
      "stateMutability": "nonpayable",
      "type": "function"
    },
    {
      "inputs": [
        {
          "internalType": "bytes",
          "name": "",
          "type": "bytes"
        }
      ],
      "name": "checkUpkeep",
      "outputs": [
        {
          "internalType": "bool",
          "name": "upkeepNeeded",
          "type": "bool"
        },
        {
          "internalType": "bytes",
          "name": "performData",
          "type": "bytes"
        }
      ],
      "stateMutability": "view",
      "type": "function"
    },
    {
      "inputs": [],
      "name": "disableWETHAutoPay",
      "outputs": [],
      "stateMutability": "nonpayable",
      "type": "function"
    },
    {
      "inputs": [],
      "name": "enableWETHAutoPay",
      "outputs": [],
      "stateMutability": "nonpayable",
      "type": "function"
    },
    {
      "inputs": [
        {
          "internalType": "uint256",
          "name": "index",
          "type": "uint256"
        }
      ],
      "name": "getActiveUserAtIndex",
      "outputs": [
        {
          "internalType": "address",
          "name": "",
          "type": "address"
        }
      ],
      "stateMutability": "view",
      "type": "function"
    },
    {
      "inputs": [],
      "name": "getLatestPrice",
      "outputs": [
        {
          "internalType": "uint256",
          "name": "",
          "type": "uint256"
        }
      ],
      "stateMutability": "view",
      "type": "function"
    },
    {
      "inputs": [],
      "name": "getPricingInfo",
      "outputs": [
        {
          "internalType": "uint256",
          "name": "usdPrice",
          "type": "uint256"
        },
        {
          "internalType": "uint256",
          "name": "wethAmount",
          "type": "uint256"
        },
        {
          "internalType": "uint256",
          "name": "ethPrice",
          "type": "uint256"
        }
      ],
      "stateMutability": "view",
      "type": "function"
    },
    {
      "inputs": [],
      "name": "getRequiredWETHAmount",
      "outputs": [
        {
          "internalType": "uint256",
          "name": "",
          "type": "uint256"
        }
      ],
      "stateMutability": "view",
      "type": "function"
    },
    {
      "inputs": [],
      "name": "getServiceDetails",
      "outputs": [
        {
          "internalType": "uint256",
          "name": "usdPrice",
          "type": "uint256"
        },
        {
          "internalType": "uint256",
          "name": "wethAmount",
          "type": "uint256"
        },
        {
          "internalType": "uint256",
          "name": "ethPrice",
          "type": "uint256"
        },
        {
          "internalType": "uint256",
          "name": "billingCycle",
          "type": "uint256"
        },
        {
          "internalType": "uint256",
          "name": "gracePeriod",
          "type": "uint256"
        },
        {
          "internalType": "uint256",
          "name": "maxUsers",
          "type": "uint256"
        },
        {
          "internalType": "uint256",
          "name": "currentUsers",
          "type": "uint256"
        },
        {
          "internalType": "address",
          "name": "contractAddress",
          "type": "address"
        }
      ],
      "stateMutability": "view",
      "type": "function"
    },
    {
      "inputs": [
        {
          "internalType": "address",
          "name": "user",
          "type": "address"
        }
      ],
      "name": "getSubscriptionDetails",
      "outputs": [
        {
          "internalType": "uint256",
          "name": "lastPayment",
          "type": "uint256"
        },
        {
          "internalType": "uint256",
          "name": "nextBilling",
          "type": "uint256"
        },
        {
          "internalType": "bool",
          "name": "isActive",
          "type": "bool"
        },
        {
          "internalType": "uint256",
          "name": "lastAmount",
          "type": "uint256"
        },
        {
          "internalType": "bool",
          "name": "isWhitelisted",
          "type": "bool"
        },
        {
          "internalType": "bool",
          "name": "paymentDue",
          "type": "bool"
        },
        {
          "internalType": "bool",
          "name": "hasExpired",
          "type": "bool"
        },
        {
          "internalType": "bool",
          "name": "hasWETHApproval",
          "type": "bool"
        }
      ],
      "stateMutability": "view",
      "type": "function"
    },
    {
      "inputs": [],
      "name": "getTotalActiveUsers",
      "outputs": [
        {
          "internalType": "uint256",
          "name": "",
          "type": "uint256"
        }
      ],
      "stateMutability": "view",
      "type": "function"
    },
    {
      "inputs": [
        {
          "internalType": "address",
          "name": "user",
          "type": "address"
        }
      ],
      "name": "hasActiveSubscription",
      "outputs": [
        {
          "internalType": "bool",
          "name": "",
          "type": "bool"
        }
      ],
      "stateMutability": "view",
      "type": "function"
    },
    {
      "inputs": [
        {
          "internalType": "address",
          "name": "user",
          "type": "address"
        }
      ],
      "name": "isPaymentDue",
      "outputs": [
        {
          "internalType": "bool",
          "name": "",
          "type": "bool"
        }
      ],
      "stateMutability": "view",
      "type": "function"
    },
    {
      "inputs": [
        {
          "internalType": "address",
          "name": "user",
          "type": "address"
        }
      ],
      "name": "isSubscriptionExpired",
      "outputs": [
        {
          "internalType": "bool",
          "name": "",
          "type": "bool"
        }
      ],
      "stateMutability": "view",
      "type": "function"
    },
    {
      "inputs": [
        {
          "internalType": "address",
          "name": "",
          "type": "address"
        }
      ],
      "name": "isUserTracked",
      "outputs": [
        {
          "internalType": "bool",
          "name": "",
          "type": "bool"
        }
      ],
      "stateMutability": "view",
      "type": "function"
    },
    {
      "inputs": [],
      "name": "lastAutomationTime",
      "outputs": [
        {
          "internalType": "uint256",
          "name": "",
          "type": "uint256"
        }
      ],
      "stateMutability": "view",
      "type": "function"
    },
    {
      "inputs": [
        {
          "internalType": "address",
          "name": "user",
          "type": "address"
        }
      ],
      "name": "manuallyProcessPayment",
      "outputs": [],
      "stateMutability": "nonpayable",
      "type": "function"
    },
    {
      "inputs": [],
      "name": "owner",
      "outputs": [
        {
          "internalType": "address",
          "name": "",
          "type": "address"
        }
      ],
      "stateMutability": "view",
      "type": "function"
    },
    {
      "inputs": [],
      "name": "payWithETH",
      "outputs": [],
      "stateMutability": "payable",
      "type": "function"
    },
    {
      "inputs": [
        {
          "internalType": "bytes",
          "name": "",
          "type": "bytes"
        }
      ],
      "name": "performUpkeep",
      "outputs": [],
      "stateMutability": "nonpayable",
      "type": "function"
    },
    {
      "inputs": [],
      "name": "renounceOwnership",
      "outputs": [],
      "stateMutability": "nonpayable",
      "type": "function"
    },
    {
      "inputs": [
        {
          "internalType": "address",
          "name": "user",
          "type": "address"
        },
        {
          "internalType": "bool",
          "name": "isWhitelisted",
          "type": "bool"
        }
      ],
      "name": "setWhitelist",
      "outputs": [],
      "stateMutability": "nonpayable",
      "type": "function"
    },
    {
      "inputs": [],
      "name": "setupWETHSubscription",
      "outputs": [],
      "stateMutability": "nonpayable",
      "type": "function"
    },
    {
      "inputs": [
        {
          "internalType": "address",
          "name": "",
          "type": "address"
        }
      ],
      "name": "subscriptions",
      "outputs": [
        {
          "internalType": "uint256",
          "name": "lastPaymentTimestamp",
          "type": "uint256"
        },
        {
          "internalType": "uint256",
          "name": "nextBillingTimestamp",
          "type": "uint256"
        },
        {
          "internalType": "bool",
          "name": "isActive",
          "type": "bool"
        },
        {
          "internalType": "uint256",
          "name": "lastPaymentAmount",
          "type": "uint256"
        },
        {
          "internalType": "bool",
          "name": "hasWETHApproval",
          "type": "bool"
        }
      ],
      "stateMutability": "view",
      "type": "function"
    },
    {
      "inputs": [
        {
          "internalType": "address",
          "name": "newOwner",
          "type": "address"
        }
      ],
      "name": "transferOwnership",
      "outputs": [],
      "stateMutability": "nonpayable",
      "type": "function"
    },
    {
      "inputs": [
        {
          "internalType": "uint256",
          "name": "newTime",
          "type": "uint256"
        }
      ],
      "name": "updateAutomationTime",
      "outputs": [],
      "stateMutability": "nonpayable",
      "type": "function"
    },
    {
      "inputs": [
        {
          "internalType": "address",
          "name": "",
          "type": "address"
        }
      ],
      "name": "userIndex",
      "outputs": [
        {
          "internalType": "uint256",
          "name": "",
          "type": "uint256"
        }
      ],
      "stateMutability": "view",
      "type": "function"
    },
    {
      "inputs": [],
      "name": "wethToken",
      "outputs": [
        {
          "internalType": "contract IERC20",
          "name": "",
          "type": "address"
        }
      ],
      "stateMutability": "view",
      "type": "function"
    },
    {
      "inputs": [
        {
          "internalType": "address",
          "name": "",
          "type": "address"
        }
      ],
      "name": "whitelist",
      "outputs": [
        {
          "internalType": "bool",
          "name": "",
          "type": "bool"
        }
      ],
      "stateMutability": "view",
      "type": "function"
    },
    {
      "inputs": [],
      "name": "withdrawETH",
      "outputs": [],
      "stateMutability": "nonpayable",
      "type": "function"
    },
    {
      "inputs": [],
      "name": "withdrawWETH",
      "outputs": [],
      "stateMutability": "nonpayable",
      "type": "function"
    },
    {
      "stateMutability": "payable",
      "type": "receive"
    }
  ],
  "bytecode": "0x60a0346101b257601f61265338819003918201601f19168301916001600160401b038311848410176101b75780849260409485528339810103126101b257610052602061004b836101cd565b92016101cd565b331561019c5760008054336001600160a01b0319821681178355604051949290916001600160a01b0316907f8be0079c531659141344cd1fd0a4f28419497f9722a3daafe3b4186f6b6457e09080a3600180556001600160a01b031691821561015a57506001600160a01b031690811561011557600280546001600160a01b0319169190911790556080524260085560405161247190816101e28239608051818181610d3b0152818161111c01528181611250015281816115f4015261206e0152f35b60405162461bcd60e51b815260206004820152601460248201527f496e76616c6964205745544820616464726573730000000000000000000000006044820152606490fd5b62461bcd60e51b815260206004820152601a60248201527f496e76616c6964207072696365206665656420616464726573730000000000006044820152606490fd5b631e4fbdf760e01b600052600060045260246000fd5b600080fd5b634e487b7160e01b600052604160045260246000fd5b51906001600160a01b03821682036101b25756fe6080604052600436101561001b575b361561001957600080fd5b005b60003560e01c806309612a981461157b57806313621a21146115605780631ec249a11461152157806324e9edb014611492578063374f6d5d146114565780633afb0551146114335780634585e33b1461127f5780634b57b0be1461123a5780634c02f62e146110ee5780635051a05f146110d2578063507b1e4e146110b4578063511671ee1461109657806353d6fd5914611002578063544af5f214610fe45780635f5028b514610ccf57806367aa682b14610caf5780636c7327a214610a965780636c87d2c214610a325780636e04ff0d1461090b578063715018a6146108b257806376fc0d2414610891578063803ae5181461084f57806388447175146107f65780638886fcc5146107d85780638da5cb5b146107af5780638e15f4731461078c57806397ad7e02146107695780639b19251a1461072a578063a095e8f91461060d578063b0fd8954146105a8578063bebe4a571461057b578063bfb8e2f2146104fd578063bfd97cd6146104dd578063c1a287e2146104bf578063c96679fe14610485578063d474f84f146103aa578063e086e5ec146102f3578063f046395a14610283578063f25b9caa146102665763f2fde38b0361000e5734610261576020366003190112610261576101f16116ef565b6101f96123d0565b6001600160a01b0316801561024b57600080546001600160a01b03198116831782556001600160a01b0316907f8be0079c531659141344cd1fd0a4f28419497f9722a3daafe3b4186f6b6457e09080a3005b631e4fbdf760e01b600052600060045260246000fd5b600080fd5b34610261576000366003190112610261576020604051610e108152f35b34610261576020366003190112610261576001600160a01b036102a46116ef565b16600052600360205260a0604060002080549060018101549060ff60028201541660ff600460038401549301541692604051948552602085015215156040840152606083015215156080820152f35b346102615760003660031901126102615761030c6123d0565b4780156103705760008080809360018060a01b038254165af161032d611a93565b501561033557005b60405162461bcd60e51b8152602060048201526013602482015272115512081d1c985b9cd9995c8819985a5b1959606a1b6044820152606490fd5b60405162461bcd60e51b81526020600482015260126024820152714e6f2045544820746f20776974686472617760701b6044820152606490fd5b34610261576020366003190112610261576101006103c66116ef565b60018060a01b03811690816000526003602052604060002090604051906103ec826117db565b82549384835260018401549384602085015260ff600282015416151591826040860152608060ff60046003850154948560608a015201541695019415158552600052600760205260ff604060002054169161044f61044985611cdc565b946118cc565b945115159560405197885260208801526040870152606086015215156080850152151560a0840152151560c083015260e0820152f35b34610261576020366003190112610261576001600160a01b036104a66116ef565b1660005260056020526020604060002054604051908152f35b346102615760003660031901126102615760206040516203f4808152f35b3461026157600036600319011261026157602060405164e8d4a510008152f35b346102615760203660031901126102615761052f6105196116ef565b6105216123d0565b610529611874565b90612002565b1561053657005b60405162461bcd60e51b815260206004820152601960248201527f5061796d656e742070726f63657373696e67206661696c6564000000000000006044820152606490fd5b3461026157602036600319011261026157602061059e6105996116ef565b611d8c565b6040519015158152f35b34610261576000366003190112610261576101006105c4611aea565b6105cc611874565b9060045490604051926402540be40084526020840152604083015262278d0060608301526203f4806080830152601460a083015260c08201523060e0820152f35b346102615760403660031901126102615760043567ffffffffffffffff8111610261573660238201121561026157806004013567ffffffffffffffff8111610261576024820191602436918360051b0101116102615761066b611756565b6106736123d0565b8015159060005b83811061068357005b6001906001600160a01b036106a161069c83888a611d68565b611d78565b166000526007602052826106c58160406000209060ff801983541691151516179055565b61070f575b818060a01b036106de61069c83888a611d68565b167f995d2434d36c9bceaab42c56efe51e8ffe41fd11cabefd9e2cb83700d8b2035e6020604051878152a20161067a565b61072561072061069c83888a611d68565b611eec565b6106ca565b34610261576020366003190112610261576001600160a01b0361074b6116ef565b166000526007602052602060ff604060002054166040519015158152f35b3461026157602036600319011261026157602061059e6107876116ef565b611cdc565b346102615760003660031901126102615760206107a7611aea565b604051908152f35b34610261576000366003190112610261576000546040516001600160a01b039091168152602090f35b34610261576000366003190112610261576020600454604051908152f35b3461026157600036600319011261026157336000526003602052600460406000200160ff198154169055604051600081527fb347c6bf445109e788a01515e0dba872723ddf737844d1e8bffb97c1fc2f3c2260203392a2005b346102615760203660031901126102615760043560045481101561026157610878602091611765565b905460405160039290921b1c6001600160a01b03168152f35b34610261576020366003190112610261576108aa6123d0565b600435600855005b34610261576000366003190112610261576108cb6123d0565b600080546001600160a01b0319811682556001600160a01b03167f8be0079c531659141344cd1fd0a4f28419497f9722a3daafe3b4186f6b6457e08280a3005b346102615761091936611705565b50506201518061092b6008544261196a565b101560006004549060005b82811080610a28575b15610a205761094d81611765565b905460039190911b1c6001600160a01b031661096881611cdc565b9081610a04575b506109825761097d9061198f565b610936565b50505060015b816109fc575b5060405160209161099f838361180d565b60008252604051928391151582526040818301528251908160408401526000935b8285106109e3575050606092506000838284010152601f80199101168101030190f35b84810182015186860160600152938101938593506109c0565b90508161098e565b9050600052600360205260ff600460406000200154168561096f565b509050610988565b506014811061093f565b3461026157602036600319011261026157600435600454811015610a5b57610878602091611765565b60405162461bcd60e51b8152602060048201526013602482015272496e646578206f7574206f6620626f756e647360681b6044820152606490fd5b600036600319011261026157610aaa6123f9565b336000526007602052610ac560ff6040600020541615611a0d565b33600052600360205260ff6002604060002001541615610c9c575b610ae8611874565b803410610c6057600090803411610c4f575b5062278d004201804211610c3957610b96610b15833461196a565b600460405191610b24836117db565b4283526020830190858252610b7a604085016001815260608601928352608086019360008552336000526003602052604060002096518755516001870155511515600286019060ff801983541691151516179055565b51600384015551151591019060ff801983541691151516179055565b610b9f33611e1a565b610ba9823461196a565b9060405191825260208201527f6cd9d6bebf8cc2076dd424f83deb0559d8774d1c44178b4f676f9d50709fb1be60403392a280610be7575b60018055005b600080808093335af1610bf8611a93565b5015610c045780610be1565b60405162461bcd60e51b815260206004820152600d60248201526c1499599d5b990819985a5b1959609a1b6044820152606490fd5b634e487b7160e01b600052601160045260246000fd5b610c5a91503461196a565b81610afa565b60405162461bcd60e51b8152602060048201526014602482015273125b9cdd59999a58da595b9d081c185e5b595b9d60621b6044820152606490fd5b610caa601460045410611a4f565b610ae0565b346102615760003660031901126102615760206040516402540be4008152f35b3461026157600036600319011261026157610ce86123f9565b336000526007602052610d0360ff6040600020541615611a0d565b33600052600360205260ff6002604060002001541615610fd1575b610d26611874565b6040516370a0823160e01b81523360048201527f00000000000000000000000000000000000000000000000000000000000000006001600160a01b031690602081602481855afa8015610f19578391600091610f9c575b5010610f5b57604051636eb1769f60e11b8152336004820152306024820152602081604481855afa8015610f19578390600090610f25575b610dc19250101561182f565b6040516323b872dd60e01b81523360048201523060248201526044810183905290602090829060649082906000905af18015610f1957610e0991600091610eea575b506119ca565b62278d004201804211610c3957610e7d604051610e25816117db565b4281526004602082018481526040830160018152610b7a6060850191888352608086019360018552336000526003602052604060002096518755516001870155511515600286019060ff801983541691151516179055565b610e8633611e1a565b60405191825260208201527f6cd9d6bebf8cc2076dd424f83deb0559d8774d1c44178b4f676f9d50709fb1be60403392a2604051600181527fb347c6bf445109e788a01515e0dba872723ddf737844d1e8bffb97c1fc2f3c2260203392a260018055005b610f0c915060203d602011610f12575b610f04818361180d565b8101906119b2565b83610e03565b503d610efa565b6040513d6000823e3d90fd5b50506020813d602011610f53575b81610f406020938361180d565b810103126102615782610dc19151610db5565b3d9150610f33565b60405162461bcd60e51b8152602060048201526019602482015278496e73756666696369656e7420574554482062616c616e636560381b6044820152606490fd5b9150506020813d602011610fc9575b81610fb86020938361180d565b810103126102615782905184610d7d565b3d9150610fab565b610fdf601460045410611a4f565b610d1e565b3461026157600036600319011261026157602060405162278d008152f35b346102615760403660031901126102615761101b6116ef565b7f995d2434d36c9bceaab42c56efe51e8ffe41fd11cabefd9e2cb83700d8b2035e6020611046611756565b61104e6123d0565b6001600160a01b03841660008181526007845260409020805460ff191660ff841515161790559381611087575b506040519015158152a2005b61109090611eec565b8461107b565b34610261576000366003190112610261576020600854604051908152f35b34610261576000366003190112610261576020604051620151808152f35b3461026157600036600319011261026157602060405160148152f35b34610261576000366003190112610261576111076123d0565b6040516370a0823160e01b81523060048201527f00000000000000000000000000000000000000000000000000000000000000006001600160a01b031690602081602481855afa908115610f1957600091611205575b5080156111ca57602090604460018060a01b03600054166000604051958694859363a9059cbb60e01b8552600485015260248401525af18015610f1957610019916000916111ab57506119ca565b6111c4915060203d602011610f1257610f04818361180d565b82610e03565b60405162461bcd60e51b81526020600482015260136024820152724e6f205745544820746f20776974686472617760681b6044820152606490fd5b906020823d602011611232575b8161121f6020938361180d565b8101031261122f5750518261115d565b80fd5b3d9150611212565b34610261576000366003190112610261576040517f00000000000000000000000000000000000000000000000000000000000000006001600160a01b03168152602090f35b346102615761128d36611705565b50506201518061129f6008544261196a565b1061140257426008556112b0611874565b6004546000916112bf82611977565b906112cd604051928361180d565b828252601f196112dc84611977565b013660208401378390845b848110806113f8575b1561136c576112fe81611765565b905460039190911b1c6001600160a01b031661131981611cdc565b80611353575b611333575b5061132e9061198f565b6112e7565b8361134c9161134661132e94968861199e565b5261198f565b9290611324565b50808752600360205260ff60046040892001541661131f565b508492835b8381106113ab575b7f37aeb7a78769e88660e2546f8ac9047631d3969faaa2dce0188f6a220ac99c176040868151904282526020820152a1005b620186a05a106113f3576113d2836001600160a01b036113cb848661199e565b5116612002565b6113df575b600101611371565b936113eb60019161198f565b9490506113d7565b611379565b50601483106112f0565b60405162461bcd60e51b8152602060048201526009602482015268546f6f206561726c7960b81b6044820152606490fd5b3461026157602036600319011261026157602061059e6114516116ef565b6118cc565b34610261576000366003190112610261576060611471611aea565b611479611874565b90604051916402540be400835260208301526040820152f35b34610261576000366003190112610261573360005260036020526114c060ff60026040600020015416611796565b33600081815260036020526040902060028101805460ff199081169091556004909101805490911690556114f390611eec565b6040514281527f75703d723c382baf9126c0b27310a322412b9e2bbaf52e74afcf50b107a7905f60203392a2005b34610261576020366003190112610261576001600160a01b036115426116ef565b166000526006602052602060ff604060002054166040519015158152f35b346102615760003660031901126102615760206107a7611874565b34610261576000366003190112610261573360005260036020526115a960ff60026040600020015416611796565b33600052600360205260ff600460406000200154166116b8576115ca611874565b604051636eb1769f60e11b8152336004820152306024820152906020826044816001600160a01b037f0000000000000000000000000000000000000000000000000000000000000000165afa8015610f1957600090611684575b6116309250101561182f565b3360005260036020526004604060002001600160ff1982541617905561165533611e1a565b604051600181527fb347c6bf445109e788a01515e0dba872723ddf737844d1e8bffb97c1fc2f3c2260203392a2005b506020823d6020116116b0575b8161169e6020938361180d565b81010312610261576116309151611624565b3d9150611691565b60405162461bcd60e51b815260206004820152600f60248201526e105b1c9958591e48195b98589b1959608a1b6044820152606490fd5b600435906001600160a01b038216820361026157565b9060206003198301126102615760043567ffffffffffffffff811161026157826023820112156102615780600401359267ffffffffffffffff84116102615760248483010111610261576024019190565b60243590811515820361026157565b60045481101561178057600460005260206000200190600090565b634e487b7160e01b600052603260045260246000fd5b1561179d57565b60405162461bcd60e51b815260206004820152601660248201527527379030b1ba34bb329039bab139b1b934b83a34b7b760511b6044820152606490fd5b60a0810190811067ffffffffffffffff8211176117f757604052565b634e487b7160e01b600052604160045260246000fd5b90601f8019910116810190811067ffffffffffffffff8211176117f757604052565b1561183657565b60405162461bcd60e51b815260206004820152601660248201527515d1551208185c1c1c9bdd985b081c995c5d5a5c995960521b6044820152606490fd5b61187c611aea565b8015611893576b204fce5e3e250261100000000490565b60405162461bcd60e51b8152602060048201526011602482015270496e76616c69642045544820707269636560781b6044820152606490fd5b6001600160a01b0316600081815260036020526040908190209051916118f1836117db565b815483526001820154926020810193845260ff6002840154161590608060ff600484159687604086015260038101546060860152015416151591015291611951575b5061194b57516203f4808101809111610c3957421190565b50600090565b9050600052600760205260ff6040600020541638611933565b91908203918211610c3957565b67ffffffffffffffff81116117f75760051b60200190565b6000198114610c395760010190565b80518210156117805760209160051b010190565b90816020910312610261575180151581036102615790565b156119d157565b60405162461bcd60e51b815260206004820152601460248201527315d15512081d1c985b9cd9995c8819985a5b195960621b6044820152606490fd5b15611a1457565b60405162461bcd60e51b8152602060048201526013602482015272155cd95c881a5cc81dda1a5d195b1a5cdd1959606a1b6044820152606490fd5b15611a5657565b60405162461bcd60e51b815260206004820152601560248201527413585e1a5b5d5b481d5cd95c9cc81c995858da1959605a1b6044820152606490fd5b3d15611ace573d9067ffffffffffffffff82116117f75760405191611ac2601f8201601f19166020018461180d565b82523d6000602084013e565b606090565b519069ffffffffffffffffffff8216820361026157565b600254604051633fabe5a360e21b81529060a090829060049082906001600160a01b03165afa8015610f19576000809281908293611c85575b506000841315611c4b578015611c1157611b40610e10914261196a565b11611bd75769ffffffffffffffffffff809116911610611b9f5764e8d4a510008111611b695790565b60405162461bcd60e51b815260206004820152600e60248201526d0a0e4d2c6ca40e8dede40d0d2ced60931b6044820152606490fd5b60405162461bcd60e51b815260206004820152601060248201526f5374616c65207072696365206461746160801b6044820152606490fd5b60405162461bcd60e51b8152602060048201526012602482015271141c9a58d94819185d18481d1bdbc81bdb1960721b6044820152606490fd5b60405162461bcd60e51b8152602060048201526012602482015271526f756e64206e6f7420636f6d706c65746560701b6044820152606490fd5b60405162461bcd60e51b8152602060048201526012602482015271125b9d985b1a59081c1c9a58d9481999595960721b6044820152606490fd5b935050905060a0823d60a011611cd4575b81611ca360a0938361180d565b8101031261122f5750611cb581611ad3565b6020820151611ccb608060608501519401611ad3565b91909238611b23565b3d9150611c96565b6001600160a01b031660008181526003602052604090819020905191611d01836117db565b815483526001820154926020810193845260ff6002840154161590608060ff600484159687604086015260038101546060860152015416151591015291611d4f575b5061194b575142101590565b9050600052600760205260ff6040600020541638611d43565b91908110156117805760051b0190565b356001600160a01b03811681036102615790565b6001600160a01b031660008181526007602052604090205460ff16611e14576000526003602052604060002060405190611dc5826117db565b80548252600181015491826020820152608060ff60048160028601541615948515604086015260038101546060860152015416151591015261194b576203f4808101809111610c395742111590565b50600190565b6001600160a01b03811660008181526006602052604090205490919060ff1615611e42575050565b60045490680100000000000000008210156117f757611e6a826001611e8e9401600455611765565b81546001600160a01b0393841660039290921b91821b9390911b1916919091179055565b6004546000198101908111610c39578160005260056020526040600020558060005260066020526040600020600160ff198254161790557fbff36ab077310ef747dcab7b87de0a2be21ee4ad9c8ed40251ffd3ff744235e7600080a2565b6001600160a01b031660008181526006602052604090205460ff16611f0e5750565b8060005260056020526040600020546004546000198101908111610c3957808203611fc5575b50506004548015611faf5760001901611f4c81611765565b81549060018060a01b039060031b1b1916905560045580600052600560205260006040812055806000526006602052604060002060ff1981541690557f8a52807acd44f50b6e4823de532df8cb7e684378369a85e00c4fd8da2bfd32c6600080a2565b634e487b7160e01b600052603160045260246000fd5b611fce90611765565b905460039190911b1c6001600160a01b0316611fed81611e6a84611765565b60005260056020526040600020553880611f34565b6001600160a01b0381166000818152600360205260409020600281018054929493919260ff81161580156123b8575b80156123a8575b61239d57612045836118cc565b61234f57505060ff6004830154161561230e576040516370a0823160e01b8152600481018590527f00000000000000000000000000000000000000000000000000000000000000006001600160a01b031690602081602481855afa8015610f195785916000916122d9575b501061228a57604051636eb1769f60e11b81526001600160a01b0383166004820152306024820152602081604481855afa8015610f19578591600091612255575b5010612206576040516323b872dd60e01b81526001600160a01b0392909216600483015230602483015260448201849052602090829060649082906000905af1908115610f19576000916121e7575b50156121975742815562278d00420191824211610c395782816003847f6cd9d6bebf8cc2076dd424f83deb0559d8774d1c44178b4f676f9d50709fb1be9660016040970155015582519182526020820152a2600190565b505060008051602061241c833981519152604051806121df8160609060208152601460208201527315d15512081d1c985b9cd9995c8819985a5b195960621b60408201520190565b0390a2600090565b612200915060203d602011610f1257610f04818361180d565b38612140565b5050505060008051602061241c833981519152606060405160208152601b60208201527f496e73756666696369656e74205745544820616c6c6f77616e636500000000006040820152a2600090565b9150506020813d602011612282575b816122716020938361180d565b8101031261026157849051386120f1565b3d9150612264565b5050505060008051602061241c833981519152604051806121df81606090602081526019602082015278496e73756666696369656e7420574554482062616c616e636560381b60408201520190565b9150506020813d602011612306575b816122f56020938361180d565b8101031261026157849051386120b0565b3d91506122e8565b50505060008051602061241c833981519152606060405160208152601060208201526f139bc815d1551208185c1c1c9bdd985b60821b6040820152a2600090565b61236e945090600492939160ff191690550160ff198154169055611eec565b7faeab0094d0f4ba2e37ab9c32d5eae0cbc49edafca1f7366f8ee1b6946c6dacfe6020604051428152a2600090565b505050505050600090565b506123b283611cdc565b15612038565b5085600052600760205260ff60406000205416612031565b6000546001600160a01b031633036123e457565b63118cdaa760e01b6000523360045260246000fd5b60026001541461240a576002600155565b633ee5aeb560e01b60005260046000fdfe87951482dc5c1eb7f32ab93cd897d85fccfa58819bd33c0aecda71c42cd8898aa2646970667358221220da295d44a74ca6ff83f51034117fa872fd77e24d8c78bf4472157b02c27000b564736f6c634300081c0033",
  "linkReferences": {},
  "deployedLinkReferences": {}
}